{"src/contracts/DappPayroll.sol":{"DappPayroll":{"abi":[{"anonymous":false,"inputs":[{"indexed":true,"internalType":"address","name":"previousOwner","type":"address"},{"indexed":true,"internalType":"address","name":"newOwner","type":"address"}],"name":"OwnershipTransferred","type":"event"},{"inputs":[{"internalType":"uint256","name":"id","type":"uint256"}],"name":"approvePayroll","outputs":[],"stateMutability":"nonpayable","type":"function"},{"inputs":[{"internalType":"string","name":"name","type":"string"},{"internalType":"string","name":"description","type":"string"}],"name":"createOrg","outputs":[],"stateMutability":"nonpayable","type":"function"},{"inputs":[{"internalType":"uint256","name":"oid","type":"uint256"},{"internalType":"uint256","name":"salary","type":"uint256"},{"internalType":"uint256","name":"cut","type":"uint256"},{"internalType":"string","name":"name","type":"string"},{"internalType":"string","name":"description","type":"string"}],"name":"createPayroll","outputs":[],"stateMutability":"nonpayable","type":"function"},{"inputs":[{"internalType":"uint256","name":"pid","type":"uint256"},{"internalType":"string[]","name":"names","type":"string[]"},{"internalType":"address[]","name":"accounts","type":"address[]"}],"name":"createWorker","outputs":[],"stateMutability":"nonpayable","type":"function"},{"inputs":[{"internalType":"uint256","name":"id","type":"uint256"}],"name":"deletePayroll","outputs":[],"stateMutability":"nonpayable","type":"function"},{"inputs":[{"internalType":"uint256","name":"wid","type":"uint256"},{"internalType":"uint256","name":"pid","type":"uint256"}],"name":"deleteWorker","outputs":[],"stateMutability":"nonpayable","type":"function"},{"inputs":[{"internalType":"uint256","name":"oid","type":"uint256"}],"name":"fundOrg","outputs":[],"stateMutability":"payable","type":"function"},{"inputs":[],"name":"getAllWorkers","outputs":[{"components":[{"internalType":"uint256","name":"id","type":"uint256"},{"internalType":"uint256","name":"wid","type":"uint256"},{"internalType":"string","name":"name","type":"string"},{"internalType":"address","name":"account","type":"address"},{"internalType":"uint256","name":"timestamp","type":"uint256"}],"internalType":"struct DappPayroll.WorkerStruct[]","name":"Workers","type":"tuple[]"}],"stateMutability":"view","type":"function"},{"inputs":[],"name":"getMyActivePayrolls","outputs":[{"components":[{"internalType":"uint256","name":"id","type":"uint256"},{"internalType":"uint256","name":"oid","type":"uint256"},{"internalType":"string","name":"name","type":"string"},{"internalType":"string","name":"description","type":"string"},{"internalType":"address","name":"officer","type":"address"},{"internalType":"address","name":"organization","type":"address"},{"internalType":"uint256","name":"salary","type":"uint256"},{"internalType":"uint256","name":"workers","type":"uint256"},{"internalType":"uint256","name":"cut","type":"uint256"},{"internalType":"enum DappPayroll.Status","name":"status","type":"uint8"},{"internalType":"uint256","name":"timestamp","type":"uint256"}],"internalType":"struct DappPayroll.PayrollStruct[]","name":"Payrolls","type":"tuple[]"}],"stateMutability":"view","type":"function"},{"inputs":[],"name":"getMyOrgs","outputs":[{"components":[{"internalType":"uint256","name":"id","type":"uint256"},{"internalType":"string","name":"name","type":"string"},{"internalType":"string","name":"description","type":"string"},{"internalType":"address","name":"account","type":"address"},{"internalType":"uint256","name":"payrolls","type":"uint256"},{"internalType":"uint256","name":"workers","type":"uint256"},{"internalType":"uint256","name":"payments","type":"uint256"},{"internalType":"uint256","name":"balance","type":"uint256"},{"internalType":"uint256","name":"cuts","type":"uint256"},{"internalType":"uint256","name":"timestamp","type":"uint256"}],"internalType":"struct DappPayroll.OrganizationStruct[]","name":"","type":"tuple[]"}],"stateMutability":"view","type":"function"},{"inputs":[{"internalType":"uint256","name":"oid","type":"uint256"}],"name":"getMyPayrollsByOrg","outputs":[{"components":[{"internalType":"uint256","name":"id","type":"uint256"},{"internalType":"uint256","name":"oid","type":"uint256"},{"internalType":"string","name":"name","type":"string"},{"internalType":"string","name":"description","type":"string"},{"internalType":"address","name":"officer","type":"address"},{"internalType":"address","name":"organization","type":"address"},{"internalType":"uint256","name":"salary","type":"uint256"},{"internalType":"uint256","name":"workers","type":"uint256"},{"internalType":"uint256","name":"cut","type":"uint256"},{"internalType":"enum DappPayroll.Status","name":"status","type":"uint8"},{"internalType":"uint256","name":"timestamp","type":"uint256"}],"internalType":"struct DappPayroll.PayrollStruct[]","name":"Payrolls","type":"tuple[]"}],"stateMutability":"view","type":"function"},{"inputs":[],"name":"getMyStats","outputs":[{"components":[{"internalType":"uint256","name":"id","type":"uint256"},{"internalType":"string","name":"name","type":"string"},{"internalType":"string","name":"description","type":"string"},{"internalType":"address","name":"account","type":"address"},{"internalType":"uint256","name":"payrolls","type":"uint256"},{"internalType":"uint256","name":"workers","type":"uint256"},{"internalType":"uint256","name":"payments","type":"uint256"},{"internalType":"uint256","name":"balance","type":"uint256"},{"internalType":"uint256","name":"cuts","type":"uint256"},{"internalType":"uint256","name":"timestamp","type":"uint256"}],"internalType":"struct DappPayroll.OrganizationStruct","name":"Organization","type":"tuple"}],"stateMutability":"view","type":"function"},{"inputs":[{"internalType":"uint256","name":"id","type":"uint256"}],"name":"getOrgById","outputs":[{"components":[{"internalType":"uint256","name":"id","type":"uint256"},{"internalType":"string","name":"name","type":"string"},{"internalType":"string","name":"description","type":"string"},{"internalType":"address","name":"account","type":"address"},{"internalType":"uint256","name":"payrolls","type":"uint256"},{"internalType":"uint256","name":"workers","type":"uint256"},{"internalType":"uint256","name":"payments","type":"uint256"},{"internalType":"uint256","name":"balance","type":"uint256"},{"internalType":"uint256","name":"cuts","type":"uint256"},{"internalType":"uint256","name":"timestamp","type":"uint256"}],"internalType":"struct DappPayroll.OrganizationStruct","name":"Organization","type":"tuple"}],"stateMutability":"view","type":"function"},{"inputs":[],"name":"getOrgs","outputs":[{"components":[{"internalType":"uint256","name":"id","type":"uint256"},{"internalType":"string","name":"name","type":"string"},{"internalType":"string","name":"description","type":"string"},{"internalType":"address","name":"account","type":"address"},{"internalType":"uint256","name":"payrolls","type":"uint256"},{"internalType":"uint256","name":"workers","type":"uint256"},{"internalType":"uint256","name":"payments","type":"uint256"},{"internalType":"uint256","name":"balance","type":"uint256"},{"internalType":"uint256","name":"cuts","type":"uint256"},{"internalType":"uint256","name":"timestamp","type":"uint256"}],"internalType":"struct DappPayroll.OrganizationStruct[]","name":"Organization","type":"tuple[]"}],"stateMutability":"view","type":"function"},{"inputs":[{"internalType":"uint256","name":"pid","type":"uint256"},{"internalType":"uint256","name":"wid","type":"uint256"}],"name":"getPayrollWorker","outputs":[{"components":[{"internalType":"uint256","name":"id","type":"uint256"},{"internalType":"uint256","name":"wid","type":"uint256"},{"internalType":"string","name":"name","type":"string"},{"internalType":"address","name":"account","type":"address"},{"internalType":"uint256","name":"timestamp","type":"uint256"}],"internalType":"struct DappPayroll.WorkerStruct","name":"Worker","type":"tuple"}],"stateMutability":"view","type":"function"},{"inputs":[{"internalType":"uint256","name":"pid","type":"uint256"}],"name":"getPayrollWorkers","outputs":[{"components":[{"internalType":"uint256","name":"id","type":"uint256"},{"internalType":"uint256","name":"wid","type":"uint256"},{"internalType":"string","name":"name","type":"string"},{"internalType":"address","name":"account","type":"address"},{"internalType":"uint256","name":"timestamp","type":"uint256"}],"internalType":"struct DappPayroll.WorkerStruct[]","name":"Workers","type":"tuple[]"}],"stateMutability":"view","type":"function"},{"inputs":[],"name":"getPayrolls","outputs":[{"components":[{"internalType":"uint256","name":"id","type":"uint256"},{"internalType":"uint256","name":"oid","type":"uint256"},{"internalType":"string","name":"name","type":"string"},{"internalType":"string","name":"description","type":"string"},{"internalType":"address","name":"officer","type":"address"},{"internalType":"address","name":"organization","type":"address"},{"internalType":"uint256","name":"salary","type":"uint256"},{"internalType":"uint256","name":"workers","type":"uint256"},{"internalType":"uint256","name":"cut","type":"uint256"},{"internalType":"enum DappPayroll.Status","name":"status","type":"uint8"},{"internalType":"uint256","name":"timestamp","type":"uint256"}],"internalType":"struct DappPayroll.PayrollStruct[]","name":"Payrolls","type":"tuple[]"}],"stateMutability":"view","type":"function"},{"inputs":[{"internalType":"uint256","name":"id","type":"uint256"}],"name":"openPayroll","outputs":[],"stateMutability":"nonpayable","type":"function"},{"inputs":[],"name":"owner","outputs":[{"internalType":"address","name":"","type":"address"}],"stateMutability":"view","type":"function"},{"inputs":[{"internalType":"uint256","name":"pid","type":"uint256"}],"name":"payWorkers","outputs":[],"stateMutability":"nonpayable","type":"function"},{"inputs":[{"internalType":"uint256","name":"id","type":"uint256"}],"name":"rejectPayroll","outputs":[],"stateMutability":"nonpayable","type":"function"},{"inputs":[],"name":"renounceOwnership","outputs":[],"stateMutability":"nonpayable","type":"function"},{"inputs":[{"internalType":"uint256","name":"id","type":"uint256"}],"name":"submitPayroll","outputs":[],"stateMutability":"nonpayable","type":"function"},{"inputs":[{"internalType":"address","name":"newOwner","type":"address"}],"name":"transferOwnership","outputs":[],"stateMutability":"nonpayable","type":"function"},{"inputs":[{"internalType":"uint256","name":"id","type":"uint256"},{"internalType":"string","name":"name","type":"string"},{"internalType":"string","name":"description","type":"string"}],"name":"updateOrg","outputs":[],"stateMutability":"nonpayable","type":"function"},{"inputs":[{"internalType":"uint256","name":"id","type":"uint256"},{"internalType":"uint256","name":"oid","type":"uint256"},{"internalType":"uint256","name":"salary","type":"uint256"},{"internalType":"uint256","name":"cut","type":"uint256"},{"internalType":"string","name":"name","type":"string"},{"internalType":"string","name":"description","type":"string"}],"name":"updatePayroll","outputs":[],"stateMutability":"nonpayable","type":"function"},{"inputs":[{"internalType":"uint256","name":"wid","type":"uint256"},{"internalType":"uint256","name":"pid","type":"uint256"},{"internalType":"string","name":"name","type":"string"},{"internalType":"address","name":"account","type":"address"}],"name":"updateWorker","outputs":[],"stateMutability":"nonpayable","type":"function"}],"evm":{"bytecode":{"linkReferences":{},"object":"60806040523480156200001157600080fd5b506200001d3362000027565b6001805562000077565b600080546001600160a01b038381166001600160a01b0319831681178455604051919092169283917f8be0079c531659141344cd1fd0a4f28419497f9722a3daafe3b4186f6b6457e09190a35050565b6141a580620000876000396000f3fe60806040526004361061019c5760003560e01c8063815cd8f4116100ec578063d600c8a71161008a578063dd983f2211610064578063dd983f2214610486578063e8fb1652146104a6578063ede76775146104c6578063f2fde38b146104db57600080fd5b8063d600c8a71461042f578063d90abb451461044f578063dc0c9bb11461047157600080fd5b806391d40d9e116100c657806391d40d9e146103c55780639a0a3d5b146103e5578063c2b5aaa2146103fa578063c9c0f25e1461041a57600080fd5b8063815cd8f4146103505780638da5cb5b1461037d5780638fb9ac60146103a557600080fd5b80633dc5da5c1161015957806360f71a811161013357806360f71a81146102d95780636403e246146102f9578063715018a6146103195780637a52723e1461032e57600080fd5b80633dc5da5c146102795780633e653f8d146102995780634439a88a146102c657600080fd5b80631229c5d4146101a157806315df792e146101c35780632155015f146101e35780632a3a7649146102035780632ebd12c9146102235780632f20aae714610259575b600080fd5b3480156101ad57600080fd5b506101c16101bc366004613627565b6104fb565b005b3480156101cf57600080fd5b506101c16101de3660046136f5565b6105d4565b3480156101ef57600080fd5b506101c16101fe366004613627565b6107d9565b34801561020f57600080fd5b506101c161021e36600461377d565b6108c4565b34801561022f57600080fd5b5061024361023e366004613627565b6109d8565b604051610250919061383d565b60405180910390f35b34801561026557600080fd5b506101c161027436600461389f565b610b8b565b34801561028557600080fd5b506101c16102943660046139d0565b610dd0565b3480156102a557600080fd5b506102b96102b4366004613627565b611179565b6040516102509190613ae6565b6101c16102d4366004613627565b6115d8565b3480156102e557600080fd5b506101c16102f4366004613627565b611648565b34801561030557600080fd5b506101c1610314366004613627565b611711565b34801561032557600080fd5b506101c16117fd565b34801561033a57600080fd5b50610343611811565b6040516102509190613c94565b34801561035c57600080fd5b5061037061036b36600461377d565b6119aa565b6040516102509190613cae565b34801561038957600080fd5b506000546040516001600160a01b039091168152602001610250565b3480156103b157600080fd5b506101c16103c0366004613cc1565b611aac565b3480156103d157600080fd5b506101c16103e0366004613d24565b611be3565b3480156103f157600080fd5b506102b9611cfb565b34801561040657600080fd5b506101c1610415366004613627565b612102565b34801561042657600080fd5b506102436123c7565b34801561043b57600080fd5b5061034361044a366004613627565b612550565b34801561045b57600080fd5b506104646126fb565b6040516102509190613d86565b34801561047d57600080fd5b506102b96129e1565b34801561049257600080fd5b506101c16104a1366004613ddb565b612d0a565b3480156104b257600080fd5b506101c16104c1366004613627565b612f04565b3480156104d257600080fd5b50610464612fd0565b3480156104e757600080fd5b506101c16104f6366004613e3b565b613214565b60008181526006602052604090205461052f5760405162461bcd60e51b815260040161052690613e56565b60405180910390fd5b6000818152600660205260409020600501546001600160a01b031633146105685760405162461bcd60e51b815260040161052690613e82565b600160008281526006602052604090206009015460ff16600581111561059057610590613aae565b146105ad5760405162461bcd60e51b815260040161052690613eb0565b600081815260066020526040902060090180546004919060ff19166001835b021790555050565b6000868152600660205260409020546105ff5760405162461bcd60e51b815260040161052690613e56565b6000868152600660205260409020600401546001600160a01b031633146106385760405162461bcd60e51b815260040161052690613e82565b6000858152600560205260409020546106635760405162461bcd60e51b815260040161052690613ede565b60008681526006602052604081206009015460ff16600581111561068957610689613aae565b146106a65760405162461bcd60e51b815260040161052690613f15565b600084116106c65760405162461bcd60e51b815260040161052690613f45565b6000831180156106d7575060648311155b6106f35760405162461bcd60e51b815260040161052690613f86565b60008251116107145760405162461bcd60e51b815260040161052690613fce565b60008151116107355760405162461bcd60e51b815260040161052690613ffd565b6000868152600660209081526040909120835161075a92600290920191850190613447565b506000868152600660209081526040909120825161078092600390920191840190613447565b5050506000848152600660208181526040808420808401969096556008860194909455948252600580865292822060030154959091529092520180546001600160a01b0319166001600160a01b03909216919091179055565b6000818152600660205260409020546108045760405162461bcd60e51b815260040161052690613e56565b6000818152600660205260409020600401546001600160a01b0316331461083d5760405162461bcd60e51b815260040161052690613e82565b60008181526006602052604081206009015460ff16600581111561086357610863613aae565b146108805760405162461bcd60e51b815260040161052690613f15565b600081815260066020908152604080832060098101805460ff19166002179055600101548352600590915281206004018054916108bc8361404a565b919050555050565b600081815260096020908152604080832085845290915290205461091e5760405162461bcd60e51b8152602060048201526011602482015270576f726b6572206e6f7420666f756e642160781b6044820152606401610526565b6000818152600660205260409020600401546001600160a01b031633146109575760405162461bcd60e51b815260040161052690613e82565b60008181526009602090815260408083208584529091528120818155600181018290559061098860028301826134c7565b506003810180546001600160a01b0319169055600060049091018190558181526006602090815260408083206001015483526005918290528220018054916109cf8361404a565b91905055505050565b6000818152600660205260409020600701546060906001600160401b03811115610a0457610a04613640565b604051908082528060200260200182016040528015610a3d57816020015b610a2a613501565b815260200190600190039081610a225790505b50905060005b600083815260066020526040902060070154811015610b8557600083815260096020526040812090610a76836001614061565b81526020019081526020016000206040518060a00160405290816000820154815260200160018201548152602001600282018054610ab390614079565b80601f0160208091040260200160405190810160405280929190818152602001828054610adf90614079565b8015610b2c5780601f10610b0157610100808354040283529160200191610b2c565b820191906000526020600020905b815481529060010190602001808311610b0f57829003601f168201915b505050918352505060038201546001600160a01b031660208201526004909101546040909101528251839083908110610b6757610b676140ae565b60200260200101819052508080610b7d906140c4565b915050610a43565b50919050565b600085815260056020526040902054610bb65760405162461bcd60e51b815260040161052690613ede565b60008411610bd65760405162461bcd60e51b815260040161052690613f45565b600083118015610be7575060648311155b610c035760405162461bcd60e51b815260040161052690613f86565b6000825111610c245760405162461bcd60e51b815260040161052690613fce565b6000815111610c455760405162461bcd60e51b815260040161052690613ffd565b610c53600280546001019055565b610c5b613539565b600254815233608082015260408082018490526060820183905260c08201869052610100820185905260208083018890526000888152600590915220600301546001600160a01b031660a0820152610cb161328a565b610140820152805160009081526006602090815260409182902083518155818401516001820155918301518051849392610cf2926002850192910190613447565b5060608201518051610d0e916003840191602090910190613447565b5060808201516004820180546001600160a01b03199081166001600160a01b039384161790915560a0840151600580850180549093169190931617905560c0830151600683015560e0830151600783015561010083015160088301556101208301516009830180549192909160ff1916906001908490811115610d9357610d93613aae565b02179055506101409190910151600a909101556000868152600560205260408120600401805491610dc3836140c4565b9190505550505050505050565b600083815260066020526040902054610dfb5760405162461bcd60e51b815260040161052690613e56565b6000838152600660205260409020600401546001600160a01b0316331480610e3c57506000838152600660205260409020600501546001600160a01b031633145b610e585760405162461bcd60e51b815260040161052690613e82565b6000825111610ea95760405162461bcd60e51b815260206004820152601c60248201527f4e616d65732061727261792063616e6e6f7420626520656d70747921000000006044820152606401610526565b6000815111610efa5760405162461bcd60e51b815260206004820152601f60248201527f4163636f756e74732061727261792063616e6e6f7420626520656d70747921006044820152606401610526565b60005b815181101561117357610f14600480546001019055565b610f1c613501565b6004548152600085815260066020526040902060070154610f3e906001614061565b60208201528351849083908110610f5757610f576140ae565b60200260200101518160400181905250828281518110610f7957610f796140ae565b60209081029190910101516001600160a01b03166060820152610f9a61328a565b60808201526000858152600960209081526040808320828501805185529083529281902084518155925160018401558301518051849392610fe2926002850192910190613447565b5060608201516003820180546001600160a01b0319166001600160a01b039092169190911790556080909101516004909101556000858152600660205260408120600701805491611032836140c4565b90915550506000858152600660209081526040808320600101548352600591829052822001805491611063836140c4565b91905055506008600084848151811061107e5761107e6140ae565b6020908102919091018101516001600160a01b031682528101919091526040016000205460ff16611160576001600860008585815181106110c1576110c16140ae565b6020908102919091018101516001600160a01b031682528181019290925260409081016000908120805460ff1916941515949094179093558351835260078252918290208351815583820151600182015591830151805184939261112c926002850192910190613447565b5060608201516003820180546001600160a01b0319166001600160a01b039092169190911790556080909101516004909101555b508061116b816140c4565b915050610efd565b50505050565b60606000805b60025481101561127e5760026006600061119a846001614061565b815260208101919091526040016000206009015460ff1660058111156111c2576111c2613aae565b141580156111ef575083600660006111db846001614061565b815260200190815260200160002060010154145b801561125957503360066000611206846001614061565b81526020810191909152604001600020600401546001600160a01b031614806112595750336006600061123a846001614061565b81526020810191909152604001600020600501546001600160a01b0316145b1561126c5781611268816140c4565b9250505b80611276816140c4565b91505061117f565b50806001600160401b0381111561129757611297613640565b6040519080825280602002602001820160405280156112d057816020015b6112bd613539565b8152602001906001900390816112b55790505b5091506000805b6002548110156115d0576002600660006112f2846001614061565b815260208101919091526040016000206009015460ff16600581111561131a5761131a613aae565b1415801561134757508460066000611333846001614061565b815260200190815260200160002060010154145b80156113b15750336006600061135e846001614061565b81526020810191909152604001600020600401546001600160a01b031614806113b157503360066000611392846001614061565b81526020810191909152604001600020600501546001600160a01b0316145b156115be57600660006113c5836001614061565b815260200190815260200160002060405180610160016040529081600082015481526020016001820154815260200160028201805461140390614079565b80601f016020809104026020016040519081016040528092919081815260200182805461142f90614079565b801561147c5780601f106114515761010080835404028352916020019161147c565b820191906000526020600020905b81548152906001019060200180831161145f57829003601f168201915b5050505050815260200160038201805461149590614079565b80601f01602080910402602001604051908101604052809291908181526020018280546114c190614079565b801561150e5780601f106114e35761010080835404028352916020019161150e565b820191906000526020600020905b8154815290600101906020018083116114f157829003601f168201915b505050918352505060048201546001600160a01b03908116602083015260058084015490911660408301526006830154606083015260078301546080830152600883015460a0830152600983015460c09092019160ff169081111561157557611575613aae565b600581111561158657611586613aae565b8152602001600a820154815250508483806115a0906140c4565b9450815181106115b2576115b26140ae565b60200260200101819052505b806115c8816140c4565b9150506112d7565b505050919050565b6000341161161f5760405162461bcd60e51b8152602060048201526014602482015273496e73756666696369656e7420616d6f756e742160601b6044820152606401610526565b60008181526005602052604081206007018054349290611640908490614061565b909155505050565b6000818152600660205260409020546116735760405162461bcd60e51b815260040161052690613e56565b6000818152600660205260409020600401546001600160a01b031633146116ac5760405162461bcd60e51b815260040161052690613e82565b60008181526006602052604081206009015460ff1660058111156116d2576116d2613aae565b146116ef5760405162461bcd60e51b815260040161052690613f15565b600081815260066020526040902060090180546001919060ff191682806105cc565b60008181526006602052604090205461173c5760405162461bcd60e51b815260040161052690613e56565b6000818152600660205260409020600401546001600160a01b031633148061177d57506000818152600660205260409020600501546001600160a01b031633145b6117995760405162461bcd60e51b815260040161052690613e82565b600160008281526006602052604090206009015460ff1660058111156117c1576117c1613aae565b146117de5760405162461bcd60e51b815260040161052690613eb0565b6000818152600660205260408120600901805460ff19166001836105cc565b6118056132a9565b61180f6000613303565b565b6118196135b6565b60005b6003548110156119a6573360056000611836846001614061565b81526020810191909152604001600020600301546001600160a01b0316141561199457815182611865826140c4565b8152505060405180604001604052806011815260200170596f757220476c6f62616c20537461747360781b8152508260200181905250604051806060016040528060388152602001614138603891396040830152336060830152600560006118ce836001614061565b8152602001908152602001600020600601548260c0018181516118f19190614061565b90525060056000611903836001614061565b815260200190815260200160002060040154826080018181516119269190614061565b90525060056000611938836001614061565b8152602001908152602001600020600501548260a00181815161195b9190614061565b9052506005600061196d836001614061565b8152602001908152602001600020600701548260e0018181516119909190614061565b9052505b8061199e816140c4565b91505061181c565b5090565b6119b2613501565b6009600084815260200190815260200160002060008381526020019081526020016000206040518060a00160405290816000820154815260200160018201548152602001600282018054611a0590614079565b80601f0160208091040260200160405190810160405280929190818152602001828054611a3190614079565b8015611a7e5780601f10611a5357610100808354040283529160200191611a7e565b820191906000526020600020905b815481529060010190602001808311611a6157829003601f168201915b505050918352505060038201546001600160a01b031660208201526004909101546040909101529392505050565b6000825111611acd5760405162461bcd60e51b815260040161052690613fce565b6000815111611aee5760405162461bcd60e51b815260040161052690613ffd565b611afc600380546001019055565b611b046135b6565b60035481526020810183905260408101829052336060820152611b2561328a565b61012082015280516000908152600560209081526040909120825181558183015180518493611b5b926001850192910190613447565b5060408201518051611b77916002840191602090910190613447565b5060608201516003820180546001600160a01b0319166001600160a01b039092169190911790556080820151600482015560a0820151600582015560c0820151600682015560e08201516007820155610100820151600882015561012090910151600990910155505050565b600083815260056020526040902054611c0e5760405162461bcd60e51b815260040161052690613ede565b6000838152600560205260409020600301546001600160a01b03163314611c6e5760405162461bcd60e51b8152602060048201526014602482015273556e6f7574686f72697a656420656e746974792160601b6044820152606401610526565b6000825111611c8f5760405162461bcd60e51b815260040161052690613fce565b6000815111611cb05760405162461bcd60e51b815260040161052690613ffd565b60008381526005602090815260409091208351611cd592600190920191850190613447565b506000838152600560209081526040909120825161117392600290920191840190613447565b60606000805b600254811015611dd557600260066000611d1c846001614061565b815260208101919091526040016000206009015460ff166005811115611d4457611d44613aae565b14158015611db057503360066000611d5d846001614061565b81526020810191909152604001600020600401546001600160a01b03161480611db057503360066000611d91846001614061565b81526020810191909152604001600020600501546001600160a01b0316145b15611dc35781611dbf816140c4565b9250505b80611dcd816140c4565b915050611d01565b50806001600160401b03811115611dee57611dee613640565b604051908082528060200260200182016040528015611e2757816020015b611e14613539565b815260200190600190039081611e0c5790505b5091506000805b6002548110156120fc57600260066000611e49846001614061565b815260208101919091526040016000206009015460ff166005811115611e7157611e71613aae565b14158015611edd57503360066000611e8a846001614061565b81526020810191909152604001600020600401546001600160a01b03161480611edd57503360066000611ebe846001614061565b81526020810191909152604001600020600501546001600160a01b0316145b156120ea5760066000611ef1836001614061565b8152602001908152602001600020604051806101600160405290816000820154815260200160018201548152602001600282018054611f2f90614079565b80601f0160208091040260200160405190810160405280929190818152602001828054611f5b90614079565b8015611fa85780601f10611f7d57610100808354040283529160200191611fa8565b820191906000526020600020905b815481529060010190602001808311611f8b57829003601f168201915b50505050508152602001600382018054611fc190614079565b80601f0160208091040260200160405190810160405280929190818152602001828054611fed90614079565b801561203a5780601f1061200f5761010080835404028352916020019161203a565b820191906000526020600020905b81548152906001019060200180831161201d57829003601f168201915b505050918352505060048201546001600160a01b03908116602083015260058084015490911660408301526006830154606083015260078301546080830152600883015460a0830152600983015460c09092019160ff16908111156120a1576120a1613aae565b60058111156120b2576120b2613aae565b8152602001600a820154815250508483806120cc906140c4565b9450815181106120de576120de6140ae565b60200260200101819052505b806120f4816140c4565b915050611e2e565b50505090565b61210a613353565b6000818152600660205260409020546121355760405162461bcd60e51b815260040161052690613e56565b6000818152600660205260409020600401546001600160a01b0316331461216e5760405162461bcd60e51b815260040161052690613e82565b600360008281526006602052604090206009015460ff16600581111561219657612196613aae565b146121db5760405162461bcd60e51b8152602060048201526015602482015274506179726f6c6c206e6f7420417070726f7665642160581b6044820152606401610526565b60008181526006602081905260409091209081015460079091015461220091906140df565b6000828152600660209081526040808320600101548352600590915290206007015410156122645760405162461bcd60e51b8152602060048201526011602482015270125b9cdd59999a58da595b9d08199d5b99607a1b6044820152606401610526565b6000818152600660208190526040822060078101549101549091606461228a83806140df565b61229491906140fe565b905060015b8381116122ec5760008581526009602090815260408083208484529091529020600301546001600160a01b03166122d9816122d48587614120565b6133ad565b50806122e4816140c4565b915050612299565b506122f783836140df565b6000858152600660209081526040808320600101548352600590915281206007018054909190612328908490614120565b90915550612338905083826140df565b6000858152600660209081526040808320600101548352600590915281206008018054909190612369908490614061565b909155505060008481526006602081815260408084206001015484526005909152822001805491612399836140c4565b9091555050506000838152600660205260409020600901805460ff1916600517905550506001805550565b50565b60606123d260045490565b6001600160401b038111156123e9576123e9613640565b60405190808252806020026020018201604052801561242257816020015b61240f613501565b8152602001906001900390816124075790505b50905060005b6004548110156119a65760076000612441836001614061565b81526020019081526020016000206040518060a0016040529081600082015481526020016001820154815260200160028201805461247e90614079565b80601f01602080910402602001604051908101604052809291908181526020018280546124aa90614079565b80156124f75780601f106124cc576101008083540402835291602001916124f7565b820191906000526020600020905b8154815290600101906020018083116124da57829003601f168201915b505050918352505060038201546001600160a01b031660208201526004909101546040909101528251839083908110612532576125326140ae565b60200260200101819052508080612548906140c4565b915050612428565b6125586135b6565b60056000838152602001908152602001600020604051806101400160405290816000820154815260200160018201805461259190614079565b80601f01602080910402602001604051908101604052809291908181526020018280546125bd90614079565b801561260a5780601f106125df5761010080835404028352916020019161260a565b820191906000526020600020905b8154815290600101906020018083116125ed57829003601f168201915b5050505050815260200160028201805461262390614079565b80601f016020809104026020016040519081016040528092919081815260200182805461264f90614079565b801561269c5780601f106126715761010080835404028352916020019161269c565b820191906000526020600020905b81548152906001019060200180831161267f57829003601f168201915b505050918352505060038201546001600160a01b03166020820152600482015460408201526005820154606082015260068201546080820152600782015460a0820152600882015460c082015260099091015460e09091015292915050565b60606000805b60035481101561275e57336005600061271b846001614061565b81526020810191909152604001600020600301546001600160a01b0316141561274c5781612748816140c4565b9250505b80612756816140c4565b915050612701565b506000816001600160401b0381111561277957612779613640565b6040519080825280602002602001820160405280156127b257816020015b61279f6135b6565b8152602001906001900390816127975790505b5090506000805b6003548110156129d85733600560006127d3846001614061565b81526020810191909152604001600020600301546001600160a01b031614156129c65760056000612805836001614061565b8152602001908152602001600020604051806101400160405290816000820154815260200160018201805461283990614079565b80601f016020809104026020016040519081016040528092919081815260200182805461286590614079565b80156128b25780601f10612887576101008083540402835291602001916128b2565b820191906000526020600020905b81548152906001019060200180831161289557829003601f168201915b505050505081526020016002820180546128cb90614079565b80601f01602080910402602001604051908101604052809291908181526020018280546128f790614079565b80156129445780601f1061291957610100808354040283529160200191612944565b820191906000526020600020905b81548152906001019060200180831161292757829003601f168201915b505050918352505060038201546001600160a01b03166020820152600482015460408201526005820154606082015260068201546080820152600782015460a0820152600882015460c082015260099091015460e09091015283836129a8816140c4565b9450815181106129ba576129ba6140ae565b60200260200101819052505b806129d0816140c4565b9150506127b9565b50909392505050565b60606000805b600254811015612a4f57600260066000612a02846001614061565b815260208101919091526040016000206009015460ff166005811115612a2a57612a2a613aae565b14612a3d5781612a39816140c4565b9250505b80612a47816140c4565b9150506129e7565b50806001600160401b03811115612a6857612a68613640565b604051908082528060200260200182016040528015612aa157816020015b612a8e613539565b815260200190600190039081612a865790505b5091506000805b6002548110156120fc57600260066000612ac3846001614061565b815260208101919091526040016000206009015460ff166005811115612aeb57612aeb613aae565b14612cf85760066000612aff836001614061565b8152602001908152602001600020604051806101600160405290816000820154815260200160018201548152602001600282018054612b3d90614079565b80601f0160208091040260200160405190810160405280929190818152602001828054612b6990614079565b8015612bb65780601f10612b8b57610100808354040283529160200191612bb6565b820191906000526020600020905b815481529060010190602001808311612b9957829003601f168201915b50505050508152602001600382018054612bcf90614079565b80601f0160208091040260200160405190810160405280929190818152602001828054612bfb90614079565b8015612c485780601f10612c1d57610100808354040283529160200191612c48565b820191906000526020600020905b815481529060010190602001808311612c2b57829003601f168201915b505050918352505060048201546001600160a01b03908116602083015260058084015490911660408301526006830154606083015260078301546080830152600883015460a0830152600983015460c09092019160ff1690811115612caf57612caf613aae565b6005811115612cc057612cc0613aae565b8152602001600a82015481525050848380612cda906140c4565b945081518110612cec57612cec6140ae565b60200260200101819052505b80612d02816140c4565b915050612aa8565b6000838152600960209081526040808320878452909152902054612d645760405162461bcd60e51b8152602060048201526011602482015270576f726b6572206e6f7420666f756e642160781b6044820152606401610526565b6000838152600660205260409020600401546001600160a01b0316331480612da557506000838152600660205260409020600501546001600160a01b031633145b612dc15760405162461bcd60e51b815260040161052690613e82565b6000825111612de25760405162461bcd60e51b815260040161052690613fce565b6001600160a01b038116612e385760405162461bcd60e51b815260206004820152601860248201527f4163636f756e742063616e6e6f7420626520656d7074792100000000000000006044820152606401610526565b600083815260096020908152604080832087845282529091208351612e6592600290920191850190613447565b50600083815260096020908152604080832087845282528083206003810180546001600160a01b0319166001600160a01b038716179055548352600782529091208351612eba92600290920191850190613447565b506000928352600960209081526040808520958552948152848420548452600790529290912060030180546001600160a01b0319166001600160a01b039093169290921790915550565b600081815260066020526040902054612f2f5760405162461bcd60e51b815260040161052690613e56565b6000818152600660205260409020600501546001600160a01b03163314612f685760405162461bcd60e51b815260040161052690613e82565b600160008281526006602052604090206009015460ff166005811115612f9057612f90613aae565b14612fad5760405162461bcd60e51b815260040161052690613eb0565b600081815260066020526040902060090180546003919060ff19166001836105cc565b6060612fdb60035490565b6001600160401b03811115612ff257612ff2613640565b60405190808252806020026020018201604052801561302b57816020015b6130186135b6565b8152602001906001900390816130105790505b50905060005b6003548110156119a6576005600061304a836001614061565b8152602001908152602001600020604051806101400160405290816000820154815260200160018201805461307e90614079565b80601f01602080910402602001604051908101604052809291908181526020018280546130aa90614079565b80156130f75780601f106130cc576101008083540402835291602001916130f7565b820191906000526020600020905b8154815290600101906020018083116130da57829003601f168201915b5050505050815260200160028201805461311090614079565b80601f016020809104026020016040519081016040528092919081815260200182805461313c90614079565b80156131895780601f1061315e57610100808354040283529160200191613189565b820191906000526020600020905b81548152906001019060200180831161316c57829003601f168201915b505050918352505060038201546001600160a01b03166020820152600482015460408201526005820154606082015260068201546080820152600782015460a0820152600882015460c082015260099091015460e09091015282518390839081106131f6576131f66140ae565b6020026020010181905250808061320c906140c4565b915050613031565b61321c6132a9565b6001600160a01b0381166132815760405162461bcd60e51b815260206004820152602660248201527f4f776e61626c653a206e6577206f776e657220697320746865207a65726f206160448201526564647265737360d01b6064820152608401610526565b6123c481613303565b6000613298426103e86140df565b6132a4906103e8614061565b905090565b6000546001600160a01b0316331461180f5760405162461bcd60e51b815260206004820181905260248201527f4f776e61626c653a2063616c6c6572206973206e6f7420746865206f776e65726044820152606401610526565b600080546001600160a01b038381166001600160a01b0319831681178455604051919092169283917f8be0079c531659141344cd1fd0a4f28419497f9722a3daafe3b4186f6b6457e09190a35050565b600260015414156133a65760405162461bcd60e51b815260206004820152601f60248201527f5265656e7472616e637947756172643a207265656e7472616e742063616c6c006044820152606401610526565b6002600155565b6000826001600160a01b03168260405160006040518083038185875af1925050503d80600081146133fa576040519150601f19603f3d011682016040523d82523d6000602084013e6133ff565b606091505b50509050806134425760405162461bcd60e51b815260206004820152600f60248201526e5061796d656e74206661696c65642160881b6044820152606401610526565b505050565b82805461345390614079565b90600052602060002090601f01602090048101928261347557600085556134bb565b82601f1061348e57805160ff19168380011785556134bb565b828001600101855582156134bb579182015b828111156134bb5782518255916020019190600101906134a0565b506119a6929150613612565b5080546134d390614079565b6000825580601f106134e3575050565b601f0160209004906000526020600020908101906123c49190613612565b6040518060a0016040528060008152602001600081526020016060815260200160006001600160a01b03168152602001600081525090565b6040518061016001604052806000815260200160008152602001606081526020016060815260200160006001600160a01b0316815260200160006001600160a01b03168152602001600081526020016000815260200160008152602001600060058111156135a9576135a9613aae565b8152602001600081525090565b60405180610140016040528060008152602001606081526020016060815260200160006001600160a01b031681526020016000815260200160008152602001600081526020016000815260200160008152602001600081525090565b5b808211156119a65760008155600101613613565b60006020828403121561363957600080fd5b5035919050565b634e487b7160e01b600052604160045260246000fd5b604051601f8201601f191681016001600160401b038111828210171561367e5761367e613640565b604052919050565b600082601f83011261369757600080fd5b81356001600160401b038111156136b0576136b0613640565b6136c3601f8201601f1916602001613656565b8181528460208386010111156136d857600080fd5b816020850160208301376000918101602001919091529392505050565b60008060008060008060c0878903121561370e57600080fd5b8635955060208701359450604087013593506060870135925060808701356001600160401b038082111561374157600080fd5b61374d8a838b01613686565b935060a089013591508082111561376357600080fd5b5061377089828a01613686565b9150509295509295509295565b6000806040838503121561379057600080fd5b50508035926020909101359150565b6000815180845260005b818110156137c5576020818501810151868301820152016137a9565b818111156137d7576000602083870101525b50601f01601f19169290920160200192915050565b80518252602081015160208301526000604082015160a0604085015261381560a085018261379f565b6060848101516001600160a01b03169086015260809384015193909401929092525090919050565b6000602080830181845280855180835260408601915060408160051b870101925083870160005b8281101561389257603f198886030184526138808583516137ec565b94509285019290850190600101613864565b5092979650505050505050565b600080600080600060a086880312156138b757600080fd5b85359450602086013593506040860135925060608601356001600160401b03808211156138e357600080fd5b6138ef89838a01613686565b9350608088013591508082111561390557600080fd5b5061391288828901613686565b9150509295509295909350565b60006001600160401b0382111561393857613938613640565b5060051b60200190565b80356001600160a01b038116811461395957600080fd5b919050565b600082601f83011261396f57600080fd5b8135602061398461397f8361391f565b613656565b82815260059290921b840181019181810190868411156139a357600080fd5b8286015b848110156139c5576139b881613942565b83529183019183016139a7565b509695505050505050565b6000806000606084860312156139e557600080fd5b833592506020808501356001600160401b0380821115613a0457600080fd5b818701915087601f830112613a1857600080fd5b8135613a2661397f8261391f565b81815260059190911b8301840190848101908a831115613a4557600080fd5b8585015b83811015613a7d57803585811115613a615760008081fd5b613a6f8d89838a0101613686565b845250918601918601613a49565b50965050506040870135925080831115613a9657600080fd5b5050613aa48682870161395e565b9150509250925092565b634e487b7160e01b600052602160045260246000fd5b60068110613ae257634e487b7160e01b600052602160045260246000fd5b9052565b60006020808301818452808551808352604092508286019150828160051b87010184880160005b83811015613be457603f198984030185528151610160815185528882015189860152878201518189870152613b448287018261379f565b91505060608083015186830382880152613b5e838261379f565b92505050608080830151613b7c828801826001600160a01b03169052565b505060a0828101516001600160a01b03169086015260c0808301519086015260e08083015190860152610100808301519086015261012080830151613bc382880182613ac4565b50506101409182015194909101939093529386019390860190600101613b0d565b509098975050505050505050565b6000610140825184526020830151816020860152613c128286018261379f565b91505060408301518482036040860152613c2c828261379f565b9150506060830151613c4960608601826001600160a01b03169052565b506080830151608085015260a083015160a085015260c083015160c085015260e083015160e08501526101008084015181860152506101208084015181860152508091505092915050565b602081526000613ca76020830184613bf2565b9392505050565b602081526000613ca760208301846137ec565b60008060408385031215613cd457600080fd5b82356001600160401b0380821115613ceb57600080fd5b613cf786838701613686565b93506020850135915080821115613d0d57600080fd5b50613d1a85828601613686565b9150509250929050565b600080600060608486031215613d3957600080fd5b8335925060208401356001600160401b0380821115613d5757600080fd5b613d6387838801613686565b93506040860135915080821115613d7957600080fd5b50613aa486828701613686565b6000602080830181845280855180835260408601915060408160051b870101925083870160005b8281101561389257603f19888603018452613dc9858351613bf2565b94509285019290850190600101613dad565b60008060008060808587031215613df157600080fd5b843593506020850135925060408501356001600160401b03811115613e1557600080fd5b613e2187828801613686565b925050613e3060608601613942565b905092959194509250565b600060208284031215613e4d57600080fd5b613ca782613942565b602080825260129082015271506179726f6c6c206e6f7420666f756e642160701b604082015260600190565b602080825260149082015273556e617574686f72697a656420656e746974792160601b604082015260600190565b602080825260149082015273506179726f6c6c206e6f742050656e64696e672160601b604082015260600190565b60208082526017908201527f4f7267616e697a6174696f6e206e6f7420666f756e6421000000000000000000604082015260600190565b602080825260169082015275506179726f6c6c206e6f7420617661696c61626c652160501b604082015260600190565b60208082526021908201527f53616c617279206d7573742062652067726561746572207468616e207a65726f6040820152602160f81b606082015260800190565b60208082526028908201527f50657263656e7461676520437574206d757374206265206265747765656e202860408201526731202d203130302960c01b606082015260800190565b6020808252601590820152744e616d652063616e6e6f7420626520656d7074792160581b604082015260600190565b6020808252601c908201527f4465736372697074696f6e2063616e6e6f7420626520656d7074792100000000604082015260600190565b634e487b7160e01b600052601160045260246000fd5b60008161405957614059614034565b506000190190565b6000821982111561407457614074614034565b500190565b600181811c9082168061408d57607f821691505b60208210811415610b8557634e487b7160e01b600052602260045260246000fd5b634e487b7160e01b600052603260045260246000fd5b60006000198214156140d8576140d8614034565b5060010190565b60008160001904831182151516156140f9576140f9614034565b500290565b60008261411b57634e487b7160e01b600052601260045260246000fd5b500490565b60008282101561413257614132614034565b50039056fe596f7572207374617469737469637320616363726f737320616c6c206f7267616e697a6174696f6e73206372656174656420627920796f75a2646970667358221220185f247ff61b83274723b2bdfa2878bdea9e14ff8d5113391c21bfb1647e60e964736f6c634300080b0033","opcodes":"PUSH1 0x80 PUSH1 0x40 MSTORE CALLVALUE DUP1 ISZERO PUSH3 0x11 JUMPI PUSH1 0x0 DUP1 REVERT JUMPDEST POP PUSH3 0x1D CALLER PUSH3 0x27 JUMP JUMPDEST PUSH1 0x1 DUP1 SSTORE PUSH3 0x77 JUMP JUMPDEST PUSH1 0x0 DUP1 SLOAD PUSH1 0x1 PUSH1 0x1 PUSH1 0xA0 SHL SUB DUP4 DUP2 AND PUSH1 0x1 PUSH1 0x1 PUSH1 0xA0 SHL SUB NOT DUP4 AND DUP2 OR DUP5 SSTORE PUSH1 0x40 MLOAD SWAP2 SWAP1 SWAP3 AND SWAP3 DUP4 SWAP2 PUSH32 0x8BE0079C531659141344CD1FD0A4F28419497F9722A3DAAFE3B4186F6B6457E0 SWAP2 SWAP1 LOG3 POP POP JUMP JUMPDEST PUSH2 0x41A5 DUP1 PUSH3 0x87 PUSH1 0x0 CODECOPY PUSH1 0x0 RETURN INVALID PUSH1 0x80 PUSH1 0x40 MSTORE PUSH1 0x4 CALLDATASIZE LT PUSH2 0x19C JUMPI PUSH1 0x0 CALLDATALOAD PUSH1 0xE0 SHR DUP1 PUSH4 0x815CD8F4 GT PUSH2 0xEC JUMPI DUP1 PUSH4 0xD600C8A7 GT PUSH2 0x8A JUMPI DUP1 PUSH4 0xDD983F22 GT PUSH2 0x64 JUMPI DUP1 PUSH4 0xDD983F22 EQ PUSH2 0x486 JUMPI DUP1 PUSH4 0xE8FB1652 EQ PUSH2 0x4A6 JUMPI DUP1 PUSH4 0xEDE76775 EQ PUSH2 0x4C6 JUMPI DUP1 PUSH4 0xF2FDE38B EQ PUSH2 0x4DB JUMPI PUSH1 0x0 DUP1 REVERT JUMPDEST DUP1 PUSH4 0xD600C8A7 EQ PUSH2 0x42F JUMPI DUP1 PUSH4 0xD90ABB45 EQ PUSH2 0x44F JUMPI DUP1 PUSH4 0xDC0C9BB1 EQ PUSH2 0x471 JUMPI PUSH1 0x0 DUP1 REVERT JUMPDEST DUP1 PUSH4 0x91D40D9E GT PUSH2 0xC6 JUMPI DUP1 PUSH4 0x91D40D9E EQ PUSH2 0x3C5 JUMPI DUP1 PUSH4 0x9A0A3D5B EQ PUSH2 0x3E5 JUMPI DUP1 PUSH4 0xC2B5AAA2 EQ PUSH2 0x3FA JUMPI DUP1 PUSH4 0xC9C0F25E EQ PUSH2 0x41A JUMPI PUSH1 0x0 DUP1 REVERT JUMPDEST DUP1 PUSH4 0x815CD8F4 EQ PUSH2 0x350 JUMPI DUP1 PUSH4 0x8DA5CB5B EQ PUSH2 0x37D JUMPI DUP1 PUSH4 0x8FB9AC60 EQ PUSH2 0x3A5 JUMPI PUSH1 0x0 DUP1 REVERT JUMPDEST DUP1 PUSH4 0x3DC5DA5C GT PUSH2 0x159 JUMPI DUP1 PUSH4 0x60F71A81 GT PUSH2 0x133 JUMPI DUP1 PUSH4 0x60F71A81 EQ PUSH2 0x2D9 JUMPI DUP1 PUSH4 0x6403E246 EQ PUSH2 0x2F9 JUMPI DUP1 PUSH4 0x715018A6 EQ PUSH2 0x319 JUMPI DUP1 PUSH4 0x7A52723E EQ PUSH2 0x32E JUMPI PUSH1 0x0 DUP1 REVERT JUMPDEST DUP1 PUSH4 0x3DC5DA5C EQ PUSH2 0x279 JUMPI DUP1 PUSH4 0x3E653F8D EQ PUSH2 0x299 JUMPI DUP1 PUSH4 0x4439A88A EQ PUSH2 0x2C6 JUMPI PUSH1 0x0 DUP1 REVERT JUMPDEST DUP1 PUSH4 0x1229C5D4 EQ PUSH2 0x1A1 JUMPI DUP1 PUSH4 0x15DF792E EQ PUSH2 0x1C3 JUMPI DUP1 PUSH4 0x2155015F EQ PUSH2 0x1E3 JUMPI DUP1 PUSH4 0x2A3A7649 EQ PUSH2 0x203 JUMPI DUP1 PUSH4 0x2EBD12C9 EQ PUSH2 0x223 JUMPI DUP1 PUSH4 0x2F20AAE7 EQ PUSH2 0x259 JUMPI JUMPDEST PUSH1 0x0 DUP1 REVERT JUMPDEST CALLVALUE DUP1 ISZERO PUSH2 0x1AD JUMPI PUSH1 0x0 DUP1 REVERT JUMPDEST POP PUSH2 0x1C1 PUSH2 0x1BC CALLDATASIZE PUSH1 0x4 PUSH2 0x3627 JUMP JUMPDEST PUSH2 0x4FB JUMP JUMPDEST STOP JUMPDEST CALLVALUE DUP1 ISZERO PUSH2 0x1CF JUMPI PUSH1 0x0 DUP1 REVERT JUMPDEST POP PUSH2 0x1C1 PUSH2 0x1DE CALLDATASIZE PUSH1 0x4 PUSH2 0x36F5 JUMP JUMPDEST PUSH2 0x5D4 JUMP JUMPDEST CALLVALUE DUP1 ISZERO PUSH2 0x1EF JUMPI PUSH1 0x0 DUP1 REVERT JUMPDEST POP PUSH2 0x1C1 PUSH2 0x1FE CALLDATASIZE PUSH1 0x4 PUSH2 0x3627 JUMP JUMPDEST PUSH2 0x7D9 JUMP JUMPDEST CALLVALUE DUP1 ISZERO PUSH2 0x20F JUMPI PUSH1 0x0 DUP1 REVERT JUMPDEST POP PUSH2 0x1C1 PUSH2 0x21E CALLDATASIZE PUSH1 0x4 PUSH2 0x377D JUMP JUMPDEST PUSH2 0x8C4 JUMP JUMPDEST CALLVALUE DUP1 ISZERO PUSH2 0x22F JUMPI PUSH1 0x0 DUP1 REVERT JUMPDEST POP PUSH2 0x243 PUSH2 0x23E CALLDATASIZE PUSH1 0x4 PUSH2 0x3627 JUMP JUMPDEST PUSH2 0x9D8 JUMP JUMPDEST PUSH1 0x40 MLOAD PUSH2 0x250 SWAP2 SWAP1 PUSH2 0x383D JUMP JUMPDEST PUSH1 0x40 MLOAD DUP1 SWAP2 SUB SWAP1 RETURN JUMPDEST CALLVALUE DUP1 ISZERO PUSH2 0x265 JUMPI PUSH1 0x0 DUP1 REVERT JUMPDEST POP PUSH2 0x1C1 PUSH2 0x274 CALLDATASIZE PUSH1 0x4 PUSH2 0x389F JUMP JUMPDEST PUSH2 0xB8B JUMP JUMPDEST CALLVALUE DUP1 ISZERO PUSH2 0x285 JUMPI PUSH1 0x0 DUP1 REVERT JUMPDEST POP PUSH2 0x1C1 PUSH2 0x294 CALLDATASIZE PUSH1 0x4 PUSH2 0x39D0 JUMP JUMPDEST PUSH2 0xDD0 JUMP JUMPDEST CALLVALUE DUP1 ISZERO PUSH2 0x2A5 JUMPI PUSH1 0x0 DUP1 REVERT JUMPDEST POP PUSH2 0x2B9 PUSH2 0x2B4 CALLDATASIZE PUSH1 0x4 PUSH2 0x3627 JUMP JUMPDEST PUSH2 0x1179 JUMP JUMPDEST PUSH1 0x40 MLOAD PUSH2 0x250 SWAP2 SWAP1 PUSH2 0x3AE6 JUMP JUMPDEST PUSH2 0x1C1 PUSH2 0x2D4 CALLDATASIZE PUSH1 0x4 PUSH2 0x3627 JUMP JUMPDEST PUSH2 0x15D8 JUMP JUMPDEST CALLVALUE DUP1 ISZERO PUSH2 0x2E5 JUMPI PUSH1 0x0 DUP1 REVERT JUMPDEST POP PUSH2 0x1C1 PUSH2 0x2F4 CALLDATASIZE PUSH1 0x4 PUSH2 0x3627 JUMP JUMPDEST PUSH2 0x1648 JUMP JUMPDEST CALLVALUE DUP1 ISZERO PUSH2 0x305 JUMPI PUSH1 0x0 DUP1 REVERT JUMPDEST POP PUSH2 0x1C1 PUSH2 0x314 CALLDATASIZE PUSH1 0x4 PUSH2 0x3627 JUMP JUMPDEST PUSH2 0x1711 JUMP JUMPDEST CALLVALUE DUP1 ISZERO PUSH2 0x325 JUMPI PUSH1 0x0 DUP1 REVERT JUMPDEST POP PUSH2 0x1C1 PUSH2 0x17FD JUMP JUMPDEST CALLVALUE DUP1 ISZERO PUSH2 0x33A JUMPI PUSH1 0x0 DUP1 REVERT JUMPDEST POP PUSH2 0x343 PUSH2 0x1811 JUMP JUMPDEST PUSH1 0x40 MLOAD PUSH2 0x250 SWAP2 SWAP1 PUSH2 0x3C94 JUMP JUMPDEST CALLVALUE DUP1 ISZERO PUSH2 0x35C JUMPI PUSH1 0x0 DUP1 REVERT JUMPDEST POP PUSH2 0x370 PUSH2 0x36B CALLDATASIZE PUSH1 0x4 PUSH2 0x377D JUMP JUMPDEST PUSH2 0x19AA JUMP JUMPDEST PUSH1 0x40 MLOAD PUSH2 0x250 SWAP2 SWAP1 PUSH2 0x3CAE JUMP JUMPDEST CALLVALUE DUP1 ISZERO PUSH2 0x389 JUMPI PUSH1 0x0 DUP1 REVERT JUMPDEST POP PUSH1 0x0 SLOAD PUSH1 0x40 MLOAD PUSH1 0x1 PUSH1 0x1 PUSH1 0xA0 SHL SUB SWAP1 SWAP2 AND DUP2 MSTORE PUSH1 0x20 ADD PUSH2 0x250 JUMP JUMPDEST CALLVALUE DUP1 ISZERO PUSH2 0x3B1 JUMPI PUSH1 0x0 DUP1 REVERT JUMPDEST POP PUSH2 0x1C1 PUSH2 0x3C0 CALLDATASIZE PUSH1 0x4 PUSH2 0x3CC1 JUMP JUMPDEST PUSH2 0x1AAC JUMP JUMPDEST CALLVALUE DUP1 ISZERO PUSH2 0x3D1 JUMPI PUSH1 0x0 DUP1 REVERT JUMPDEST POP PUSH2 0x1C1 PUSH2 0x3E0 CALLDATASIZE PUSH1 0x4 PUSH2 0x3D24 JUMP JUMPDEST PUSH2 0x1BE3 JUMP JUMPDEST CALLVALUE DUP1 ISZERO PUSH2 0x3F1 JUMPI PUSH1 0x0 DUP1 REVERT JUMPDEST POP PUSH2 0x2B9 PUSH2 0x1CFB JUMP JUMPDEST CALLVALUE DUP1 ISZERO PUSH2 0x406 JUMPI PUSH1 0x0 DUP1 REVERT JUMPDEST POP PUSH2 0x1C1 PUSH2 0x415 CALLDATASIZE PUSH1 0x4 PUSH2 0x3627 JUMP JUMPDEST PUSH2 0x2102 JUMP JUMPDEST CALLVALUE DUP1 ISZERO PUSH2 0x426 JUMPI PUSH1 0x0 DUP1 REVERT JUMPDEST POP PUSH2 0x243 PUSH2 0x23C7 JUMP JUMPDEST CALLVALUE DUP1 ISZERO PUSH2 0x43B JUMPI PUSH1 0x0 DUP1 REVERT JUMPDEST POP PUSH2 0x343 PUSH2 0x44A CALLDATASIZE PUSH1 0x4 PUSH2 0x3627 JUMP JUMPDEST PUSH2 0x2550 JUMP JUMPDEST CALLVALUE DUP1 ISZERO PUSH2 0x45B JUMPI PUSH1 0x0 DUP1 REVERT JUMPDEST POP PUSH2 0x464 PUSH2 0x26FB JUMP JUMPDEST PUSH1 0x40 MLOAD PUSH2 0x250 SWAP2 SWAP1 PUSH2 0x3D86 JUMP JUMPDEST CALLVALUE DUP1 ISZERO PUSH2 0x47D JUMPI PUSH1 0x0 DUP1 REVERT JUMPDEST POP PUSH2 0x2B9 PUSH2 0x29E1 JUMP JUMPDEST CALLVALUE DUP1 ISZERO PUSH2 0x492 JUMPI PUSH1 0x0 DUP1 REVERT JUMPDEST POP PUSH2 0x1C1 PUSH2 0x4A1 CALLDATASIZE PUSH1 0x4 PUSH2 0x3DDB JUMP JUMPDEST PUSH2 0x2D0A JUMP JUMPDEST CALLVALUE DUP1 ISZERO PUSH2 0x4B2 JUMPI PUSH1 0x0 DUP1 REVERT JUMPDEST POP PUSH2 0x1C1 PUSH2 0x4C1 CALLDATASIZE PUSH1 0x4 PUSH2 0x3627 JUMP JUMPDEST PUSH2 0x2F04 JUMP JUMPDEST CALLVALUE DUP1 ISZERO PUSH2 0x4D2 JUMPI PUSH1 0x0 DUP1 REVERT JUMPDEST POP PUSH2 0x464 PUSH2 0x2FD0 JUMP JUMPDEST CALLVALUE DUP1 ISZERO PUSH2 0x4E7 JUMPI PUSH1 0x0 DUP1 REVERT JUMPDEST POP PUSH2 0x1C1 PUSH2 0x4F6 CALLDATASIZE PUSH1 0x4 PUSH2 0x3E3B JUMP JUMPDEST PUSH2 0x3214 JUMP JUMPDEST PUSH1 0x0 DUP2 DUP2 MSTORE PUSH1 0x6 PUSH1 0x20 MSTORE PUSH1 0x40 SWAP1 KECCAK256 SLOAD PUSH2 0x52F JUMPI PUSH1 0x40 MLOAD PUSH3 0x461BCD PUSH1 0xE5 SHL DUP2 MSTORE PUSH1 0x4 ADD PUSH2 0x526 SWAP1 PUSH2 0x3E56 JUMP JUMPDEST PUSH1 0x40 MLOAD DUP1 SWAP2 SUB SWAP1 REVERT JUMPDEST PUSH1 0x0 DUP2 DUP2 MSTORE PUSH1 0x6 PUSH1 0x20 MSTORE PUSH1 0x40 SWAP1 KECCAK256 PUSH1 0x5 ADD SLOAD PUSH1 0x1 PUSH1 0x1 PUSH1 0xA0 SHL SUB AND CALLER EQ PUSH2 0x568 JUMPI PUSH1 0x40 MLOAD PUSH3 0x461BCD PUSH1 0xE5 SHL DUP2 MSTORE PUSH1 0x4 ADD PUSH2 0x526 SWAP1 PUSH2 0x3E82 JUMP JUMPDEST PUSH1 0x1 PUSH1 0x0 DUP3 DUP2 MSTORE PUSH1 0x6 PUSH1 0x20 MSTORE PUSH1 0x40 SWAP1 KECCAK256 PUSH1 0x9 ADD SLOAD PUSH1 0xFF AND PUSH1 0x5 DUP2 GT ISZERO PUSH2 0x590 JUMPI PUSH2 0x590 PUSH2 0x3AAE JUMP JUMPDEST EQ PUSH2 0x5AD JUMPI PUSH1 0x40 MLOAD PUSH3 0x461BCD PUSH1 0xE5 SHL DUP2 MSTORE PUSH1 0x4 ADD PUSH2 0x526 SWAP1 PUSH2 0x3EB0 JUMP JUMPDEST PUSH1 0x0 DUP2 DUP2 MSTORE PUSH1 0x6 PUSH1 0x20 MSTORE PUSH1 0x40 SWAP1 KECCAK256 PUSH1 0x9 ADD DUP1 SLOAD PUSH1 0x4 SWAP2 SWAP1 PUSH1 0xFF NOT AND PUSH1 0x1 DUP4 JUMPDEST MUL OR SWAP1 SSTORE POP POP JUMP JUMPDEST PUSH1 0x0 DUP7 DUP2 MSTORE PUSH1 0x6 PUSH1 0x20 MSTORE PUSH1 0x40 SWAP1 KECCAK256 SLOAD PUSH2 0x5FF JUMPI PUSH1 0x40 MLOAD PUSH3 0x461BCD PUSH1 0xE5 SHL DUP2 MSTORE PUSH1 0x4 ADD PUSH2 0x526 SWAP1 PUSH2 0x3E56 JUMP JUMPDEST PUSH1 0x0 DUP7 DUP2 MSTORE PUSH1 0x6 PUSH1 0x20 MSTORE PUSH1 0x40 SWAP1 KECCAK256 PUSH1 0x4 ADD SLOAD PUSH1 0x1 PUSH1 0x1 PUSH1 0xA0 SHL SUB AND CALLER EQ PUSH2 0x638 JUMPI PUSH1 0x40 MLOAD PUSH3 0x461BCD PUSH1 0xE5 SHL DUP2 MSTORE PUSH1 0x4 ADD PUSH2 0x526 SWAP1 PUSH2 0x3E82 JUMP JUMPDEST PUSH1 0x0 DUP6 DUP2 MSTORE PUSH1 0x5 PUSH1 0x20 MSTORE PUSH1 0x40 SWAP1 KECCAK256 SLOAD PUSH2 0x663 JUMPI PUSH1 0x40 MLOAD PUSH3 0x461BCD PUSH1 0xE5 SHL DUP2 MSTORE PUSH1 0x4 ADD PUSH2 0x526 SWAP1 PUSH2 0x3EDE JUMP JUMPDEST PUSH1 0x0 DUP7 DUP2 MSTORE PUSH1 0x6 PUSH1 0x20 MSTORE PUSH1 0x40 DUP2 KECCAK256 PUSH1 0x9 ADD SLOAD PUSH1 0xFF AND PUSH1 0x5 DUP2 GT ISZERO PUSH2 0x689 JUMPI PUSH2 0x689 PUSH2 0x3AAE JUMP JUMPDEST EQ PUSH2 0x6A6 JUMPI PUSH1 0x40 MLOAD PUSH3 0x461BCD PUSH1 0xE5 SHL DUP2 MSTORE PUSH1 0x4 ADD PUSH2 0x526 SWAP1 PUSH2 0x3F15 JUMP JUMPDEST PUSH1 0x0 DUP5 GT PUSH2 0x6C6 JUMPI PUSH1 0x40 MLOAD PUSH3 0x461BCD PUSH1 0xE5 SHL DUP2 MSTORE PUSH1 0x4 ADD PUSH2 0x526 SWAP1 PUSH2 0x3F45 JUMP JUMPDEST PUSH1 0x0 DUP4 GT DUP1 ISZERO PUSH2 0x6D7 JUMPI POP PUSH1 0x64 DUP4 GT ISZERO JUMPDEST PUSH2 0x6F3 JUMPI PUSH1 0x40 MLOAD PUSH3 0x461BCD PUSH1 0xE5 SHL DUP2 MSTORE PUSH1 0x4 ADD PUSH2 0x526 SWAP1 PUSH2 0x3F86 JUMP JUMPDEST PUSH1 0x0 DUP3 MLOAD GT PUSH2 0x714 JUMPI PUSH1 0x40 MLOAD PUSH3 0x461BCD PUSH1 0xE5 SHL DUP2 MSTORE PUSH1 0x4 ADD PUSH2 0x526 SWAP1 PUSH2 0x3FCE JUMP JUMPDEST PUSH1 0x0 DUP2 MLOAD GT PUSH2 0x735 JUMPI PUSH1 0x40 MLOAD PUSH3 0x461BCD PUSH1 0xE5 SHL DUP2 MSTORE PUSH1 0x4 ADD PUSH2 0x526 SWAP1 PUSH2 0x3FFD JUMP JUMPDEST PUSH1 0x0 DUP7 DUP2 MSTORE PUSH1 0x6 PUSH1 0x20 SWAP1 DUP2 MSTORE PUSH1 0x40 SWAP1 SWAP2 KECCAK256 DUP4 MLOAD PUSH2 0x75A SWAP3 PUSH1 0x2 SWAP1 SWAP3 ADD SWAP2 DUP6 ADD SWAP1 PUSH2 0x3447 JUMP JUMPDEST POP PUSH1 0x0 DUP7 DUP2 MSTORE PUSH1 0x6 PUSH1 0x20 SWAP1 DUP2 MSTORE PUSH1 0x40 SWAP1 SWAP2 KECCAK256 DUP3 MLOAD PUSH2 0x780 SWAP3 PUSH1 0x3 SWAP1 SWAP3 ADD SWAP2 DUP5 ADD SWAP1 PUSH2 0x3447 JUMP JUMPDEST POP POP POP PUSH1 0x0 DUP5 DUP2 MSTORE PUSH1 0x6 PUSH1 0x20 DUP2 DUP2 MSTORE PUSH1 0x40 DUP1 DUP5 KECCAK256 DUP1 DUP5 ADD SWAP7 SWAP1 SWAP7 SSTORE PUSH1 0x8 DUP7 ADD SWAP5 SWAP1 SWAP5 SSTORE SWAP5 DUP3 MSTORE PUSH1 0x5 DUP1 DUP7 MSTORE SWAP3 DUP3 KECCAK256 PUSH1 0x3 ADD SLOAD SWAP6 SWAP1 SWAP2 MSTORE SWAP1 SWAP3 MSTORE ADD DUP1 SLOAD PUSH1 0x1 PUSH1 0x1 PUSH1 0xA0 SHL SUB NOT AND PUSH1 0x1 PUSH1 0x1 PUSH1 0xA0 SHL SUB SWAP1 SWAP3 AND SWAP2 SWAP1 SWAP2 OR SWAP1 SSTORE JUMP JUMPDEST PUSH1 0x0 DUP2 DUP2 MSTORE PUSH1 0x6 PUSH1 0x20 MSTORE PUSH1 0x40 SWAP1 KECCAK256 SLOAD PUSH2 0x804 JUMPI PUSH1 0x40 MLOAD PUSH3 0x461BCD PUSH1 0xE5 SHL DUP2 MSTORE PUSH1 0x4 ADD PUSH2 0x526 SWAP1 PUSH2 0x3E56 JUMP JUMPDEST PUSH1 0x0 DUP2 DUP2 MSTORE PUSH1 0x6 PUSH1 0x20 MSTORE PUSH1 0x40 SWAP1 KECCAK256 PUSH1 0x4 ADD SLOAD PUSH1 0x1 PUSH1 0x1 PUSH1 0xA0 SHL SUB AND CALLER EQ PUSH2 0x83D JUMPI PUSH1 0x40 MLOAD PUSH3 0x461BCD PUSH1 0xE5 SHL DUP2 MSTORE PUSH1 0x4 ADD PUSH2 0x526 SWAP1 PUSH2 0x3E82 JUMP JUMPDEST PUSH1 0x0 DUP2 DUP2 MSTORE PUSH1 0x6 PUSH1 0x20 MSTORE PUSH1 0x40 DUP2 KECCAK256 PUSH1 0x9 ADD SLOAD PUSH1 0xFF AND PUSH1 0x5 DUP2 GT ISZERO PUSH2 0x863 JUMPI PUSH2 0x863 PUSH2 0x3AAE JUMP JUMPDEST EQ PUSH2 0x880 JUMPI PUSH1 0x40 MLOAD PUSH3 0x461BCD PUSH1 0xE5 SHL DUP2 MSTORE PUSH1 0x4 ADD PUSH2 0x526 SWAP1 PUSH2 0x3F15 JUMP JUMPDEST PUSH1 0x0 DUP2 DUP2 MSTORE PUSH1 0x6 PUSH1 0x20 SWAP1 DUP2 MSTORE PUSH1 0x40 DUP1 DUP4 KECCAK256 PUSH1 0x9 DUP2 ADD DUP1 SLOAD PUSH1 0xFF NOT AND PUSH1 0x2 OR SWAP1 SSTORE PUSH1 0x1 ADD SLOAD DUP4 MSTORE PUSH1 0x5 SWAP1 SWAP2 MSTORE DUP2 KECCAK256 PUSH1 0x4 ADD DUP1 SLOAD SWAP2 PUSH2 0x8BC DUP4 PUSH2 0x404A JUMP JUMPDEST SWAP2 SWAP1 POP SSTORE POP POP JUMP JUMPDEST PUSH1 0x0 DUP2 DUP2 MSTORE PUSH1 0x9 PUSH1 0x20 SWAP1 DUP2 MSTORE PUSH1 0x40 DUP1 DUP4 KECCAK256 DUP6 DUP5 MSTORE SWAP1 SWAP2 MSTORE SWAP1 KECCAK256 SLOAD PUSH2 0x91E JUMPI PUSH1 0x40 MLOAD PUSH3 0x461BCD PUSH1 0xE5 SHL DUP2 MSTORE PUSH1 0x20 PUSH1 0x4 DUP3 ADD MSTORE PUSH1 0x11 PUSH1 0x24 DUP3 ADD MSTORE PUSH17 0x576F726B6572206E6F7420666F756E6421 PUSH1 0x78 SHL PUSH1 0x44 DUP3 ADD MSTORE PUSH1 0x64 ADD PUSH2 0x526 JUMP JUMPDEST PUSH1 0x0 DUP2 DUP2 MSTORE PUSH1 0x6 PUSH1 0x20 MSTORE PUSH1 0x40 SWAP1 KECCAK256 PUSH1 0x4 ADD SLOAD PUSH1 0x1 PUSH1 0x1 PUSH1 0xA0 SHL SUB AND CALLER EQ PUSH2 0x957 JUMPI PUSH1 0x40 MLOAD PUSH3 0x461BCD PUSH1 0xE5 SHL DUP2 MSTORE PUSH1 0x4 ADD PUSH2 0x526 SWAP1 PUSH2 0x3E82 JUMP JUMPDEST PUSH1 0x0 DUP2 DUP2 MSTORE PUSH1 0x9 PUSH1 0x20 SWAP1 DUP2 MSTORE PUSH1 0x40 DUP1 DUP4 KECCAK256 DUP6 DUP5 MSTORE SWAP1 SWAP2 MSTORE DUP2 KECCAK256 DUP2 DUP2 SSTORE PUSH1 0x1 DUP2 ADD DUP3 SWAP1 SSTORE SWAP1 PUSH2 0x988 PUSH1 0x2 DUP4 ADD DUP3 PUSH2 0x34C7 JUMP JUMPDEST POP PUSH1 0x3 DUP2 ADD DUP1 SLOAD PUSH1 0x1 PUSH1 0x1 PUSH1 0xA0 SHL SUB NOT AND SWAP1 SSTORE PUSH1 0x0 PUSH1 0x4 SWAP1 SWAP2 ADD DUP2 SWAP1 SSTORE DUP2 DUP2 MSTORE PUSH1 0x6 PUSH1 0x20 SWAP1 DUP2 MSTORE PUSH1 0x40 DUP1 DUP4 KECCAK256 PUSH1 0x1 ADD SLOAD DUP4 MSTORE PUSH1 0x5 SWAP2 DUP3 SWAP1 MSTORE DUP3 KECCAK256 ADD DUP1 SLOAD SWAP2 PUSH2 0x9CF DUP4 PUSH2 0x404A JUMP JUMPDEST SWAP2 SWAP1 POP SSTORE POP POP POP JUMP JUMPDEST PUSH1 0x0 DUP2 DUP2 MSTORE PUSH1 0x6 PUSH1 0x20 MSTORE PUSH1 0x40 SWAP1 KECCAK256 PUSH1 0x7 ADD SLOAD PUSH1 0x60 SWAP1 PUSH1 0x1 PUSH1 0x1 PUSH1 0x40 SHL SUB DUP2 GT ISZERO PUSH2 0xA04 JUMPI PUSH2 0xA04 PUSH2 0x3640 JUMP JUMPDEST PUSH1 0x40 MLOAD SWAP1 DUP1 DUP3 MSTORE DUP1 PUSH1 0x20 MUL PUSH1 0x20 ADD DUP3 ADD PUSH1 0x40 MSTORE DUP1 ISZERO PUSH2 0xA3D JUMPI DUP2 PUSH1 0x20 ADD JUMPDEST PUSH2 0xA2A PUSH2 0x3501 JUMP JUMPDEST DUP2 MSTORE PUSH1 0x20 ADD SWAP1 PUSH1 0x1 SWAP1 SUB SWAP1 DUP2 PUSH2 0xA22 JUMPI SWAP1 POP JUMPDEST POP SWAP1 POP PUSH1 0x0 JUMPDEST PUSH1 0x0 DUP4 DUP2 MSTORE PUSH1 0x6 PUSH1 0x20 MSTORE PUSH1 0x40 SWAP1 KECCAK256 PUSH1 0x7 ADD SLOAD DUP2 LT ISZERO PUSH2 0xB85 JUMPI PUSH1 0x0 DUP4 DUP2 MSTORE PUSH1 0x9 PUSH1 0x20 MSTORE PUSH1 0x40 DUP2 KECCAK256 SWAP1 PUSH2 0xA76 DUP4 PUSH1 0x1 PUSH2 0x4061 JUMP JUMPDEST DUP2 MSTORE PUSH1 0x20 ADD SWAP1 DUP2 MSTORE PUSH1 0x20 ADD PUSH1 0x0 KECCAK256 PUSH1 0x40 MLOAD DUP1 PUSH1 0xA0 ADD PUSH1 0x40 MSTORE SWAP1 DUP2 PUSH1 0x0 DUP3 ADD SLOAD DUP2 MSTORE PUSH1 0x20 ADD PUSH1 0x1 DUP3 ADD SLOAD DUP2 MSTORE PUSH1 0x20 ADD PUSH1 0x2 DUP3 ADD DUP1 SLOAD PUSH2 0xAB3 SWAP1 PUSH2 0x4079 JUMP JUMPDEST DUP1 PUSH1 0x1F ADD PUSH1 0x20 DUP1 SWAP2 DIV MUL PUSH1 0x20 ADD PUSH1 0x40 MLOAD SWAP1 DUP2 ADD PUSH1 0x40 MSTORE DUP1 SWAP3 SWAP2 SWAP1 DUP2 DUP2 MSTORE PUSH1 0x20 ADD DUP3 DUP1 SLOAD PUSH2 0xADF SWAP1 PUSH2 0x4079 JUMP JUMPDEST DUP1 ISZERO PUSH2 0xB2C JUMPI DUP1 PUSH1 0x1F LT PUSH2 0xB01 JUMPI PUSH2 0x100 DUP1 DUP4 SLOAD DIV MUL DUP4 MSTORE SWAP2 PUSH1 0x20 ADD SWAP2 PUSH2 0xB2C JUMP JUMPDEST DUP3 ADD SWAP2 SWAP1 PUSH1 0x0 MSTORE PUSH1 0x20 PUSH1 0x0 KECCAK256 SWAP1 JUMPDEST DUP2 SLOAD DUP2 MSTORE SWAP1 PUSH1 0x1 ADD SWAP1 PUSH1 0x20 ADD DUP1 DUP4 GT PUSH2 0xB0F JUMPI DUP3 SWAP1 SUB PUSH1 0x1F AND DUP3 ADD SWAP2 JUMPDEST POP POP POP SWAP2 DUP4 MSTORE POP POP PUSH1 0x3 DUP3 ADD SLOAD PUSH1 0x1 PUSH1 0x1 PUSH1 0xA0 SHL SUB AND PUSH1 0x20 DUP3 ADD MSTORE PUSH1 0x4 SWAP1 SWAP2 ADD SLOAD PUSH1 0x40 SWAP1 SWAP2 ADD MSTORE DUP3 MLOAD DUP4 SWAP1 DUP4 SWAP1 DUP2 LT PUSH2 0xB67 JUMPI PUSH2 0xB67 PUSH2 0x40AE JUMP JUMPDEST PUSH1 0x20 MUL PUSH1 0x20 ADD ADD DUP2 SWAP1 MSTORE POP DUP1 DUP1 PUSH2 0xB7D SWAP1 PUSH2 0x40C4 JUMP JUMPDEST SWAP2 POP POP PUSH2 0xA43 JUMP JUMPDEST POP SWAP2 SWAP1 POP JUMP JUMPDEST PUSH1 0x0 DUP6 DUP2 MSTORE PUSH1 0x5 PUSH1 0x20 MSTORE PUSH1 0x40 SWAP1 KECCAK256 SLOAD PUSH2 0xBB6 JUMPI PUSH1 0x40 MLOAD PUSH3 0x461BCD PUSH1 0xE5 SHL DUP2 MSTORE PUSH1 0x4 ADD PUSH2 0x526 SWAP1 PUSH2 0x3EDE JUMP JUMPDEST PUSH1 0x0 DUP5 GT PUSH2 0xBD6 JUMPI PUSH1 0x40 MLOAD PUSH3 0x461BCD PUSH1 0xE5 SHL DUP2 MSTORE PUSH1 0x4 ADD PUSH2 0x526 SWAP1 PUSH2 0x3F45 JUMP JUMPDEST PUSH1 0x0 DUP4 GT DUP1 ISZERO PUSH2 0xBE7 JUMPI POP PUSH1 0x64 DUP4 GT ISZERO JUMPDEST PUSH2 0xC03 JUMPI PUSH1 0x40 MLOAD PUSH3 0x461BCD PUSH1 0xE5 SHL DUP2 MSTORE PUSH1 0x4 ADD PUSH2 0x526 SWAP1 PUSH2 0x3F86 JUMP JUMPDEST PUSH1 0x0 DUP3 MLOAD GT PUSH2 0xC24 JUMPI PUSH1 0x40 MLOAD PUSH3 0x461BCD PUSH1 0xE5 SHL DUP2 MSTORE PUSH1 0x4 ADD PUSH2 0x526 SWAP1 PUSH2 0x3FCE JUMP JUMPDEST PUSH1 0x0 DUP2 MLOAD GT PUSH2 0xC45 JUMPI PUSH1 0x40 MLOAD PUSH3 0x461BCD PUSH1 0xE5 SHL DUP2 MSTORE PUSH1 0x4 ADD PUSH2 0x526 SWAP1 PUSH2 0x3FFD JUMP JUMPDEST PUSH2 0xC53 PUSH1 0x2 DUP1 SLOAD PUSH1 0x1 ADD SWAP1 SSTORE JUMP JUMPDEST PUSH2 0xC5B PUSH2 0x3539 JUMP JUMPDEST PUSH1 0x2 SLOAD DUP2 MSTORE CALLER PUSH1 0x80 DUP3 ADD MSTORE PUSH1 0x40 DUP1 DUP3 ADD DUP5 SWAP1 MSTORE PUSH1 0x60 DUP3 ADD DUP4 SWAP1 MSTORE PUSH1 0xC0 DUP3 ADD DUP7 SWAP1 MSTORE PUSH2 0x100 DUP3 ADD DUP6 SWAP1 MSTORE PUSH1 0x20 DUP1 DUP4 ADD DUP9 SWAP1 MSTORE PUSH1 0x0 DUP9 DUP2 MSTORE PUSH1 0x5 SWAP1 SWAP2 MSTORE KECCAK256 PUSH1 0x3 ADD SLOAD PUSH1 0x1 PUSH1 0x1 PUSH1 0xA0 SHL SUB AND PUSH1 0xA0 DUP3 ADD MSTORE PUSH2 0xCB1 PUSH2 0x328A JUMP JUMPDEST PUSH2 0x140 DUP3 ADD MSTORE DUP1 MLOAD PUSH1 0x0 SWAP1 DUP2 MSTORE PUSH1 0x6 PUSH1 0x20 SWAP1 DUP2 MSTORE PUSH1 0x40 SWAP2 DUP3 SWAP1 KECCAK256 DUP4 MLOAD DUP2 SSTORE DUP2 DUP5 ADD MLOAD PUSH1 0x1 DUP3 ADD SSTORE SWAP2 DUP4 ADD MLOAD DUP1 MLOAD DUP5 SWAP4 SWAP3 PUSH2 0xCF2 SWAP3 PUSH1 0x2 DUP6 ADD SWAP3 SWAP2 ADD SWAP1 PUSH2 0x3447 JUMP JUMPDEST POP PUSH1 0x60 DUP3 ADD MLOAD DUP1 MLOAD PUSH2 0xD0E SWAP2 PUSH1 0x3 DUP5 ADD SWAP2 PUSH1 0x20 SWAP1 SWAP2 ADD SWAP1 PUSH2 0x3447 JUMP JUMPDEST POP PUSH1 0x80 DUP3 ADD MLOAD PUSH1 0x4 DUP3 ADD DUP1 SLOAD PUSH1 0x1 PUSH1 0x1 PUSH1 0xA0 SHL SUB NOT SWAP1 DUP2 AND PUSH1 0x1 PUSH1 0x1 PUSH1 0xA0 SHL SUB SWAP4 DUP5 AND OR SWAP1 SWAP2 SSTORE PUSH1 0xA0 DUP5 ADD MLOAD PUSH1 0x5 DUP1 DUP6 ADD DUP1 SLOAD SWAP1 SWAP4 AND SWAP2 SWAP1 SWAP4 AND OR SWAP1 SSTORE PUSH1 0xC0 DUP4 ADD MLOAD PUSH1 0x6 DUP4 ADD SSTORE PUSH1 0xE0 DUP4 ADD MLOAD PUSH1 0x7 DUP4 ADD SSTORE PUSH2 0x100 DUP4 ADD MLOAD PUSH1 0x8 DUP4 ADD SSTORE PUSH2 0x120 DUP4 ADD MLOAD PUSH1 0x9 DUP4 ADD DUP1 SLOAD SWAP2 SWAP3 SWAP1 SWAP2 PUSH1 0xFF NOT AND SWAP1 PUSH1 0x1 SWAP1 DUP5 SWAP1 DUP2 GT ISZERO PUSH2 0xD93 JUMPI PUSH2 0xD93 PUSH2 0x3AAE JUMP JUMPDEST MUL OR SWAP1 SSTORE POP PUSH2 0x140 SWAP2 SWAP1 SWAP2 ADD MLOAD PUSH1 0xA SWAP1 SWAP2 ADD SSTORE PUSH1 0x0 DUP7 DUP2 MSTORE PUSH1 0x5 PUSH1 0x20 MSTORE PUSH1 0x40 DUP2 KECCAK256 PUSH1 0x4 ADD DUP1 SLOAD SWAP2 PUSH2 0xDC3 DUP4 PUSH2 0x40C4 JUMP JUMPDEST SWAP2 SWAP1 POP SSTORE POP POP POP POP POP POP POP JUMP JUMPDEST PUSH1 0x0 DUP4 DUP2 MSTORE PUSH1 0x6 PUSH1 0x20 MSTORE PUSH1 0x40 SWAP1 KECCAK256 SLOAD PUSH2 0xDFB JUMPI PUSH1 0x40 MLOAD PUSH3 0x461BCD PUSH1 0xE5 SHL DUP2 MSTORE PUSH1 0x4 ADD PUSH2 0x526 SWAP1 PUSH2 0x3E56 JUMP JUMPDEST PUSH1 0x0 DUP4 DUP2 MSTORE PUSH1 0x6 PUSH1 0x20 MSTORE PUSH1 0x40 SWAP1 KECCAK256 PUSH1 0x4 ADD SLOAD PUSH1 0x1 PUSH1 0x1 PUSH1 0xA0 SHL SUB AND CALLER EQ DUP1 PUSH2 0xE3C JUMPI POP PUSH1 0x0 DUP4 DUP2 MSTORE PUSH1 0x6 PUSH1 0x20 MSTORE PUSH1 0x40 SWAP1 KECCAK256 PUSH1 0x5 ADD SLOAD PUSH1 0x1 PUSH1 0x1 PUSH1 0xA0 SHL SUB AND CALLER EQ JUMPDEST PUSH2 0xE58 JUMPI PUSH1 0x40 MLOAD PUSH3 0x461BCD PUSH1 0xE5 SHL DUP2 MSTORE PUSH1 0x4 ADD PUSH2 0x526 SWAP1 PUSH2 0x3E82 JUMP JUMPDEST PUSH1 0x0 DUP3 MLOAD GT PUSH2 0xEA9 JUMPI PUSH1 0x40 MLOAD PUSH3 0x461BCD PUSH1 0xE5 SHL DUP2 MSTORE PUSH1 0x20 PUSH1 0x4 DUP3 ADD MSTORE PUSH1 0x1C PUSH1 0x24 DUP3 ADD MSTORE PUSH32 0x4E616D65732061727261792063616E6E6F7420626520656D7074792100000000 PUSH1 0x44 DUP3 ADD MSTORE PUSH1 0x64 ADD PUSH2 0x526 JUMP JUMPDEST PUSH1 0x0 DUP2 MLOAD GT PUSH2 0xEFA JUMPI PUSH1 0x40 MLOAD PUSH3 0x461BCD PUSH1 0xE5 SHL DUP2 MSTORE PUSH1 0x20 PUSH1 0x4 DUP3 ADD MSTORE PUSH1 0x1F PUSH1 0x24 DUP3 ADD MSTORE PUSH32 0x4163636F756E74732061727261792063616E6E6F7420626520656D7074792100 PUSH1 0x44 DUP3 ADD MSTORE PUSH1 0x64 ADD PUSH2 0x526 JUMP JUMPDEST PUSH1 0x0 JUMPDEST DUP2 MLOAD DUP2 LT ISZERO PUSH2 0x1173 JUMPI PUSH2 0xF14 PUSH1 0x4 DUP1 SLOAD PUSH1 0x1 ADD SWAP1 SSTORE JUMP JUMPDEST PUSH2 0xF1C PUSH2 0x3501 JUMP JUMPDEST PUSH1 0x4 SLOAD DUP2 MSTORE PUSH1 0x0 DUP6 DUP2 MSTORE PUSH1 0x6 PUSH1 0x20 MSTORE PUSH1 0x40 SWAP1 KECCAK256 PUSH1 0x7 ADD SLOAD PUSH2 0xF3E SWAP1 PUSH1 0x1 PUSH2 0x4061 JUMP JUMPDEST PUSH1 0x20 DUP3 ADD MSTORE DUP4 MLOAD DUP5 SWAP1 DUP4 SWAP1 DUP2 LT PUSH2 0xF57 JUMPI PUSH2 0xF57 PUSH2 0x40AE JUMP JUMPDEST PUSH1 0x20 MUL PUSH1 0x20 ADD ADD MLOAD DUP2 PUSH1 0x40 ADD DUP2 SWAP1 MSTORE POP DUP3 DUP3 DUP2 MLOAD DUP2 LT PUSH2 0xF79 JUMPI PUSH2 0xF79 PUSH2 0x40AE JUMP JUMPDEST PUSH1 0x20 SWAP1 DUP2 MUL SWAP2 SWAP1 SWAP2 ADD ADD MLOAD PUSH1 0x1 PUSH1 0x1 PUSH1 0xA0 SHL SUB AND PUSH1 0x60 DUP3 ADD MSTORE PUSH2 0xF9A PUSH2 0x328A JUMP JUMPDEST PUSH1 0x80 DUP3 ADD MSTORE PUSH1 0x0 DUP6 DUP2 MSTORE PUSH1 0x9 PUSH1 0x20 SWAP1 DUP2 MSTORE PUSH1 0x40 DUP1 DUP4 KECCAK256 DUP3 DUP6 ADD DUP1 MLOAD DUP6 MSTORE SWAP1 DUP4 MSTORE SWAP3 DUP2 SWAP1 KECCAK256 DUP5 MLOAD DUP2 SSTORE SWAP3 MLOAD PUSH1 0x1 DUP5 ADD SSTORE DUP4 ADD MLOAD DUP1 MLOAD DUP5 SWAP4 SWAP3 PUSH2 0xFE2 SWAP3 PUSH1 0x2 DUP6 ADD SWAP3 SWAP2 ADD SWAP1 PUSH2 0x3447 JUMP JUMPDEST POP PUSH1 0x60 DUP3 ADD MLOAD PUSH1 0x3 DUP3 ADD DUP1 SLOAD PUSH1 0x1 PUSH1 0x1 PUSH1 0xA0 SHL SUB NOT AND PUSH1 0x1 PUSH1 0x1 PUSH1 0xA0 SHL SUB SWAP1 SWAP3 AND SWAP2 SWAP1 SWAP2 OR SWAP1 SSTORE PUSH1 0x80 SWAP1 SWAP2 ADD MLOAD PUSH1 0x4 SWAP1 SWAP2 ADD SSTORE PUSH1 0x0 DUP6 DUP2 MSTORE PUSH1 0x6 PUSH1 0x20 MSTORE PUSH1 0x40 DUP2 KECCAK256 PUSH1 0x7 ADD DUP1 SLOAD SWAP2 PUSH2 0x1032 DUP4 PUSH2 0x40C4 JUMP JUMPDEST SWAP1 SWAP2 SSTORE POP POP PUSH1 0x0 DUP6 DUP2 MSTORE PUSH1 0x6 PUSH1 0x20 SWAP1 DUP2 MSTORE PUSH1 0x40 DUP1 DUP4 KECCAK256 PUSH1 0x1 ADD SLOAD DUP4 MSTORE PUSH1 0x5 SWAP2 DUP3 SWAP1 MSTORE DUP3 KECCAK256 ADD DUP1 SLOAD SWAP2 PUSH2 0x1063 DUP4 PUSH2 0x40C4 JUMP JUMPDEST SWAP2 SWAP1 POP SSTORE POP PUSH1 0x8 PUSH1 0x0 DUP5 DUP5 DUP2 MLOAD DUP2 LT PUSH2 0x107E JUMPI PUSH2 0x107E PUSH2 0x40AE JUMP JUMPDEST PUSH1 0x20 SWAP1 DUP2 MUL SWAP2 SWAP1 SWAP2 ADD DUP2 ADD MLOAD PUSH1 0x1 PUSH1 0x1 PUSH1 0xA0 SHL SUB AND DUP3 MSTORE DUP2 ADD SWAP2 SWAP1 SWAP2 MSTORE PUSH1 0x40 ADD PUSH1 0x0 KECCAK256 SLOAD PUSH1 0xFF AND PUSH2 0x1160 JUMPI PUSH1 0x1 PUSH1 0x8 PUSH1 0x0 DUP6 DUP6 DUP2 MLOAD DUP2 LT PUSH2 0x10C1 JUMPI PUSH2 0x10C1 PUSH2 0x40AE JUMP JUMPDEST PUSH1 0x20 SWAP1 DUP2 MUL SWAP2 SWAP1 SWAP2 ADD DUP2 ADD MLOAD PUSH1 0x1 PUSH1 0x1 PUSH1 0xA0 SHL SUB AND DUP3 MSTORE DUP2 DUP2 ADD SWAP3 SWAP1 SWAP3 MSTORE PUSH1 0x40 SWAP1 DUP2 ADD PUSH1 0x0 SWAP1 DUP2 KECCAK256 DUP1 SLOAD PUSH1 0xFF NOT AND SWAP5 ISZERO ISZERO SWAP5 SWAP1 SWAP5 OR SWAP1 SWAP4 SSTORE DUP4 MLOAD DUP4 MSTORE PUSH1 0x7 DUP3 MSTORE SWAP2 DUP3 SWAP1 KECCAK256 DUP4 MLOAD DUP2 SSTORE DUP4 DUP3 ADD MLOAD PUSH1 0x1 DUP3 ADD SSTORE SWAP2 DUP4 ADD MLOAD DUP1 MLOAD DUP5 SWAP4 SWAP3 PUSH2 0x112C SWAP3 PUSH1 0x2 DUP6 ADD SWAP3 SWAP2 ADD SWAP1 PUSH2 0x3447 JUMP JUMPDEST POP PUSH1 0x60 DUP3 ADD MLOAD PUSH1 0x3 DUP3 ADD DUP1 SLOAD PUSH1 0x1 PUSH1 0x1 PUSH1 0xA0 SHL SUB NOT AND PUSH1 0x1 PUSH1 0x1 PUSH1 0xA0 SHL SUB SWAP1 SWAP3 AND SWAP2 SWAP1 SWAP2 OR SWAP1 SSTORE PUSH1 0x80 SWAP1 SWAP2 ADD MLOAD PUSH1 0x4 SWAP1 SWAP2 ADD SSTORE JUMPDEST POP DUP1 PUSH2 0x116B DUP2 PUSH2 0x40C4 JUMP JUMPDEST SWAP2 POP POP PUSH2 0xEFD JUMP JUMPDEST POP POP POP POP JUMP JUMPDEST PUSH1 0x60 PUSH1 0x0 DUP1 JUMPDEST PUSH1 0x2 SLOAD DUP2 LT ISZERO PUSH2 0x127E JUMPI PUSH1 0x2 PUSH1 0x6 PUSH1 0x0 PUSH2 0x119A DUP5 PUSH1 0x1 PUSH2 0x4061 JUMP JUMPDEST DUP2 MSTORE PUSH1 0x20 DUP2 ADD SWAP2 SWAP1 SWAP2 MSTORE PUSH1 0x40 ADD PUSH1 0x0 KECCAK256 PUSH1 0x9 ADD SLOAD PUSH1 0xFF AND PUSH1 0x5 DUP2 GT ISZERO PUSH2 0x11C2 JUMPI PUSH2 0x11C2 PUSH2 0x3AAE JUMP JUMPDEST EQ ISZERO DUP1 ISZERO PUSH2 0x11EF JUMPI POP DUP4 PUSH1 0x6 PUSH1 0x0 PUSH2 0x11DB DUP5 PUSH1 0x1 PUSH2 0x4061 JUMP JUMPDEST DUP2 MSTORE PUSH1 0x20 ADD SWAP1 DUP2 MSTORE PUSH1 0x20 ADD PUSH1 0x0 KECCAK256 PUSH1 0x1 ADD SLOAD EQ JUMPDEST DUP1 ISZERO PUSH2 0x1259 JUMPI POP CALLER PUSH1 0x6 PUSH1 0x0 PUSH2 0x1206 DUP5 PUSH1 0x1 PUSH2 0x4061 JUMP JUMPDEST DUP2 MSTORE PUSH1 0x20 DUP2 ADD SWAP2 SWAP1 SWAP2 MSTORE PUSH1 0x40 ADD PUSH1 0x0 KECCAK256 PUSH1 0x4 ADD SLOAD PUSH1 0x1 PUSH1 0x1 PUSH1 0xA0 SHL SUB AND EQ DUP1 PUSH2 0x1259 JUMPI POP CALLER PUSH1 0x6 PUSH1 0x0 PUSH2 0x123A DUP5 PUSH1 0x1 PUSH2 0x4061 JUMP JUMPDEST DUP2 MSTORE PUSH1 0x20 DUP2 ADD SWAP2 SWAP1 SWAP2 MSTORE PUSH1 0x40 ADD PUSH1 0x0 KECCAK256 PUSH1 0x5 ADD SLOAD PUSH1 0x1 PUSH1 0x1 PUSH1 0xA0 SHL SUB AND EQ JUMPDEST ISZERO PUSH2 0x126C JUMPI DUP2 PUSH2 0x1268 DUP2 PUSH2 0x40C4 JUMP JUMPDEST SWAP3 POP POP JUMPDEST DUP1 PUSH2 0x1276 DUP2 PUSH2 0x40C4 JUMP JUMPDEST SWAP2 POP POP PUSH2 0x117F JUMP JUMPDEST POP DUP1 PUSH1 0x1 PUSH1 0x1 PUSH1 0x40 SHL SUB DUP2 GT ISZERO PUSH2 0x1297 JUMPI PUSH2 0x1297 PUSH2 0x3640 JUMP JUMPDEST PUSH1 0x40 MLOAD SWAP1 DUP1 DUP3 MSTORE DUP1 PUSH1 0x20 MUL PUSH1 0x20 ADD DUP3 ADD PUSH1 0x40 MSTORE DUP1 ISZERO PUSH2 0x12D0 JUMPI DUP2 PUSH1 0x20 ADD JUMPDEST PUSH2 0x12BD PUSH2 0x3539 JUMP JUMPDEST DUP2 MSTORE PUSH1 0x20 ADD SWAP1 PUSH1 0x1 SWAP1 SUB SWAP1 DUP2 PUSH2 0x12B5 JUMPI SWAP1 POP JUMPDEST POP SWAP2 POP PUSH1 0x0 DUP1 JUMPDEST PUSH1 0x2 SLOAD DUP2 LT ISZERO PUSH2 0x15D0 JUMPI PUSH1 0x2 PUSH1 0x6 PUSH1 0x0 PUSH2 0x12F2 DUP5 PUSH1 0x1 PUSH2 0x4061 JUMP JUMPDEST DUP2 MSTORE PUSH1 0x20 DUP2 ADD SWAP2 SWAP1 SWAP2 MSTORE PUSH1 0x40 ADD PUSH1 0x0 KECCAK256 PUSH1 0x9 ADD SLOAD PUSH1 0xFF AND PUSH1 0x5 DUP2 GT ISZERO PUSH2 0x131A JUMPI PUSH2 0x131A PUSH2 0x3AAE JUMP JUMPDEST EQ ISZERO DUP1 ISZERO PUSH2 0x1347 JUMPI POP DUP5 PUSH1 0x6 PUSH1 0x0 PUSH2 0x1333 DUP5 PUSH1 0x1 PUSH2 0x4061 JUMP JUMPDEST DUP2 MSTORE PUSH1 0x20 ADD SWAP1 DUP2 MSTORE PUSH1 0x20 ADD PUSH1 0x0 KECCAK256 PUSH1 0x1 ADD SLOAD EQ JUMPDEST DUP1 ISZERO PUSH2 0x13B1 JUMPI POP CALLER PUSH1 0x6 PUSH1 0x0 PUSH2 0x135E DUP5 PUSH1 0x1 PUSH2 0x4061 JUMP JUMPDEST DUP2 MSTORE PUSH1 0x20 DUP2 ADD SWAP2 SWAP1 SWAP2 MSTORE PUSH1 0x40 ADD PUSH1 0x0 KECCAK256 PUSH1 0x4 ADD SLOAD PUSH1 0x1 PUSH1 0x1 PUSH1 0xA0 SHL SUB AND EQ DUP1 PUSH2 0x13B1 JUMPI POP CALLER PUSH1 0x6 PUSH1 0x0 PUSH2 0x1392 DUP5 PUSH1 0x1 PUSH2 0x4061 JUMP JUMPDEST DUP2 MSTORE PUSH1 0x20 DUP2 ADD SWAP2 SWAP1 SWAP2 MSTORE PUSH1 0x40 ADD PUSH1 0x0 KECCAK256 PUSH1 0x5 ADD SLOAD PUSH1 0x1 PUSH1 0x1 PUSH1 0xA0 SHL SUB AND EQ JUMPDEST ISZERO PUSH2 0x15BE JUMPI PUSH1 0x6 PUSH1 0x0 PUSH2 0x13C5 DUP4 PUSH1 0x1 PUSH2 0x4061 JUMP JUMPDEST DUP2 MSTORE PUSH1 0x20 ADD SWAP1 DUP2 MSTORE PUSH1 0x20 ADD PUSH1 0x0 KECCAK256 PUSH1 0x40 MLOAD DUP1 PUSH2 0x160 ADD PUSH1 0x40 MSTORE SWAP1 DUP2 PUSH1 0x0 DUP3 ADD SLOAD DUP2 MSTORE PUSH1 0x20 ADD PUSH1 0x1 DUP3 ADD SLOAD DUP2 MSTORE PUSH1 0x20 ADD PUSH1 0x2 DUP3 ADD DUP1 SLOAD PUSH2 0x1403 SWAP1 PUSH2 0x4079 JUMP JUMPDEST DUP1 PUSH1 0x1F ADD PUSH1 0x20 DUP1 SWAP2 DIV MUL PUSH1 0x20 ADD PUSH1 0x40 MLOAD SWAP1 DUP2 ADD PUSH1 0x40 MSTORE DUP1 SWAP3 SWAP2 SWAP1 DUP2 DUP2 MSTORE PUSH1 0x20 ADD DUP3 DUP1 SLOAD PUSH2 0x142F SWAP1 PUSH2 0x4079 JUMP JUMPDEST DUP1 ISZERO PUSH2 0x147C JUMPI DUP1 PUSH1 0x1F LT PUSH2 0x1451 JUMPI PUSH2 0x100 DUP1 DUP4 SLOAD DIV MUL DUP4 MSTORE SWAP2 PUSH1 0x20 ADD SWAP2 PUSH2 0x147C JUMP JUMPDEST DUP3 ADD SWAP2 SWAP1 PUSH1 0x0 MSTORE PUSH1 0x20 PUSH1 0x0 KECCAK256 SWAP1 JUMPDEST DUP2 SLOAD DUP2 MSTORE SWAP1 PUSH1 0x1 ADD SWAP1 PUSH1 0x20 ADD DUP1 DUP4 GT PUSH2 0x145F JUMPI DUP3 SWAP1 SUB PUSH1 0x1F AND DUP3 ADD SWAP2 JUMPDEST POP POP POP POP POP DUP2 MSTORE PUSH1 0x20 ADD PUSH1 0x3 DUP3 ADD DUP1 SLOAD PUSH2 0x1495 SWAP1 PUSH2 0x4079 JUMP JUMPDEST DUP1 PUSH1 0x1F ADD PUSH1 0x20 DUP1 SWAP2 DIV MUL PUSH1 0x20 ADD PUSH1 0x40 MLOAD SWAP1 DUP2 ADD PUSH1 0x40 MSTORE DUP1 SWAP3 SWAP2 SWAP1 DUP2 DUP2 MSTORE PUSH1 0x20 ADD DUP3 DUP1 SLOAD PUSH2 0x14C1 SWAP1 PUSH2 0x4079 JUMP JUMPDEST DUP1 ISZERO PUSH2 0x150E JUMPI DUP1 PUSH1 0x1F LT PUSH2 0x14E3 JUMPI PUSH2 0x100 DUP1 DUP4 SLOAD DIV MUL DUP4 MSTORE SWAP2 PUSH1 0x20 ADD SWAP2 PUSH2 0x150E JUMP JUMPDEST DUP3 ADD SWAP2 SWAP1 PUSH1 0x0 MSTORE PUSH1 0x20 PUSH1 0x0 KECCAK256 SWAP1 JUMPDEST DUP2 SLOAD DUP2 MSTORE SWAP1 PUSH1 0x1 ADD SWAP1 PUSH1 0x20 ADD DUP1 DUP4 GT PUSH2 0x14F1 JUMPI DUP3 SWAP1 SUB PUSH1 0x1F AND DUP3 ADD SWAP2 JUMPDEST POP POP POP SWAP2 DUP4 MSTORE POP POP PUSH1 0x4 DUP3 ADD SLOAD PUSH1 0x1 PUSH1 0x1 PUSH1 0xA0 SHL SUB SWAP1 DUP2 AND PUSH1 0x20 DUP4 ADD MSTORE PUSH1 0x5 DUP1 DUP5 ADD SLOAD SWAP1 SWAP2 AND PUSH1 0x40 DUP4 ADD MSTORE PUSH1 0x6 DUP4 ADD SLOAD PUSH1 0x60 DUP4 ADD MSTORE PUSH1 0x7 DUP4 ADD SLOAD PUSH1 0x80 DUP4 ADD MSTORE PUSH1 0x8 DUP4 ADD SLOAD PUSH1 0xA0 DUP4 ADD MSTORE PUSH1 0x9 DUP4 ADD SLOAD PUSH1 0xC0 SWAP1 SWAP3 ADD SWAP2 PUSH1 0xFF AND SWAP1 DUP2 GT ISZERO PUSH2 0x1575 JUMPI PUSH2 0x1575 PUSH2 0x3AAE JUMP JUMPDEST PUSH1 0x5 DUP2 GT ISZERO PUSH2 0x1586 JUMPI PUSH2 0x1586 PUSH2 0x3AAE JUMP JUMPDEST DUP2 MSTORE PUSH1 0x20 ADD PUSH1 0xA DUP3 ADD SLOAD DUP2 MSTORE POP POP DUP5 DUP4 DUP1 PUSH2 0x15A0 SWAP1 PUSH2 0x40C4 JUMP JUMPDEST SWAP5 POP DUP2 MLOAD DUP2 LT PUSH2 0x15B2 JUMPI PUSH2 0x15B2 PUSH2 0x40AE JUMP JUMPDEST PUSH1 0x20 MUL PUSH1 0x20 ADD ADD DUP2 SWAP1 MSTORE POP JUMPDEST DUP1 PUSH2 0x15C8 DUP2 PUSH2 0x40C4 JUMP JUMPDEST SWAP2 POP POP PUSH2 0x12D7 JUMP JUMPDEST POP POP POP SWAP2 SWAP1 POP JUMP JUMPDEST PUSH1 0x0 CALLVALUE GT PUSH2 0x161F JUMPI PUSH1 0x40 MLOAD PUSH3 0x461BCD PUSH1 0xE5 SHL DUP2 MSTORE PUSH1 0x20 PUSH1 0x4 DUP3 ADD MSTORE PUSH1 0x14 PUSH1 0x24 DUP3 ADD MSTORE PUSH20 0x496E73756666696369656E7420616D6F756E7421 PUSH1 0x60 SHL PUSH1 0x44 DUP3 ADD MSTORE PUSH1 0x64 ADD PUSH2 0x526 JUMP JUMPDEST PUSH1 0x0 DUP2 DUP2 MSTORE PUSH1 0x5 PUSH1 0x20 MSTORE PUSH1 0x40 DUP2 KECCAK256 PUSH1 0x7 ADD DUP1 SLOAD CALLVALUE SWAP3 SWAP1 PUSH2 0x1640 SWAP1 DUP5 SWAP1 PUSH2 0x4061 JUMP JUMPDEST SWAP1 SWAP2 SSTORE POP POP POP JUMP JUMPDEST PUSH1 0x0 DUP2 DUP2 MSTORE PUSH1 0x6 PUSH1 0x20 MSTORE PUSH1 0x40 SWAP1 KECCAK256 SLOAD PUSH2 0x1673 JUMPI PUSH1 0x40 MLOAD PUSH3 0x461BCD PUSH1 0xE5 SHL DUP2 MSTORE PUSH1 0x4 ADD PUSH2 0x526 SWAP1 PUSH2 0x3E56 JUMP JUMPDEST PUSH1 0x0 DUP2 DUP2 MSTORE PUSH1 0x6 PUSH1 0x20 MSTORE PUSH1 0x40 SWAP1 KECCAK256 PUSH1 0x4 ADD SLOAD PUSH1 0x1 PUSH1 0x1 PUSH1 0xA0 SHL SUB AND CALLER EQ PUSH2 0x16AC JUMPI PUSH1 0x40 MLOAD PUSH3 0x461BCD PUSH1 0xE5 SHL DUP2 MSTORE PUSH1 0x4 ADD PUSH2 0x526 SWAP1 PUSH2 0x3E82 JUMP JUMPDEST PUSH1 0x0 DUP2 DUP2 MSTORE PUSH1 0x6 PUSH1 0x20 MSTORE PUSH1 0x40 DUP2 KECCAK256 PUSH1 0x9 ADD SLOAD PUSH1 0xFF AND PUSH1 0x5 DUP2 GT ISZERO PUSH2 0x16D2 JUMPI PUSH2 0x16D2 PUSH2 0x3AAE JUMP JUMPDEST EQ PUSH2 0x16EF JUMPI PUSH1 0x40 MLOAD PUSH3 0x461BCD PUSH1 0xE5 SHL DUP2 MSTORE PUSH1 0x4 ADD PUSH2 0x526 SWAP1 PUSH2 0x3F15 JUMP JUMPDEST PUSH1 0x0 DUP2 DUP2 MSTORE PUSH1 0x6 PUSH1 0x20 MSTORE PUSH1 0x40 SWAP1 KECCAK256 PUSH1 0x9 ADD DUP1 SLOAD PUSH1 0x1 SWAP2 SWAP1 PUSH1 0xFF NOT AND DUP3 DUP1 PUSH2 0x5CC JUMP JUMPDEST PUSH1 0x0 DUP2 DUP2 MSTORE PUSH1 0x6 PUSH1 0x20 MSTORE PUSH1 0x40 SWAP1 KECCAK256 SLOAD PUSH2 0x173C JUMPI PUSH1 0x40 MLOAD PUSH3 0x461BCD PUSH1 0xE5 SHL DUP2 MSTORE PUSH1 0x4 ADD PUSH2 0x526 SWAP1 PUSH2 0x3E56 JUMP JUMPDEST PUSH1 0x0 DUP2 DUP2 MSTORE PUSH1 0x6 PUSH1 0x20 MSTORE PUSH1 0x40 SWAP1 KECCAK256 PUSH1 0x4 ADD SLOAD PUSH1 0x1 PUSH1 0x1 PUSH1 0xA0 SHL SUB AND CALLER EQ DUP1 PUSH2 0x177D JUMPI POP PUSH1 0x0 DUP2 DUP2 MSTORE PUSH1 0x6 PUSH1 0x20 MSTORE PUSH1 0x40 SWAP1 KECCAK256 PUSH1 0x5 ADD SLOAD PUSH1 0x1 PUSH1 0x1 PUSH1 0xA0 SHL SUB AND CALLER EQ JUMPDEST PUSH2 0x1799 JUMPI PUSH1 0x40 MLOAD PUSH3 0x461BCD PUSH1 0xE5 SHL DUP2 MSTORE PUSH1 0x4 ADD PUSH2 0x526 SWAP1 PUSH2 0x3E82 JUMP JUMPDEST PUSH1 0x1 PUSH1 0x0 DUP3 DUP2 MSTORE PUSH1 0x6 PUSH1 0x20 MSTORE PUSH1 0x40 SWAP1 KECCAK256 PUSH1 0x9 ADD SLOAD PUSH1 0xFF AND PUSH1 0x5 DUP2 GT ISZERO PUSH2 0x17C1 JUMPI PUSH2 0x17C1 PUSH2 0x3AAE JUMP JUMPDEST EQ PUSH2 0x17DE JUMPI PUSH1 0x40 MLOAD PUSH3 0x461BCD PUSH1 0xE5 SHL DUP2 MSTORE PUSH1 0x4 ADD PUSH2 0x526 SWAP1 PUSH2 0x3EB0 JUMP JUMPDEST PUSH1 0x0 DUP2 DUP2 MSTORE PUSH1 0x6 PUSH1 0x20 MSTORE PUSH1 0x40 DUP2 KECCAK256 PUSH1 0x9 ADD DUP1 SLOAD PUSH1 0xFF NOT AND PUSH1 0x1 DUP4 PUSH2 0x5CC JUMP JUMPDEST PUSH2 0x1805 PUSH2 0x32A9 JUMP JUMPDEST PUSH2 0x180F PUSH1 0x0 PUSH2 0x3303 JUMP JUMPDEST JUMP JUMPDEST PUSH2 0x1819 PUSH2 0x35B6 JUMP JUMPDEST PUSH1 0x0 JUMPDEST PUSH1 0x3 SLOAD DUP2 LT ISZERO PUSH2 0x19A6 JUMPI CALLER PUSH1 0x5 PUSH1 0x0 PUSH2 0x1836 DUP5 PUSH1 0x1 PUSH2 0x4061 JUMP JUMPDEST DUP2 MSTORE PUSH1 0x20 DUP2 ADD SWAP2 SWAP1 SWAP2 MSTORE PUSH1 0x40 ADD PUSH1 0x0 KECCAK256 PUSH1 0x3 ADD SLOAD PUSH1 0x1 PUSH1 0x1 PUSH1 0xA0 SHL SUB AND EQ ISZERO PUSH2 0x1994 JUMPI DUP2 MLOAD DUP3 PUSH2 0x1865 DUP3 PUSH2 0x40C4 JUMP JUMPDEST DUP2 MSTORE POP POP PUSH1 0x40 MLOAD DUP1 PUSH1 0x40 ADD PUSH1 0x40 MSTORE DUP1 PUSH1 0x11 DUP2 MSTORE PUSH1 0x20 ADD PUSH17 0x596F757220476C6F62616C205374617473 PUSH1 0x78 SHL DUP2 MSTORE POP DUP3 PUSH1 0x20 ADD DUP2 SWAP1 MSTORE POP PUSH1 0x40 MLOAD DUP1 PUSH1 0x60 ADD PUSH1 0x40 MSTORE DUP1 PUSH1 0x38 DUP2 MSTORE PUSH1 0x20 ADD PUSH2 0x4138 PUSH1 0x38 SWAP2 CODECOPY PUSH1 0x40 DUP4 ADD MSTORE CALLER PUSH1 0x60 DUP4 ADD MSTORE PUSH1 0x5 PUSH1 0x0 PUSH2 0x18CE DUP4 PUSH1 0x1 PUSH2 0x4061 JUMP JUMPDEST DUP2 MSTORE PUSH1 0x20 ADD SWAP1 DUP2 MSTORE PUSH1 0x20 ADD PUSH1 0x0 KECCAK256 PUSH1 0x6 ADD SLOAD DUP3 PUSH1 0xC0 ADD DUP2 DUP2 MLOAD PUSH2 0x18F1 SWAP2 SWAP1 PUSH2 0x4061 JUMP JUMPDEST SWAP1 MSTORE POP PUSH1 0x5 PUSH1 0x0 PUSH2 0x1903 DUP4 PUSH1 0x1 PUSH2 0x4061 JUMP JUMPDEST DUP2 MSTORE PUSH1 0x20 ADD SWAP1 DUP2 MSTORE PUSH1 0x20 ADD PUSH1 0x0 KECCAK256 PUSH1 0x4 ADD SLOAD DUP3 PUSH1 0x80 ADD DUP2 DUP2 MLOAD PUSH2 0x1926 SWAP2 SWAP1 PUSH2 0x4061 JUMP JUMPDEST SWAP1 MSTORE POP PUSH1 0x5 PUSH1 0x0 PUSH2 0x1938 DUP4 PUSH1 0x1 PUSH2 0x4061 JUMP JUMPDEST DUP2 MSTORE PUSH1 0x20 ADD SWAP1 DUP2 MSTORE PUSH1 0x20 ADD PUSH1 0x0 KECCAK256 PUSH1 0x5 ADD SLOAD DUP3 PUSH1 0xA0 ADD DUP2 DUP2 MLOAD PUSH2 0x195B SWAP2 SWAP1 PUSH2 0x4061 JUMP JUMPDEST SWAP1 MSTORE POP PUSH1 0x5 PUSH1 0x0 PUSH2 0x196D DUP4 PUSH1 0x1 PUSH2 0x4061 JUMP JUMPDEST DUP2 MSTORE PUSH1 0x20 ADD SWAP1 DUP2 MSTORE PUSH1 0x20 ADD PUSH1 0x0 KECCAK256 PUSH1 0x7 ADD SLOAD DUP3 PUSH1 0xE0 ADD DUP2 DUP2 MLOAD PUSH2 0x1990 SWAP2 SWAP1 PUSH2 0x4061 JUMP JUMPDEST SWAP1 MSTORE POP JUMPDEST DUP1 PUSH2 0x199E DUP2 PUSH2 0x40C4 JUMP JUMPDEST SWAP2 POP POP PUSH2 0x181C JUMP JUMPDEST POP SWAP1 JUMP JUMPDEST PUSH2 0x19B2 PUSH2 0x3501 JUMP JUMPDEST PUSH1 0x9 PUSH1 0x0 DUP5 DUP2 MSTORE PUSH1 0x20 ADD SWAP1 DUP2 MSTORE PUSH1 0x20 ADD PUSH1 0x0 KECCAK256 PUSH1 0x0 DUP4 DUP2 MSTORE PUSH1 0x20 ADD SWAP1 DUP2 MSTORE PUSH1 0x20 ADD PUSH1 0x0 KECCAK256 PUSH1 0x40 MLOAD DUP1 PUSH1 0xA0 ADD PUSH1 0x40 MSTORE SWAP1 DUP2 PUSH1 0x0 DUP3 ADD SLOAD DUP2 MSTORE PUSH1 0x20 ADD PUSH1 0x1 DUP3 ADD SLOAD DUP2 MSTORE PUSH1 0x20 ADD PUSH1 0x2 DUP3 ADD DUP1 SLOAD PUSH2 0x1A05 SWAP1 PUSH2 0x4079 JUMP JUMPDEST DUP1 PUSH1 0x1F ADD PUSH1 0x20 DUP1 SWAP2 DIV MUL PUSH1 0x20 ADD PUSH1 0x40 MLOAD SWAP1 DUP2 ADD PUSH1 0x40 MSTORE DUP1 SWAP3 SWAP2 SWAP1 DUP2 DUP2 MSTORE PUSH1 0x20 ADD DUP3 DUP1 SLOAD PUSH2 0x1A31 SWAP1 PUSH2 0x4079 JUMP JUMPDEST DUP1 ISZERO PUSH2 0x1A7E JUMPI DUP1 PUSH1 0x1F LT PUSH2 0x1A53 JUMPI PUSH2 0x100 DUP1 DUP4 SLOAD DIV MUL DUP4 MSTORE SWAP2 PUSH1 0x20 ADD SWAP2 PUSH2 0x1A7E JUMP JUMPDEST DUP3 ADD SWAP2 SWAP1 PUSH1 0x0 MSTORE PUSH1 0x20 PUSH1 0x0 KECCAK256 SWAP1 JUMPDEST DUP2 SLOAD DUP2 MSTORE SWAP1 PUSH1 0x1 ADD SWAP1 PUSH1 0x20 ADD DUP1 DUP4 GT PUSH2 0x1A61 JUMPI DUP3 SWAP1 SUB PUSH1 0x1F AND DUP3 ADD SWAP2 JUMPDEST POP POP POP SWAP2 DUP4 MSTORE POP POP PUSH1 0x3 DUP3 ADD SLOAD PUSH1 0x1 PUSH1 0x1 PUSH1 0xA0 SHL SUB AND PUSH1 0x20 DUP3 ADD MSTORE PUSH1 0x4 SWAP1 SWAP2 ADD SLOAD PUSH1 0x40 SWAP1 SWAP2 ADD MSTORE SWAP4 SWAP3 POP POP POP JUMP JUMPDEST PUSH1 0x0 DUP3 MLOAD GT PUSH2 0x1ACD JUMPI PUSH1 0x40 MLOAD PUSH3 0x461BCD PUSH1 0xE5 SHL DUP2 MSTORE PUSH1 0x4 ADD PUSH2 0x526 SWAP1 PUSH2 0x3FCE JUMP JUMPDEST PUSH1 0x0 DUP2 MLOAD GT PUSH2 0x1AEE JUMPI PUSH1 0x40 MLOAD PUSH3 0x461BCD PUSH1 0xE5 SHL DUP2 MSTORE PUSH1 0x4 ADD PUSH2 0x526 SWAP1 PUSH2 0x3FFD JUMP JUMPDEST PUSH2 0x1AFC PUSH1 0x3 DUP1 SLOAD PUSH1 0x1 ADD SWAP1 SSTORE JUMP JUMPDEST PUSH2 0x1B04 PUSH2 0x35B6 JUMP JUMPDEST PUSH1 0x3 SLOAD DUP2 MSTORE PUSH1 0x20 DUP2 ADD DUP4 SWAP1 MSTORE PUSH1 0x40 DUP2 ADD DUP3 SWAP1 MSTORE CALLER PUSH1 0x60 DUP3 ADD MSTORE PUSH2 0x1B25 PUSH2 0x328A JUMP JUMPDEST PUSH2 0x120 DUP3 ADD MSTORE DUP1 MLOAD PUSH1 0x0 SWAP1 DUP2 MSTORE PUSH1 0x5 PUSH1 0x20 SWAP1 DUP2 MSTORE PUSH1 0x40 SWAP1 SWAP2 KECCAK256 DUP3 MLOAD DUP2 SSTORE DUP2 DUP4 ADD MLOAD DUP1 MLOAD DUP5 SWAP4 PUSH2 0x1B5B SWAP3 PUSH1 0x1 DUP6 ADD SWAP3 SWAP2 ADD SWAP1 PUSH2 0x3447 JUMP JUMPDEST POP PUSH1 0x40 DUP3 ADD MLOAD DUP1 MLOAD PUSH2 0x1B77 SWAP2 PUSH1 0x2 DUP5 ADD SWAP2 PUSH1 0x20 SWAP1 SWAP2 ADD SWAP1 PUSH2 0x3447 JUMP JUMPDEST POP PUSH1 0x60 DUP3 ADD MLOAD PUSH1 0x3 DUP3 ADD DUP1 SLOAD PUSH1 0x1 PUSH1 0x1 PUSH1 0xA0 SHL SUB NOT AND PUSH1 0x1 PUSH1 0x1 PUSH1 0xA0 SHL SUB SWAP1 SWAP3 AND SWAP2 SWAP1 SWAP2 OR SWAP1 SSTORE PUSH1 0x80 DUP3 ADD MLOAD PUSH1 0x4 DUP3 ADD SSTORE PUSH1 0xA0 DUP3 ADD MLOAD PUSH1 0x5 DUP3 ADD SSTORE PUSH1 0xC0 DUP3 ADD MLOAD PUSH1 0x6 DUP3 ADD SSTORE PUSH1 0xE0 DUP3 ADD MLOAD PUSH1 0x7 DUP3 ADD SSTORE PUSH2 0x100 DUP3 ADD MLOAD PUSH1 0x8 DUP3 ADD SSTORE PUSH2 0x120 SWAP1 SWAP2 ADD MLOAD PUSH1 0x9 SWAP1 SWAP2 ADD SSTORE POP POP POP JUMP JUMPDEST PUSH1 0x0 DUP4 DUP2 MSTORE PUSH1 0x5 PUSH1 0x20 MSTORE PUSH1 0x40 SWAP1 KECCAK256 SLOAD PUSH2 0x1C0E JUMPI PUSH1 0x40 MLOAD PUSH3 0x461BCD PUSH1 0xE5 SHL DUP2 MSTORE PUSH1 0x4 ADD PUSH2 0x526 SWAP1 PUSH2 0x3EDE JUMP JUMPDEST PUSH1 0x0 DUP4 DUP2 MSTORE PUSH1 0x5 PUSH1 0x20 MSTORE PUSH1 0x40 SWAP1 KECCAK256 PUSH1 0x3 ADD SLOAD PUSH1 0x1 PUSH1 0x1 PUSH1 0xA0 SHL SUB AND CALLER EQ PUSH2 0x1C6E JUMPI PUSH1 0x40 MLOAD PUSH3 0x461BCD PUSH1 0xE5 SHL DUP2 MSTORE PUSH1 0x20 PUSH1 0x4 DUP3 ADD MSTORE PUSH1 0x14 PUSH1 0x24 DUP3 ADD MSTORE PUSH20 0x556E6F7574686F72697A656420656E7469747921 PUSH1 0x60 SHL PUSH1 0x44 DUP3 ADD MSTORE PUSH1 0x64 ADD PUSH2 0x526 JUMP JUMPDEST PUSH1 0x0 DUP3 MLOAD GT PUSH2 0x1C8F JUMPI PUSH1 0x40 MLOAD PUSH3 0x461BCD PUSH1 0xE5 SHL DUP2 MSTORE PUSH1 0x4 ADD PUSH2 0x526 SWAP1 PUSH2 0x3FCE JUMP JUMPDEST PUSH1 0x0 DUP2 MLOAD GT PUSH2 0x1CB0 JUMPI PUSH1 0x40 MLOAD PUSH3 0x461BCD PUSH1 0xE5 SHL DUP2 MSTORE PUSH1 0x4 ADD PUSH2 0x526 SWAP1 PUSH2 0x3FFD JUMP JUMPDEST PUSH1 0x0 DUP4 DUP2 MSTORE PUSH1 0x5 PUSH1 0x20 SWAP1 DUP2 MSTORE PUSH1 0x40 SWAP1 SWAP2 KECCAK256 DUP4 MLOAD PUSH2 0x1CD5 SWAP3 PUSH1 0x1 SWAP1 SWAP3 ADD SWAP2 DUP6 ADD SWAP1 PUSH2 0x3447 JUMP JUMPDEST POP PUSH1 0x0 DUP4 DUP2 MSTORE PUSH1 0x5 PUSH1 0x20 SWAP1 DUP2 MSTORE PUSH1 0x40 SWAP1 SWAP2 KECCAK256 DUP3 MLOAD PUSH2 0x1173 SWAP3 PUSH1 0x2 SWAP1 SWAP3 ADD SWAP2 DUP5 ADD SWAP1 PUSH2 0x3447 JUMP JUMPDEST PUSH1 0x60 PUSH1 0x0 DUP1 JUMPDEST PUSH1 0x2 SLOAD DUP2 LT ISZERO PUSH2 0x1DD5 JUMPI PUSH1 0x2 PUSH1 0x6 PUSH1 0x0 PUSH2 0x1D1C DUP5 PUSH1 0x1 PUSH2 0x4061 JUMP JUMPDEST DUP2 MSTORE PUSH1 0x20 DUP2 ADD SWAP2 SWAP1 SWAP2 MSTORE PUSH1 0x40 ADD PUSH1 0x0 KECCAK256 PUSH1 0x9 ADD SLOAD PUSH1 0xFF AND PUSH1 0x5 DUP2 GT ISZERO PUSH2 0x1D44 JUMPI PUSH2 0x1D44 PUSH2 0x3AAE JUMP JUMPDEST EQ ISZERO DUP1 ISZERO PUSH2 0x1DB0 JUMPI POP CALLER PUSH1 0x6 PUSH1 0x0 PUSH2 0x1D5D DUP5 PUSH1 0x1 PUSH2 0x4061 JUMP JUMPDEST DUP2 MSTORE PUSH1 0x20 DUP2 ADD SWAP2 SWAP1 SWAP2 MSTORE PUSH1 0x40 ADD PUSH1 0x0 KECCAK256 PUSH1 0x4 ADD SLOAD PUSH1 0x1 PUSH1 0x1 PUSH1 0xA0 SHL SUB AND EQ DUP1 PUSH2 0x1DB0 JUMPI POP CALLER PUSH1 0x6 PUSH1 0x0 PUSH2 0x1D91 DUP5 PUSH1 0x1 PUSH2 0x4061 JUMP JUMPDEST DUP2 MSTORE PUSH1 0x20 DUP2 ADD SWAP2 SWAP1 SWAP2 MSTORE PUSH1 0x40 ADD PUSH1 0x0 KECCAK256 PUSH1 0x5 ADD SLOAD PUSH1 0x1 PUSH1 0x1 PUSH1 0xA0 SHL SUB AND EQ JUMPDEST ISZERO PUSH2 0x1DC3 JUMPI DUP2 PUSH2 0x1DBF DUP2 PUSH2 0x40C4 JUMP JUMPDEST SWAP3 POP POP JUMPDEST DUP1 PUSH2 0x1DCD DUP2 PUSH2 0x40C4 JUMP JUMPDEST SWAP2 POP POP PUSH2 0x1D01 JUMP JUMPDEST POP DUP1 PUSH1 0x1 PUSH1 0x1 PUSH1 0x40 SHL SUB DUP2 GT ISZERO PUSH2 0x1DEE JUMPI PUSH2 0x1DEE PUSH2 0x3640 JUMP JUMPDEST PUSH1 0x40 MLOAD SWAP1 DUP1 DUP3 MSTORE DUP1 PUSH1 0x20 MUL PUSH1 0x20 ADD DUP3 ADD PUSH1 0x40 MSTORE DUP1 ISZERO PUSH2 0x1E27 JUMPI DUP2 PUSH1 0x20 ADD JUMPDEST PUSH2 0x1E14 PUSH2 0x3539 JUMP JUMPDEST DUP2 MSTORE PUSH1 0x20 ADD SWAP1 PUSH1 0x1 SWAP1 SUB SWAP1 DUP2 PUSH2 0x1E0C JUMPI SWAP1 POP JUMPDEST POP SWAP2 POP PUSH1 0x0 DUP1 JUMPDEST PUSH1 0x2 SLOAD DUP2 LT ISZERO PUSH2 0x20FC JUMPI PUSH1 0x2 PUSH1 0x6 PUSH1 0x0 PUSH2 0x1E49 DUP5 PUSH1 0x1 PUSH2 0x4061 JUMP JUMPDEST DUP2 MSTORE PUSH1 0x20 DUP2 ADD SWAP2 SWAP1 SWAP2 MSTORE PUSH1 0x40 ADD PUSH1 0x0 KECCAK256 PUSH1 0x9 ADD SLOAD PUSH1 0xFF AND PUSH1 0x5 DUP2 GT ISZERO PUSH2 0x1E71 JUMPI PUSH2 0x1E71 PUSH2 0x3AAE JUMP JUMPDEST EQ ISZERO DUP1 ISZERO PUSH2 0x1EDD JUMPI POP CALLER PUSH1 0x6 PUSH1 0x0 PUSH2 0x1E8A DUP5 PUSH1 0x1 PUSH2 0x4061 JUMP JUMPDEST DUP2 MSTORE PUSH1 0x20 DUP2 ADD SWAP2 SWAP1 SWAP2 MSTORE PUSH1 0x40 ADD PUSH1 0x0 KECCAK256 PUSH1 0x4 ADD SLOAD PUSH1 0x1 PUSH1 0x1 PUSH1 0xA0 SHL SUB AND EQ DUP1 PUSH2 0x1EDD JUMPI POP CALLER PUSH1 0x6 PUSH1 0x0 PUSH2 0x1EBE DUP5 PUSH1 0x1 PUSH2 0x4061 JUMP JUMPDEST DUP2 MSTORE PUSH1 0x20 DUP2 ADD SWAP2 SWAP1 SWAP2 MSTORE PUSH1 0x40 ADD PUSH1 0x0 KECCAK256 PUSH1 0x5 ADD SLOAD PUSH1 0x1 PUSH1 0x1 PUSH1 0xA0 SHL SUB AND EQ JUMPDEST ISZERO PUSH2 0x20EA JUMPI PUSH1 0x6 PUSH1 0x0 PUSH2 0x1EF1 DUP4 PUSH1 0x1 PUSH2 0x4061 JUMP JUMPDEST DUP2 MSTORE PUSH1 0x20 ADD SWAP1 DUP2 MSTORE PUSH1 0x20 ADD PUSH1 0x0 KECCAK256 PUSH1 0x40 MLOAD DUP1 PUSH2 0x160 ADD PUSH1 0x40 MSTORE SWAP1 DUP2 PUSH1 0x0 DUP3 ADD SLOAD DUP2 MSTORE PUSH1 0x20 ADD PUSH1 0x1 DUP3 ADD SLOAD DUP2 MSTORE PUSH1 0x20 ADD PUSH1 0x2 DUP3 ADD DUP1 SLOAD PUSH2 0x1F2F SWAP1 PUSH2 0x4079 JUMP JUMPDEST DUP1 PUSH1 0x1F ADD PUSH1 0x20 DUP1 SWAP2 DIV MUL PUSH1 0x20 ADD PUSH1 0x40 MLOAD SWAP1 DUP2 ADD PUSH1 0x40 MSTORE DUP1 SWAP3 SWAP2 SWAP1 DUP2 DUP2 MSTORE PUSH1 0x20 ADD DUP3 DUP1 SLOAD PUSH2 0x1F5B SWAP1 PUSH2 0x4079 JUMP JUMPDEST DUP1 ISZERO PUSH2 0x1FA8 JUMPI DUP1 PUSH1 0x1F LT PUSH2 0x1F7D JUMPI PUSH2 0x100 DUP1 DUP4 SLOAD DIV MUL DUP4 MSTORE SWAP2 PUSH1 0x20 ADD SWAP2 PUSH2 0x1FA8 JUMP JUMPDEST DUP3 ADD SWAP2 SWAP1 PUSH1 0x0 MSTORE PUSH1 0x20 PUSH1 0x0 KECCAK256 SWAP1 JUMPDEST DUP2 SLOAD DUP2 MSTORE SWAP1 PUSH1 0x1 ADD SWAP1 PUSH1 0x20 ADD DUP1 DUP4 GT PUSH2 0x1F8B JUMPI DUP3 SWAP1 SUB PUSH1 0x1F AND DUP3 ADD SWAP2 JUMPDEST POP POP POP POP POP DUP2 MSTORE PUSH1 0x20 ADD PUSH1 0x3 DUP3 ADD DUP1 SLOAD PUSH2 0x1FC1 SWAP1 PUSH2 0x4079 JUMP JUMPDEST DUP1 PUSH1 0x1F ADD PUSH1 0x20 DUP1 SWAP2 DIV MUL PUSH1 0x20 ADD PUSH1 0x40 MLOAD SWAP1 DUP2 ADD PUSH1 0x40 MSTORE DUP1 SWAP3 SWAP2 SWAP1 DUP2 DUP2 MSTORE PUSH1 0x20 ADD DUP3 DUP1 SLOAD PUSH2 0x1FED SWAP1 PUSH2 0x4079 JUMP JUMPDEST DUP1 ISZERO PUSH2 0x203A JUMPI DUP1 PUSH1 0x1F LT PUSH2 0x200F JUMPI PUSH2 0x100 DUP1 DUP4 SLOAD DIV MUL DUP4 MSTORE SWAP2 PUSH1 0x20 ADD SWAP2 PUSH2 0x203A JUMP JUMPDEST DUP3 ADD SWAP2 SWAP1 PUSH1 0x0 MSTORE PUSH1 0x20 PUSH1 0x0 KECCAK256 SWAP1 JUMPDEST DUP2 SLOAD DUP2 MSTORE SWAP1 PUSH1 0x1 ADD SWAP1 PUSH1 0x20 ADD DUP1 DUP4 GT PUSH2 0x201D JUMPI DUP3 SWAP1 SUB PUSH1 0x1F AND DUP3 ADD SWAP2 JUMPDEST POP POP POP SWAP2 DUP4 MSTORE POP POP PUSH1 0x4 DUP3 ADD SLOAD PUSH1 0x1 PUSH1 0x1 PUSH1 0xA0 SHL SUB SWAP1 DUP2 AND PUSH1 0x20 DUP4 ADD MSTORE PUSH1 0x5 DUP1 DUP5 ADD SLOAD SWAP1 SWAP2 AND PUSH1 0x40 DUP4 ADD MSTORE PUSH1 0x6 DUP4 ADD SLOAD PUSH1 0x60 DUP4 ADD MSTORE PUSH1 0x7 DUP4 ADD SLOAD PUSH1 0x80 DUP4 ADD MSTORE PUSH1 0x8 DUP4 ADD SLOAD PUSH1 0xA0 DUP4 ADD MSTORE PUSH1 0x9 DUP4 ADD SLOAD PUSH1 0xC0 SWAP1 SWAP3 ADD SWAP2 PUSH1 0xFF AND SWAP1 DUP2 GT ISZERO PUSH2 0x20A1 JUMPI PUSH2 0x20A1 PUSH2 0x3AAE JUMP JUMPDEST PUSH1 0x5 DUP2 GT ISZERO PUSH2 0x20B2 JUMPI PUSH2 0x20B2 PUSH2 0x3AAE JUMP JUMPDEST DUP2 MSTORE PUSH1 0x20 ADD PUSH1 0xA DUP3 ADD SLOAD DUP2 MSTORE POP POP DUP5 DUP4 DUP1 PUSH2 0x20CC SWAP1 PUSH2 0x40C4 JUMP JUMPDEST SWAP5 POP DUP2 MLOAD DUP2 LT PUSH2 0x20DE JUMPI PUSH2 0x20DE PUSH2 0x40AE JUMP JUMPDEST PUSH1 0x20 MUL PUSH1 0x20 ADD ADD DUP2 SWAP1 MSTORE POP JUMPDEST DUP1 PUSH2 0x20F4 DUP2 PUSH2 0x40C4 JUMP JUMPDEST SWAP2 POP POP PUSH2 0x1E2E JUMP JUMPDEST POP POP POP SWAP1 JUMP JUMPDEST PUSH2 0x210A PUSH2 0x3353 JUMP JUMPDEST PUSH1 0x0 DUP2 DUP2 MSTORE PUSH1 0x6 PUSH1 0x20 MSTORE PUSH1 0x40 SWAP1 KECCAK256 SLOAD PUSH2 0x2135 JUMPI PUSH1 0x40 MLOAD PUSH3 0x461BCD PUSH1 0xE5 SHL DUP2 MSTORE PUSH1 0x4 ADD PUSH2 0x526 SWAP1 PUSH2 0x3E56 JUMP JUMPDEST PUSH1 0x0 DUP2 DUP2 MSTORE PUSH1 0x6 PUSH1 0x20 MSTORE PUSH1 0x40 SWAP1 KECCAK256 PUSH1 0x4 ADD SLOAD PUSH1 0x1 PUSH1 0x1 PUSH1 0xA0 SHL SUB AND CALLER EQ PUSH2 0x216E JUMPI PUSH1 0x40 MLOAD PUSH3 0x461BCD PUSH1 0xE5 SHL DUP2 MSTORE PUSH1 0x4 ADD PUSH2 0x526 SWAP1 PUSH2 0x3E82 JUMP JUMPDEST PUSH1 0x3 PUSH1 0x0 DUP3 DUP2 MSTORE PUSH1 0x6 PUSH1 0x20 MSTORE PUSH1 0x40 SWAP1 KECCAK256 PUSH1 0x9 ADD SLOAD PUSH1 0xFF AND PUSH1 0x5 DUP2 GT ISZERO PUSH2 0x2196 JUMPI PUSH2 0x2196 PUSH2 0x3AAE JUMP JUMPDEST EQ PUSH2 0x21DB JUMPI PUSH1 0x40 MLOAD PUSH3 0x461BCD PUSH1 0xE5 SHL DUP2 MSTORE PUSH1 0x20 PUSH1 0x4 DUP3 ADD MSTORE PUSH1 0x15 PUSH1 0x24 DUP3 ADD MSTORE PUSH21 0x506179726F6C6C206E6F7420417070726F76656421 PUSH1 0x58 SHL PUSH1 0x44 DUP3 ADD MSTORE PUSH1 0x64 ADD PUSH2 0x526 JUMP JUMPDEST PUSH1 0x0 DUP2 DUP2 MSTORE PUSH1 0x6 PUSH1 0x20 DUP2 SWAP1 MSTORE PUSH1 0x40 SWAP1 SWAP2 KECCAK256 SWAP1 DUP2 ADD SLOAD PUSH1 0x7 SWAP1 SWAP2 ADD SLOAD PUSH2 0x2200 SWAP2 SWAP1 PUSH2 0x40DF JUMP JUMPDEST PUSH1 0x0 DUP3 DUP2 MSTORE PUSH1 0x6 PUSH1 0x20 SWAP1 DUP2 MSTORE PUSH1 0x40 DUP1 DUP4 KECCAK256 PUSH1 0x1 ADD SLOAD DUP4 MSTORE PUSH1 0x5 SWAP1 SWAP2 MSTORE SWAP1 KECCAK256 PUSH1 0x7 ADD SLOAD LT ISZERO PUSH2 0x2264 JUMPI PUSH1 0x40 MLOAD PUSH3 0x461BCD PUSH1 0xE5 SHL DUP2 MSTORE PUSH1 0x20 PUSH1 0x4 DUP3 ADD MSTORE PUSH1 0x11 PUSH1 0x24 DUP3 ADD MSTORE PUSH17 0x125B9CDD59999A58DA595B9D08199D5B99 PUSH1 0x7A SHL PUSH1 0x44 DUP3 ADD MSTORE PUSH1 0x64 ADD PUSH2 0x526 JUMP JUMPDEST PUSH1 0x0 DUP2 DUP2 MSTORE PUSH1 0x6 PUSH1 0x20 DUP2 SWAP1 MSTORE PUSH1 0x40 DUP3 KECCAK256 PUSH1 0x7 DUP2 ADD SLOAD SWAP2 ADD SLOAD SWAP1 SWAP2 PUSH1 0x64 PUSH2 0x228A DUP4 DUP1 PUSH2 0x40DF JUMP JUMPDEST PUSH2 0x2294 SWAP2 SWAP1 PUSH2 0x40FE JUMP JUMPDEST SWAP1 POP PUSH1 0x1 JUMPDEST DUP4 DUP2 GT PUSH2 0x22EC JUMPI PUSH1 0x0 DUP6 DUP2 MSTORE PUSH1 0x9 PUSH1 0x20 SWAP1 DUP2 MSTORE PUSH1 0x40 DUP1 DUP4 KECCAK256 DUP5 DUP5 MSTORE SWAP1 SWAP2 MSTORE SWAP1 KECCAK256 PUSH1 0x3 ADD SLOAD PUSH1 0x1 PUSH1 0x1 PUSH1 0xA0 SHL SUB AND PUSH2 0x22D9 DUP2 PUSH2 0x22D4 DUP6 DUP8 PUSH2 0x4120 JUMP JUMPDEST PUSH2 0x33AD JUMP JUMPDEST POP DUP1 PUSH2 0x22E4 DUP2 PUSH2 0x40C4 JUMP JUMPDEST SWAP2 POP POP PUSH2 0x2299 JUMP JUMPDEST POP PUSH2 0x22F7 DUP4 DUP4 PUSH2 0x40DF JUMP JUMPDEST PUSH1 0x0 DUP6 DUP2 MSTORE PUSH1 0x6 PUSH1 0x20 SWAP1 DUP2 MSTORE PUSH1 0x40 DUP1 DUP4 KECCAK256 PUSH1 0x1 ADD SLOAD DUP4 MSTORE PUSH1 0x5 SWAP1 SWAP2 MSTORE DUP2 KECCAK256 PUSH1 0x7 ADD DUP1 SLOAD SWAP1 SWAP2 SWAP1 PUSH2 0x2328 SWAP1 DUP5 SWAP1 PUSH2 0x4120 JUMP JUMPDEST SWAP1 SWAP2 SSTORE POP PUSH2 0x2338 SWAP1 POP DUP4 DUP3 PUSH2 0x40DF JUMP JUMPDEST PUSH1 0x0 DUP6 DUP2 MSTORE PUSH1 0x6 PUSH1 0x20 SWAP1 DUP2 MSTORE PUSH1 0x40 DUP1 DUP4 KECCAK256 PUSH1 0x1 ADD SLOAD DUP4 MSTORE PUSH1 0x5 SWAP1 SWAP2 MSTORE DUP2 KECCAK256 PUSH1 0x8 ADD DUP1 SLOAD SWAP1 SWAP2 SWAP1 PUSH2 0x2369 SWAP1 DUP5 SWAP1 PUSH2 0x4061 JUMP JUMPDEST SWAP1 SWAP2 SSTORE POP POP PUSH1 0x0 DUP5 DUP2 MSTORE PUSH1 0x6 PUSH1 0x20 DUP2 DUP2 MSTORE PUSH1 0x40 DUP1 DUP5 KECCAK256 PUSH1 0x1 ADD SLOAD DUP5 MSTORE PUSH1 0x5 SWAP1 SWAP2 MSTORE DUP3 KECCAK256 ADD DUP1 SLOAD SWAP2 PUSH2 0x2399 DUP4 PUSH2 0x40C4 JUMP JUMPDEST SWAP1 SWAP2 SSTORE POP POP POP PUSH1 0x0 DUP4 DUP2 MSTORE PUSH1 0x6 PUSH1 0x20 MSTORE PUSH1 0x40 SWAP1 KECCAK256 PUSH1 0x9 ADD DUP1 SLOAD PUSH1 0xFF NOT AND PUSH1 0x5 OR SWAP1 SSTORE POP POP PUSH1 0x1 DUP1 SSTORE POP JUMP JUMPDEST POP JUMP JUMPDEST PUSH1 0x60 PUSH2 0x23D2 PUSH1 0x4 SLOAD SWAP1 JUMP JUMPDEST PUSH1 0x1 PUSH1 0x1 PUSH1 0x40 SHL SUB DUP2 GT ISZERO PUSH2 0x23E9 JUMPI PUSH2 0x23E9 PUSH2 0x3640 JUMP JUMPDEST PUSH1 0x40 MLOAD SWAP1 DUP1 DUP3 MSTORE DUP1 PUSH1 0x20 MUL PUSH1 0x20 ADD DUP3 ADD PUSH1 0x40 MSTORE DUP1 ISZERO PUSH2 0x2422 JUMPI DUP2 PUSH1 0x20 ADD JUMPDEST PUSH2 0x240F PUSH2 0x3501 JUMP JUMPDEST DUP2 MSTORE PUSH1 0x20 ADD SWAP1 PUSH1 0x1 SWAP1 SUB SWAP1 DUP2 PUSH2 0x2407 JUMPI SWAP1 POP JUMPDEST POP SWAP1 POP PUSH1 0x0 JUMPDEST PUSH1 0x4 SLOAD DUP2 LT ISZERO PUSH2 0x19A6 JUMPI PUSH1 0x7 PUSH1 0x0 PUSH2 0x2441 DUP4 PUSH1 0x1 PUSH2 0x4061 JUMP JUMPDEST DUP2 MSTORE PUSH1 0x20 ADD SWAP1 DUP2 MSTORE PUSH1 0x20 ADD PUSH1 0x0 KECCAK256 PUSH1 0x40 MLOAD DUP1 PUSH1 0xA0 ADD PUSH1 0x40 MSTORE SWAP1 DUP2 PUSH1 0x0 DUP3 ADD SLOAD DUP2 MSTORE PUSH1 0x20 ADD PUSH1 0x1 DUP3 ADD SLOAD DUP2 MSTORE PUSH1 0x20 ADD PUSH1 0x2 DUP3 ADD DUP1 SLOAD PUSH2 0x247E SWAP1 PUSH2 0x4079 JUMP JUMPDEST DUP1 PUSH1 0x1F ADD PUSH1 0x20 DUP1 SWAP2 DIV MUL PUSH1 0x20 ADD PUSH1 0x40 MLOAD SWAP1 DUP2 ADD PUSH1 0x40 MSTORE DUP1 SWAP3 SWAP2 SWAP1 DUP2 DUP2 MSTORE PUSH1 0x20 ADD DUP3 DUP1 SLOAD PUSH2 0x24AA SWAP1 PUSH2 0x4079 JUMP JUMPDEST DUP1 ISZERO PUSH2 0x24F7 JUMPI DUP1 PUSH1 0x1F LT PUSH2 0x24CC JUMPI PUSH2 0x100 DUP1 DUP4 SLOAD DIV MUL DUP4 MSTORE SWAP2 PUSH1 0x20 ADD SWAP2 PUSH2 0x24F7 JUMP JUMPDEST DUP3 ADD SWAP2 SWAP1 PUSH1 0x0 MSTORE PUSH1 0x20 PUSH1 0x0 KECCAK256 SWAP1 JUMPDEST DUP2 SLOAD DUP2 MSTORE SWAP1 PUSH1 0x1 ADD SWAP1 PUSH1 0x20 ADD DUP1 DUP4 GT PUSH2 0x24DA JUMPI DUP3 SWAP1 SUB PUSH1 0x1F AND DUP3 ADD SWAP2 JUMPDEST POP POP POP SWAP2 DUP4 MSTORE POP POP PUSH1 0x3 DUP3 ADD SLOAD PUSH1 0x1 PUSH1 0x1 PUSH1 0xA0 SHL SUB AND PUSH1 0x20 DUP3 ADD MSTORE PUSH1 0x4 SWAP1 SWAP2 ADD SLOAD PUSH1 0x40 SWAP1 SWAP2 ADD MSTORE DUP3 MLOAD DUP4 SWAP1 DUP4 SWAP1 DUP2 LT PUSH2 0x2532 JUMPI PUSH2 0x2532 PUSH2 0x40AE JUMP JUMPDEST PUSH1 0x20 MUL PUSH1 0x20 ADD ADD DUP2 SWAP1 MSTORE POP DUP1 DUP1 PUSH2 0x2548 SWAP1 PUSH2 0x40C4 JUMP JUMPDEST SWAP2 POP POP PUSH2 0x2428 JUMP JUMPDEST PUSH2 0x2558 PUSH2 0x35B6 JUMP JUMPDEST PUSH1 0x5 PUSH1 0x0 DUP4 DUP2 MSTORE PUSH1 0x20 ADD SWAP1 DUP2 MSTORE PUSH1 0x20 ADD PUSH1 0x0 KECCAK256 PUSH1 0x40 MLOAD DUP1 PUSH2 0x140 ADD PUSH1 0x40 MSTORE SWAP1 DUP2 PUSH1 0x0 DUP3 ADD SLOAD DUP2 MSTORE PUSH1 0x20 ADD PUSH1 0x1 DUP3 ADD DUP1 SLOAD PUSH2 0x2591 SWAP1 PUSH2 0x4079 JUMP JUMPDEST DUP1 PUSH1 0x1F ADD PUSH1 0x20 DUP1 SWAP2 DIV MUL PUSH1 0x20 ADD PUSH1 0x40 MLOAD SWAP1 DUP2 ADD PUSH1 0x40 MSTORE DUP1 SWAP3 SWAP2 SWAP1 DUP2 DUP2 MSTORE PUSH1 0x20 ADD DUP3 DUP1 SLOAD PUSH2 0x25BD SWAP1 PUSH2 0x4079 JUMP JUMPDEST DUP1 ISZERO PUSH2 0x260A JUMPI DUP1 PUSH1 0x1F LT PUSH2 0x25DF JUMPI PUSH2 0x100 DUP1 DUP4 SLOAD DIV MUL DUP4 MSTORE SWAP2 PUSH1 0x20 ADD SWAP2 PUSH2 0x260A JUMP JUMPDEST DUP3 ADD SWAP2 SWAP1 PUSH1 0x0 MSTORE PUSH1 0x20 PUSH1 0x0 KECCAK256 SWAP1 JUMPDEST DUP2 SLOAD DUP2 MSTORE SWAP1 PUSH1 0x1 ADD SWAP1 PUSH1 0x20 ADD DUP1 DUP4 GT PUSH2 0x25ED JUMPI DUP3 SWAP1 SUB PUSH1 0x1F AND DUP3 ADD SWAP2 JUMPDEST POP POP POP POP POP DUP2 MSTORE PUSH1 0x20 ADD PUSH1 0x2 DUP3 ADD DUP1 SLOAD PUSH2 0x2623 SWAP1 PUSH2 0x4079 JUMP JUMPDEST DUP1 PUSH1 0x1F ADD PUSH1 0x20 DUP1 SWAP2 DIV MUL PUSH1 0x20 ADD PUSH1 0x40 MLOAD SWAP1 DUP2 ADD PUSH1 0x40 MSTORE DUP1 SWAP3 SWAP2 SWAP1 DUP2 DUP2 MSTORE PUSH1 0x20 ADD DUP3 DUP1 SLOAD PUSH2 0x264F SWAP1 PUSH2 0x4079 JUMP JUMPDEST DUP1 ISZERO PUSH2 0x269C JUMPI DUP1 PUSH1 0x1F LT PUSH2 0x2671 JUMPI PUSH2 0x100 DUP1 DUP4 SLOAD DIV MUL DUP4 MSTORE SWAP2 PUSH1 0x20 ADD SWAP2 PUSH2 0x269C JUMP JUMPDEST DUP3 ADD SWAP2 SWAP1 PUSH1 0x0 MSTORE PUSH1 0x20 PUSH1 0x0 KECCAK256 SWAP1 JUMPDEST DUP2 SLOAD DUP2 MSTORE SWAP1 PUSH1 0x1 ADD SWAP1 PUSH1 0x20 ADD DUP1 DUP4 GT PUSH2 0x267F JUMPI DUP3 SWAP1 SUB PUSH1 0x1F AND DUP3 ADD SWAP2 JUMPDEST POP POP POP SWAP2 DUP4 MSTORE POP POP PUSH1 0x3 DUP3 ADD SLOAD PUSH1 0x1 PUSH1 0x1 PUSH1 0xA0 SHL SUB AND PUSH1 0x20 DUP3 ADD MSTORE PUSH1 0x4 DUP3 ADD SLOAD PUSH1 0x40 DUP3 ADD MSTORE PUSH1 0x5 DUP3 ADD SLOAD PUSH1 0x60 DUP3 ADD MSTORE PUSH1 0x6 DUP3 ADD SLOAD PUSH1 0x80 DUP3 ADD MSTORE PUSH1 0x7 DUP3 ADD SLOAD PUSH1 0xA0 DUP3 ADD MSTORE PUSH1 0x8 DUP3 ADD SLOAD PUSH1 0xC0 DUP3 ADD MSTORE PUSH1 0x9 SWAP1 SWAP2 ADD SLOAD PUSH1 0xE0 SWAP1 SWAP2 ADD MSTORE SWAP3 SWAP2 POP POP JUMP JUMPDEST PUSH1 0x60 PUSH1 0x0 DUP1 JUMPDEST PUSH1 0x3 SLOAD DUP2 LT ISZERO PUSH2 0x275E JUMPI CALLER PUSH1 0x5 PUSH1 0x0 PUSH2 0x271B DUP5 PUSH1 0x1 PUSH2 0x4061 JUMP JUMPDEST DUP2 MSTORE PUSH1 0x20 DUP2 ADD SWAP2 SWAP1 SWAP2 MSTORE PUSH1 0x40 ADD PUSH1 0x0 KECCAK256 PUSH1 0x3 ADD SLOAD PUSH1 0x1 PUSH1 0x1 PUSH1 0xA0 SHL SUB AND EQ ISZERO PUSH2 0x274C JUMPI DUP2 PUSH2 0x2748 DUP2 PUSH2 0x40C4 JUMP JUMPDEST SWAP3 POP POP JUMPDEST DUP1 PUSH2 0x2756 DUP2 PUSH2 0x40C4 JUMP JUMPDEST SWAP2 POP POP PUSH2 0x2701 JUMP JUMPDEST POP PUSH1 0x0 DUP2 PUSH1 0x1 PUSH1 0x1 PUSH1 0x40 SHL SUB DUP2 GT ISZERO PUSH2 0x2779 JUMPI PUSH2 0x2779 PUSH2 0x3640 JUMP JUMPDEST PUSH1 0x40 MLOAD SWAP1 DUP1 DUP3 MSTORE DUP1 PUSH1 0x20 MUL PUSH1 0x20 ADD DUP3 ADD PUSH1 0x40 MSTORE DUP1 ISZERO PUSH2 0x27B2 JUMPI DUP2 PUSH1 0x20 ADD JUMPDEST PUSH2 0x279F PUSH2 0x35B6 JUMP JUMPDEST DUP2 MSTORE PUSH1 0x20 ADD SWAP1 PUSH1 0x1 SWAP1 SUB SWAP1 DUP2 PUSH2 0x2797 JUMPI SWAP1 POP JUMPDEST POP SWAP1 POP PUSH1 0x0 DUP1 JUMPDEST PUSH1 0x3 SLOAD DUP2 LT ISZERO PUSH2 0x29D8 JUMPI CALLER PUSH1 0x5 PUSH1 0x0 PUSH2 0x27D3 DUP5 PUSH1 0x1 PUSH2 0x4061 JUMP JUMPDEST DUP2 MSTORE PUSH1 0x20 DUP2 ADD SWAP2 SWAP1 SWAP2 MSTORE PUSH1 0x40 ADD PUSH1 0x0 KECCAK256 PUSH1 0x3 ADD SLOAD PUSH1 0x1 PUSH1 0x1 PUSH1 0xA0 SHL SUB AND EQ ISZERO PUSH2 0x29C6 JUMPI PUSH1 0x5 PUSH1 0x0 PUSH2 0x2805 DUP4 PUSH1 0x1 PUSH2 0x4061 JUMP JUMPDEST DUP2 MSTORE PUSH1 0x20 ADD SWAP1 DUP2 MSTORE PUSH1 0x20 ADD PUSH1 0x0 KECCAK256 PUSH1 0x40 MLOAD DUP1 PUSH2 0x140 ADD PUSH1 0x40 MSTORE SWAP1 DUP2 PUSH1 0x0 DUP3 ADD SLOAD DUP2 MSTORE PUSH1 0x20 ADD PUSH1 0x1 DUP3 ADD DUP1 SLOAD PUSH2 0x2839 SWAP1 PUSH2 0x4079 JUMP JUMPDEST DUP1 PUSH1 0x1F ADD PUSH1 0x20 DUP1 SWAP2 DIV MUL PUSH1 0x20 ADD PUSH1 0x40 MLOAD SWAP1 DUP2 ADD PUSH1 0x40 MSTORE DUP1 SWAP3 SWAP2 SWAP1 DUP2 DUP2 MSTORE PUSH1 0x20 ADD DUP3 DUP1 SLOAD PUSH2 0x2865 SWAP1 PUSH2 0x4079 JUMP JUMPDEST DUP1 ISZERO PUSH2 0x28B2 JUMPI DUP1 PUSH1 0x1F LT PUSH2 0x2887 JUMPI PUSH2 0x100 DUP1 DUP4 SLOAD DIV MUL DUP4 MSTORE SWAP2 PUSH1 0x20 ADD SWAP2 PUSH2 0x28B2 JUMP JUMPDEST DUP3 ADD SWAP2 SWAP1 PUSH1 0x0 MSTORE PUSH1 0x20 PUSH1 0x0 KECCAK256 SWAP1 JUMPDEST DUP2 SLOAD DUP2 MSTORE SWAP1 PUSH1 0x1 ADD SWAP1 PUSH1 0x20 ADD DUP1 DUP4 GT PUSH2 0x2895 JUMPI DUP3 SWAP1 SUB PUSH1 0x1F AND DUP3 ADD SWAP2 JUMPDEST POP POP POP POP POP DUP2 MSTORE PUSH1 0x20 ADD PUSH1 0x2 DUP3 ADD DUP1 SLOAD PUSH2 0x28CB SWAP1 PUSH2 0x4079 JUMP JUMPDEST DUP1 PUSH1 0x1F ADD PUSH1 0x20 DUP1 SWAP2 DIV MUL PUSH1 0x20 ADD PUSH1 0x40 MLOAD SWAP1 DUP2 ADD PUSH1 0x40 MSTORE DUP1 SWAP3 SWAP2 SWAP1 DUP2 DUP2 MSTORE PUSH1 0x20 ADD DUP3 DUP1 SLOAD PUSH2 0x28F7 SWAP1 PUSH2 0x4079 JUMP JUMPDEST DUP1 ISZERO PUSH2 0x2944 JUMPI DUP1 PUSH1 0x1F LT PUSH2 0x2919 JUMPI PUSH2 0x100 DUP1 DUP4 SLOAD DIV MUL DUP4 MSTORE SWAP2 PUSH1 0x20 ADD SWAP2 PUSH2 0x2944 JUMP JUMPDEST DUP3 ADD SWAP2 SWAP1 PUSH1 0x0 MSTORE PUSH1 0x20 PUSH1 0x0 KECCAK256 SWAP1 JUMPDEST DUP2 SLOAD DUP2 MSTORE SWAP1 PUSH1 0x1 ADD SWAP1 PUSH1 0x20 ADD DUP1 DUP4 GT PUSH2 0x2927 JUMPI DUP3 SWAP1 SUB PUSH1 0x1F AND DUP3 ADD SWAP2 JUMPDEST POP POP POP SWAP2 DUP4 MSTORE POP POP PUSH1 0x3 DUP3 ADD SLOAD PUSH1 0x1 PUSH1 0x1 PUSH1 0xA0 SHL SUB AND PUSH1 0x20 DUP3 ADD MSTORE PUSH1 0x4 DUP3 ADD SLOAD PUSH1 0x40 DUP3 ADD MSTORE PUSH1 0x5 DUP3 ADD SLOAD PUSH1 0x60 DUP3 ADD MSTORE PUSH1 0x6 DUP3 ADD SLOAD PUSH1 0x80 DUP3 ADD MSTORE PUSH1 0x7 DUP3 ADD SLOAD PUSH1 0xA0 DUP3 ADD MSTORE PUSH1 0x8 DUP3 ADD SLOAD PUSH1 0xC0 DUP3 ADD MSTORE PUSH1 0x9 SWAP1 SWAP2 ADD SLOAD PUSH1 0xE0 SWAP1 SWAP2 ADD MSTORE DUP4 DUP4 PUSH2 0x29A8 DUP2 PUSH2 0x40C4 JUMP JUMPDEST SWAP5 POP DUP2 MLOAD DUP2 LT PUSH2 0x29BA JUMPI PUSH2 0x29BA PUSH2 0x40AE JUMP JUMPDEST PUSH1 0x20 MUL PUSH1 0x20 ADD ADD DUP2 SWAP1 MSTORE POP JUMPDEST DUP1 PUSH2 0x29D0 DUP2 PUSH2 0x40C4 JUMP JUMPDEST SWAP2 POP POP PUSH2 0x27B9 JUMP JUMPDEST POP SWAP1 SWAP4 SWAP3 POP POP POP JUMP JUMPDEST PUSH1 0x60 PUSH1 0x0 DUP1 JUMPDEST PUSH1 0x2 SLOAD DUP2 LT ISZERO PUSH2 0x2A4F JUMPI PUSH1 0x2 PUSH1 0x6 PUSH1 0x0 PUSH2 0x2A02 DUP5 PUSH1 0x1 PUSH2 0x4061 JUMP JUMPDEST DUP2 MSTORE PUSH1 0x20 DUP2 ADD SWAP2 SWAP1 SWAP2 MSTORE PUSH1 0x40 ADD PUSH1 0x0 KECCAK256 PUSH1 0x9 ADD SLOAD PUSH1 0xFF AND PUSH1 0x5 DUP2 GT ISZERO PUSH2 0x2A2A JUMPI PUSH2 0x2A2A PUSH2 0x3AAE JUMP JUMPDEST EQ PUSH2 0x2A3D JUMPI DUP2 PUSH2 0x2A39 DUP2 PUSH2 0x40C4 JUMP JUMPDEST SWAP3 POP POP JUMPDEST DUP1 PUSH2 0x2A47 DUP2 PUSH2 0x40C4 JUMP JUMPDEST SWAP2 POP POP PUSH2 0x29E7 JUMP JUMPDEST POP DUP1 PUSH1 0x1 PUSH1 0x1 PUSH1 0x40 SHL SUB DUP2 GT ISZERO PUSH2 0x2A68 JUMPI PUSH2 0x2A68 PUSH2 0x3640 JUMP JUMPDEST PUSH1 0x40 MLOAD SWAP1 DUP1 DUP3 MSTORE DUP1 PUSH1 0x20 MUL PUSH1 0x20 ADD DUP3 ADD PUSH1 0x40 MSTORE DUP1 ISZERO PUSH2 0x2AA1 JUMPI DUP2 PUSH1 0x20 ADD JUMPDEST PUSH2 0x2A8E PUSH2 0x3539 JUMP JUMPDEST DUP2 MSTORE PUSH1 0x20 ADD SWAP1 PUSH1 0x1 SWAP1 SUB SWAP1 DUP2 PUSH2 0x2A86 JUMPI SWAP1 POP JUMPDEST POP SWAP2 POP PUSH1 0x0 DUP1 JUMPDEST PUSH1 0x2 SLOAD DUP2 LT ISZERO PUSH2 0x20FC JUMPI PUSH1 0x2 PUSH1 0x6 PUSH1 0x0 PUSH2 0x2AC3 DUP5 PUSH1 0x1 PUSH2 0x4061 JUMP JUMPDEST DUP2 MSTORE PUSH1 0x20 DUP2 ADD SWAP2 SWAP1 SWAP2 MSTORE PUSH1 0x40 ADD PUSH1 0x0 KECCAK256 PUSH1 0x9 ADD SLOAD PUSH1 0xFF AND PUSH1 0x5 DUP2 GT ISZERO PUSH2 0x2AEB JUMPI PUSH2 0x2AEB PUSH2 0x3AAE JUMP JUMPDEST EQ PUSH2 0x2CF8 JUMPI PUSH1 0x6 PUSH1 0x0 PUSH2 0x2AFF DUP4 PUSH1 0x1 PUSH2 0x4061 JUMP JUMPDEST DUP2 MSTORE PUSH1 0x20 ADD SWAP1 DUP2 MSTORE PUSH1 0x20 ADD PUSH1 0x0 KECCAK256 PUSH1 0x40 MLOAD DUP1 PUSH2 0x160 ADD PUSH1 0x40 MSTORE SWAP1 DUP2 PUSH1 0x0 DUP3 ADD SLOAD DUP2 MSTORE PUSH1 0x20 ADD PUSH1 0x1 DUP3 ADD SLOAD DUP2 MSTORE PUSH1 0x20 ADD PUSH1 0x2 DUP3 ADD DUP1 SLOAD PUSH2 0x2B3D SWAP1 PUSH2 0x4079 JUMP JUMPDEST DUP1 PUSH1 0x1F ADD PUSH1 0x20 DUP1 SWAP2 DIV MUL PUSH1 0x20 ADD PUSH1 0x40 MLOAD SWAP1 DUP2 ADD PUSH1 0x40 MSTORE DUP1 SWAP3 SWAP2 SWAP1 DUP2 DUP2 MSTORE PUSH1 0x20 ADD DUP3 DUP1 SLOAD PUSH2 0x2B69 SWAP1 PUSH2 0x4079 JUMP JUMPDEST DUP1 ISZERO PUSH2 0x2BB6 JUMPI DUP1 PUSH1 0x1F LT PUSH2 0x2B8B JUMPI PUSH2 0x100 DUP1 DUP4 SLOAD DIV MUL DUP4 MSTORE SWAP2 PUSH1 0x20 ADD SWAP2 PUSH2 0x2BB6 JUMP JUMPDEST DUP3 ADD SWAP2 SWAP1 PUSH1 0x0 MSTORE PUSH1 0x20 PUSH1 0x0 KECCAK256 SWAP1 JUMPDEST DUP2 SLOAD DUP2 MSTORE SWAP1 PUSH1 0x1 ADD SWAP1 PUSH1 0x20 ADD DUP1 DUP4 GT PUSH2 0x2B99 JUMPI DUP3 SWAP1 SUB PUSH1 0x1F AND DUP3 ADD SWAP2 JUMPDEST POP POP POP POP POP DUP2 MSTORE PUSH1 0x20 ADD PUSH1 0x3 DUP3 ADD DUP1 SLOAD PUSH2 0x2BCF SWAP1 PUSH2 0x4079 JUMP JUMPDEST DUP1 PUSH1 0x1F ADD PUSH1 0x20 DUP1 SWAP2 DIV MUL PUSH1 0x20 ADD PUSH1 0x40 MLOAD SWAP1 DUP2 ADD PUSH1 0x40 MSTORE DUP1 SWAP3 SWAP2 SWAP1 DUP2 DUP2 MSTORE PUSH1 0x20 ADD DUP3 DUP1 SLOAD PUSH2 0x2BFB SWAP1 PUSH2 0x4079 JUMP JUMPDEST DUP1 ISZERO PUSH2 0x2C48 JUMPI DUP1 PUSH1 0x1F LT PUSH2 0x2C1D JUMPI PUSH2 0x100 DUP1 DUP4 SLOAD DIV MUL DUP4 MSTORE SWAP2 PUSH1 0x20 ADD SWAP2 PUSH2 0x2C48 JUMP JUMPDEST DUP3 ADD SWAP2 SWAP1 PUSH1 0x0 MSTORE PUSH1 0x20 PUSH1 0x0 KECCAK256 SWAP1 JUMPDEST DUP2 SLOAD DUP2 MSTORE SWAP1 PUSH1 0x1 ADD SWAP1 PUSH1 0x20 ADD DUP1 DUP4 GT PUSH2 0x2C2B JUMPI DUP3 SWAP1 SUB PUSH1 0x1F AND DUP3 ADD SWAP2 JUMPDEST POP POP POP SWAP2 DUP4 MSTORE POP POP PUSH1 0x4 DUP3 ADD SLOAD PUSH1 0x1 PUSH1 0x1 PUSH1 0xA0 SHL SUB SWAP1 DUP2 AND PUSH1 0x20 DUP4 ADD MSTORE PUSH1 0x5 DUP1 DUP5 ADD SLOAD SWAP1 SWAP2 AND PUSH1 0x40 DUP4 ADD MSTORE PUSH1 0x6 DUP4 ADD SLOAD PUSH1 0x60 DUP4 ADD MSTORE PUSH1 0x7 DUP4 ADD SLOAD PUSH1 0x80 DUP4 ADD MSTORE PUSH1 0x8 DUP4 ADD SLOAD PUSH1 0xA0 DUP4 ADD MSTORE PUSH1 0x9 DUP4 ADD SLOAD PUSH1 0xC0 SWAP1 SWAP3 ADD SWAP2 PUSH1 0xFF AND SWAP1 DUP2 GT ISZERO PUSH2 0x2CAF JUMPI PUSH2 0x2CAF PUSH2 0x3AAE JUMP JUMPDEST PUSH1 0x5 DUP2 GT ISZERO PUSH2 0x2CC0 JUMPI PUSH2 0x2CC0 PUSH2 0x3AAE JUMP JUMPDEST DUP2 MSTORE PUSH1 0x20 ADD PUSH1 0xA DUP3 ADD SLOAD DUP2 MSTORE POP POP DUP5 DUP4 DUP1 PUSH2 0x2CDA SWAP1 PUSH2 0x40C4 JUMP JUMPDEST SWAP5 POP DUP2 MLOAD DUP2 LT PUSH2 0x2CEC JUMPI PUSH2 0x2CEC PUSH2 0x40AE JUMP JUMPDEST PUSH1 0x20 MUL PUSH1 0x20 ADD ADD DUP2 SWAP1 MSTORE POP JUMPDEST DUP1 PUSH2 0x2D02 DUP2 PUSH2 0x40C4 JUMP JUMPDEST SWAP2 POP POP PUSH2 0x2AA8 JUMP JUMPDEST PUSH1 0x0 DUP4 DUP2 MSTORE PUSH1 0x9 PUSH1 0x20 SWAP1 DUP2 MSTORE PUSH1 0x40 DUP1 DUP4 KECCAK256 DUP8 DUP5 MSTORE SWAP1 SWAP2 MSTORE SWAP1 KECCAK256 SLOAD PUSH2 0x2D64 JUMPI PUSH1 0x40 MLOAD PUSH3 0x461BCD PUSH1 0xE5 SHL DUP2 MSTORE PUSH1 0x20 PUSH1 0x4 DUP3 ADD MSTORE PUSH1 0x11 PUSH1 0x24 DUP3 ADD MSTORE PUSH17 0x576F726B6572206E6F7420666F756E6421 PUSH1 0x78 SHL PUSH1 0x44 DUP3 ADD MSTORE PUSH1 0x64 ADD PUSH2 0x526 JUMP JUMPDEST PUSH1 0x0 DUP4 DUP2 MSTORE PUSH1 0x6 PUSH1 0x20 MSTORE PUSH1 0x40 SWAP1 KECCAK256 PUSH1 0x4 ADD SLOAD PUSH1 0x1 PUSH1 0x1 PUSH1 0xA0 SHL SUB AND CALLER EQ DUP1 PUSH2 0x2DA5 JUMPI POP PUSH1 0x0 DUP4 DUP2 MSTORE PUSH1 0x6 PUSH1 0x20 MSTORE PUSH1 0x40 SWAP1 KECCAK256 PUSH1 0x5 ADD SLOAD PUSH1 0x1 PUSH1 0x1 PUSH1 0xA0 SHL SUB AND CALLER EQ JUMPDEST PUSH2 0x2DC1 JUMPI PUSH1 0x40 MLOAD PUSH3 0x461BCD PUSH1 0xE5 SHL DUP2 MSTORE PUSH1 0x4 ADD PUSH2 0x526 SWAP1 PUSH2 0x3E82 JUMP JUMPDEST PUSH1 0x0 DUP3 MLOAD GT PUSH2 0x2DE2 JUMPI PUSH1 0x40 MLOAD PUSH3 0x461BCD PUSH1 0xE5 SHL DUP2 MSTORE PUSH1 0x4 ADD PUSH2 0x526 SWAP1 PUSH2 0x3FCE JUMP JUMPDEST PUSH1 0x1 PUSH1 0x1 PUSH1 0xA0 SHL SUB DUP2 AND PUSH2 0x2E38 JUMPI PUSH1 0x40 MLOAD PUSH3 0x461BCD PUSH1 0xE5 SHL DUP2 MSTORE PUSH1 0x20 PUSH1 0x4 DUP3 ADD MSTORE PUSH1 0x18 PUSH1 0x24 DUP3 ADD MSTORE PUSH32 0x4163636F756E742063616E6E6F7420626520656D707479210000000000000000 PUSH1 0x44 DUP3 ADD MSTORE PUSH1 0x64 ADD PUSH2 0x526 JUMP JUMPDEST PUSH1 0x0 DUP4 DUP2 MSTORE PUSH1 0x9 PUSH1 0x20 SWAP1 DUP2 MSTORE PUSH1 0x40 DUP1 DUP4 KECCAK256 DUP8 DUP5 MSTORE DUP3 MSTORE SWAP1 SWAP2 KECCAK256 DUP4 MLOAD PUSH2 0x2E65 SWAP3 PUSH1 0x2 SWAP1 SWAP3 ADD SWAP2 DUP6 ADD SWAP1 PUSH2 0x3447 JUMP JUMPDEST POP PUSH1 0x0 DUP4 DUP2 MSTORE PUSH1 0x9 PUSH1 0x20 SWAP1 DUP2 MSTORE PUSH1 0x40 DUP1 DUP4 KECCAK256 DUP8 DUP5 MSTORE DUP3 MSTORE DUP1 DUP4 KECCAK256 PUSH1 0x3 DUP2 ADD DUP1 SLOAD PUSH1 0x1 PUSH1 0x1 PUSH1 0xA0 SHL SUB NOT AND PUSH1 0x1 PUSH1 0x1 PUSH1 0xA0 SHL SUB DUP8 AND OR SWAP1 SSTORE SLOAD DUP4 MSTORE PUSH1 0x7 DUP3 MSTORE SWAP1 SWAP2 KECCAK256 DUP4 MLOAD PUSH2 0x2EBA SWAP3 PUSH1 0x2 SWAP1 SWAP3 ADD SWAP2 DUP6 ADD SWAP1 PUSH2 0x3447 JUMP JUMPDEST POP PUSH1 0x0 SWAP3 DUP4 MSTORE PUSH1 0x9 PUSH1 0x20 SWAP1 DUP2 MSTORE PUSH1 0x40 DUP1 DUP6 KECCAK256 SWAP6 DUP6 MSTORE SWAP5 DUP2 MSTORE DUP5 DUP5 KECCAK256 SLOAD DUP5 MSTORE PUSH1 0x7 SWAP1 MSTORE SWAP3 SWAP1 SWAP2 KECCAK256 PUSH1 0x3 ADD DUP1 SLOAD PUSH1 0x1 PUSH1 0x1 PUSH1 0xA0 SHL SUB NOT AND PUSH1 0x1 PUSH1 0x1 PUSH1 0xA0 SHL SUB SWAP1 SWAP4 AND SWAP3 SWAP1 SWAP3 OR SWAP1 SWAP2 SSTORE POP JUMP JUMPDEST PUSH1 0x0 DUP2 DUP2 MSTORE PUSH1 0x6 PUSH1 0x20 MSTORE PUSH1 0x40 SWAP1 KECCAK256 SLOAD PUSH2 0x2F2F JUMPI PUSH1 0x40 MLOAD PUSH3 0x461BCD PUSH1 0xE5 SHL DUP2 MSTORE PUSH1 0x4 ADD PUSH2 0x526 SWAP1 PUSH2 0x3E56 JUMP JUMPDEST PUSH1 0x0 DUP2 DUP2 MSTORE PUSH1 0x6 PUSH1 0x20 MSTORE PUSH1 0x40 SWAP1 KECCAK256 PUSH1 0x5 ADD SLOAD PUSH1 0x1 PUSH1 0x1 PUSH1 0xA0 SHL SUB AND CALLER EQ PUSH2 0x2F68 JUMPI PUSH1 0x40 MLOAD PUSH3 0x461BCD PUSH1 0xE5 SHL DUP2 MSTORE PUSH1 0x4 ADD PUSH2 0x526 SWAP1 PUSH2 0x3E82 JUMP JUMPDEST PUSH1 0x1 PUSH1 0x0 DUP3 DUP2 MSTORE PUSH1 0x6 PUSH1 0x20 MSTORE PUSH1 0x40 SWAP1 KECCAK256 PUSH1 0x9 ADD SLOAD PUSH1 0xFF AND PUSH1 0x5 DUP2 GT ISZERO PUSH2 0x2F90 JUMPI PUSH2 0x2F90 PUSH2 0x3AAE JUMP JUMPDEST EQ PUSH2 0x2FAD JUMPI PUSH1 0x40 MLOAD PUSH3 0x461BCD PUSH1 0xE5 SHL DUP2 MSTORE PUSH1 0x4 ADD PUSH2 0x526 SWAP1 PUSH2 0x3EB0 JUMP JUMPDEST PUSH1 0x0 DUP2 DUP2 MSTORE PUSH1 0x6 PUSH1 0x20 MSTORE PUSH1 0x40 SWAP1 KECCAK256 PUSH1 0x9 ADD DUP1 SLOAD PUSH1 0x3 SWAP2 SWAP1 PUSH1 0xFF NOT AND PUSH1 0x1 DUP4 PUSH2 0x5CC JUMP JUMPDEST PUSH1 0x60 PUSH2 0x2FDB PUSH1 0x3 SLOAD SWAP1 JUMP JUMPDEST PUSH1 0x1 PUSH1 0x1 PUSH1 0x40 SHL SUB DUP2 GT ISZERO PUSH2 0x2FF2 JUMPI PUSH2 0x2FF2 PUSH2 0x3640 JUMP JUMPDEST PUSH1 0x40 MLOAD SWAP1 DUP1 DUP3 MSTORE DUP1 PUSH1 0x20 MUL PUSH1 0x20 ADD DUP3 ADD PUSH1 0x40 MSTORE DUP1 ISZERO PUSH2 0x302B JUMPI DUP2 PUSH1 0x20 ADD JUMPDEST PUSH2 0x3018 PUSH2 0x35B6 JUMP JUMPDEST DUP2 MSTORE PUSH1 0x20 ADD SWAP1 PUSH1 0x1 SWAP1 SUB SWAP1 DUP2 PUSH2 0x3010 JUMPI SWAP1 POP JUMPDEST POP SWAP1 POP PUSH1 0x0 JUMPDEST PUSH1 0x3 SLOAD DUP2 LT ISZERO PUSH2 0x19A6 JUMPI PUSH1 0x5 PUSH1 0x0 PUSH2 0x304A DUP4 PUSH1 0x1 PUSH2 0x4061 JUMP JUMPDEST DUP2 MSTORE PUSH1 0x20 ADD SWAP1 DUP2 MSTORE PUSH1 0x20 ADD PUSH1 0x0 KECCAK256 PUSH1 0x40 MLOAD DUP1 PUSH2 0x140 ADD PUSH1 0x40 MSTORE SWAP1 DUP2 PUSH1 0x0 DUP3 ADD SLOAD DUP2 MSTORE PUSH1 0x20 ADD PUSH1 0x1 DUP3 ADD DUP1 SLOAD PUSH2 0x307E SWAP1 PUSH2 0x4079 JUMP JUMPDEST DUP1 PUSH1 0x1F ADD PUSH1 0x20 DUP1 SWAP2 DIV MUL PUSH1 0x20 ADD PUSH1 0x40 MLOAD SWAP1 DUP2 ADD PUSH1 0x40 MSTORE DUP1 SWAP3 SWAP2 SWAP1 DUP2 DUP2 MSTORE PUSH1 0x20 ADD DUP3 DUP1 SLOAD PUSH2 0x30AA SWAP1 PUSH2 0x4079 JUMP JUMPDEST DUP1 ISZERO PUSH2 0x30F7 JUMPI DUP1 PUSH1 0x1F LT PUSH2 0x30CC JUMPI PUSH2 0x100 DUP1 DUP4 SLOAD DIV MUL DUP4 MSTORE SWAP2 PUSH1 0x20 ADD SWAP2 PUSH2 0x30F7 JUMP JUMPDEST DUP3 ADD SWAP2 SWAP1 PUSH1 0x0 MSTORE PUSH1 0x20 PUSH1 0x0 KECCAK256 SWAP1 JUMPDEST DUP2 SLOAD DUP2 MSTORE SWAP1 PUSH1 0x1 ADD SWAP1 PUSH1 0x20 ADD DUP1 DUP4 GT PUSH2 0x30DA JUMPI DUP3 SWAP1 SUB PUSH1 0x1F AND DUP3 ADD SWAP2 JUMPDEST POP POP POP POP POP DUP2 MSTORE PUSH1 0x20 ADD PUSH1 0x2 DUP3 ADD DUP1 SLOAD PUSH2 0x3110 SWAP1 PUSH2 0x4079 JUMP JUMPDEST DUP1 PUSH1 0x1F ADD PUSH1 0x20 DUP1 SWAP2 DIV MUL PUSH1 0x20 ADD PUSH1 0x40 MLOAD SWAP1 DUP2 ADD PUSH1 0x40 MSTORE DUP1 SWAP3 SWAP2 SWAP1 DUP2 DUP2 MSTORE PUSH1 0x20 ADD DUP3 DUP1 SLOAD PUSH2 0x313C SWAP1 PUSH2 0x4079 JUMP JUMPDEST DUP1 ISZERO PUSH2 0x3189 JUMPI DUP1 PUSH1 0x1F LT PUSH2 0x315E JUMPI PUSH2 0x100 DUP1 DUP4 SLOAD DIV MUL DUP4 MSTORE SWAP2 PUSH1 0x20 ADD SWAP2 PUSH2 0x3189 JUMP JUMPDEST DUP3 ADD SWAP2 SWAP1 PUSH1 0x0 MSTORE PUSH1 0x20 PUSH1 0x0 KECCAK256 SWAP1 JUMPDEST DUP2 SLOAD DUP2 MSTORE SWAP1 PUSH1 0x1 ADD SWAP1 PUSH1 0x20 ADD DUP1 DUP4 GT PUSH2 0x316C JUMPI DUP3 SWAP1 SUB PUSH1 0x1F AND DUP3 ADD SWAP2 JUMPDEST POP POP POP SWAP2 DUP4 MSTORE POP POP PUSH1 0x3 DUP3 ADD SLOAD PUSH1 0x1 PUSH1 0x1 PUSH1 0xA0 SHL SUB AND PUSH1 0x20 DUP3 ADD MSTORE PUSH1 0x4 DUP3 ADD SLOAD PUSH1 0x40 DUP3 ADD MSTORE PUSH1 0x5 DUP3 ADD SLOAD PUSH1 0x60 DUP3 ADD MSTORE PUSH1 0x6 DUP3 ADD SLOAD PUSH1 0x80 DUP3 ADD MSTORE PUSH1 0x7 DUP3 ADD SLOAD PUSH1 0xA0 DUP3 ADD MSTORE PUSH1 0x8 DUP3 ADD SLOAD PUSH1 0xC0 DUP3 ADD MSTORE PUSH1 0x9 SWAP1 SWAP2 ADD SLOAD PUSH1 0xE0 SWAP1 SWAP2 ADD MSTORE DUP3 MLOAD DUP4 SWAP1 DUP4 SWAP1 DUP2 LT PUSH2 0x31F6 JUMPI PUSH2 0x31F6 PUSH2 0x40AE JUMP JUMPDEST PUSH1 0x20 MUL PUSH1 0x20 ADD ADD DUP2 SWAP1 MSTORE POP DUP1 DUP1 PUSH2 0x320C SWAP1 PUSH2 0x40C4 JUMP JUMPDEST SWAP2 POP POP PUSH2 0x3031 JUMP JUMPDEST PUSH2 0x321C PUSH2 0x32A9 JUMP JUMPDEST PUSH1 0x1 PUSH1 0x1 PUSH1 0xA0 SHL SUB DUP2 AND PUSH2 0x3281 JUMPI PUSH1 0x40 MLOAD PUSH3 0x461BCD PUSH1 0xE5 SHL DUP2 MSTORE PUSH1 0x20 PUSH1 0x4 DUP3 ADD MSTORE PUSH1 0x26 PUSH1 0x24 DUP3 ADD MSTORE PUSH32 0x4F776E61626C653A206E6577206F776E657220697320746865207A65726F2061 PUSH1 0x44 DUP3 ADD MSTORE PUSH6 0x646472657373 PUSH1 0xD0 SHL PUSH1 0x64 DUP3 ADD MSTORE PUSH1 0x84 ADD PUSH2 0x526 JUMP JUMPDEST PUSH2 0x23C4 DUP2 PUSH2 0x3303 JUMP JUMPDEST PUSH1 0x0 PUSH2 0x3298 TIMESTAMP PUSH2 0x3E8 PUSH2 0x40DF JUMP JUMPDEST PUSH2 0x32A4 SWAP1 PUSH2 0x3E8 PUSH2 0x4061 JUMP JUMPDEST SWAP1 POP SWAP1 JUMP JUMPDEST PUSH1 0x0 SLOAD PUSH1 0x1 PUSH1 0x1 PUSH1 0xA0 SHL SUB AND CALLER EQ PUSH2 0x180F JUMPI PUSH1 0x40 MLOAD PUSH3 0x461BCD PUSH1 0xE5 SHL DUP2 MSTORE PUSH1 0x20 PUSH1 0x4 DUP3 ADD DUP2 SWAP1 MSTORE PUSH1 0x24 DUP3 ADD MSTORE PUSH32 0x4F776E61626C653A2063616C6C6572206973206E6F7420746865206F776E6572 PUSH1 0x44 DUP3 ADD MSTORE PUSH1 0x64 ADD PUSH2 0x526 JUMP JUMPDEST PUSH1 0x0 DUP1 SLOAD PUSH1 0x1 PUSH1 0x1 PUSH1 0xA0 SHL SUB DUP4 DUP2 AND PUSH1 0x1 PUSH1 0x1 PUSH1 0xA0 SHL SUB NOT DUP4 AND DUP2 OR DUP5 SSTORE PUSH1 0x40 MLOAD SWAP2 SWAP1 SWAP3 AND SWAP3 DUP4 SWAP2 PUSH32 0x8BE0079C531659141344CD1FD0A4F28419497F9722A3DAAFE3B4186F6B6457E0 SWAP2 SWAP1 LOG3 POP POP JUMP JUMPDEST PUSH1 0x2 PUSH1 0x1 SLOAD EQ ISZERO PUSH2 0x33A6 JUMPI PUSH1 0x40 MLOAD PUSH3 0x461BCD PUSH1 0xE5 SHL DUP2 MSTORE PUSH1 0x20 PUSH1 0x4 DUP3 ADD MSTORE PUSH1 0x1F PUSH1 0x24 DUP3 ADD MSTORE PUSH32 0x5265656E7472616E637947756172643A207265656E7472616E742063616C6C00 PUSH1 0x44 DUP3 ADD MSTORE PUSH1 0x64 ADD PUSH2 0x526 JUMP JUMPDEST PUSH1 0x2 PUSH1 0x1 SSTORE JUMP JUMPDEST PUSH1 0x0 DUP3 PUSH1 0x1 PUSH1 0x1 PUSH1 0xA0 SHL SUB AND DUP3 PUSH1 0x40 MLOAD PUSH1 0x0 PUSH1 0x40 MLOAD DUP1 DUP4 SUB DUP2 DUP6 DUP8 GAS CALL SWAP3 POP POP POP RETURNDATASIZE DUP1 PUSH1 0x0 DUP2 EQ PUSH2 0x33FA JUMPI PUSH1 0x40 MLOAD SWAP2 POP PUSH1 0x1F NOT PUSH1 0x3F RETURNDATASIZE ADD AND DUP3 ADD PUSH1 0x40 MSTORE RETURNDATASIZE DUP3 MSTORE RETURNDATASIZE PUSH1 0x0 PUSH1 0x20 DUP5 ADD RETURNDATACOPY PUSH2 0x33FF JUMP JUMPDEST PUSH1 0x60 SWAP2 POP JUMPDEST POP POP SWAP1 POP DUP1 PUSH2 0x3442 JUMPI PUSH1 0x40 MLOAD PUSH3 0x461BCD PUSH1 0xE5 SHL DUP2 MSTORE PUSH1 0x20 PUSH1 0x4 DUP3 ADD MSTORE PUSH1 0xF PUSH1 0x24 DUP3 ADD MSTORE PUSH15 0x5061796D656E74206661696C656421 PUSH1 0x88 SHL PUSH1 0x44 DUP3 ADD MSTORE PUSH1 0x64 ADD PUSH2 0x526 JUMP JUMPDEST POP POP POP JUMP JUMPDEST DUP3 DUP1 SLOAD PUSH2 0x3453 SWAP1 PUSH2 0x4079 JUMP JUMPDEST SWAP1 PUSH1 0x0 MSTORE PUSH1 0x20 PUSH1 0x0 KECCAK256 SWAP1 PUSH1 0x1F ADD PUSH1 0x20 SWAP1 DIV DUP2 ADD SWAP3 DUP3 PUSH2 0x3475 JUMPI PUSH1 0x0 DUP6 SSTORE PUSH2 0x34BB JUMP JUMPDEST DUP3 PUSH1 0x1F LT PUSH2 0x348E JUMPI DUP1 MLOAD PUSH1 0xFF NOT AND DUP4 DUP1 ADD OR DUP6 SSTORE PUSH2 0x34BB JUMP JUMPDEST DUP3 DUP1 ADD PUSH1 0x1 ADD DUP6 SSTORE DUP3 ISZERO PUSH2 0x34BB JUMPI SWAP2 DUP3 ADD JUMPDEST DUP3 DUP2 GT ISZERO PUSH2 0x34BB JUMPI DUP3 MLOAD DUP3 SSTORE SWAP2 PUSH1 0x20 ADD SWAP2 SWAP1 PUSH1 0x1 ADD SWAP1 PUSH2 0x34A0 JUMP JUMPDEST POP PUSH2 0x19A6 SWAP3 SWAP2 POP PUSH2 0x3612 JUMP JUMPDEST POP DUP1 SLOAD PUSH2 0x34D3 SWAP1 PUSH2 0x4079 JUMP JUMPDEST PUSH1 0x0 DUP3 SSTORE DUP1 PUSH1 0x1F LT PUSH2 0x34E3 JUMPI POP POP JUMP JUMPDEST PUSH1 0x1F ADD PUSH1 0x20 SWAP1 DIV SWAP1 PUSH1 0x0 MSTORE PUSH1 0x20 PUSH1 0x0 KECCAK256 SWAP1 DUP2 ADD SWAP1 PUSH2 0x23C4 SWAP2 SWAP1 PUSH2 0x3612 JUMP JUMPDEST PUSH1 0x40 MLOAD DUP1 PUSH1 0xA0 ADD PUSH1 0x40 MSTORE DUP1 PUSH1 0x0 DUP2 MSTORE PUSH1 0x20 ADD PUSH1 0x0 DUP2 MSTORE PUSH1 0x20 ADD PUSH1 0x60 DUP2 MSTORE PUSH1 0x20 ADD PUSH1 0x0 PUSH1 0x1 PUSH1 0x1 PUSH1 0xA0 SHL SUB AND DUP2 MSTORE PUSH1 0x20 ADD PUSH1 0x0 DUP2 MSTORE POP SWAP1 JUMP JUMPDEST PUSH1 0x40 MLOAD DUP1 PUSH2 0x160 ADD PUSH1 0x40 MSTORE DUP1 PUSH1 0x0 DUP2 MSTORE PUSH1 0x20 ADD PUSH1 0x0 DUP2 MSTORE PUSH1 0x20 ADD PUSH1 0x60 DUP2 MSTORE PUSH1 0x20 ADD PUSH1 0x60 DUP2 MSTORE PUSH1 0x20 ADD PUSH1 0x0 PUSH1 0x1 PUSH1 0x1 PUSH1 0xA0 SHL SUB AND DUP2 MSTORE PUSH1 0x20 ADD PUSH1 0x0 PUSH1 0x1 PUSH1 0x1 PUSH1 0xA0 SHL SUB AND DUP2 MSTORE PUSH1 0x20 ADD PUSH1 0x0 DUP2 MSTORE PUSH1 0x20 ADD PUSH1 0x0 DUP2 MSTORE PUSH1 0x20 ADD PUSH1 0x0 DUP2 MSTORE PUSH1 0x20 ADD PUSH1 0x0 PUSH1 0x5 DUP2 GT ISZERO PUSH2 0x35A9 JUMPI PUSH2 0x35A9 PUSH2 0x3AAE JUMP JUMPDEST DUP2 MSTORE PUSH1 0x20 ADD PUSH1 0x0 DUP2 MSTORE POP SWAP1 JUMP JUMPDEST PUSH1 0x40 MLOAD DUP1 PUSH2 0x140 ADD PUSH1 0x40 MSTORE DUP1 PUSH1 0x0 DUP2 MSTORE PUSH1 0x20 ADD PUSH1 0x60 DUP2 MSTORE PUSH1 0x20 ADD PUSH1 0x60 DUP2 MSTORE PUSH1 0x20 ADD PUSH1 0x0 PUSH1 0x1 PUSH1 0x1 PUSH1 0xA0 SHL SUB AND DUP2 MSTORE PUSH1 0x20 ADD PUSH1 0x0 DUP2 MSTORE PUSH1 0x20 ADD PUSH1 0x0 DUP2 MSTORE PUSH1 0x20 ADD PUSH1 0x0 DUP2 MSTORE PUSH1 0x20 ADD PUSH1 0x0 DUP2 MSTORE PUSH1 0x20 ADD PUSH1 0x0 DUP2 MSTORE PUSH1 0x20 ADD PUSH1 0x0 DUP2 MSTORE POP SWAP1 JUMP JUMPDEST JUMPDEST DUP1 DUP3 GT ISZERO PUSH2 0x19A6 JUMPI PUSH1 0x0 DUP2 SSTORE PUSH1 0x1 ADD PUSH2 0x3613 JUMP JUMPDEST PUSH1 0x0 PUSH1 0x20 DUP3 DUP5 SUB SLT ISZERO PUSH2 0x3639 JUMPI PUSH1 0x0 DUP1 REVERT JUMPDEST POP CALLDATALOAD SWAP2 SWAP1 POP JUMP JUMPDEST PUSH4 0x4E487B71 PUSH1 0xE0 SHL PUSH1 0x0 MSTORE PUSH1 0x41 PUSH1 0x4 MSTORE PUSH1 0x24 PUSH1 0x0 REVERT JUMPDEST PUSH1 0x40 MLOAD PUSH1 0x1F DUP3 ADD PUSH1 0x1F NOT AND DUP2 ADD PUSH1 0x1 PUSH1 0x1 PUSH1 0x40 SHL SUB DUP2 GT DUP3 DUP3 LT OR ISZERO PUSH2 0x367E JUMPI PUSH2 0x367E PUSH2 0x3640 JUMP JUMPDEST PUSH1 0x40 MSTORE SWAP2 SWAP1 POP JUMP JUMPDEST PUSH1 0x0 DUP3 PUSH1 0x1F DUP4 ADD SLT PUSH2 0x3697 JUMPI PUSH1 0x0 DUP1 REVERT JUMPDEST DUP2 CALLDATALOAD PUSH1 0x1 PUSH1 0x1 PUSH1 0x40 SHL SUB DUP2 GT ISZERO PUSH2 0x36B0 JUMPI PUSH2 0x36B0 PUSH2 0x3640 JUMP JUMPDEST PUSH2 0x36C3 PUSH1 0x1F DUP3 ADD PUSH1 0x1F NOT AND PUSH1 0x20 ADD PUSH2 0x3656 JUMP JUMPDEST DUP2 DUP2 MSTORE DUP5 PUSH1 0x20 DUP4 DUP7 ADD ADD GT ISZERO PUSH2 0x36D8 JUMPI PUSH1 0x0 DUP1 REVERT JUMPDEST DUP2 PUSH1 0x20 DUP6 ADD PUSH1 0x20 DUP4 ADD CALLDATACOPY PUSH1 0x0 SWAP2 DUP2 ADD PUSH1 0x20 ADD SWAP2 SWAP1 SWAP2 MSTORE SWAP4 SWAP3 POP POP POP JUMP JUMPDEST PUSH1 0x0 DUP1 PUSH1 0x0 DUP1 PUSH1 0x0 DUP1 PUSH1 0xC0 DUP8 DUP10 SUB SLT ISZERO PUSH2 0x370E JUMPI PUSH1 0x0 DUP1 REVERT JUMPDEST DUP7 CALLDATALOAD SWAP6 POP PUSH1 0x20 DUP8 ADD CALLDATALOAD SWAP5 POP PUSH1 0x40 DUP8 ADD CALLDATALOAD SWAP4 POP PUSH1 0x60 DUP8 ADD CALLDATALOAD SWAP3 POP PUSH1 0x80 DUP8 ADD CALLDATALOAD PUSH1 0x1 PUSH1 0x1 PUSH1 0x40 SHL SUB DUP1 DUP3 GT ISZERO PUSH2 0x3741 JUMPI PUSH1 0x0 DUP1 REVERT JUMPDEST PUSH2 0x374D DUP11 DUP4 DUP12 ADD PUSH2 0x3686 JUMP JUMPDEST SWAP4 POP PUSH1 0xA0 DUP10 ADD CALLDATALOAD SWAP2 POP DUP1 DUP3 GT ISZERO PUSH2 0x3763 JUMPI PUSH1 0x0 DUP1 REVERT JUMPDEST POP PUSH2 0x3770 DUP10 DUP3 DUP11 ADD PUSH2 0x3686 JUMP JUMPDEST SWAP2 POP POP SWAP3 SWAP6 POP SWAP3 SWAP6 POP SWAP3 SWAP6 JUMP JUMPDEST PUSH1 0x0 DUP1 PUSH1 0x40 DUP4 DUP6 SUB SLT ISZERO PUSH2 0x3790 JUMPI PUSH1 0x0 DUP1 REVERT JUMPDEST POP POP DUP1 CALLDATALOAD SWAP3 PUSH1 0x20 SWAP1 SWAP2 ADD CALLDATALOAD SWAP2 POP JUMP JUMPDEST PUSH1 0x0 DUP2 MLOAD DUP1 DUP5 MSTORE PUSH1 0x0 JUMPDEST DUP2 DUP2 LT ISZERO PUSH2 0x37C5 JUMPI PUSH1 0x20 DUP2 DUP6 ADD DUP2 ADD MLOAD DUP7 DUP4 ADD DUP3 ADD MSTORE ADD PUSH2 0x37A9 JUMP JUMPDEST DUP2 DUP2 GT ISZERO PUSH2 0x37D7 JUMPI PUSH1 0x0 PUSH1 0x20 DUP4 DUP8 ADD ADD MSTORE JUMPDEST POP PUSH1 0x1F ADD PUSH1 0x1F NOT AND SWAP3 SWAP1 SWAP3 ADD PUSH1 0x20 ADD SWAP3 SWAP2 POP POP JUMP JUMPDEST DUP1 MLOAD DUP3 MSTORE PUSH1 0x20 DUP2 ADD MLOAD PUSH1 0x20 DUP4 ADD MSTORE PUSH1 0x0 PUSH1 0x40 DUP3 ADD MLOAD PUSH1 0xA0 PUSH1 0x40 DUP6 ADD MSTORE PUSH2 0x3815 PUSH1 0xA0 DUP6 ADD DUP3 PUSH2 0x379F JUMP JUMPDEST PUSH1 0x60 DUP5 DUP2 ADD MLOAD PUSH1 0x1 PUSH1 0x1 PUSH1 0xA0 SHL SUB AND SWAP1 DUP7 ADD MSTORE PUSH1 0x80 SWAP4 DUP5 ADD MLOAD SWAP4 SWAP1 SWAP5 ADD SWAP3 SWAP1 SWAP3 MSTORE POP SWAP1 SWAP2 SWAP1 POP JUMP JUMPDEST PUSH1 0x0 PUSH1 0x20 DUP1 DUP4 ADD DUP2 DUP5 MSTORE DUP1 DUP6 MLOAD DUP1 DUP4 MSTORE PUSH1 0x40 DUP7 ADD SWAP2 POP PUSH1 0x40 DUP2 PUSH1 0x5 SHL DUP8 ADD ADD SWAP3 POP DUP4 DUP8 ADD PUSH1 0x0 JUMPDEST DUP3 DUP2 LT ISZERO PUSH2 0x3892 JUMPI PUSH1 0x3F NOT DUP9 DUP7 SUB ADD DUP5 MSTORE PUSH2 0x3880 DUP6 DUP4 MLOAD PUSH2 0x37EC JUMP JUMPDEST SWAP5 POP SWAP3 DUP6 ADD SWAP3 SWAP1 DUP6 ADD SWAP1 PUSH1 0x1 ADD PUSH2 0x3864 JUMP JUMPDEST POP SWAP3 SWAP8 SWAP7 POP POP POP POP POP POP POP JUMP JUMPDEST PUSH1 0x0 DUP1 PUSH1 0x0 DUP1 PUSH1 0x0 PUSH1 0xA0 DUP7 DUP9 SUB SLT ISZERO PUSH2 0x38B7 JUMPI PUSH1 0x0 DUP1 REVERT JUMPDEST DUP6 CALLDATALOAD SWAP5 POP PUSH1 0x20 DUP7 ADD CALLDATALOAD SWAP4 POP PUSH1 0x40 DUP7 ADD CALLDATALOAD SWAP3 POP PUSH1 0x60 DUP7 ADD CALLDATALOAD PUSH1 0x1 PUSH1 0x1 PUSH1 0x40 SHL SUB DUP1 DUP3 GT ISZERO PUSH2 0x38E3 JUMPI PUSH1 0x0 DUP1 REVERT JUMPDEST PUSH2 0x38EF DUP10 DUP4 DUP11 ADD PUSH2 0x3686 JUMP JUMPDEST SWAP4 POP PUSH1 0x80 DUP9 ADD CALLDATALOAD SWAP2 POP DUP1 DUP3 GT ISZERO PUSH2 0x3905 JUMPI PUSH1 0x0 DUP1 REVERT JUMPDEST POP PUSH2 0x3912 DUP9 DUP3 DUP10 ADD PUSH2 0x3686 JUMP JUMPDEST SWAP2 POP POP SWAP3 SWAP6 POP SWAP3 SWAP6 SWAP1 SWAP4 POP JUMP JUMPDEST PUSH1 0x0 PUSH1 0x1 PUSH1 0x1 PUSH1 0x40 SHL SUB DUP3 GT ISZERO PUSH2 0x3938 JUMPI PUSH2 0x3938 PUSH2 0x3640 JUMP JUMPDEST POP PUSH1 0x5 SHL PUSH1 0x20 ADD SWAP1 JUMP JUMPDEST DUP1 CALLDATALOAD PUSH1 0x1 PUSH1 0x1 PUSH1 0xA0 SHL SUB DUP2 AND DUP2 EQ PUSH2 0x3959 JUMPI PUSH1 0x0 DUP1 REVERT JUMPDEST SWAP2 SWAP1 POP JUMP JUMPDEST PUSH1 0x0 DUP3 PUSH1 0x1F DUP4 ADD SLT PUSH2 0x396F JUMPI PUSH1 0x0 DUP1 REVERT JUMPDEST DUP2 CALLDATALOAD PUSH1 0x20 PUSH2 0x3984 PUSH2 0x397F DUP4 PUSH2 0x391F JUMP JUMPDEST PUSH2 0x3656 JUMP JUMPDEST DUP3 DUP2 MSTORE PUSH1 0x5 SWAP3 SWAP1 SWAP3 SHL DUP5 ADD DUP2 ADD SWAP2 DUP2 DUP2 ADD SWAP1 DUP7 DUP5 GT ISZERO PUSH2 0x39A3 JUMPI PUSH1 0x0 DUP1 REVERT JUMPDEST DUP3 DUP7 ADD JUMPDEST DUP5 DUP2 LT ISZERO PUSH2 0x39C5 JUMPI PUSH2 0x39B8 DUP2 PUSH2 0x3942 JUMP JUMPDEST DUP4 MSTORE SWAP2 DUP4 ADD SWAP2 DUP4 ADD PUSH2 0x39A7 JUMP JUMPDEST POP SWAP7 SWAP6 POP POP POP POP POP POP JUMP JUMPDEST PUSH1 0x0 DUP1 PUSH1 0x0 PUSH1 0x60 DUP5 DUP7 SUB SLT ISZERO PUSH2 0x39E5 JUMPI PUSH1 0x0 DUP1 REVERT JUMPDEST DUP4 CALLDATALOAD SWAP3 POP PUSH1 0x20 DUP1 DUP6 ADD CALLDATALOAD PUSH1 0x1 PUSH1 0x1 PUSH1 0x40 SHL SUB DUP1 DUP3 GT ISZERO PUSH2 0x3A04 JUMPI PUSH1 0x0 DUP1 REVERT JUMPDEST DUP2 DUP8 ADD SWAP2 POP DUP8 PUSH1 0x1F DUP4 ADD SLT PUSH2 0x3A18 JUMPI PUSH1 0x0 DUP1 REVERT JUMPDEST DUP2 CALLDATALOAD PUSH2 0x3A26 PUSH2 0x397F DUP3 PUSH2 0x391F JUMP JUMPDEST DUP2 DUP2 MSTORE PUSH1 0x5 SWAP2 SWAP1 SWAP2 SHL DUP4 ADD DUP5 ADD SWAP1 DUP5 DUP2 ADD SWAP1 DUP11 DUP4 GT ISZERO PUSH2 0x3A45 JUMPI PUSH1 0x0 DUP1 REVERT JUMPDEST DUP6 DUP6 ADD JUMPDEST DUP4 DUP2 LT ISZERO PUSH2 0x3A7D JUMPI DUP1 CALLDATALOAD DUP6 DUP2 GT ISZERO PUSH2 0x3A61 JUMPI PUSH1 0x0 DUP1 DUP2 REVERT JUMPDEST PUSH2 0x3A6F DUP14 DUP10 DUP4 DUP11 ADD ADD PUSH2 0x3686 JUMP JUMPDEST DUP5 MSTORE POP SWAP2 DUP7 ADD SWAP2 DUP7 ADD PUSH2 0x3A49 JUMP JUMPDEST POP SWAP7 POP POP POP PUSH1 0x40 DUP8 ADD CALLDATALOAD SWAP3 POP DUP1 DUP4 GT ISZERO PUSH2 0x3A96 JUMPI PUSH1 0x0 DUP1 REVERT JUMPDEST POP POP PUSH2 0x3AA4 DUP7 DUP3 DUP8 ADD PUSH2 0x395E JUMP JUMPDEST SWAP2 POP POP SWAP3 POP SWAP3 POP SWAP3 JUMP JUMPDEST PUSH4 0x4E487B71 PUSH1 0xE0 SHL PUSH1 0x0 MSTORE PUSH1 0x21 PUSH1 0x4 MSTORE PUSH1 0x24 PUSH1 0x0 REVERT JUMPDEST PUSH1 0x6 DUP2 LT PUSH2 0x3AE2 JUMPI PUSH4 0x4E487B71 PUSH1 0xE0 SHL PUSH1 0x0 MSTORE PUSH1 0x21 PUSH1 0x4 MSTORE PUSH1 0x24 PUSH1 0x0 REVERT JUMPDEST SWAP1 MSTORE JUMP JUMPDEST PUSH1 0x0 PUSH1 0x20 DUP1 DUP4 ADD DUP2 DUP5 MSTORE DUP1 DUP6 MLOAD DUP1 DUP4 MSTORE PUSH1 0x40 SWAP3 POP DUP3 DUP7 ADD SWAP2 POP DUP3 DUP2 PUSH1 0x5 SHL DUP8 ADD ADD DUP5 DUP9 ADD PUSH1 0x0 JUMPDEST DUP4 DUP2 LT ISZERO PUSH2 0x3BE4 JUMPI PUSH1 0x3F NOT DUP10 DUP5 SUB ADD DUP6 MSTORE DUP2 MLOAD PUSH2 0x160 DUP2 MLOAD DUP6 MSTORE DUP9 DUP3 ADD MLOAD DUP10 DUP7 ADD MSTORE DUP8 DUP3 ADD MLOAD DUP2 DUP10 DUP8 ADD MSTORE PUSH2 0x3B44 DUP3 DUP8 ADD DUP3 PUSH2 0x379F JUMP JUMPDEST SWAP2 POP POP PUSH1 0x60 DUP1 DUP4 ADD MLOAD DUP7 DUP4 SUB DUP3 DUP9 ADD MSTORE PUSH2 0x3B5E DUP4 DUP3 PUSH2 0x379F JUMP JUMPDEST SWAP3 POP POP POP PUSH1 0x80 DUP1 DUP4 ADD MLOAD PUSH2 0x3B7C DUP3 DUP9 ADD DUP3 PUSH1 0x1 PUSH1 0x1 PUSH1 0xA0 SHL SUB AND SWAP1 MSTORE JUMP JUMPDEST POP POP PUSH1 0xA0 DUP3 DUP2 ADD MLOAD PUSH1 0x1 PUSH1 0x1 PUSH1 0xA0 SHL SUB AND SWAP1 DUP7 ADD MSTORE PUSH1 0xC0 DUP1 DUP4 ADD MLOAD SWAP1 DUP7 ADD MSTORE PUSH1 0xE0 DUP1 DUP4 ADD MLOAD SWAP1 DUP7 ADD MSTORE PUSH2 0x100 DUP1 DUP4 ADD MLOAD SWAP1 DUP7 ADD MSTORE PUSH2 0x120 DUP1 DUP4 ADD MLOAD PUSH2 0x3BC3 DUP3 DUP9 ADD DUP3 PUSH2 0x3AC4 JUMP JUMPDEST POP POP PUSH2 0x140 SWAP2 DUP3 ADD MLOAD SWAP5 SWAP1 SWAP2 ADD SWAP4 SWAP1 SWAP4 MSTORE SWAP4 DUP7 ADD SWAP4 SWAP1 DUP7 ADD SWAP1 PUSH1 0x1 ADD PUSH2 0x3B0D JUMP JUMPDEST POP SWAP1 SWAP9 SWAP8 POP POP POP POP POP POP POP POP JUMP JUMPDEST PUSH1 0x0 PUSH2 0x140 DUP3 MLOAD DUP5 MSTORE PUSH1 0x20 DUP4 ADD MLOAD DUP2 PUSH1 0x20 DUP7 ADD MSTORE PUSH2 0x3C12 DUP3 DUP7 ADD DUP3 PUSH2 0x379F JUMP JUMPDEST SWAP2 POP POP PUSH1 0x40 DUP4 ADD MLOAD DUP5 DUP3 SUB PUSH1 0x40 DUP7 ADD MSTORE PUSH2 0x3C2C DUP3 DUP3 PUSH2 0x379F JUMP JUMPDEST SWAP2 POP POP PUSH1 0x60 DUP4 ADD MLOAD PUSH2 0x3C49 PUSH1 0x60 DUP7 ADD DUP3 PUSH1 0x1 PUSH1 0x1 PUSH1 0xA0 SHL SUB AND SWAP1 MSTORE JUMP JUMPDEST POP PUSH1 0x80 DUP4 ADD MLOAD PUSH1 0x80 DUP6 ADD MSTORE PUSH1 0xA0 DUP4 ADD MLOAD PUSH1 0xA0 DUP6 ADD MSTORE PUSH1 0xC0 DUP4 ADD MLOAD PUSH1 0xC0 DUP6 ADD MSTORE PUSH1 0xE0 DUP4 ADD MLOAD PUSH1 0xE0 DUP6 ADD MSTORE PUSH2 0x100 DUP1 DUP5 ADD MLOAD DUP2 DUP7 ADD MSTORE POP PUSH2 0x120 DUP1 DUP5 ADD MLOAD DUP2 DUP7 ADD MSTORE POP DUP1 SWAP2 POP POP SWAP3 SWAP2 POP POP JUMP JUMPDEST PUSH1 0x20 DUP2 MSTORE PUSH1 0x0 PUSH2 0x3CA7 PUSH1 0x20 DUP4 ADD DUP5 PUSH2 0x3BF2 JUMP JUMPDEST SWAP4 SWAP3 POP POP POP JUMP JUMPDEST PUSH1 0x20 DUP2 MSTORE PUSH1 0x0 PUSH2 0x3CA7 PUSH1 0x20 DUP4 ADD DUP5 PUSH2 0x37EC JUMP JUMPDEST PUSH1 0x0 DUP1 PUSH1 0x40 DUP4 DUP6 SUB SLT ISZERO PUSH2 0x3CD4 JUMPI PUSH1 0x0 DUP1 REVERT JUMPDEST DUP3 CALLDATALOAD PUSH1 0x1 PUSH1 0x1 PUSH1 0x40 SHL SUB DUP1 DUP3 GT ISZERO PUSH2 0x3CEB JUMPI PUSH1 0x0 DUP1 REVERT JUMPDEST PUSH2 0x3CF7 DUP7 DUP4 DUP8 ADD PUSH2 0x3686 JUMP JUMPDEST SWAP4 POP PUSH1 0x20 DUP6 ADD CALLDATALOAD SWAP2 POP DUP1 DUP3 GT ISZERO PUSH2 0x3D0D JUMPI PUSH1 0x0 DUP1 REVERT JUMPDEST POP PUSH2 0x3D1A DUP6 DUP3 DUP7 ADD PUSH2 0x3686 JUMP JUMPDEST SWAP2 POP POP SWAP3 POP SWAP3 SWAP1 POP JUMP JUMPDEST PUSH1 0x0 DUP1 PUSH1 0x0 PUSH1 0x60 DUP5 DUP7 SUB SLT ISZERO PUSH2 0x3D39 JUMPI PUSH1 0x0 DUP1 REVERT JUMPDEST DUP4 CALLDATALOAD SWAP3 POP PUSH1 0x20 DUP5 ADD CALLDATALOAD PUSH1 0x1 PUSH1 0x1 PUSH1 0x40 SHL SUB DUP1 DUP3 GT ISZERO PUSH2 0x3D57 JUMPI PUSH1 0x0 DUP1 REVERT JUMPDEST PUSH2 0x3D63 DUP8 DUP4 DUP9 ADD PUSH2 0x3686 JUMP JUMPDEST SWAP4 POP PUSH1 0x40 DUP7 ADD CALLDATALOAD SWAP2 POP DUP1 DUP3 GT ISZERO PUSH2 0x3D79 JUMPI PUSH1 0x0 DUP1 REVERT JUMPDEST POP PUSH2 0x3AA4 DUP7 DUP3 DUP8 ADD PUSH2 0x3686 JUMP JUMPDEST PUSH1 0x0 PUSH1 0x20 DUP1 DUP4 ADD DUP2 DUP5 MSTORE DUP1 DUP6 MLOAD DUP1 DUP4 MSTORE PUSH1 0x40 DUP7 ADD SWAP2 POP PUSH1 0x40 DUP2 PUSH1 0x5 SHL DUP8 ADD ADD SWAP3 POP DUP4 DUP8 ADD PUSH1 0x0 JUMPDEST DUP3 DUP2 LT ISZERO PUSH2 0x3892 JUMPI PUSH1 0x3F NOT DUP9 DUP7 SUB ADD DUP5 MSTORE PUSH2 0x3DC9 DUP6 DUP4 MLOAD PUSH2 0x3BF2 JUMP JUMPDEST SWAP5 POP SWAP3 DUP6 ADD SWAP3 SWAP1 DUP6 ADD SWAP1 PUSH1 0x1 ADD PUSH2 0x3DAD JUMP JUMPDEST PUSH1 0x0 DUP1 PUSH1 0x0 DUP1 PUSH1 0x80 DUP6 DUP8 SUB SLT ISZERO PUSH2 0x3DF1 JUMPI PUSH1 0x0 DUP1 REVERT JUMPDEST DUP5 CALLDATALOAD SWAP4 POP PUSH1 0x20 DUP6 ADD CALLDATALOAD SWAP3 POP PUSH1 0x40 DUP6 ADD CALLDATALOAD PUSH1 0x1 PUSH1 0x1 PUSH1 0x40 SHL SUB DUP2 GT ISZERO PUSH2 0x3E15 JUMPI PUSH1 0x0 DUP1 REVERT JUMPDEST PUSH2 0x3E21 DUP8 DUP3 DUP9 ADD PUSH2 0x3686 JUMP JUMPDEST SWAP3 POP POP PUSH2 0x3E30 PUSH1 0x60 DUP7 ADD PUSH2 0x3942 JUMP JUMPDEST SWAP1 POP SWAP3 SWAP6 SWAP2 SWAP5 POP SWAP3 POP JUMP JUMPDEST PUSH1 0x0 PUSH1 0x20 DUP3 DUP5 SUB SLT ISZERO PUSH2 0x3E4D JUMPI PUSH1 0x0 DUP1 REVERT JUMPDEST PUSH2 0x3CA7 DUP3 PUSH2 0x3942 JUMP JUMPDEST PUSH1 0x20 DUP1 DUP3 MSTORE PUSH1 0x12 SWAP1 DUP3 ADD MSTORE PUSH18 0x506179726F6C6C206E6F7420666F756E6421 PUSH1 0x70 SHL PUSH1 0x40 DUP3 ADD MSTORE PUSH1 0x60 ADD SWAP1 JUMP JUMPDEST PUSH1 0x20 DUP1 DUP3 MSTORE PUSH1 0x14 SWAP1 DUP3 ADD MSTORE PUSH20 0x556E617574686F72697A656420656E7469747921 PUSH1 0x60 SHL PUSH1 0x40 DUP3 ADD MSTORE PUSH1 0x60 ADD SWAP1 JUMP JUMPDEST PUSH1 0x20 DUP1 DUP3 MSTORE PUSH1 0x14 SWAP1 DUP3 ADD MSTORE PUSH20 0x506179726F6C6C206E6F742050656E64696E6721 PUSH1 0x60 SHL PUSH1 0x40 DUP3 ADD MSTORE PUSH1 0x60 ADD SWAP1 JUMP JUMPDEST PUSH1 0x20 DUP1 DUP3 MSTORE PUSH1 0x17 SWAP1 DUP3 ADD MSTORE PUSH32 0x4F7267616E697A6174696F6E206E6F7420666F756E6421000000000000000000 PUSH1 0x40 DUP3 ADD MSTORE PUSH1 0x60 ADD SWAP1 JUMP JUMPDEST PUSH1 0x20 DUP1 DUP3 MSTORE PUSH1 0x16 SWAP1 DUP3 ADD MSTORE PUSH22 0x506179726F6C6C206E6F7420617661696C61626C6521 PUSH1 0x50 SHL PUSH1 0x40 DUP3 ADD MSTORE PUSH1 0x60 ADD SWAP1 JUMP JUMPDEST PUSH1 0x20 DUP1 DUP3 MSTORE PUSH1 0x21 SWAP1 DUP3 ADD MSTORE PUSH32 0x53616C617279206D7573742062652067726561746572207468616E207A65726F PUSH1 0x40 DUP3 ADD MSTORE PUSH1 0x21 PUSH1 0xF8 SHL PUSH1 0x60 DUP3 ADD MSTORE PUSH1 0x80 ADD SWAP1 JUMP JUMPDEST PUSH1 0x20 DUP1 DUP3 MSTORE PUSH1 0x28 SWAP1 DUP3 ADD MSTORE PUSH32 0x50657263656E7461676520437574206D757374206265206265747765656E2028 PUSH1 0x40 DUP3 ADD MSTORE PUSH8 0x31202D2031303029 PUSH1 0xC0 SHL PUSH1 0x60 DUP3 ADD MSTORE PUSH1 0x80 ADD SWAP1 JUMP JUMPDEST PUSH1 0x20 DUP1 DUP3 MSTORE PUSH1 0x15 SWAP1 DUP3 ADD MSTORE PUSH21 0x4E616D652063616E6E6F7420626520656D70747921 PUSH1 0x58 SHL PUSH1 0x40 DUP3 ADD MSTORE PUSH1 0x60 ADD SWAP1 JUMP JUMPDEST PUSH1 0x20 DUP1 DUP3 MSTORE PUSH1 0x1C SWAP1 DUP3 ADD MSTORE PUSH32 0x4465736372697074696F6E2063616E6E6F7420626520656D7074792100000000 PUSH1 0x40 DUP3 ADD MSTORE PUSH1 0x60 ADD SWAP1 JUMP JUMPDEST PUSH4 0x4E487B71 PUSH1 0xE0 SHL PUSH1 0x0 MSTORE PUSH1 0x11 PUSH1 0x4 MSTORE PUSH1 0x24 PUSH1 0x0 REVERT JUMPDEST PUSH1 0x0 DUP2 PUSH2 0x4059 JUMPI PUSH2 0x4059 PUSH2 0x4034 JUMP JUMPDEST POP PUSH1 0x0 NOT ADD SWAP1 JUMP JUMPDEST PUSH1 0x0 DUP3 NOT DUP3 GT ISZERO PUSH2 0x4074 JUMPI PUSH2 0x4074 PUSH2 0x4034 JUMP JUMPDEST POP ADD SWAP1 JUMP JUMPDEST PUSH1 0x1 DUP2 DUP2 SHR SWAP1 DUP3 AND DUP1 PUSH2 0x408D JUMPI PUSH1 0x7F DUP3 AND SWAP2 POP JUMPDEST PUSH1 0x20 DUP3 LT DUP2 EQ ISZERO PUSH2 0xB85 JUMPI PUSH4 0x4E487B71 PUSH1 0xE0 SHL PUSH1 0x0 MSTORE PUSH1 0x22 PUSH1 0x4 MSTORE PUSH1 0x24 PUSH1 0x0 REVERT JUMPDEST PUSH4 0x4E487B71 PUSH1 0xE0 SHL PUSH1 0x0 MSTORE PUSH1 0x32 PUSH1 0x4 MSTORE PUSH1 0x24 PUSH1 0x0 REVERT JUMPDEST PUSH1 0x0 PUSH1 0x0 NOT DUP3 EQ ISZERO PUSH2 0x40D8 JUMPI PUSH2 0x40D8 PUSH2 0x4034 JUMP JUMPDEST POP PUSH1 0x1 ADD SWAP1 JUMP JUMPDEST PUSH1 0x0 DUP2 PUSH1 0x0 NOT DIV DUP4 GT DUP3 ISZERO ISZERO AND ISZERO PUSH2 0x40F9 JUMPI PUSH2 0x40F9 PUSH2 0x4034 JUMP JUMPDEST POP MUL SWAP1 JUMP JUMPDEST PUSH1 0x0 DUP3 PUSH2 0x411B JUMPI PUSH4 0x4E487B71 PUSH1 0xE0 SHL PUSH1 0x0 MSTORE PUSH1 0x12 PUSH1 0x4 MSTORE PUSH1 0x24 PUSH1 0x0 REVERT JUMPDEST POP DIV SWAP1 JUMP JUMPDEST PUSH1 0x0 DUP3 DUP3 LT ISZERO PUSH2 0x4132 JUMPI PUSH2 0x4132 PUSH2 0x4034 JUMP JUMPDEST POP SUB SWAP1 JUMP INVALID MSIZE PUSH16 0x75722073746174697374696373206163 PUSH4 0x726F7373 KECCAK256 PUSH2 0x6C6C KECCAK256 PUSH16 0x7267616E697A6174696F6E7320637265 PUSH2 0x7465 PUSH5 0x2062792079 PUSH16 0x75A2646970667358221220185F247FF6 SHL DUP4 0x27 SELFBALANCE 0x23 0xB2 0xBD STATICCALL 0x28 PUSH25 0xBDEA9E14FF8D5113391C21BFB1647E60E964736F6C63430008 SIGNEXTEND STOP CALLER "},"methodIdentifiers":{"approvePayroll(uint256)":"e8fb1652","createOrg(string,string)":"8fb9ac60","createPayroll(uint256,uint256,uint256,string,string)":"2f20aae7","createWorker(uint256,string[],address[])":"3dc5da5c","deletePayroll(uint256)":"2155015f","deleteWorker(uint256,uint256)":"2a3a7649","fundOrg(uint256)":"4439a88a","getAllWorkers()":"c9c0f25e","getMyActivePayrolls()":"9a0a3d5b","getMyOrgs()":"d90abb45","getMyPayrollsByOrg(uint256)":"3e653f8d","getMyStats()":"7a52723e","getOrgById(uint256)":"d600c8a7","getOrgs()":"ede76775","getPayrollWorker(uint256,uint256)":"815cd8f4","getPayrollWorkers(uint256)":"2ebd12c9","getPayrolls()":"dc0c9bb1","openPayroll(uint256)":"6403e246","owner()":"8da5cb5b","payWorkers(uint256)":"c2b5aaa2","rejectPayroll(uint256)":"1229c5d4","renounceOwnership()":"715018a6","submitPayroll(uint256)":"60f71a81","transferOwnership(address)":"f2fde38b","updateOrg(uint256,string,string)":"91d40d9e","updatePayroll(uint256,uint256,uint256,uint256,string,string)":"15df792e","updateWorker(uint256,uint256,string,address)":"dd983f22"}}}}}