{
  "_format": "hh-sol-artifact-1",
  "contractName": "DappPayroll",
  "sourceName": "src/contracts/DappPayroll.sol",
  "abi": [
    {
      "anonymous": false,
      "inputs": [
        {
          "indexed": true,
          "internalType": "address",
          "name": "previousOwner",
          "type": "address"
        },
        {
          "indexed": true,
          "internalType": "address",
          "name": "newOwner",
          "type": "address"
        }
      ],
      "name": "OwnershipTransferred",
      "type": "event"
    },
    {
      "inputs": [
        {
          "internalType": "uint256",
          "name": "id",
          "type": "uint256"
        }
      ],
      "name": "approvePayroll",
      "outputs": [],
      "stateMutability": "nonpayable",
      "type": "function"
    },
    {
      "inputs": [
        {
          "internalType": "string",
          "name": "name",
          "type": "string"
        },
        {
          "internalType": "string",
          "name": "description",
          "type": "string"
        }
      ],
      "name": "createOrg",
      "outputs": [],
      "stateMutability": "nonpayable",
      "type": "function"
    },
    {
      "inputs": [
        {
          "internalType": "uint256",
          "name": "oid",
          "type": "uint256"
        },
        {
          "internalType": "string",
          "name": "name",
          "type": "string"
        },
        {
          "internalType": "string",
          "name": "description",
          "type": "string"
        },
        {
          "internalType": "uint256",
          "name": "salary",
          "type": "uint256"
        },
        {
          "internalType": "uint256",
          "name": "cut",
          "type": "uint256"
        }
      ],
      "name": "createPayroll",
      "outputs": [],
      "stateMutability": "nonpayable",
      "type": "function"
    },
    {
      "inputs": [
        {
          "internalType": "uint256",
          "name": "pid",
          "type": "uint256"
        },
        {
          "internalType": "string[]",
          "name": "names",
          "type": "string[]"
        },
        {
          "internalType": "address[]",
          "name": "accounts",
          "type": "address[]"
        }
      ],
      "name": "createWorker",
      "outputs": [],
      "stateMutability": "nonpayable",
      "type": "function"
    },
    {
      "inputs": [
        {
          "internalType": "uint256",
          "name": "id",
          "type": "uint256"
        }
      ],
      "name": "deletePayroll",
      "outputs": [],
      "stateMutability": "nonpayable",
      "type": "function"
    },
    {
      "inputs": [
        {
          "internalType": "uint256",
          "name": "wid",
          "type": "uint256"
        },
        {
          "internalType": "uint256",
          "name": "pid",
          "type": "uint256"
        }
      ],
      "name": "deleteWorker",
      "outputs": [],
      "stateMutability": "nonpayable",
      "type": "function"
    },
    {
      "inputs": [
        {
          "internalType": "uint256",
          "name": "oid",
          "type": "uint256"
        }
      ],
      "name": "fundOrg",
      "outputs": [],
      "stateMutability": "payable",
      "type": "function"
    },
    {
      "inputs": [],
      "name": "getAllWorkers",
      "outputs": [
        {
          "components": [
            {
              "internalType": "uint256",
              "name": "id",
              "type": "uint256"
            },
            {
              "internalType": "uint256",
              "name": "wid",
              "type": "uint256"
            },
            {
              "internalType": "string",
              "name": "name",
              "type": "string"
            },
            {
              "internalType": "address",
              "name": "account",
              "type": "address"
            },
            {
              "internalType": "uint256",
              "name": "timestamp",
              "type": "uint256"
            }
          ],
          "internalType": "struct DappPayroll.WorkerStruct[]",
          "name": "Workers",
          "type": "tuple[]"
        }
      ],
      "stateMutability": "view",
      "type": "function"
    },
    {
      "inputs": [],
      "name": "getMyActivePayrolls",
      "outputs": [
        {
          "components": [
            {
              "internalType": "uint256",
              "name": "id",
              "type": "uint256"
            },
            {
              "internalType": "uint256",
              "name": "oid",
              "type": "uint256"
            },
            {
              "internalType": "string",
              "name": "name",
              "type": "string"
            },
            {
              "internalType": "string",
              "name": "description",
              "type": "string"
            },
            {
              "internalType": "address",
              "name": "officer",
              "type": "address"
            },
            {
              "internalType": "address",
              "name": "organization",
              "type": "address"
            },
            {
              "internalType": "uint256",
              "name": "salary",
              "type": "uint256"
            },
            {
              "internalType": "uint256",
              "name": "workers",
              "type": "uint256"
            },
            {
              "internalType": "uint256",
              "name": "cut",
              "type": "uint256"
            },
            {
              "internalType": "enum DappPayroll.Status",
              "name": "status",
              "type": "uint8"
            },
            {
              "internalType": "uint256",
              "name": "timestamp",
              "type": "uint256"
            }
          ],
          "internalType": "struct DappPayroll.PayrollStruct[]",
          "name": "Payrolls",
          "type": "tuple[]"
        }
      ],
      "stateMutability": "view",
      "type": "function"
    },
    {
      "inputs": [],
      "name": "getMyOrgs",
      "outputs": [
        {
          "components": [
            {
              "internalType": "uint256",
              "name": "id",
              "type": "uint256"
            },
            {
              "internalType": "string",
              "name": "name",
              "type": "string"
            },
            {
              "internalType": "string",
              "name": "description",
              "type": "string"
            },
            {
              "internalType": "address",
              "name": "account",
              "type": "address"
            },
            {
              "internalType": "uint256",
              "name": "payrolls",
              "type": "uint256"
            },
            {
              "internalType": "uint256",
              "name": "workers",
              "type": "uint256"
            },
            {
              "internalType": "uint256",
              "name": "payments",
              "type": "uint256"
            },
            {
              "internalType": "uint256",
              "name": "balance",
              "type": "uint256"
            },
            {
              "internalType": "uint256",
              "name": "cuts",
              "type": "uint256"
            },
            {
              "internalType": "uint256",
              "name": "timestamp",
              "type": "uint256"
            }
          ],
          "internalType": "struct DappPayroll.OrganizationStruct[]",
          "name": "",
          "type": "tuple[]"
        }
      ],
      "stateMutability": "view",
      "type": "function"
    },
    {
      "inputs": [
        {
          "internalType": "uint256",
          "name": "oid",
          "type": "uint256"
        }
      ],
      "name": "getMyPayrollsByOrg",
      "outputs": [
        {
          "components": [
            {
              "internalType": "uint256",
              "name": "id",
              "type": "uint256"
            },
            {
              "internalType": "uint256",
              "name": "oid",
              "type": "uint256"
            },
            {
              "internalType": "string",
              "name": "name",
              "type": "string"
            },
            {
              "internalType": "string",
              "name": "description",
              "type": "string"
            },
            {
              "internalType": "address",
              "name": "officer",
              "type": "address"
            },
            {
              "internalType": "address",
              "name": "organization",
              "type": "address"
            },
            {
              "internalType": "uint256",
              "name": "salary",
              "type": "uint256"
            },
            {
              "internalType": "uint256",
              "name": "workers",
              "type": "uint256"
            },
            {
              "internalType": "uint256",
              "name": "cut",
              "type": "uint256"
            },
            {
              "internalType": "enum DappPayroll.Status",
              "name": "status",
              "type": "uint8"
            },
            {
              "internalType": "uint256",
              "name": "timestamp",
              "type": "uint256"
            }
          ],
          "internalType": "struct DappPayroll.PayrollStruct[]",
          "name": "Payrolls",
          "type": "tuple[]"
        }
      ],
      "stateMutability": "view",
      "type": "function"
    },
    {
      "inputs": [],
      "name": "getMyStats",
      "outputs": [
        {
          "components": [
            {
              "internalType": "uint256",
              "name": "id",
              "type": "uint256"
            },
            {
              "internalType": "string",
              "name": "name",
              "type": "string"
            },
            {
              "internalType": "string",
              "name": "description",
              "type": "string"
            },
            {
              "internalType": "address",
              "name": "account",
              "type": "address"
            },
            {
              "internalType": "uint256",
              "name": "payrolls",
              "type": "uint256"
            },
            {
              "internalType": "uint256",
              "name": "workers",
              "type": "uint256"
            },
            {
              "internalType": "uint256",
              "name": "payments",
              "type": "uint256"
            },
            {
              "internalType": "uint256",
              "name": "balance",
              "type": "uint256"
            },
            {
              "internalType": "uint256",
              "name": "cuts",
              "type": "uint256"
            },
            {
              "internalType": "uint256",
              "name": "timestamp",
              "type": "uint256"
            }
          ],
          "internalType": "struct DappPayroll.OrganizationStruct",
          "name": "Organization",
          "type": "tuple"
        }
      ],
      "stateMutability": "view",
      "type": "function"
    },
    {
      "inputs": [
        {
          "internalType": "uint256",
          "name": "id",
          "type": "uint256"
        }
      ],
      "name": "getOrgById",
      "outputs": [
        {
          "components": [
            {
              "internalType": "uint256",
              "name": "id",
              "type": "uint256"
            },
            {
              "internalType": "string",
              "name": "name",
              "type": "string"
            },
            {
              "internalType": "string",
              "name": "description",
              "type": "string"
            },
            {
              "internalType": "address",
              "name": "account",
              "type": "address"
            },
            {
              "internalType": "uint256",
              "name": "payrolls",
              "type": "uint256"
            },
            {
              "internalType": "uint256",
              "name": "workers",
              "type": "uint256"
            },
            {
              "internalType": "uint256",
              "name": "payments",
              "type": "uint256"
            },
            {
              "internalType": "uint256",
              "name": "balance",
              "type": "uint256"
            },
            {
              "internalType": "uint256",
              "name": "cuts",
              "type": "uint256"
            },
            {
              "internalType": "uint256",
              "name": "timestamp",
              "type": "uint256"
            }
          ],
          "internalType": "struct DappPayroll.OrganizationStruct",
          "name": "Organization",
          "type": "tuple"
        }
      ],
      "stateMutability": "view",
      "type": "function"
    },
    {
      "inputs": [],
      "name": "getOrgs",
      "outputs": [
        {
          "components": [
            {
              "internalType": "uint256",
              "name": "id",
              "type": "uint256"
            },
            {
              "internalType": "string",
              "name": "name",
              "type": "string"
            },
            {
              "internalType": "string",
              "name": "description",
              "type": "string"
            },
            {
              "internalType": "address",
              "name": "account",
              "type": "address"
            },
            {
              "internalType": "uint256",
              "name": "payrolls",
              "type": "uint256"
            },
            {
              "internalType": "uint256",
              "name": "workers",
              "type": "uint256"
            },
            {
              "internalType": "uint256",
              "name": "payments",
              "type": "uint256"
            },
            {
              "internalType": "uint256",
              "name": "balance",
              "type": "uint256"
            },
            {
              "internalType": "uint256",
              "name": "cuts",
              "type": "uint256"
            },
            {
              "internalType": "uint256",
              "name": "timestamp",
              "type": "uint256"
            }
          ],
          "internalType": "struct DappPayroll.OrganizationStruct[]",
          "name": "Organization",
          "type": "tuple[]"
        }
      ],
      "stateMutability": "view",
      "type": "function"
    },
    {
      "inputs": [
        {
          "internalType": "uint256",
          "name": "id",
          "type": "uint256"
        }
      ],
      "name": "getPayrollById",
      "outputs": [
        {
          "components": [
            {
              "internalType": "uint256",
              "name": "id",
              "type": "uint256"
            },
            {
              "internalType": "uint256",
              "name": "oid",
              "type": "uint256"
            },
            {
              "internalType": "string",
              "name": "name",
              "type": "string"
            },
            {
              "internalType": "string",
              "name": "description",
              "type": "string"
            },
            {
              "internalType": "address",
              "name": "officer",
              "type": "address"
            },
            {
              "internalType": "address",
              "name": "organization",
              "type": "address"
            },
            {
              "internalType": "uint256",
              "name": "salary",
              "type": "uint256"
            },
            {
              "internalType": "uint256",
              "name": "workers",
              "type": "uint256"
            },
            {
              "internalType": "uint256",
              "name": "cut",
              "type": "uint256"
            },
            {
              "internalType": "enum DappPayroll.Status",
              "name": "status",
              "type": "uint8"
            },
            {
              "internalType": "uint256",
              "name": "timestamp",
              "type": "uint256"
            }
          ],
          "internalType": "struct DappPayroll.PayrollStruct",
          "name": "",
          "type": "tuple"
        }
      ],
      "stateMutability": "view",
      "type": "function"
    },
    {
      "inputs": [
        {
          "internalType": "uint256",
          "name": "pid",
          "type": "uint256"
        },
        {
          "internalType": "uint256",
          "name": "wid",
          "type": "uint256"
        }
      ],
      "name": "getPayrollWorker",
      "outputs": [
        {
          "components": [
            {
              "internalType": "uint256",
              "name": "id",
              "type": "uint256"
            },
            {
              "internalType": "uint256",
              "name": "wid",
              "type": "uint256"
            },
            {
              "internalType": "string",
              "name": "name",
              "type": "string"
            },
            {
              "internalType": "address",
              "name": "account",
              "type": "address"
            },
            {
              "internalType": "uint256",
              "name": "timestamp",
              "type": "uint256"
            }
          ],
          "internalType": "struct DappPayroll.WorkerStruct",
          "name": "Worker",
          "type": "tuple"
        }
      ],
      "stateMutability": "view",
      "type": "function"
    },
    {
      "inputs": [
        {
          "internalType": "uint256",
          "name": "pid",
          "type": "uint256"
        }
      ],
      "name": "getPayrollWorkers",
      "outputs": [
        {
          "components": [
            {
              "internalType": "uint256",
              "name": "id",
              "type": "uint256"
            },
            {
              "internalType": "uint256",
              "name": "wid",
              "type": "uint256"
            },
            {
              "internalType": "string",
              "name": "name",
              "type": "string"
            },
            {
              "internalType": "address",
              "name": "account",
              "type": "address"
            },
            {
              "internalType": "uint256",
              "name": "timestamp",
              "type": "uint256"
            }
          ],
          "internalType": "struct DappPayroll.WorkerStruct[]",
          "name": "Workers",
          "type": "tuple[]"
        }
      ],
      "stateMutability": "view",
      "type": "function"
    },
    {
      "inputs": [],
      "name": "getPayrolls",
      "outputs": [
        {
          "components": [
            {
              "internalType": "uint256",
              "name": "id",
              "type": "uint256"
            },
            {
              "internalType": "uint256",
              "name": "oid",
              "type": "uint256"
            },
            {
              "internalType": "string",
              "name": "name",
              "type": "string"
            },
            {
              "internalType": "string",
              "name": "description",
              "type": "string"
            },
            {
              "internalType": "address",
              "name": "officer",
              "type": "address"
            },
            {
              "internalType": "address",
              "name": "organization",
              "type": "address"
            },
            {
              "internalType": "uint256",
              "name": "salary",
              "type": "uint256"
            },
            {
              "internalType": "uint256",
              "name": "workers",
              "type": "uint256"
            },
            {
              "internalType": "uint256",
              "name": "cut",
              "type": "uint256"
            },
            {
              "internalType": "enum DappPayroll.Status",
              "name": "status",
              "type": "uint8"
            },
            {
              "internalType": "uint256",
              "name": "timestamp",
              "type": "uint256"
            }
          ],
          "internalType": "struct DappPayroll.PayrollStruct[]",
          "name": "Payrolls",
          "type": "tuple[]"
        }
      ],
      "stateMutability": "view",
      "type": "function"
    },
    {
      "inputs": [
        {
          "internalType": "uint256",
          "name": "id",
          "type": "uint256"
        }
      ],
      "name": "openPayroll",
      "outputs": [],
      "stateMutability": "nonpayable",
      "type": "function"
    },
    {
      "inputs": [],
      "name": "owner",
      "outputs": [
        {
          "internalType": "address",
          "name": "",
          "type": "address"
        }
      ],
      "stateMutability": "view",
      "type": "function"
    },
    {
      "inputs": [
        {
          "internalType": "uint256",
          "name": "pid",
          "type": "uint256"
        }
      ],
      "name": "payWorkers",
      "outputs": [],
      "stateMutability": "nonpayable",
      "type": "function"
    },
    {
      "inputs": [
        {
          "internalType": "uint256",
          "name": "id",
          "type": "uint256"
        }
      ],
      "name": "rejectPayroll",
      "outputs": [],
      "stateMutability": "nonpayable",
      "type": "function"
    },
    {
      "inputs": [],
      "name": "renounceOwnership",
      "outputs": [],
      "stateMutability": "nonpayable",
      "type": "function"
    },
    {
      "inputs": [
        {
          "internalType": "uint256",
          "name": "id",
          "type": "uint256"
        }
      ],
      "name": "submitPayroll",
      "outputs": [],
      "stateMutability": "nonpayable",
      "type": "function"
    },
    {
      "inputs": [
        {
          "internalType": "address",
          "name": "newOwner",
          "type": "address"
        }
      ],
      "name": "transferOwnership",
      "outputs": [],
      "stateMutability": "nonpayable",
      "type": "function"
    },
    {
      "inputs": [
        {
          "internalType": "uint256",
          "name": "id",
          "type": "uint256"
        },
        {
          "internalType": "string",
          "name": "name",
          "type": "string"
        },
        {
          "internalType": "string",
          "name": "description",
          "type": "string"
        }
      ],
      "name": "updateOrg",
      "outputs": [],
      "stateMutability": "nonpayable",
      "type": "function"
    },
    {
      "inputs": [
        {
          "internalType": "uint256",
          "name": "id",
          "type": "uint256"
        },
        {
          "internalType": "uint256",
          "name": "oid",
          "type": "uint256"
        },
        {
          "internalType": "string",
          "name": "name",
          "type": "string"
        },
        {
          "internalType": "string",
          "name": "description",
          "type": "string"
        },
        {
          "internalType": "uint256",
          "name": "salary",
          "type": "uint256"
        },
        {
          "internalType": "uint256",
          "name": "cut",
          "type": "uint256"
        }
      ],
      "name": "updatePayroll",
      "outputs": [],
      "stateMutability": "nonpayable",
      "type": "function"
    },
    {
      "inputs": [
        {
          "internalType": "uint256",
          "name": "wid",
          "type": "uint256"
        },
        {
          "internalType": "uint256",
          "name": "pid",
          "type": "uint256"
        },
        {
          "internalType": "string",
          "name": "name",
          "type": "string"
        },
        {
          "internalType": "address",
          "name": "account",
          "type": "address"
        }
      ],
      "name": "updateWorker",
      "outputs": [],
      "stateMutability": "nonpayable",
      "type": "function"
    }
  ],
  "bytecode": "0x60806040523480156200001157600080fd5b506200001d3362000027565b6001805562000077565b600080546001600160a01b038381166001600160a01b0319831681178455604051919092169283917f8be0079c531659141344cd1fd0a4f28419497f9722a3daafe3b4186f6b6457e09190a35050565b6143f480620000876000396000f3fe6080604052600436106101b75760003560e01c80638fb9ac60116100ec578063d600c8a71161008a578063dd983f2211610064578063dd983f22146104ce578063e8fb1652146104ee578063ede767751461050e578063f2fde38b1461052357600080fd5b8063d600c8a714610477578063d90abb4514610497578063dc0c9bb1146104b957600080fd5b8063b7c5464d116100c6578063b7c5464d146103f5578063c2b5aaa214610422578063c9c0f25e14610442578063cc5554d21461045757600080fd5b80638fb9ac60146103a057806391d40d9e146103c05780639a0a3d5b146103e057600080fd5b806360f71a81116101595780637a52723e116101335780637a52723e146103095780637aba416b1461032b578063815cd8f41461034b5780638da5cb5b1461037857600080fd5b806360f71a81146102b45780636403e246146102d4578063715018a6146102f457600080fd5b80632ebd12c9116101955780632ebd12c91461021e5780633dc5da5c146102545780633e653f8d146102745780634439a88a146102a157600080fd5b80631229c5d4146101bc5780632155015f146101de5780632a3a7649146101fe575b600080fd5b3480156101c857600080fd5b506101dc6101d7366004613856565b610543565b005b3480156101ea57600080fd5b506101dc6101f9366004613856565b61061c565b34801561020a57600080fd5b506101dc61021936600461386f565b610707565b34801561022a57600080fd5b5061023e610239366004613856565b61081b565b60405161024b919061392f565b60405180910390f35b34801561026057600080fd5b506101dc61026f366004613af7565b6109ce565b34801561028057600080fd5b5061029461028f366004613856565b610d77565b60405161024b9190613cd3565b6101dc6102af366004613856565b6111d6565b3480156102c057600080fd5b506101dc6102cf366004613856565b611246565b3480156102e057600080fd5b506101dc6102ef366004613856565b61130f565b34801561030057600080fd5b506101dc6113fb565b34801561031557600080fd5b5061031e61140f565b60405161024b9190613dca565b34801561033757600080fd5b506101dc610346366004613de4565b6115a8565b34801561035757600080fd5b5061036b61036636600461386f565b6117ed565b60405161024b9190613e62565b34801561038457600080fd5b506000546040516001600160a01b03909116815260200161024b565b3480156103ac57600080fd5b506101dc6103bb366004613e75565b6118ef565b3480156103cc57600080fd5b506101dc6103db366004613ed8565b611a26565b3480156103ec57600080fd5b50610294611b3e565b34801561040157600080fd5b50610415610410366004613856565b611f45565b60405161024b9190613f3a565b34801561042e57600080fd5b506101dc61043d366004613856565b612128565b34801561044e57600080fd5b5061023e6123ed565b34801561046357600080fd5b506101dc610472366004613f4d565b612576565b34801561048357600080fd5b5061031e610492366004613856565b61277f565b3480156104a357600080fd5b506104ac61292a565b60405161024b9190613fd5565b3480156104c557600080fd5b50610294612c10565b3480156104da57600080fd5b506101dc6104e936600461402a565b612f39565b3480156104fa57600080fd5b506101dc610509366004613856565b613133565b34801561051a57600080fd5b506104ac6131ff565b34801561052f57600080fd5b506101dc61053e36600461408a565b613443565b6000818152600660205260409020546105775760405162461bcd60e51b815260040161056e906140a5565b60405180910390fd5b6000818152600660205260409020600501546001600160a01b031633146105b05760405162461bcd60e51b815260040161056e906140d1565b600160008281526006602052604090206009015460ff1660058111156105d8576105d8613bd5565b146105f55760405162461bcd60e51b815260040161056e906140ff565b600081815260066020526040902060090180546004919060ff19166001835b021790555050565b6000818152600660205260409020546106475760405162461bcd60e51b815260040161056e906140a5565b6000818152600660205260409020600401546001600160a01b031633146106805760405162461bcd60e51b815260040161056e906140d1565b60008181526006602052604081206009015460ff1660058111156106a6576106a6613bd5565b146106c35760405162461bcd60e51b815260040161056e9061412d565b600081815260066020908152604080832060098101805460ff19166002179055600101548352600590915281206004018054916106ff83614173565b919050555050565b60008181526009602090815260408083208584529091529020546107615760405162461bcd60e51b8152602060048201526011602482015270576f726b6572206e6f7420666f756e642160781b604482015260640161056e565b6000818152600660205260409020600401546001600160a01b0316331461079a5760405162461bcd60e51b815260040161056e906140d1565b6000818152600960209081526040808320858452909152812081815560018101829055906107cb6002830182613676565b506003810180546001600160a01b03191690556000600490910181905581815260066020908152604080832060010154835260059182905282200180549161081283614173565b91905055505050565b6000818152600660205260409020600701546060906001600160401b0381111561084757610847613991565b60405190808252806020026020018201604052801561088057816020015b61086d6136b0565b8152602001906001900390816108655790505b50905060005b6000838152600660205260409020600701548110156109c8576000838152600960205260408120906108b983600161418a565b81526020019081526020016000206040518060a001604052908160008201548152602001600182015481526020016002820180546108f6906141a2565b80601f0160208091040260200160405190810160405280929190818152602001828054610922906141a2565b801561096f5780601f106109445761010080835404028352916020019161096f565b820191906000526020600020905b81548152906001019060200180831161095257829003601f168201915b505050918352505060038201546001600160a01b0316602082015260049091015460409091015282518390839081106109aa576109aa6141d7565b602002602001018190525080806109c0906141ed565b915050610886565b50919050565b6000838152600660205260409020546109f95760405162461bcd60e51b815260040161056e906140a5565b6000838152600660205260409020600401546001600160a01b0316331480610a3a57506000838152600660205260409020600501546001600160a01b031633145b610a565760405162461bcd60e51b815260040161056e906140d1565b6000825111610aa75760405162461bcd60e51b815260206004820152601c60248201527f4e616d65732061727261792063616e6e6f7420626520656d7074792100000000604482015260640161056e565b6000815111610af85760405162461bcd60e51b815260206004820152601f60248201527f4163636f756e74732061727261792063616e6e6f7420626520656d7074792100604482015260640161056e565b60005b8151811015610d7157610b12600480546001019055565b610b1a6136b0565b6004548152600085815260066020526040902060070154610b3c90600161418a565b60208201528351849083908110610b5557610b556141d7565b60200260200101518160400181905250828281518110610b7757610b776141d7565b60209081029190910101516001600160a01b03166060820152610b986134b9565b60808201526000858152600960209081526040808320828501805185529083529281902084518155925160018401558301518051849392610be09260028501929101906136e8565b5060608201516003820180546001600160a01b0319166001600160a01b039092169190911790556080909101516004909101556000858152600660205260408120600701805491610c30836141ed565b90915550506000858152600660209081526040808320600101548352600591829052822001805491610c61836141ed565b919050555060086000848481518110610c7c57610c7c6141d7565b6020908102919091018101516001600160a01b031682528101919091526040016000205460ff16610d5e57600160086000858581518110610cbf57610cbf6141d7565b6020908102919091018101516001600160a01b031682528181019290925260409081016000908120805460ff19169415159490941790935583518352600782529182902083518155838201516001820155918301518051849392610d2a9260028501929101906136e8565b5060608201516003820180546001600160a01b0319166001600160a01b039092169190911790556080909101516004909101555b5080610d69816141ed565b915050610afb565b50505050565b60606000805b600254811015610e7c57600260066000610d9884600161418a565b815260208101919091526040016000206009015460ff166005811115610dc057610dc0613bd5565b14158015610ded57508360066000610dd984600161418a565b815260200190815260200160002060010154145b8015610e5757503360066000610e0484600161418a565b81526020810191909152604001600020600401546001600160a01b03161480610e5757503360066000610e3884600161418a565b81526020810191909152604001600020600501546001600160a01b0316145b15610e6a5781610e66816141ed565b9250505b80610e74816141ed565b915050610d7d565b50806001600160401b03811115610e9557610e95613991565b604051908082528060200260200182016040528015610ece57816020015b610ebb613768565b815260200190600190039081610eb35790505b5091506000805b6002548110156111ce57600260066000610ef084600161418a565b815260208101919091526040016000206009015460ff166005811115610f1857610f18613bd5565b14158015610f4557508460066000610f3184600161418a565b815260200190815260200160002060010154145b8015610faf57503360066000610f5c84600161418a565b81526020810191909152604001600020600401546001600160a01b03161480610faf57503360066000610f9084600161418a565b81526020810191909152604001600020600501546001600160a01b0316145b156111bc5760066000610fc383600161418a565b8152602001908152602001600020604051806101600160405290816000820154815260200160018201548152602001600282018054611001906141a2565b80601f016020809104026020016040519081016040528092919081815260200182805461102d906141a2565b801561107a5780601f1061104f5761010080835404028352916020019161107a565b820191906000526020600020905b81548152906001019060200180831161105d57829003601f168201915b50505050508152602001600382018054611093906141a2565b80601f01602080910402602001604051908101604052809291908181526020018280546110bf906141a2565b801561110c5780601f106110e15761010080835404028352916020019161110c565b820191906000526020600020905b8154815290600101906020018083116110ef57829003601f168201915b505050918352505060048201546001600160a01b03908116602083015260058084015490911660408301526006830154606083015260078301546080830152600883015460a0830152600983015460c09092019160ff169081111561117357611173613bd5565b600581111561118457611184613bd5565b8152602001600a8201548152505084838061119e906141ed565b9450815181106111b0576111b06141d7565b60200260200101819052505b806111c6816141ed565b915050610ed5565b505050919050565b6000341161121d5760405162461bcd60e51b8152602060048201526014602482015273496e73756666696369656e7420616d6f756e742160601b604482015260640161056e565b6000818152600560205260408120600701805434929061123e90849061418a565b909155505050565b6000818152600660205260409020546112715760405162461bcd60e51b815260040161056e906140a5565b6000818152600660205260409020600401546001600160a01b031633146112aa5760405162461bcd60e51b815260040161056e906140d1565b60008181526006602052604081206009015460ff1660058111156112d0576112d0613bd5565b146112ed5760405162461bcd60e51b815260040161056e9061412d565b600081815260066020526040902060090180546001919060ff19168280610614565b60008181526006602052604090205461133a5760405162461bcd60e51b815260040161056e906140a5565b6000818152600660205260409020600401546001600160a01b031633148061137b57506000818152600660205260409020600501546001600160a01b031633145b6113975760405162461bcd60e51b815260040161056e906140d1565b600160008281526006602052604090206009015460ff1660058111156113bf576113bf613bd5565b146113dc5760405162461bcd60e51b815260040161056e906140ff565b6000818152600660205260408120600901805460ff1916600183610614565b6114036134d8565b61140d6000613532565b565b6114176137e5565b60005b6003548110156115a457336005600061143484600161418a565b81526020810191909152604001600020600301546001600160a01b0316141561159257815182611463826141ed565b8152505060405180604001604052806011815260200170596f757220476c6f62616c20537461747360781b8152508260200181905250604051806060016040528060388152602001614387603891396040830152336060830152600560006114cc83600161418a565b8152602001908152602001600020600601548260c0018181516114ef919061418a565b9052506005600061150183600161418a565b81526020019081526020016000206004015482608001818151611524919061418a565b9052506005600061153683600161418a565b8152602001908152602001600020600501548260a001818151611559919061418a565b9052506005600061156b83600161418a565b8152602001908152602001600020600701548260e00181815161158e919061418a565b9052505b8061159c816141ed565b91505061141a565b5090565b6000858152600560205260409020546115d35760405162461bcd60e51b815260040161056e90614208565b600082116115f35760405162461bcd60e51b815260040161056e9061423f565b600081118015611604575060648111155b6116205760405162461bcd60e51b815260040161056e90614280565b60008451116116415760405162461bcd60e51b815260040161056e906142c8565b60008351116116625760405162461bcd60e51b815260040161056e906142f7565b611670600280546001019055565b611678613768565b600254815233608082015260408082018690526060820185905260c08201849052610100820183905260208083018890526000888152600590915220600301546001600160a01b031660a08201526116ce6134b9565b61014082015280516000908152600660209081526040918290208351815581840151600182015591830151805184939261170f9260028501929101906136e8565b506060820151805161172b9160038401916020909101906136e8565b5060808201516004820180546001600160a01b03199081166001600160a01b039384161790915560a0840151600580850180549093169190931617905560c0830151600683015560e0830151600783015561010083015160088301556101208301516009830180549192909160ff19169060019084908111156117b0576117b0613bd5565b02179055506101409190910151600a9091015560008681526005602052604081206004018054916117e0836141ed565b9190505550505050505050565b6117f56136b0565b6009600084815260200190815260200160002060008381526020019081526020016000206040518060a00160405290816000820154815260200160018201548152602001600282018054611848906141a2565b80601f0160208091040260200160405190810160405280929190818152602001828054611874906141a2565b80156118c15780601f10611896576101008083540402835291602001916118c1565b820191906000526020600020905b8154815290600101906020018083116118a457829003601f168201915b505050918352505060038201546001600160a01b031660208201526004909101546040909101529392505050565b60008251116119105760405162461bcd60e51b815260040161056e906142c8565b60008151116119315760405162461bcd60e51b815260040161056e906142f7565b61193f600380546001019055565b6119476137e5565b600354815260208101839052604081018290523360608201526119686134b9565b6101208201528051600090815260056020908152604090912082518155818301518051849361199e9260018501929101906136e8565b50604082015180516119ba9160028401916020909101906136e8565b5060608201516003820180546001600160a01b0319166001600160a01b039092169190911790556080820151600482015560a0820151600582015560c0820151600682015560e08201516007820155610100820151600882015561012090910151600990910155505050565b600083815260056020526040902054611a515760405162461bcd60e51b815260040161056e90614208565b6000838152600560205260409020600301546001600160a01b03163314611ab15760405162461bcd60e51b8152602060048201526014602482015273556e6f7574686f72697a656420656e746974792160601b604482015260640161056e565b6000825111611ad25760405162461bcd60e51b815260040161056e906142c8565b6000815111611af35760405162461bcd60e51b815260040161056e906142f7565b60008381526005602090815260409091208351611b18926001909201918501906136e8565b5060008381526005602090815260409091208251610d71926002909201918401906136e8565b60606000805b600254811015611c1857600260066000611b5f84600161418a565b815260208101919091526040016000206009015460ff166005811115611b8757611b87613bd5565b14158015611bf357503360066000611ba084600161418a565b81526020810191909152604001600020600401546001600160a01b03161480611bf357503360066000611bd484600161418a565b81526020810191909152604001600020600501546001600160a01b0316145b15611c065781611c02816141ed565b9250505b80611c10816141ed565b915050611b44565b50806001600160401b03811115611c3157611c31613991565b604051908082528060200260200182016040528015611c6a57816020015b611c57613768565b815260200190600190039081611c4f5790505b5091506000805b600254811015611f3f57600260066000611c8c84600161418a565b815260208101919091526040016000206009015460ff166005811115611cb457611cb4613bd5565b14158015611d2057503360066000611ccd84600161418a565b81526020810191909152604001600020600401546001600160a01b03161480611d2057503360066000611d0184600161418a565b81526020810191909152604001600020600501546001600160a01b0316145b15611f2d5760066000611d3483600161418a565b8152602001908152602001600020604051806101600160405290816000820154815260200160018201548152602001600282018054611d72906141a2565b80601f0160208091040260200160405190810160405280929190818152602001828054611d9e906141a2565b8015611deb5780601f10611dc057610100808354040283529160200191611deb565b820191906000526020600020905b815481529060010190602001808311611dce57829003601f168201915b50505050508152602001600382018054611e04906141a2565b80601f0160208091040260200160405190810160405280929190818152602001828054611e30906141a2565b8015611e7d5780601f10611e5257610100808354040283529160200191611e7d565b820191906000526020600020905b815481529060010190602001808311611e6057829003601f168201915b505050918352505060048201546001600160a01b03908116602083015260058084015490911660408301526006830154606083015260078301546080830152600883015460a0830152600983015460c09092019160ff1690811115611ee457611ee4613bd5565b6005811115611ef557611ef5613bd5565b8152602001600a82015481525050848380611f0f906141ed565b945081518110611f2157611f216141d7565b60200260200101819052505b80611f37816141ed565b915050611c71565b50505090565b611f4d613768565b60066000838152602001908152602001600020604051806101600160405290816000820154815260200160018201548152602001600282018054611f90906141a2565b80601f0160208091040260200160405190810160405280929190818152602001828054611fbc906141a2565b80156120095780601f10611fde57610100808354040283529160200191612009565b820191906000526020600020905b815481529060010190602001808311611fec57829003601f168201915b50505050508152602001600382018054612022906141a2565b80601f016020809104026020016040519081016040528092919081815260200182805461204e906141a2565b801561209b5780601f106120705761010080835404028352916020019161209b565b820191906000526020600020905b81548152906001019060200180831161207e57829003601f168201915b505050918352505060048201546001600160a01b03908116602083015260058084015490911660408301526006830154606083015260078301546080830152600883015460a0830152600983015460c09092019160ff169081111561210257612102613bd5565b600581111561211357612113613bd5565b8152602001600a820154815250509050919050565b612130613582565b60008181526006602052604090205461215b5760405162461bcd60e51b815260040161056e906140a5565b6000818152600660205260409020600401546001600160a01b031633146121945760405162461bcd60e51b815260040161056e906140d1565b600360008281526006602052604090206009015460ff1660058111156121bc576121bc613bd5565b146122015760405162461bcd60e51b8152602060048201526015602482015274506179726f6c6c206e6f7420417070726f7665642160581b604482015260640161056e565b600081815260066020819052604090912090810154600790910154612226919061432e565b60008281526006602090815260408083206001015483526005909152902060070154101561228a5760405162461bcd60e51b8152602060048201526011602482015270125b9cdd59999a58da595b9d08199d5b99607a1b604482015260640161056e565b600081815260066020819052604082206007810154910154909160646122b0838061432e565b6122ba919061434d565b905060015b8381116123125760008581526009602090815260408083208484529091529020600301546001600160a01b03166122ff816122fa858761436f565b6135dc565b508061230a816141ed565b9150506122bf565b5061231d838361432e565b600085815260066020908152604080832060010154835260059091528120600701805490919061234e90849061436f565b9091555061235e9050838261432e565b600085815260066020908152604080832060010154835260059091528120600801805490919061238f90849061418a565b9091555050600084815260066020818152604080842060010154845260059091528220018054916123bf836141ed565b9091555050506000838152600660205260409020600901805460ff1916600517905550506001805550565b50565b60606123f860045490565b6001600160401b0381111561240f5761240f613991565b60405190808252806020026020018201604052801561244857816020015b6124356136b0565b81526020019060019003908161242d5790505b50905060005b6004548110156115a4576007600061246783600161418a565b81526020019081526020016000206040518060a001604052908160008201548152602001600182015481526020016002820180546124a4906141a2565b80601f01602080910402602001604051908101604052809291908181526020018280546124d0906141a2565b801561251d5780601f106124f25761010080835404028352916020019161251d565b820191906000526020600020905b81548152906001019060200180831161250057829003601f168201915b505050918352505060038201546001600160a01b031660208201526004909101546040909101528251839083908110612558576125586141d7565b6020026020010181905250808061256e906141ed565b91505061244e565b6000868152600660205260409020546125a15760405162461bcd60e51b815260040161056e906140a5565b6000868152600660205260409020600401546001600160a01b031633146125da5760405162461bcd60e51b815260040161056e906140d1565b6000858152600560205260409020546126055760405162461bcd60e51b815260040161056e90614208565b60008681526006602052604081206009015460ff16600581111561262b5761262b613bd5565b146126485760405162461bcd60e51b815260040161056e9061412d565b600082116126685760405162461bcd60e51b815260040161056e9061423f565b600081118015612679575060648111155b6126955760405162461bcd60e51b815260040161056e90614280565b60008451116126b65760405162461bcd60e51b815260040161056e906142c8565b60008351116126d75760405162461bcd60e51b815260040161056e906142f7565b600086815260066020908152604090912085516126fc926002909201918701906136e8565b5060008681526006602090815260409091208451612722926003909201918601906136e8565b506000868152600660208181526040808420808401969096556008860194909455968252600580885292822060030154979091529094529290920180546001600160a01b0319166001600160a01b03909416939093179092555050565b6127876137e5565b6005600083815260200190815260200160002060405180610140016040529081600082015481526020016001820180546127c0906141a2565b80601f01602080910402602001604051908101604052809291908181526020018280546127ec906141a2565b80156128395780601f1061280e57610100808354040283529160200191612839565b820191906000526020600020905b81548152906001019060200180831161281c57829003601f168201915b50505050508152602001600282018054612852906141a2565b80601f016020809104026020016040519081016040528092919081815260200182805461287e906141a2565b80156128cb5780601f106128a0576101008083540402835291602001916128cb565b820191906000526020600020905b8154815290600101906020018083116128ae57829003601f168201915b505050918352505060038201546001600160a01b03166020820152600482015460408201526005820154606082015260068201546080820152600782015460a0820152600882015460c082015260099091015460e09091015292915050565b60606000805b60035481101561298d57336005600061294a84600161418a565b81526020810191909152604001600020600301546001600160a01b0316141561297b5781612977816141ed565b9250505b80612985816141ed565b915050612930565b506000816001600160401b038111156129a8576129a8613991565b6040519080825280602002602001820160405280156129e157816020015b6129ce6137e5565b8152602001906001900390816129c65790505b5090506000805b600354811015612c07573360056000612a0284600161418a565b81526020810191909152604001600020600301546001600160a01b03161415612bf55760056000612a3483600161418a565b81526020019081526020016000206040518061014001604052908160008201548152602001600182018054612a68906141a2565b80601f0160208091040260200160405190810160405280929190818152602001828054612a94906141a2565b8015612ae15780601f10612ab657610100808354040283529160200191612ae1565b820191906000526020600020905b815481529060010190602001808311612ac457829003601f168201915b50505050508152602001600282018054612afa906141a2565b80601f0160208091040260200160405190810160405280929190818152602001828054612b26906141a2565b8015612b735780601f10612b4857610100808354040283529160200191612b73565b820191906000526020600020905b815481529060010190602001808311612b5657829003601f168201915b505050918352505060038201546001600160a01b03166020820152600482015460408201526005820154606082015260068201546080820152600782015460a0820152600882015460c082015260099091015460e0909101528383612bd7816141ed565b945081518110612be957612be96141d7565b60200260200101819052505b80612bff816141ed565b9150506129e8565b50909392505050565b60606000805b600254811015612c7e57600260066000612c3184600161418a565b815260208101919091526040016000206009015460ff166005811115612c5957612c59613bd5565b14612c6c5781612c68816141ed565b9250505b80612c76816141ed565b915050612c16565b50806001600160401b03811115612c9757612c97613991565b604051908082528060200260200182016040528015612cd057816020015b612cbd613768565b815260200190600190039081612cb55790505b5091506000805b600254811015611f3f57600260066000612cf284600161418a565b815260208101919091526040016000206009015460ff166005811115612d1a57612d1a613bd5565b14612f275760066000612d2e83600161418a565b8152602001908152602001600020604051806101600160405290816000820154815260200160018201548152602001600282018054612d6c906141a2565b80601f0160208091040260200160405190810160405280929190818152602001828054612d98906141a2565b8015612de55780601f10612dba57610100808354040283529160200191612de5565b820191906000526020600020905b815481529060010190602001808311612dc857829003601f168201915b50505050508152602001600382018054612dfe906141a2565b80601f0160208091040260200160405190810160405280929190818152602001828054612e2a906141a2565b8015612e775780601f10612e4c57610100808354040283529160200191612e77565b820191906000526020600020905b815481529060010190602001808311612e5a57829003601f168201915b505050918352505060048201546001600160a01b03908116602083015260058084015490911660408301526006830154606083015260078301546080830152600883015460a0830152600983015460c09092019160ff1690811115612ede57612ede613bd5565b6005811115612eef57612eef613bd5565b8152602001600a82015481525050848380612f09906141ed565b945081518110612f1b57612f1b6141d7565b60200260200101819052505b80612f31816141ed565b915050612cd7565b6000838152600960209081526040808320878452909152902054612f935760405162461bcd60e51b8152602060048201526011602482015270576f726b6572206e6f7420666f756e642160781b604482015260640161056e565b6000838152600660205260409020600401546001600160a01b0316331480612fd457506000838152600660205260409020600501546001600160a01b031633145b612ff05760405162461bcd60e51b815260040161056e906140d1565b60008251116130115760405162461bcd60e51b815260040161056e906142c8565b6001600160a01b0381166130675760405162461bcd60e51b815260206004820152601860248201527f4163636f756e742063616e6e6f7420626520656d707479210000000000000000604482015260640161056e565b600083815260096020908152604080832087845282529091208351613094926002909201918501906136e8565b50600083815260096020908152604080832087845282528083206003810180546001600160a01b0319166001600160a01b0387161790555483526007825290912083516130e9926002909201918501906136e8565b506000928352600960209081526040808520958552948152848420548452600790529290912060030180546001600160a01b0319166001600160a01b039093169290921790915550565b60008181526006602052604090205461315e5760405162461bcd60e51b815260040161056e906140a5565b6000818152600660205260409020600501546001600160a01b031633146131975760405162461bcd60e51b815260040161056e906140d1565b600160008281526006602052604090206009015460ff1660058111156131bf576131bf613bd5565b146131dc5760405162461bcd60e51b815260040161056e906140ff565b600081815260066020526040902060090180546003919060ff1916600183610614565b606061320a60035490565b6001600160401b0381111561322157613221613991565b60405190808252806020026020018201604052801561325a57816020015b6132476137e5565b81526020019060019003908161323f5790505b50905060005b6003548110156115a4576005600061327983600161418a565b815260200190815260200160002060405180610140016040529081600082015481526020016001820180546132ad906141a2565b80601f01602080910402602001604051908101604052809291908181526020018280546132d9906141a2565b80156133265780601f106132fb57610100808354040283529160200191613326565b820191906000526020600020905b81548152906001019060200180831161330957829003601f168201915b5050505050815260200160028201805461333f906141a2565b80601f016020809104026020016040519081016040528092919081815260200182805461336b906141a2565b80156133b85780601f1061338d576101008083540402835291602001916133b8565b820191906000526020600020905b81548152906001019060200180831161339b57829003601f168201915b505050918352505060038201546001600160a01b03166020820152600482015460408201526005820154606082015260068201546080820152600782015460a0820152600882015460c082015260099091015460e0909101528251839083908110613425576134256141d7565b6020026020010181905250808061343b906141ed565b915050613260565b61344b6134d8565b6001600160a01b0381166134b05760405162461bcd60e51b815260206004820152602660248201527f4f776e61626c653a206e6577206f776e657220697320746865207a65726f206160448201526564647265737360d01b606482015260840161056e565b6123ea81613532565b60006134c7426103e861432e565b6134d3906103e861418a565b905090565b6000546001600160a01b0316331461140d5760405162461bcd60e51b815260206004820181905260248201527f4f776e61626c653a2063616c6c6572206973206e6f7420746865206f776e6572604482015260640161056e565b600080546001600160a01b038381166001600160a01b0319831681178455604051919092169283917f8be0079c531659141344cd1fd0a4f28419497f9722a3daafe3b4186f6b6457e09190a35050565b600260015414156135d55760405162461bcd60e51b815260206004820152601f60248201527f5265656e7472616e637947756172643a207265656e7472616e742063616c6c00604482015260640161056e565b6002600155565b6000826001600160a01b03168260405160006040518083038185875af1925050503d8060008114613629576040519150601f19603f3d011682016040523d82523d6000602084013e61362e565b606091505b50509050806136715760405162461bcd60e51b815260206004820152600f60248201526e5061796d656e74206661696c65642160881b604482015260640161056e565b505050565b508054613682906141a2565b6000825580601f10613692575050565b601f0160209004906000526020600020908101906123ea9190613841565b6040518060a0016040528060008152602001600081526020016060815260200160006001600160a01b03168152602001600081525090565b8280546136f4906141a2565b90600052602060002090601f016020900481019282613716576000855561375c565b82601f1061372f57805160ff191683800117855561375c565b8280016001018555821561375c579182015b8281111561375c578251825591602001919060010190613741565b506115a4929150613841565b6040518061016001604052806000815260200160008152602001606081526020016060815260200160006001600160a01b0316815260200160006001600160a01b03168152602001600081526020016000815260200160008152602001600060058111156137d8576137d8613bd5565b8152602001600081525090565b60405180610140016040528060008152602001606081526020016060815260200160006001600160a01b031681526020016000815260200160008152602001600081526020016000815260200160008152602001600081525090565b5b808211156115a45760008155600101613842565b60006020828403121561386857600080fd5b5035919050565b6000806040838503121561388257600080fd5b50508035926020909101359150565b6000815180845260005b818110156138b75760208185018101518683018201520161389b565b818111156138c9576000602083870101525b50601f01601f19169290920160200192915050565b80518252602081015160208301526000604082015160a0604085015261390760a0850182613891565b6060848101516001600160a01b03169086015260809384015193909401929092525090919050565b6000602080830181845280855180835260408601915060408160051b870101925083870160005b8281101561398457603f198886030184526139728583516138de565b94509285019290850190600101613956565b5092979650505050505050565b634e487b7160e01b600052604160045260246000fd5b604051601f8201601f191681016001600160401b03811182821017156139cf576139cf613991565b604052919050565b60006001600160401b038211156139f0576139f0613991565b5060051b60200190565b600082601f830112613a0b57600080fd5b81356001600160401b03811115613a2457613a24613991565b613a37601f8201601f19166020016139a7565b818152846020838601011115613a4c57600080fd5b816020850160208301376000918101602001919091529392505050565b80356001600160a01b0381168114613a8057600080fd5b919050565b600082601f830112613a9657600080fd5b81356020613aab613aa6836139d7565b6139a7565b82815260059290921b84018101918181019086841115613aca57600080fd5b8286015b84811015613aec57613adf81613a69565b8352918301918301613ace565b509695505050505050565b600080600060608486031215613b0c57600080fd5b833592506020808501356001600160401b0380821115613b2b57600080fd5b818701915087601f830112613b3f57600080fd5b8135613b4d613aa6826139d7565b81815260059190911b8301840190848101908a831115613b6c57600080fd5b8585015b83811015613ba457803585811115613b885760008081fd5b613b968d89838a01016139fa565b845250918601918601613b70565b50965050506040870135925080831115613bbd57600080fd5b5050613bcb86828701613a85565b9150509250925092565b634e487b7160e01b600052602160045260246000fd5b60068110613c0957634e487b7160e01b600052602160045260246000fd5b9052565b600061016082518452602083015160208501526040830151816040860152613c3782860182613891565b91505060608301518482036060860152613c518282613891565b9150506080830151613c6e60808601826001600160a01b03169052565b5060a0830151613c8960a08601826001600160a01b03169052565b5060c083015160c085015260e083015160e085015261010080840151818601525061012080840151613cbd82870182613beb565b5050610140928301519390920192909252919050565b6000602080830181845280855180835260408601915060408160051b870101925083870160005b8281101561398457603f19888603018452613d16858351613c0d565b94509285019290850190600101613cfa565b6000610140825184526020830151816020860152613d4882860182613891565b91505060408301518482036040860152613d628282613891565b9150506060830151613d7f60608601826001600160a01b03169052565b506080830151608085015260a083015160a085015260c083015160c085015260e083015160e08501526101008084015181860152506101208084015181860152508091505092915050565b602081526000613ddd6020830184613d28565b9392505050565b600080600080600060a08688031215613dfc57600080fd5b8535945060208601356001600160401b0380821115613e1a57600080fd5b613e2689838a016139fa565b95506040880135915080821115613e3c57600080fd5b50613e49888289016139fa565b9598949750949560608101359550608001359392505050565b602081526000613ddd60208301846138de565b60008060408385031215613e8857600080fd5b82356001600160401b0380821115613e9f57600080fd5b613eab868387016139fa565b93506020850135915080821115613ec157600080fd5b50613ece858286016139fa565b9150509250929050565b600080600060608486031215613eed57600080fd5b8335925060208401356001600160401b0380821115613f0b57600080fd5b613f17878388016139fa565b93506040860135915080821115613f2d57600080fd5b50613bcb868287016139fa565b602081526000613ddd6020830184613c0d565b60008060008060008060c08789031215613f6657600080fd5b863595506020870135945060408701356001600160401b0380821115613f8b57600080fd5b613f978a838b016139fa565b95506060890135915080821115613fad57600080fd5b50613fba89828a016139fa565b9350506080870135915060a087013590509295509295509295565b6000602080830181845280855180835260408601915060408160051b870101925083870160005b8281101561398457603f19888603018452614018858351613d28565b94509285019290850190600101613ffc565b6000806000806080858703121561404057600080fd5b843593506020850135925060408501356001600160401b0381111561406457600080fd5b614070878288016139fa565b92505061407f60608601613a69565b905092959194509250565b60006020828403121561409c57600080fd5b613ddd82613a69565b602080825260129082015271506179726f6c6c206e6f7420666f756e642160701b604082015260600190565b602080825260149082015273556e617574686f72697a656420656e746974792160601b604082015260600190565b602080825260149082015273506179726f6c6c206e6f742050656e64696e672160601b604082015260600190565b602080825260169082015275506179726f6c6c206e6f7420617661696c61626c652160501b604082015260600190565b634e487b7160e01b600052601160045260246000fd5b6000816141825761418261415d565b506000190190565b6000821982111561419d5761419d61415d565b500190565b600181811c908216806141b657607f821691505b602082108114156109c857634e487b7160e01b600052602260045260246000fd5b634e487b7160e01b600052603260045260246000fd5b60006000198214156142015761420161415d565b5060010190565b60208082526017908201527f4f7267616e697a6174696f6e206e6f7420666f756e6421000000000000000000604082015260600190565b60208082526021908201527f53616c617279206d7573742062652067726561746572207468616e207a65726f6040820152602160f81b606082015260800190565b60208082526028908201527f50657263656e7461676520437574206d757374206265206265747765656e202860408201526731202d203130302960c01b606082015260800190565b6020808252601590820152744e616d652063616e6e6f7420626520656d7074792160581b604082015260600190565b6020808252601c908201527f4465736372697074696f6e2063616e6e6f7420626520656d7074792100000000604082015260600190565b60008160001904831182151516156143485761434861415d565b500290565b60008261436a57634e487b7160e01b600052601260045260246000fd5b500490565b6000828210156143815761438161415d565b50039056fe596f7572207374617469737469637320616363726f737320616c6c206f7267616e697a6174696f6e73206372656174656420627920796f75a26469706673582212200b3c4455588b94f35bc688e5af883ce3de2e600229906d503eff54f04146cb5864736f6c634300080b0033",
  "linkReferences": {},
  "deployedLinkReferences": {}
}