{
  "_format": "hh-sol-artifact-1",
  "contractName": "DappPayroll",
  "sourceName": "src/contracts/DappPayroll.sol",
  "abi": [
    {
      "anonymous": false,
      "inputs": [
        {
          "indexed": true,
          "internalType": "address",
          "name": "previousOwner",
          "type": "address"
        },
        {
          "indexed": true,
          "internalType": "address",
          "name": "newOwner",
          "type": "address"
        }
      ],
      "name": "OwnershipTransferred",
      "type": "event"
    },
    {
      "inputs": [
        {
          "internalType": "uint256",
          "name": "id",
          "type": "uint256"
        }
      ],
      "name": "approvePayroll",
      "outputs": [],
      "stateMutability": "nonpayable",
      "type": "function"
    },
    {
      "inputs": [
        {
          "internalType": "string",
          "name": "name",
          "type": "string"
        },
        {
          "internalType": "string",
          "name": "description",
          "type": "string"
        }
      ],
      "name": "createOrg",
      "outputs": [],
      "stateMutability": "nonpayable",
      "type": "function"
    },
    {
      "inputs": [
        {
          "internalType": "uint256",
          "name": "oid",
          "type": "uint256"
        },
        {
          "internalType": "uint256",
          "name": "salary",
          "type": "uint256"
        },
        {
          "internalType": "uint256",
          "name": "cut",
          "type": "uint256"
        },
        {
          "internalType": "string",
          "name": "name",
          "type": "string"
        },
        {
          "internalType": "string",
          "name": "description",
          "type": "string"
        }
      ],
      "name": "createPayroll",
      "outputs": [],
      "stateMutability": "nonpayable",
      "type": "function"
    },
    {
      "inputs": [
        {
          "internalType": "uint256",
          "name": "pid",
          "type": "uint256"
        },
        {
          "internalType": "string[]",
          "name": "names",
          "type": "string[]"
        },
        {
          "internalType": "address[]",
          "name": "accounts",
          "type": "address[]"
        }
      ],
      "name": "createWorker",
      "outputs": [],
      "stateMutability": "nonpayable",
      "type": "function"
    },
    {
      "inputs": [
        {
          "internalType": "uint256",
          "name": "id",
          "type": "uint256"
        }
      ],
      "name": "deletePayroll",
      "outputs": [],
      "stateMutability": "nonpayable",
      "type": "function"
    },
    {
      "inputs": [
        {
          "internalType": "uint256",
          "name": "wid",
          "type": "uint256"
        },
        {
          "internalType": "uint256",
          "name": "pid",
          "type": "uint256"
        }
      ],
      "name": "deleteWorker",
      "outputs": [],
      "stateMutability": "nonpayable",
      "type": "function"
    },
    {
      "inputs": [
        {
          "internalType": "uint256",
          "name": "oid",
          "type": "uint256"
        }
      ],
      "name": "fundOrg",
      "outputs": [],
      "stateMutability": "payable",
      "type": "function"
    },
    {
      "inputs": [],
      "name": "getAllWorkers",
      "outputs": [
        {
          "components": [
            {
              "internalType": "uint256",
              "name": "id",
              "type": "uint256"
            },
            {
              "internalType": "uint256",
              "name": "wid",
              "type": "uint256"
            },
            {
              "internalType": "string",
              "name": "name",
              "type": "string"
            },
            {
              "internalType": "address",
              "name": "account",
              "type": "address"
            },
            {
              "internalType": "uint256",
              "name": "timestamp",
              "type": "uint256"
            }
          ],
          "internalType": "struct DappPayroll.WorkerStruct[]",
          "name": "Workers",
          "type": "tuple[]"
        }
      ],
      "stateMutability": "view",
      "type": "function"
    },
    {
      "inputs": [],
      "name": "getMyActivePayrolls",
      "outputs": [
        {
          "components": [
            {
              "internalType": "uint256",
              "name": "id",
              "type": "uint256"
            },
            {
              "internalType": "uint256",
              "name": "oid",
              "type": "uint256"
            },
            {
              "internalType": "string",
              "name": "name",
              "type": "string"
            },
            {
              "internalType": "string",
              "name": "description",
              "type": "string"
            },
            {
              "internalType": "address",
              "name": "officer",
              "type": "address"
            },
            {
              "internalType": "address",
              "name": "organization",
              "type": "address"
            },
            {
              "internalType": "uint256",
              "name": "salary",
              "type": "uint256"
            },
            {
              "internalType": "uint256",
              "name": "workers",
              "type": "uint256"
            },
            {
              "internalType": "uint256",
              "name": "cut",
              "type": "uint256"
            },
            {
              "internalType": "enum DappPayroll.Status",
              "name": "status",
              "type": "uint8"
            },
            {
              "internalType": "uint256",
              "name": "timestamp",
              "type": "uint256"
            }
          ],
          "internalType": "struct DappPayroll.PayrollStruct[]",
          "name": "Payrolls",
          "type": "tuple[]"
        }
      ],
      "stateMutability": "view",
      "type": "function"
    },
    {
      "inputs": [],
      "name": "getMyOrgs",
      "outputs": [
        {
          "components": [
            {
              "internalType": "uint256",
              "name": "id",
              "type": "uint256"
            },
            {
              "internalType": "string",
              "name": "name",
              "type": "string"
            },
            {
              "internalType": "string",
              "name": "description",
              "type": "string"
            },
            {
              "internalType": "address",
              "name": "account",
              "type": "address"
            },
            {
              "internalType": "uint256",
              "name": "payrolls",
              "type": "uint256"
            },
            {
              "internalType": "uint256",
              "name": "workers",
              "type": "uint256"
            },
            {
              "internalType": "uint256",
              "name": "payments",
              "type": "uint256"
            },
            {
              "internalType": "uint256",
              "name": "balance",
              "type": "uint256"
            },
            {
              "internalType": "uint256",
              "name": "cuts",
              "type": "uint256"
            },
            {
              "internalType": "uint256",
              "name": "timestamp",
              "type": "uint256"
            }
          ],
          "internalType": "struct DappPayroll.OrganizationStruct[]",
          "name": "",
          "type": "tuple[]"
        }
      ],
      "stateMutability": "view",
      "type": "function"
    },
    {
      "inputs": [
        {
          "internalType": "uint256",
          "name": "oid",
          "type": "uint256"
        }
      ],
      "name": "getMyPayrollsByOrg",
      "outputs": [
        {
          "components": [
            {
              "internalType": "uint256",
              "name": "id",
              "type": "uint256"
            },
            {
              "internalType": "uint256",
              "name": "oid",
              "type": "uint256"
            },
            {
              "internalType": "string",
              "name": "name",
              "type": "string"
            },
            {
              "internalType": "string",
              "name": "description",
              "type": "string"
            },
            {
              "internalType": "address",
              "name": "officer",
              "type": "address"
            },
            {
              "internalType": "address",
              "name": "organization",
              "type": "address"
            },
            {
              "internalType": "uint256",
              "name": "salary",
              "type": "uint256"
            },
            {
              "internalType": "uint256",
              "name": "workers",
              "type": "uint256"
            },
            {
              "internalType": "uint256",
              "name": "cut",
              "type": "uint256"
            },
            {
              "internalType": "enum DappPayroll.Status",
              "name": "status",
              "type": "uint8"
            },
            {
              "internalType": "uint256",
              "name": "timestamp",
              "type": "uint256"
            }
          ],
          "internalType": "struct DappPayroll.PayrollStruct[]",
          "name": "Payrolls",
          "type": "tuple[]"
        }
      ],
      "stateMutability": "view",
      "type": "function"
    },
    {
      "inputs": [],
      "name": "getMyStats",
      "outputs": [
        {
          "components": [
            {
              "internalType": "uint256",
              "name": "id",
              "type": "uint256"
            },
            {
              "internalType": "string",
              "name": "name",
              "type": "string"
            },
            {
              "internalType": "string",
              "name": "description",
              "type": "string"
            },
            {
              "internalType": "address",
              "name": "account",
              "type": "address"
            },
            {
              "internalType": "uint256",
              "name": "payrolls",
              "type": "uint256"
            },
            {
              "internalType": "uint256",
              "name": "workers",
              "type": "uint256"
            },
            {
              "internalType": "uint256",
              "name": "payments",
              "type": "uint256"
            },
            {
              "internalType": "uint256",
              "name": "balance",
              "type": "uint256"
            },
            {
              "internalType": "uint256",
              "name": "cuts",
              "type": "uint256"
            },
            {
              "internalType": "uint256",
              "name": "timestamp",
              "type": "uint256"
            }
          ],
          "internalType": "struct DappPayroll.OrganizationStruct",
          "name": "Organization",
          "type": "tuple"
        }
      ],
      "stateMutability": "view",
      "type": "function"
    },
    {
      "inputs": [
        {
          "internalType": "uint256",
          "name": "id",
          "type": "uint256"
        }
      ],
      "name": "getOrgById",
      "outputs": [
        {
          "components": [
            {
              "internalType": "uint256",
              "name": "id",
              "type": "uint256"
            },
            {
              "internalType": "string",
              "name": "name",
              "type": "string"
            },
            {
              "internalType": "string",
              "name": "description",
              "type": "string"
            },
            {
              "internalType": "address",
              "name": "account",
              "type": "address"
            },
            {
              "internalType": "uint256",
              "name": "payrolls",
              "type": "uint256"
            },
            {
              "internalType": "uint256",
              "name": "workers",
              "type": "uint256"
            },
            {
              "internalType": "uint256",
              "name": "payments",
              "type": "uint256"
            },
            {
              "internalType": "uint256",
              "name": "balance",
              "type": "uint256"
            },
            {
              "internalType": "uint256",
              "name": "cuts",
              "type": "uint256"
            },
            {
              "internalType": "uint256",
              "name": "timestamp",
              "type": "uint256"
            }
          ],
          "internalType": "struct DappPayroll.OrganizationStruct",
          "name": "Organization",
          "type": "tuple"
        }
      ],
      "stateMutability": "view",
      "type": "function"
    },
    {
      "inputs": [],
      "name": "getOrgs",
      "outputs": [
        {
          "components": [
            {
              "internalType": "uint256",
              "name": "id",
              "type": "uint256"
            },
            {
              "internalType": "string",
              "name": "name",
              "type": "string"
            },
            {
              "internalType": "string",
              "name": "description",
              "type": "string"
            },
            {
              "internalType": "address",
              "name": "account",
              "type": "address"
            },
            {
              "internalType": "uint256",
              "name": "payrolls",
              "type": "uint256"
            },
            {
              "internalType": "uint256",
              "name": "workers",
              "type": "uint256"
            },
            {
              "internalType": "uint256",
              "name": "payments",
              "type": "uint256"
            },
            {
              "internalType": "uint256",
              "name": "balance",
              "type": "uint256"
            },
            {
              "internalType": "uint256",
              "name": "cuts",
              "type": "uint256"
            },
            {
              "internalType": "uint256",
              "name": "timestamp",
              "type": "uint256"
            }
          ],
          "internalType": "struct DappPayroll.OrganizationStruct[]",
          "name": "Organization",
          "type": "tuple[]"
        }
      ],
      "stateMutability": "view",
      "type": "function"
    },
    {
      "inputs": [
        {
          "internalType": "uint256",
          "name": "pid",
          "type": "uint256"
        },
        {
          "internalType": "uint256",
          "name": "wid",
          "type": "uint256"
        }
      ],
      "name": "getPayrollWorker",
      "outputs": [
        {
          "components": [
            {
              "internalType": "uint256",
              "name": "id",
              "type": "uint256"
            },
            {
              "internalType": "uint256",
              "name": "wid",
              "type": "uint256"
            },
            {
              "internalType": "string",
              "name": "name",
              "type": "string"
            },
            {
              "internalType": "address",
              "name": "account",
              "type": "address"
            },
            {
              "internalType": "uint256",
              "name": "timestamp",
              "type": "uint256"
            }
          ],
          "internalType": "struct DappPayroll.WorkerStruct",
          "name": "Worker",
          "type": "tuple"
        }
      ],
      "stateMutability": "view",
      "type": "function"
    },
    {
      "inputs": [
        {
          "internalType": "uint256",
          "name": "pid",
          "type": "uint256"
        }
      ],
      "name": "getPayrollWorkers",
      "outputs": [
        {
          "components": [
            {
              "internalType": "uint256",
              "name": "id",
              "type": "uint256"
            },
            {
              "internalType": "uint256",
              "name": "wid",
              "type": "uint256"
            },
            {
              "internalType": "string",
              "name": "name",
              "type": "string"
            },
            {
              "internalType": "address",
              "name": "account",
              "type": "address"
            },
            {
              "internalType": "uint256",
              "name": "timestamp",
              "type": "uint256"
            }
          ],
          "internalType": "struct DappPayroll.WorkerStruct[]",
          "name": "Workers",
          "type": "tuple[]"
        }
      ],
      "stateMutability": "view",
      "type": "function"
    },
    {
      "inputs": [],
      "name": "getPayrolls",
      "outputs": [
        {
          "components": [
            {
              "internalType": "uint256",
              "name": "id",
              "type": "uint256"
            },
            {
              "internalType": "uint256",
              "name": "oid",
              "type": "uint256"
            },
            {
              "internalType": "string",
              "name": "name",
              "type": "string"
            },
            {
              "internalType": "string",
              "name": "description",
              "type": "string"
            },
            {
              "internalType": "address",
              "name": "officer",
              "type": "address"
            },
            {
              "internalType": "address",
              "name": "organization",
              "type": "address"
            },
            {
              "internalType": "uint256",
              "name": "salary",
              "type": "uint256"
            },
            {
              "internalType": "uint256",
              "name": "workers",
              "type": "uint256"
            },
            {
              "internalType": "uint256",
              "name": "cut",
              "type": "uint256"
            },
            {
              "internalType": "enum DappPayroll.Status",
              "name": "status",
              "type": "uint8"
            },
            {
              "internalType": "uint256",
              "name": "timestamp",
              "type": "uint256"
            }
          ],
          "internalType": "struct DappPayroll.PayrollStruct[]",
          "name": "Payrolls",
          "type": "tuple[]"
        }
      ],
      "stateMutability": "view",
      "type": "function"
    },
    {
      "inputs": [
        {
          "internalType": "uint256",
          "name": "id",
          "type": "uint256"
        }
      ],
      "name": "openPayroll",
      "outputs": [],
      "stateMutability": "nonpayable",
      "type": "function"
    },
    {
      "inputs": [],
      "name": "owner",
      "outputs": [
        {
          "internalType": "address",
          "name": "",
          "type": "address"
        }
      ],
      "stateMutability": "view",
      "type": "function"
    },
    {
      "inputs": [
        {
          "internalType": "uint256",
          "name": "pid",
          "type": "uint256"
        }
      ],
      "name": "payWorkers",
      "outputs": [],
      "stateMutability": "nonpayable",
      "type": "function"
    },
    {
      "inputs": [
        {
          "internalType": "uint256",
          "name": "id",
          "type": "uint256"
        }
      ],
      "name": "rejectPayroll",
      "outputs": [],
      "stateMutability": "nonpayable",
      "type": "function"
    },
    {
      "inputs": [],
      "name": "renounceOwnership",
      "outputs": [],
      "stateMutability": "nonpayable",
      "type": "function"
    },
    {
      "inputs": [
        {
          "internalType": "uint256",
          "name": "id",
          "type": "uint256"
        }
      ],
      "name": "submitPayroll",
      "outputs": [],
      "stateMutability": "nonpayable",
      "type": "function"
    },
    {
      "inputs": [
        {
          "internalType": "address",
          "name": "newOwner",
          "type": "address"
        }
      ],
      "name": "transferOwnership",
      "outputs": [],
      "stateMutability": "nonpayable",
      "type": "function"
    },
    {
      "inputs": [
        {
          "internalType": "uint256",
          "name": "id",
          "type": "uint256"
        },
        {
          "internalType": "string",
          "name": "name",
          "type": "string"
        },
        {
          "internalType": "string",
          "name": "description",
          "type": "string"
        }
      ],
      "name": "updateOrg",
      "outputs": [],
      "stateMutability": "nonpayable",
      "type": "function"
    },
    {
      "inputs": [
        {
          "internalType": "uint256",
          "name": "id",
          "type": "uint256"
        },
        {
          "internalType": "uint256",
          "name": "oid",
          "type": "uint256"
        },
        {
          "internalType": "uint256",
          "name": "salary",
          "type": "uint256"
        },
        {
          "internalType": "uint256",
          "name": "cut",
          "type": "uint256"
        },
        {
          "internalType": "string",
          "name": "name",
          "type": "string"
        },
        {
          "internalType": "string",
          "name": "description",
          "type": "string"
        }
      ],
      "name": "updatePayroll",
      "outputs": [],
      "stateMutability": "nonpayable",
      "type": "function"
    },
    {
      "inputs": [
        {
          "internalType": "uint256",
          "name": "wid",
          "type": "uint256"
        },
        {
          "internalType": "uint256",
          "name": "pid",
          "type": "uint256"
        },
        {
          "internalType": "string",
          "name": "name",
          "type": "string"
        },
        {
          "internalType": "address",
          "name": "account",
          "type": "address"
        }
      ],
      "name": "updateWorker",
      "outputs": [],
      "stateMutability": "nonpayable",
      "type": "function"
    }
  ],
  "bytecode": "0x60806040523480156200001157600080fd5b506200001d3362000027565b6001805562000077565b600080546001600160a01b038381166001600160a01b0319831681178455604051919092169283917f8be0079c531659141344cd1fd0a4f28419497f9722a3daafe3b4186f6b6457e09190a35050565b6141a580620000876000396000f3fe60806040526004361061019c5760003560e01c8063815cd8f4116100ec578063d600c8a71161008a578063dd983f2211610064578063dd983f2214610486578063e8fb1652146104a6578063ede76775146104c6578063f2fde38b146104db57600080fd5b8063d600c8a71461042f578063d90abb451461044f578063dc0c9bb11461047157600080fd5b806391d40d9e116100c657806391d40d9e146103c55780639a0a3d5b146103e5578063c2b5aaa2146103fa578063c9c0f25e1461041a57600080fd5b8063815cd8f4146103505780638da5cb5b1461037d5780638fb9ac60146103a557600080fd5b80633dc5da5c1161015957806360f71a811161013357806360f71a81146102d95780636403e246146102f9578063715018a6146103195780637a52723e1461032e57600080fd5b80633dc5da5c146102795780633e653f8d146102995780634439a88a146102c657600080fd5b80631229c5d4146101a157806315df792e146101c35780632155015f146101e35780632a3a7649146102035780632ebd12c9146102235780632f20aae714610259575b600080fd5b3480156101ad57600080fd5b506101c16101bc366004613627565b6104fb565b005b3480156101cf57600080fd5b506101c16101de3660046136f5565b6105d4565b3480156101ef57600080fd5b506101c16101fe366004613627565b6107d9565b34801561020f57600080fd5b506101c161021e36600461377d565b6108c4565b34801561022f57600080fd5b5061024361023e366004613627565b6109d8565b604051610250919061383d565b60405180910390f35b34801561026557600080fd5b506101c161027436600461389f565b610b8b565b34801561028557600080fd5b506101c16102943660046139d0565b610dd0565b3480156102a557600080fd5b506102b96102b4366004613627565b611179565b6040516102509190613ae6565b6101c16102d4366004613627565b6115d8565b3480156102e557600080fd5b506101c16102f4366004613627565b611648565b34801561030557600080fd5b506101c1610314366004613627565b611711565b34801561032557600080fd5b506101c16117fd565b34801561033a57600080fd5b50610343611811565b6040516102509190613c94565b34801561035c57600080fd5b5061037061036b36600461377d565b6119aa565b6040516102509190613cae565b34801561038957600080fd5b506000546040516001600160a01b039091168152602001610250565b3480156103b157600080fd5b506101c16103c0366004613cc1565b611aac565b3480156103d157600080fd5b506101c16103e0366004613d24565b611be3565b3480156103f157600080fd5b506102b9611cfb565b34801561040657600080fd5b506101c1610415366004613627565b612102565b34801561042657600080fd5b506102436123c7565b34801561043b57600080fd5b5061034361044a366004613627565b612550565b34801561045b57600080fd5b506104646126fb565b6040516102509190613d86565b34801561047d57600080fd5b506102b96129e1565b34801561049257600080fd5b506101c16104a1366004613ddb565b612d0a565b3480156104b257600080fd5b506101c16104c1366004613627565b612f04565b3480156104d257600080fd5b50610464612fd0565b3480156104e757600080fd5b506101c16104f6366004613e3b565b613214565b60008181526006602052604090205461052f5760405162461bcd60e51b815260040161052690613e56565b60405180910390fd5b6000818152600660205260409020600501546001600160a01b031633146105685760405162461bcd60e51b815260040161052690613e82565b600160008281526006602052604090206009015460ff16600581111561059057610590613aae565b146105ad5760405162461bcd60e51b815260040161052690613eb0565b600081815260066020526040902060090180546004919060ff19166001835b021790555050565b6000868152600660205260409020546105ff5760405162461bcd60e51b815260040161052690613e56565b6000868152600660205260409020600401546001600160a01b031633146106385760405162461bcd60e51b815260040161052690613e82565b6000858152600560205260409020546106635760405162461bcd60e51b815260040161052690613ede565b60008681526006602052604081206009015460ff16600581111561068957610689613aae565b146106a65760405162461bcd60e51b815260040161052690613f15565b600084116106c65760405162461bcd60e51b815260040161052690613f45565b6000831180156106d7575060648311155b6106f35760405162461bcd60e51b815260040161052690613f86565b60008251116107145760405162461bcd60e51b815260040161052690613fce565b60008151116107355760405162461bcd60e51b815260040161052690613ffd565b6000868152600660209081526040909120835161075a92600290920191850190613447565b506000868152600660209081526040909120825161078092600390920191840190613447565b5050506000848152600660208181526040808420808401969096556008860194909455948252600580865292822060030154959091529092520180546001600160a01b0319166001600160a01b03909216919091179055565b6000818152600660205260409020546108045760405162461bcd60e51b815260040161052690613e56565b6000818152600660205260409020600401546001600160a01b0316331461083d5760405162461bcd60e51b815260040161052690613e82565b60008181526006602052604081206009015460ff16600581111561086357610863613aae565b146108805760405162461bcd60e51b815260040161052690613f15565b600081815260066020908152604080832060098101805460ff19166002179055600101548352600590915281206004018054916108bc8361404a565b919050555050565b600081815260096020908152604080832085845290915290205461091e5760405162461bcd60e51b8152602060048201526011602482015270576f726b6572206e6f7420666f756e642160781b6044820152606401610526565b6000818152600660205260409020600401546001600160a01b031633146109575760405162461bcd60e51b815260040161052690613e82565b60008181526009602090815260408083208584529091528120818155600181018290559061098860028301826134c7565b506003810180546001600160a01b0319169055600060049091018190558181526006602090815260408083206001015483526005918290528220018054916109cf8361404a565b91905055505050565b6000818152600660205260409020600701546060906001600160401b03811115610a0457610a04613640565b604051908082528060200260200182016040528015610a3d57816020015b610a2a613501565b815260200190600190039081610a225790505b50905060005b600083815260066020526040902060070154811015610b8557600083815260096020526040812090610a76836001614061565b81526020019081526020016000206040518060a00160405290816000820154815260200160018201548152602001600282018054610ab390614079565b80601f0160208091040260200160405190810160405280929190818152602001828054610adf90614079565b8015610b2c5780601f10610b0157610100808354040283529160200191610b2c565b820191906000526020600020905b815481529060010190602001808311610b0f57829003601f168201915b505050918352505060038201546001600160a01b031660208201526004909101546040909101528251839083908110610b6757610b676140ae565b60200260200101819052508080610b7d906140c4565b915050610a43565b50919050565b600085815260056020526040902054610bb65760405162461bcd60e51b815260040161052690613ede565b60008411610bd65760405162461bcd60e51b815260040161052690613f45565b600083118015610be7575060648311155b610c035760405162461bcd60e51b815260040161052690613f86565b6000825111610c245760405162461bcd60e51b815260040161052690613fce565b6000815111610c455760405162461bcd60e51b815260040161052690613ffd565b610c53600280546001019055565b610c5b613539565b600254815233608082015260408082018490526060820183905260c08201869052610100820185905260208083018890526000888152600590915220600301546001600160a01b031660a0820152610cb161328a565b610140820152805160009081526006602090815260409182902083518155818401516001820155918301518051849392610cf2926002850192910190613447565b5060608201518051610d0e916003840191602090910190613447565b5060808201516004820180546001600160a01b03199081166001600160a01b039384161790915560a0840151600580850180549093169190931617905560c0830151600683015560e0830151600783015561010083015160088301556101208301516009830180549192909160ff1916906001908490811115610d9357610d93613aae565b02179055506101409190910151600a909101556000868152600560205260408120600401805491610dc3836140c4565b9190505550505050505050565b600083815260066020526040902054610dfb5760405162461bcd60e51b815260040161052690613e56565b6000838152600660205260409020600401546001600160a01b0316331480610e3c57506000838152600660205260409020600501546001600160a01b031633145b610e585760405162461bcd60e51b815260040161052690613e82565b6000825111610ea95760405162461bcd60e51b815260206004820152601c60248201527f4e616d65732061727261792063616e6e6f7420626520656d70747921000000006044820152606401610526565b6000815111610efa5760405162461bcd60e51b815260206004820152601f60248201527f4163636f756e74732061727261792063616e6e6f7420626520656d70747921006044820152606401610526565b60005b815181101561117357610f14600480546001019055565b610f1c613501565b6004548152600085815260066020526040902060070154610f3e906001614061565b60208201528351849083908110610f5757610f576140ae565b60200260200101518160400181905250828281518110610f7957610f796140ae565b60209081029190910101516001600160a01b03166060820152610f9a61328a565b60808201526000858152600960209081526040808320828501805185529083529281902084518155925160018401558301518051849392610fe2926002850192910190613447565b5060608201516003820180546001600160a01b0319166001600160a01b039092169190911790556080909101516004909101556000858152600660205260408120600701805491611032836140c4565b90915550506000858152600660209081526040808320600101548352600591829052822001805491611063836140c4565b91905055506008600084848151811061107e5761107e6140ae565b6020908102919091018101516001600160a01b031682528101919091526040016000205460ff16611160576001600860008585815181106110c1576110c16140ae565b6020908102919091018101516001600160a01b031682528181019290925260409081016000908120805460ff1916941515949094179093558351835260078252918290208351815583820151600182015591830151805184939261112c926002850192910190613447565b5060608201516003820180546001600160a01b0319166001600160a01b039092169190911790556080909101516004909101555b508061116b816140c4565b915050610efd565b50505050565b60606000805b60025481101561127e5760026006600061119a846001614061565b815260208101919091526040016000206009015460ff1660058111156111c2576111c2613aae565b141580156111ef575083600660006111db846001614061565b815260200190815260200160002060010154145b801561125957503360066000611206846001614061565b81526020810191909152604001600020600401546001600160a01b031614806112595750336006600061123a846001614061565b81526020810191909152604001600020600501546001600160a01b0316145b1561126c5781611268816140c4565b9250505b80611276816140c4565b91505061117f565b50806001600160401b0381111561129757611297613640565b6040519080825280602002602001820160405280156112d057816020015b6112bd613539565b8152602001906001900390816112b55790505b5091506000805b6002548110156115d0576002600660006112f2846001614061565b815260208101919091526040016000206009015460ff16600581111561131a5761131a613aae565b1415801561134757508460066000611333846001614061565b815260200190815260200160002060010154145b80156113b15750336006600061135e846001614061565b81526020810191909152604001600020600401546001600160a01b031614806113b157503360066000611392846001614061565b81526020810191909152604001600020600501546001600160a01b0316145b156115be57600660006113c5836001614061565b815260200190815260200160002060405180610160016040529081600082015481526020016001820154815260200160028201805461140390614079565b80601f016020809104026020016040519081016040528092919081815260200182805461142f90614079565b801561147c5780601f106114515761010080835404028352916020019161147c565b820191906000526020600020905b81548152906001019060200180831161145f57829003601f168201915b5050505050815260200160038201805461149590614079565b80601f01602080910402602001604051908101604052809291908181526020018280546114c190614079565b801561150e5780601f106114e35761010080835404028352916020019161150e565b820191906000526020600020905b8154815290600101906020018083116114f157829003601f168201915b505050918352505060048201546001600160a01b03908116602083015260058084015490911660408301526006830154606083015260078301546080830152600883015460a0830152600983015460c09092019160ff169081111561157557611575613aae565b600581111561158657611586613aae565b8152602001600a820154815250508483806115a0906140c4565b9450815181106115b2576115b26140ae565b60200260200101819052505b806115c8816140c4565b9150506112d7565b505050919050565b6000341161161f5760405162461bcd60e51b8152602060048201526014602482015273496e73756666696369656e7420616d6f756e742160601b6044820152606401610526565b60008181526005602052604081206007018054349290611640908490614061565b909155505050565b6000818152600660205260409020546116735760405162461bcd60e51b815260040161052690613e56565b6000818152600660205260409020600401546001600160a01b031633146116ac5760405162461bcd60e51b815260040161052690613e82565b60008181526006602052604081206009015460ff1660058111156116d2576116d2613aae565b146116ef5760405162461bcd60e51b815260040161052690613f15565b600081815260066020526040902060090180546001919060ff191682806105cc565b60008181526006602052604090205461173c5760405162461bcd60e51b815260040161052690613e56565b6000818152600660205260409020600401546001600160a01b031633148061177d57506000818152600660205260409020600501546001600160a01b031633145b6117995760405162461bcd60e51b815260040161052690613e82565b600160008281526006602052604090206009015460ff1660058111156117c1576117c1613aae565b146117de5760405162461bcd60e51b815260040161052690613eb0565b6000818152600660205260408120600901805460ff19166001836105cc565b6118056132a9565b61180f6000613303565b565b6118196135b6565b60005b6003548110156119a6573360056000611836846001614061565b81526020810191909152604001600020600301546001600160a01b0316141561199457815182611865826140c4565b8152505060405180604001604052806011815260200170596f757220476c6f62616c20537461747360781b8152508260200181905250604051806060016040528060388152602001614138603891396040830152336060830152600560006118ce836001614061565b8152602001908152602001600020600601548260c0018181516118f19190614061565b90525060056000611903836001614061565b815260200190815260200160002060040154826080018181516119269190614061565b90525060056000611938836001614061565b8152602001908152602001600020600501548260a00181815161195b9190614061565b9052506005600061196d836001614061565b8152602001908152602001600020600701548260e0018181516119909190614061565b9052505b8061199e816140c4565b91505061181c565b5090565b6119b2613501565b6009600084815260200190815260200160002060008381526020019081526020016000206040518060a00160405290816000820154815260200160018201548152602001600282018054611a0590614079565b80601f0160208091040260200160405190810160405280929190818152602001828054611a3190614079565b8015611a7e5780601f10611a5357610100808354040283529160200191611a7e565b820191906000526020600020905b815481529060010190602001808311611a6157829003601f168201915b505050918352505060038201546001600160a01b031660208201526004909101546040909101529392505050565b6000825111611acd5760405162461bcd60e51b815260040161052690613fce565b6000815111611aee5760405162461bcd60e51b815260040161052690613ffd565b611afc600380546001019055565b611b046135b6565b60035481526020810183905260408101829052336060820152611b2561328a565b61012082015280516000908152600560209081526040909120825181558183015180518493611b5b926001850192910190613447565b5060408201518051611b77916002840191602090910190613447565b5060608201516003820180546001600160a01b0319166001600160a01b039092169190911790556080820151600482015560a0820151600582015560c0820151600682015560e08201516007820155610100820151600882015561012090910151600990910155505050565b600083815260056020526040902054611c0e5760405162461bcd60e51b815260040161052690613ede565b6000838152600560205260409020600301546001600160a01b03163314611c6e5760405162461bcd60e51b8152602060048201526014602482015273556e6f7574686f72697a656420656e746974792160601b6044820152606401610526565b6000825111611c8f5760405162461bcd60e51b815260040161052690613fce565b6000815111611cb05760405162461bcd60e51b815260040161052690613ffd565b60008381526005602090815260409091208351611cd592600190920191850190613447565b506000838152600560209081526040909120825161117392600290920191840190613447565b60606000805b600254811015611dd557600260066000611d1c846001614061565b815260208101919091526040016000206009015460ff166005811115611d4457611d44613aae565b14158015611db057503360066000611d5d846001614061565b81526020810191909152604001600020600401546001600160a01b03161480611db057503360066000611d91846001614061565b81526020810191909152604001600020600501546001600160a01b0316145b15611dc35781611dbf816140c4565b9250505b80611dcd816140c4565b915050611d01565b50806001600160401b03811115611dee57611dee613640565b604051908082528060200260200182016040528015611e2757816020015b611e14613539565b815260200190600190039081611e0c5790505b5091506000805b6002548110156120fc57600260066000611e49846001614061565b815260208101919091526040016000206009015460ff166005811115611e7157611e71613aae565b14158015611edd57503360066000611e8a846001614061565b81526020810191909152604001600020600401546001600160a01b03161480611edd57503360066000611ebe846001614061565b81526020810191909152604001600020600501546001600160a01b0316145b156120ea5760066000611ef1836001614061565b8152602001908152602001600020604051806101600160405290816000820154815260200160018201548152602001600282018054611f2f90614079565b80601f0160208091040260200160405190810160405280929190818152602001828054611f5b90614079565b8015611fa85780601f10611f7d57610100808354040283529160200191611fa8565b820191906000526020600020905b815481529060010190602001808311611f8b57829003601f168201915b50505050508152602001600382018054611fc190614079565b80601f0160208091040260200160405190810160405280929190818152602001828054611fed90614079565b801561203a5780601f1061200f5761010080835404028352916020019161203a565b820191906000526020600020905b81548152906001019060200180831161201d57829003601f168201915b505050918352505060048201546001600160a01b03908116602083015260058084015490911660408301526006830154606083015260078301546080830152600883015460a0830152600983015460c09092019160ff16908111156120a1576120a1613aae565b60058111156120b2576120b2613aae565b8152602001600a820154815250508483806120cc906140c4565b9450815181106120de576120de6140ae565b60200260200101819052505b806120f4816140c4565b915050611e2e565b50505090565b61210a613353565b6000818152600660205260409020546121355760405162461bcd60e51b815260040161052690613e56565b6000818152600660205260409020600401546001600160a01b0316331461216e5760405162461bcd60e51b815260040161052690613e82565b600360008281526006602052604090206009015460ff16600581111561219657612196613aae565b146121db5760405162461bcd60e51b8152602060048201526015602482015274506179726f6c6c206e6f7420417070726f7665642160581b6044820152606401610526565b60008181526006602081905260409091209081015460079091015461220091906140df565b6000828152600660209081526040808320600101548352600590915290206007015410156122645760405162461bcd60e51b8152602060048201526011602482015270125b9cdd59999a58da595b9d08199d5b99607a1b6044820152606401610526565b6000818152600660208190526040822060078101549101549091606461228a83806140df565b61229491906140fe565b905060015b8381116122ec5760008581526009602090815260408083208484529091529020600301546001600160a01b03166122d9816122d48587614120565b6133ad565b50806122e4816140c4565b915050612299565b506122f783836140df565b6000858152600660209081526040808320600101548352600590915281206007018054909190612328908490614120565b90915550612338905083826140df565b6000858152600660209081526040808320600101548352600590915281206008018054909190612369908490614061565b909155505060008481526006602081815260408084206001015484526005909152822001805491612399836140c4565b9091555050506000838152600660205260409020600901805460ff1916600517905550506001805550565b50565b60606123d260045490565b6001600160401b038111156123e9576123e9613640565b60405190808252806020026020018201604052801561242257816020015b61240f613501565b8152602001906001900390816124075790505b50905060005b6004548110156119a65760076000612441836001614061565b81526020019081526020016000206040518060a0016040529081600082015481526020016001820154815260200160028201805461247e90614079565b80601f01602080910402602001604051908101604052809291908181526020018280546124aa90614079565b80156124f75780601f106124cc576101008083540402835291602001916124f7565b820191906000526020600020905b8154815290600101906020018083116124da57829003601f168201915b505050918352505060038201546001600160a01b031660208201526004909101546040909101528251839083908110612532576125326140ae565b60200260200101819052508080612548906140c4565b915050612428565b6125586135b6565b60056000838152602001908152602001600020604051806101400160405290816000820154815260200160018201805461259190614079565b80601f01602080910402602001604051908101604052809291908181526020018280546125bd90614079565b801561260a5780601f106125df5761010080835404028352916020019161260a565b820191906000526020600020905b8154815290600101906020018083116125ed57829003601f168201915b5050505050815260200160028201805461262390614079565b80601f016020809104026020016040519081016040528092919081815260200182805461264f90614079565b801561269c5780601f106126715761010080835404028352916020019161269c565b820191906000526020600020905b81548152906001019060200180831161267f57829003601f168201915b505050918352505060038201546001600160a01b03166020820152600482015460408201526005820154606082015260068201546080820152600782015460a0820152600882015460c082015260099091015460e09091015292915050565b60606000805b60035481101561275e57336005600061271b846001614061565b81526020810191909152604001600020600301546001600160a01b0316141561274c5781612748816140c4565b9250505b80612756816140c4565b915050612701565b506000816001600160401b0381111561277957612779613640565b6040519080825280602002602001820160405280156127b257816020015b61279f6135b6565b8152602001906001900390816127975790505b5090506000805b6003548110156129d85733600560006127d3846001614061565b81526020810191909152604001600020600301546001600160a01b031614156129c65760056000612805836001614061565b8152602001908152602001600020604051806101400160405290816000820154815260200160018201805461283990614079565b80601f016020809104026020016040519081016040528092919081815260200182805461286590614079565b80156128b25780601f10612887576101008083540402835291602001916128b2565b820191906000526020600020905b81548152906001019060200180831161289557829003601f168201915b505050505081526020016002820180546128cb90614079565b80601f01602080910402602001604051908101604052809291908181526020018280546128f790614079565b80156129445780601f1061291957610100808354040283529160200191612944565b820191906000526020600020905b81548152906001019060200180831161292757829003601f168201915b505050918352505060038201546001600160a01b03166020820152600482015460408201526005820154606082015260068201546080820152600782015460a0820152600882015460c082015260099091015460e09091015283836129a8816140c4565b9450815181106129ba576129ba6140ae565b60200260200101819052505b806129d0816140c4565b9150506127b9565b50909392505050565b60606000805b600254811015612a4f57600260066000612a02846001614061565b815260208101919091526040016000206009015460ff166005811115612a2a57612a2a613aae565b14612a3d5781612a39816140c4565b9250505b80612a47816140c4565b9150506129e7565b50806001600160401b03811115612a6857612a68613640565b604051908082528060200260200182016040528015612aa157816020015b612a8e613539565b815260200190600190039081612a865790505b5091506000805b6002548110156120fc57600260066000612ac3846001614061565b815260208101919091526040016000206009015460ff166005811115612aeb57612aeb613aae565b14612cf85760066000612aff836001614061565b8152602001908152602001600020604051806101600160405290816000820154815260200160018201548152602001600282018054612b3d90614079565b80601f0160208091040260200160405190810160405280929190818152602001828054612b6990614079565b8015612bb65780601f10612b8b57610100808354040283529160200191612bb6565b820191906000526020600020905b815481529060010190602001808311612b9957829003601f168201915b50505050508152602001600382018054612bcf90614079565b80601f0160208091040260200160405190810160405280929190818152602001828054612bfb90614079565b8015612c485780601f10612c1d57610100808354040283529160200191612c48565b820191906000526020600020905b815481529060010190602001808311612c2b57829003601f168201915b505050918352505060048201546001600160a01b03908116602083015260058084015490911660408301526006830154606083015260078301546080830152600883015460a0830152600983015460c09092019160ff1690811115612caf57612caf613aae565b6005811115612cc057612cc0613aae565b8152602001600a82015481525050848380612cda906140c4565b945081518110612cec57612cec6140ae565b60200260200101819052505b80612d02816140c4565b915050612aa8565b6000838152600960209081526040808320878452909152902054612d645760405162461bcd60e51b8152602060048201526011602482015270576f726b6572206e6f7420666f756e642160781b6044820152606401610526565b6000838152600660205260409020600401546001600160a01b0316331480612da557506000838152600660205260409020600501546001600160a01b031633145b612dc15760405162461bcd60e51b815260040161052690613e82565b6000825111612de25760405162461bcd60e51b815260040161052690613fce565b6001600160a01b038116612e385760405162461bcd60e51b815260206004820152601860248201527f4163636f756e742063616e6e6f7420626520656d7074792100000000000000006044820152606401610526565b600083815260096020908152604080832087845282529091208351612e6592600290920191850190613447565b50600083815260096020908152604080832087845282528083206003810180546001600160a01b0319166001600160a01b038716179055548352600782529091208351612eba92600290920191850190613447565b506000928352600960209081526040808520958552948152848420548452600790529290912060030180546001600160a01b0319166001600160a01b039093169290921790915550565b600081815260066020526040902054612f2f5760405162461bcd60e51b815260040161052690613e56565b6000818152600660205260409020600501546001600160a01b03163314612f685760405162461bcd60e51b815260040161052690613e82565b600160008281526006602052604090206009015460ff166005811115612f9057612f90613aae565b14612fad5760405162461bcd60e51b815260040161052690613eb0565b600081815260066020526040902060090180546003919060ff19166001836105cc565b6060612fdb60035490565b6001600160401b03811115612ff257612ff2613640565b60405190808252806020026020018201604052801561302b57816020015b6130186135b6565b8152602001906001900390816130105790505b50905060005b6003548110156119a6576005600061304a836001614061565b8152602001908152602001600020604051806101400160405290816000820154815260200160018201805461307e90614079565b80601f01602080910402602001604051908101604052809291908181526020018280546130aa90614079565b80156130f75780601f106130cc576101008083540402835291602001916130f7565b820191906000526020600020905b8154815290600101906020018083116130da57829003601f168201915b5050505050815260200160028201805461311090614079565b80601f016020809104026020016040519081016040528092919081815260200182805461313c90614079565b80156131895780601f1061315e57610100808354040283529160200191613189565b820191906000526020600020905b81548152906001019060200180831161316c57829003601f168201915b505050918352505060038201546001600160a01b03166020820152600482015460408201526005820154606082015260068201546080820152600782015460a0820152600882015460c082015260099091015460e09091015282518390839081106131f6576131f66140ae565b6020026020010181905250808061320c906140c4565b915050613031565b61321c6132a9565b6001600160a01b0381166132815760405162461bcd60e51b815260206004820152602660248201527f4f776e61626c653a206e6577206f776e657220697320746865207a65726f206160448201526564647265737360d01b6064820152608401610526565b6123c481613303565b6000613298426103e86140df565b6132a4906103e8614061565b905090565b6000546001600160a01b0316331461180f5760405162461bcd60e51b815260206004820181905260248201527f4f776e61626c653a2063616c6c6572206973206e6f7420746865206f776e65726044820152606401610526565b600080546001600160a01b038381166001600160a01b0319831681178455604051919092169283917f8be0079c531659141344cd1fd0a4f28419497f9722a3daafe3b4186f6b6457e09190a35050565b600260015414156133a65760405162461bcd60e51b815260206004820152601f60248201527f5265656e7472616e637947756172643a207265656e7472616e742063616c6c006044820152606401610526565b6002600155565b6000826001600160a01b03168260405160006040518083038185875af1925050503d80600081146133fa576040519150601f19603f3d011682016040523d82523d6000602084013e6133ff565b606091505b50509050806134425760405162461bcd60e51b815260206004820152600f60248201526e5061796d656e74206661696c65642160881b6044820152606401610526565b505050565b82805461345390614079565b90600052602060002090601f01602090048101928261347557600085556134bb565b82601f1061348e57805160ff19168380011785556134bb565b828001600101855582156134bb579182015b828111156134bb5782518255916020019190600101906134a0565b506119a6929150613612565b5080546134d390614079565b6000825580601f106134e3575050565b601f0160209004906000526020600020908101906123c49190613612565b6040518060a0016040528060008152602001600081526020016060815260200160006001600160a01b03168152602001600081525090565b6040518061016001604052806000815260200160008152602001606081526020016060815260200160006001600160a01b0316815260200160006001600160a01b03168152602001600081526020016000815260200160008152602001600060058111156135a9576135a9613aae565b8152602001600081525090565b60405180610140016040528060008152602001606081526020016060815260200160006001600160a01b031681526020016000815260200160008152602001600081526020016000815260200160008152602001600081525090565b5b808211156119a65760008155600101613613565b60006020828403121561363957600080fd5b5035919050565b634e487b7160e01b600052604160045260246000fd5b604051601f8201601f191681016001600160401b038111828210171561367e5761367e613640565b604052919050565b600082601f83011261369757600080fd5b81356001600160401b038111156136b0576136b0613640565b6136c3601f8201601f1916602001613656565b8181528460208386010111156136d857600080fd5b816020850160208301376000918101602001919091529392505050565b60008060008060008060c0878903121561370e57600080fd5b8635955060208701359450604087013593506060870135925060808701356001600160401b038082111561374157600080fd5b61374d8a838b01613686565b935060a089013591508082111561376357600080fd5b5061377089828a01613686565b9150509295509295509295565b6000806040838503121561379057600080fd5b50508035926020909101359150565b6000815180845260005b818110156137c5576020818501810151868301820152016137a9565b818111156137d7576000602083870101525b50601f01601f19169290920160200192915050565b80518252602081015160208301526000604082015160a0604085015261381560a085018261379f565b6060848101516001600160a01b03169086015260809384015193909401929092525090919050565b6000602080830181845280855180835260408601915060408160051b870101925083870160005b8281101561389257603f198886030184526138808583516137ec565b94509285019290850190600101613864565b5092979650505050505050565b600080600080600060a086880312156138b757600080fd5b85359450602086013593506040860135925060608601356001600160401b03808211156138e357600080fd5b6138ef89838a01613686565b9350608088013591508082111561390557600080fd5b5061391288828901613686565b9150509295509295909350565b60006001600160401b0382111561393857613938613640565b5060051b60200190565b80356001600160a01b038116811461395957600080fd5b919050565b600082601f83011261396f57600080fd5b8135602061398461397f8361391f565b613656565b82815260059290921b840181019181810190868411156139a357600080fd5b8286015b848110156139c5576139b881613942565b83529183019183016139a7565b509695505050505050565b6000806000606084860312156139e557600080fd5b833592506020808501356001600160401b0380821115613a0457600080fd5b818701915087601f830112613a1857600080fd5b8135613a2661397f8261391f565b81815260059190911b8301840190848101908a831115613a4557600080fd5b8585015b83811015613a7d57803585811115613a615760008081fd5b613a6f8d89838a0101613686565b845250918601918601613a49565b50965050506040870135925080831115613a9657600080fd5b5050613aa48682870161395e565b9150509250925092565b634e487b7160e01b600052602160045260246000fd5b60068110613ae257634e487b7160e01b600052602160045260246000fd5b9052565b60006020808301818452808551808352604092508286019150828160051b87010184880160005b83811015613be457603f198984030185528151610160815185528882015189860152878201518189870152613b448287018261379f565b91505060608083015186830382880152613b5e838261379f565b92505050608080830151613b7c828801826001600160a01b03169052565b505060a0828101516001600160a01b03169086015260c0808301519086015260e08083015190860152610100808301519086015261012080830151613bc382880182613ac4565b50506101409182015194909101939093529386019390860190600101613b0d565b509098975050505050505050565b6000610140825184526020830151816020860152613c128286018261379f565b91505060408301518482036040860152613c2c828261379f565b9150506060830151613c4960608601826001600160a01b03169052565b506080830151608085015260a083015160a085015260c083015160c085015260e083015160e08501526101008084015181860152506101208084015181860152508091505092915050565b602081526000613ca76020830184613bf2565b9392505050565b602081526000613ca760208301846137ec565b60008060408385031215613cd457600080fd5b82356001600160401b0380821115613ceb57600080fd5b613cf786838701613686565b93506020850135915080821115613d0d57600080fd5b50613d1a85828601613686565b9150509250929050565b600080600060608486031215613d3957600080fd5b8335925060208401356001600160401b0380821115613d5757600080fd5b613d6387838801613686565b93506040860135915080821115613d7957600080fd5b50613aa486828701613686565b6000602080830181845280855180835260408601915060408160051b870101925083870160005b8281101561389257603f19888603018452613dc9858351613bf2565b94509285019290850190600101613dad565b60008060008060808587031215613df157600080fd5b843593506020850135925060408501356001600160401b03811115613e1557600080fd5b613e2187828801613686565b925050613e3060608601613942565b905092959194509250565b600060208284031215613e4d57600080fd5b613ca782613942565b602080825260129082015271506179726f6c6c206e6f7420666f756e642160701b604082015260600190565b602080825260149082015273556e617574686f72697a656420656e746974792160601b604082015260600190565b602080825260149082015273506179726f6c6c206e6f742050656e64696e672160601b604082015260600190565b60208082526017908201527f4f7267616e697a6174696f6e206e6f7420666f756e6421000000000000000000604082015260600190565b602080825260169082015275506179726f6c6c206e6f7420617661696c61626c652160501b604082015260600190565b60208082526021908201527f53616c617279206d7573742062652067726561746572207468616e207a65726f6040820152602160f81b606082015260800190565b60208082526028908201527f50657263656e7461676520437574206d757374206265206265747765656e202860408201526731202d203130302960c01b606082015260800190565b6020808252601590820152744e616d652063616e6e6f7420626520656d7074792160581b604082015260600190565b6020808252601c908201527f4465736372697074696f6e2063616e6e6f7420626520656d7074792100000000604082015260600190565b634e487b7160e01b600052601160045260246000fd5b60008161405957614059614034565b506000190190565b6000821982111561407457614074614034565b500190565b600181811c9082168061408d57607f821691505b60208210811415610b8557634e487b7160e01b600052602260045260246000fd5b634e487b7160e01b600052603260045260246000fd5b60006000198214156140d8576140d8614034565b5060010190565b60008160001904831182151516156140f9576140f9614034565b500290565b60008261411b57634e487b7160e01b600052601260045260246000fd5b500490565b60008282101561413257614132614034565b50039056fe596f7572207374617469737469637320616363726f737320616c6c206f7267616e697a6174696f6e73206372656174656420627920796f75a2646970667358221220185f247ff61b83274723b2bdfa2878bdea9e14ff8d5113391c21bfb1647e60e964736f6c634300080b0033",
  "linkReferences": {},
  "deployedLinkReferences": {}
}