{
  "_format": "hh-sol-artifact-1",
  "contractName": "DappPayroll",
  "sourceName": "src/contracts/DappPayroll.sol",
  "abi": [
    {
      "anonymous": false,
      "inputs": [
        {
          "indexed": true,
          "internalType": "address",
          "name": "previousOwner",
          "type": "address"
        },
        {
          "indexed": true,
          "internalType": "address",
          "name": "newOwner",
          "type": "address"
        }
      ],
      "name": "OwnershipTransferred",
      "type": "event"
    },
    {
      "inputs": [
        {
          "internalType": "uint256",
          "name": "id",
          "type": "uint256"
        }
      ],
      "name": "approvePayroll",
      "outputs": [],
      "stateMutability": "nonpayable",
      "type": "function"
    },
    {
      "inputs": [
        {
          "internalType": "string",
          "name": "name",
          "type": "string"
        },
        {
          "internalType": "string",
          "name": "description",
          "type": "string"
        }
      ],
      "name": "createOrg",
      "outputs": [],
      "stateMutability": "nonpayable",
      "type": "function"
    },
    {
      "inputs": [
        {
          "internalType": "uint256",
          "name": "oid",
          "type": "uint256"
        },
        {
          "internalType": "string",
          "name": "name",
          "type": "string"
        },
        {
          "internalType": "string",
          "name": "description",
          "type": "string"
        },
        {
          "internalType": "uint256",
          "name": "salary",
          "type": "uint256"
        },
        {
          "internalType": "uint256",
          "name": "cut",
          "type": "uint256"
        }
      ],
      "name": "createPayroll",
      "outputs": [],
      "stateMutability": "nonpayable",
      "type": "function"
    },
    {
      "inputs": [
        {
          "internalType": "uint256",
          "name": "pid",
          "type": "uint256"
        },
        {
          "internalType": "string[]",
          "name": "names",
          "type": "string[]"
        },
        {
          "internalType": "address[]",
          "name": "accounts",
          "type": "address[]"
        }
      ],
      "name": "createWorker",
      "outputs": [],
      "stateMutability": "nonpayable",
      "type": "function"
    },
    {
      "inputs": [
        {
          "internalType": "uint256",
          "name": "id",
          "type": "uint256"
        }
      ],
      "name": "deletePayroll",
      "outputs": [],
      "stateMutability": "nonpayable",
      "type": "function"
    },
    {
      "inputs": [
        {
          "internalType": "uint256",
          "name": "wid",
          "type": "uint256"
        },
        {
          "internalType": "uint256",
          "name": "pid",
          "type": "uint256"
        }
      ],
      "name": "deleteWorker",
      "outputs": [],
      "stateMutability": "nonpayable",
      "type": "function"
    },
    {
      "inputs": [
        {
          "internalType": "uint256",
          "name": "oid",
          "type": "uint256"
        }
      ],
      "name": "fundOrg",
      "outputs": [],
      "stateMutability": "payable",
      "type": "function"
    },
    {
      "inputs": [],
      "name": "getAllWorkers",
      "outputs": [
        {
          "components": [
            {
              "internalType": "uint256",
              "name": "id",
              "type": "uint256"
            },
            {
              "internalType": "uint256",
              "name": "wid",
              "type": "uint256"
            },
            {
              "internalType": "string",
              "name": "name",
              "type": "string"
            },
            {
              "internalType": "address",
              "name": "account",
              "type": "address"
            },
            {
              "internalType": "uint256",
              "name": "timestamp",
              "type": "uint256"
            }
          ],
          "internalType": "struct DappPayroll.WorkerStruct[]",
          "name": "Workers",
          "type": "tuple[]"
        }
      ],
      "stateMutability": "view",
      "type": "function"
    },
    {
      "inputs": [],
      "name": "getMyActivePayrolls",
      "outputs": [
        {
          "components": [
            {
              "internalType": "uint256",
              "name": "id",
              "type": "uint256"
            },
            {
              "internalType": "uint256",
              "name": "oid",
              "type": "uint256"
            },
            {
              "internalType": "string",
              "name": "name",
              "type": "string"
            },
            {
              "internalType": "string",
              "name": "description",
              "type": "string"
            },
            {
              "internalType": "address",
              "name": "officer",
              "type": "address"
            },
            {
              "internalType": "address",
              "name": "organization",
              "type": "address"
            },
            {
              "internalType": "uint256",
              "name": "salary",
              "type": "uint256"
            },
            {
              "internalType": "uint256",
              "name": "workers",
              "type": "uint256"
            },
            {
              "internalType": "uint256",
              "name": "cut",
              "type": "uint256"
            },
            {
              "internalType": "enum DappPayroll.Status",
              "name": "status",
              "type": "uint8"
            },
            {
              "internalType": "uint256",
              "name": "timestamp",
              "type": "uint256"
            }
          ],
          "internalType": "struct DappPayroll.PayrollStruct[]",
          "name": "Payrolls",
          "type": "tuple[]"
        }
      ],
      "stateMutability": "view",
      "type": "function"
    },
    {
      "inputs": [],
      "name": "getMyOrgs",
      "outputs": [
        {
          "components": [
            {
              "internalType": "uint256",
              "name": "id",
              "type": "uint256"
            },
            {
              "internalType": "string",
              "name": "name",
              "type": "string"
            },
            {
              "internalType": "string",
              "name": "description",
              "type": "string"
            },
            {
              "internalType": "address",
              "name": "account",
              "type": "address"
            },
            {
              "internalType": "uint256",
              "name": "payrolls",
              "type": "uint256"
            },
            {
              "internalType": "uint256",
              "name": "workers",
              "type": "uint256"
            },
            {
              "internalType": "uint256",
              "name": "payments",
              "type": "uint256"
            },
            {
              "internalType": "uint256",
              "name": "balance",
              "type": "uint256"
            },
            {
              "internalType": "uint256",
              "name": "cuts",
              "type": "uint256"
            },
            {
              "internalType": "uint256",
              "name": "timestamp",
              "type": "uint256"
            }
          ],
          "internalType": "struct DappPayroll.OrganizationStruct[]",
          "name": "",
          "type": "tuple[]"
        }
      ],
      "stateMutability": "view",
      "type": "function"
    },
    {
      "inputs": [
        {
          "internalType": "uint256",
          "name": "oid",
          "type": "uint256"
        }
      ],
      "name": "getMyPayrollsByOrg",
      "outputs": [
        {
          "components": [
            {
              "internalType": "uint256",
              "name": "id",
              "type": "uint256"
            },
            {
              "internalType": "uint256",
              "name": "oid",
              "type": "uint256"
            },
            {
              "internalType": "string",
              "name": "name",
              "type": "string"
            },
            {
              "internalType": "string",
              "name": "description",
              "type": "string"
            },
            {
              "internalType": "address",
              "name": "officer",
              "type": "address"
            },
            {
              "internalType": "address",
              "name": "organization",
              "type": "address"
            },
            {
              "internalType": "uint256",
              "name": "salary",
              "type": "uint256"
            },
            {
              "internalType": "uint256",
              "name": "workers",
              "type": "uint256"
            },
            {
              "internalType": "uint256",
              "name": "cut",
              "type": "uint256"
            },
            {
              "internalType": "enum DappPayroll.Status",
              "name": "status",
              "type": "uint8"
            },
            {
              "internalType": "uint256",
              "name": "timestamp",
              "type": "uint256"
            }
          ],
          "internalType": "struct DappPayroll.PayrollStruct[]",
          "name": "Payrolls",
          "type": "tuple[]"
        }
      ],
      "stateMutability": "view",
      "type": "function"
    },
    {
      "inputs": [],
      "name": "getMyStats",
      "outputs": [
        {
          "components": [
            {
              "internalType": "uint256",
              "name": "id",
              "type": "uint256"
            },
            {
              "internalType": "string",
              "name": "name",
              "type": "string"
            },
            {
              "internalType": "string",
              "name": "description",
              "type": "string"
            },
            {
              "internalType": "address",
              "name": "account",
              "type": "address"
            },
            {
              "internalType": "uint256",
              "name": "payrolls",
              "type": "uint256"
            },
            {
              "internalType": "uint256",
              "name": "workers",
              "type": "uint256"
            },
            {
              "internalType": "uint256",
              "name": "payments",
              "type": "uint256"
            },
            {
              "internalType": "uint256",
              "name": "balance",
              "type": "uint256"
            },
            {
              "internalType": "uint256",
              "name": "cuts",
              "type": "uint256"
            },
            {
              "internalType": "uint256",
              "name": "timestamp",
              "type": "uint256"
            }
          ],
          "internalType": "struct DappPayroll.OrganizationStruct",
          "name": "Organization",
          "type": "tuple"
        }
      ],
      "stateMutability": "view",
      "type": "function"
    },
    {
      "inputs": [
        {
          "internalType": "uint256",
          "name": "id",
          "type": "uint256"
        }
      ],
      "name": "getOrgById",
      "outputs": [
        {
          "components": [
            {
              "internalType": "uint256",
              "name": "id",
              "type": "uint256"
            },
            {
              "internalType": "string",
              "name": "name",
              "type": "string"
            },
            {
              "internalType": "string",
              "name": "description",
              "type": "string"
            },
            {
              "internalType": "address",
              "name": "account",
              "type": "address"
            },
            {
              "internalType": "uint256",
              "name": "payrolls",
              "type": "uint256"
            },
            {
              "internalType": "uint256",
              "name": "workers",
              "type": "uint256"
            },
            {
              "internalType": "uint256",
              "name": "payments",
              "type": "uint256"
            },
            {
              "internalType": "uint256",
              "name": "balance",
              "type": "uint256"
            },
            {
              "internalType": "uint256",
              "name": "cuts",
              "type": "uint256"
            },
            {
              "internalType": "uint256",
              "name": "timestamp",
              "type": "uint256"
            }
          ],
          "internalType": "struct DappPayroll.OrganizationStruct",
          "name": "Organization",
          "type": "tuple"
        }
      ],
      "stateMutability": "view",
      "type": "function"
    },
    {
      "inputs": [],
      "name": "getOrgs",
      "outputs": [
        {
          "components": [
            {
              "internalType": "uint256",
              "name": "id",
              "type": "uint256"
            },
            {
              "internalType": "string",
              "name": "name",
              "type": "string"
            },
            {
              "internalType": "string",
              "name": "description",
              "type": "string"
            },
            {
              "internalType": "address",
              "name": "account",
              "type": "address"
            },
            {
              "internalType": "uint256",
              "name": "payrolls",
              "type": "uint256"
            },
            {
              "internalType": "uint256",
              "name": "workers",
              "type": "uint256"
            },
            {
              "internalType": "uint256",
              "name": "payments",
              "type": "uint256"
            },
            {
              "internalType": "uint256",
              "name": "balance",
              "type": "uint256"
            },
            {
              "internalType": "uint256",
              "name": "cuts",
              "type": "uint256"
            },
            {
              "internalType": "uint256",
              "name": "timestamp",
              "type": "uint256"
            }
          ],
          "internalType": "struct DappPayroll.OrganizationStruct[]",
          "name": "Organization",
          "type": "tuple[]"
        }
      ],
      "stateMutability": "view",
      "type": "function"
    },
    {
      "inputs": [
        {
          "internalType": "uint256",
          "name": "id",
          "type": "uint256"
        }
      ],
      "name": "getPayrollById",
      "outputs": [
        {
          "components": [
            {
              "internalType": "uint256",
              "name": "id",
              "type": "uint256"
            },
            {
              "internalType": "uint256",
              "name": "oid",
              "type": "uint256"
            },
            {
              "internalType": "string",
              "name": "name",
              "type": "string"
            },
            {
              "internalType": "string",
              "name": "description",
              "type": "string"
            },
            {
              "internalType": "address",
              "name": "officer",
              "type": "address"
            },
            {
              "internalType": "address",
              "name": "organization",
              "type": "address"
            },
            {
              "internalType": "uint256",
              "name": "salary",
              "type": "uint256"
            },
            {
              "internalType": "uint256",
              "name": "workers",
              "type": "uint256"
            },
            {
              "internalType": "uint256",
              "name": "cut",
              "type": "uint256"
            },
            {
              "internalType": "enum DappPayroll.Status",
              "name": "status",
              "type": "uint8"
            },
            {
              "internalType": "uint256",
              "name": "timestamp",
              "type": "uint256"
            }
          ],
          "internalType": "struct DappPayroll.PayrollStruct",
          "name": "",
          "type": "tuple"
        }
      ],
      "stateMutability": "view",
      "type": "function"
    },
    {
      "inputs": [
        {
          "internalType": "uint256",
          "name": "pid",
          "type": "uint256"
        },
        {
          "internalType": "uint256",
          "name": "wid",
          "type": "uint256"
        }
      ],
      "name": "getPayrollWorker",
      "outputs": [
        {
          "components": [
            {
              "internalType": "uint256",
              "name": "id",
              "type": "uint256"
            },
            {
              "internalType": "uint256",
              "name": "wid",
              "type": "uint256"
            },
            {
              "internalType": "string",
              "name": "name",
              "type": "string"
            },
            {
              "internalType": "address",
              "name": "account",
              "type": "address"
            },
            {
              "internalType": "uint256",
              "name": "timestamp",
              "type": "uint256"
            }
          ],
          "internalType": "struct DappPayroll.WorkerStruct",
          "name": "Worker",
          "type": "tuple"
        }
      ],
      "stateMutability": "view",
      "type": "function"
    },
    {
      "inputs": [
        {
          "internalType": "uint256",
          "name": "pid",
          "type": "uint256"
        }
      ],
      "name": "getPayrollWorkers",
      "outputs": [
        {
          "components": [
            {
              "internalType": "uint256",
              "name": "id",
              "type": "uint256"
            },
            {
              "internalType": "uint256",
              "name": "wid",
              "type": "uint256"
            },
            {
              "internalType": "string",
              "name": "name",
              "type": "string"
            },
            {
              "internalType": "address",
              "name": "account",
              "type": "address"
            },
            {
              "internalType": "uint256",
              "name": "timestamp",
              "type": "uint256"
            }
          ],
          "internalType": "struct DappPayroll.WorkerStruct[]",
          "name": "Workers",
          "type": "tuple[]"
        }
      ],
      "stateMutability": "view",
      "type": "function"
    },
    {
      "inputs": [],
      "name": "getPayrolls",
      "outputs": [
        {
          "components": [
            {
              "internalType": "uint256",
              "name": "id",
              "type": "uint256"
            },
            {
              "internalType": "uint256",
              "name": "oid",
              "type": "uint256"
            },
            {
              "internalType": "string",
              "name": "name",
              "type": "string"
            },
            {
              "internalType": "string",
              "name": "description",
              "type": "string"
            },
            {
              "internalType": "address",
              "name": "officer",
              "type": "address"
            },
            {
              "internalType": "address",
              "name": "organization",
              "type": "address"
            },
            {
              "internalType": "uint256",
              "name": "salary",
              "type": "uint256"
            },
            {
              "internalType": "uint256",
              "name": "workers",
              "type": "uint256"
            },
            {
              "internalType": "uint256",
              "name": "cut",
              "type": "uint256"
            },
            {
              "internalType": "enum DappPayroll.Status",
              "name": "status",
              "type": "uint8"
            },
            {
              "internalType": "uint256",
              "name": "timestamp",
              "type": "uint256"
            }
          ],
          "internalType": "struct DappPayroll.PayrollStruct[]",
          "name": "Payrolls",
          "type": "tuple[]"
        }
      ],
      "stateMutability": "view",
      "type": "function"
    },
    {
      "inputs": [
        {
          "internalType": "uint256",
          "name": "id",
          "type": "uint256"
        }
      ],
      "name": "openPayroll",
      "outputs": [],
      "stateMutability": "nonpayable",
      "type": "function"
    },
    {
      "inputs": [],
      "name": "owner",
      "outputs": [
        {
          "internalType": "address",
          "name": "",
          "type": "address"
        }
      ],
      "stateMutability": "view",
      "type": "function"
    },
    {
      "inputs": [
        {
          "internalType": "uint256",
          "name": "pid",
          "type": "uint256"
        }
      ],
      "name": "payWorkers",
      "outputs": [],
      "stateMutability": "nonpayable",
      "type": "function"
    },
    {
      "inputs": [
        {
          "internalType": "uint256",
          "name": "id",
          "type": "uint256"
        }
      ],
      "name": "rejectPayroll",
      "outputs": [],
      "stateMutability": "nonpayable",
      "type": "function"
    },
    {
      "inputs": [],
      "name": "renounceOwnership",
      "outputs": [],
      "stateMutability": "nonpayable",
      "type": "function"
    },
    {
      "inputs": [
        {
          "internalType": "uint256",
          "name": "id",
          "type": "uint256"
        }
      ],
      "name": "revertPayroll",
      "outputs": [],
      "stateMutability": "nonpayable",
      "type": "function"
    },
    {
      "inputs": [
        {
          "internalType": "uint256",
          "name": "id",
          "type": "uint256"
        }
      ],
      "name": "submitPayroll",
      "outputs": [],
      "stateMutability": "nonpayable",
      "type": "function"
    },
    {
      "inputs": [
        {
          "internalType": "address",
          "name": "newOwner",
          "type": "address"
        }
      ],
      "name": "transferOwnership",
      "outputs": [],
      "stateMutability": "nonpayable",
      "type": "function"
    },
    {
      "inputs": [
        {
          "internalType": "uint256",
          "name": "id",
          "type": "uint256"
        },
        {
          "internalType": "string",
          "name": "name",
          "type": "string"
        },
        {
          "internalType": "string",
          "name": "description",
          "type": "string"
        }
      ],
      "name": "updateOrg",
      "outputs": [],
      "stateMutability": "nonpayable",
      "type": "function"
    },
    {
      "inputs": [
        {
          "internalType": "uint256",
          "name": "id",
          "type": "uint256"
        },
        {
          "internalType": "uint256",
          "name": "oid",
          "type": "uint256"
        },
        {
          "internalType": "string",
          "name": "name",
          "type": "string"
        },
        {
          "internalType": "string",
          "name": "description",
          "type": "string"
        },
        {
          "internalType": "uint256",
          "name": "salary",
          "type": "uint256"
        },
        {
          "internalType": "uint256",
          "name": "cut",
          "type": "uint256"
        }
      ],
      "name": "updatePayroll",
      "outputs": [],
      "stateMutability": "nonpayable",
      "type": "function"
    },
    {
      "inputs": [
        {
          "internalType": "uint256",
          "name": "wid",
          "type": "uint256"
        },
        {
          "internalType": "uint256",
          "name": "pid",
          "type": "uint256"
        },
        {
          "internalType": "string",
          "name": "name",
          "type": "string"
        },
        {
          "internalType": "address",
          "name": "account",
          "type": "address"
        }
      ],
      "name": "updateWorker",
      "outputs": [],
      "stateMutability": "nonpayable",
      "type": "function"
    }
  ],
  "bytecode": "0x60806040523480156200001157600080fd5b506200001d3362000027565b6001805562000077565b600080546001600160a01b038381166001600160a01b0319831681178455604051919092169283917f8be0079c531659141344cd1fd0a4f28419497f9722a3daafe3b4186f6b6457e09190a35050565b61456c80620000876000396000f3fe6080604052600436106101c25760003560e01c80638da5cb5b116100f7578063cc5554d211610095578063dd983f2211610064578063dd983f22146104f9578063e8fb165214610519578063ede7677514610539578063f2fde38b1461054e57600080fd5b8063cc5554d214610482578063d600c8a7146104a2578063d90abb45146104c2578063dc0c9bb1146104e457600080fd5b80639a0a3d5b116100d15780639a0a3d5b1461040b578063b7c5464d14610420578063c2b5aaa21461044d578063c9c0f25e1461046d57600080fd5b80638da5cb5b146103a35780638fb9ac60146103cb57806391d40d9e146103eb57600080fd5b806346d657b011610164578063715018a61161013e578063715018a61461031f5780637a52723e146103345780637aba416b14610356578063815cd8f41461037657600080fd5b806346d657b0146102bf57806360f71a81146102df5780636403e246146102ff57600080fd5b80632ebd12c9116101a05780632ebd12c9146102295780633dc5da5c1461025f5780633e653f8d1461027f5780634439a88a146102ac57600080fd5b80631229c5d4146101c75780632155015f146101e95780632a3a764914610209575b600080fd5b3480156101d357600080fd5b506101e76101e23660046139ce565b61056e565b005b3480156101f557600080fd5b506101e76102043660046139ce565b610647565b34801561021557600080fd5b506101e76102243660046139e7565b610732565b34801561023557600080fd5b506102496102443660046139ce565b610868565b6040516102569190613aa7565b60405180910390f35b34801561026b57600080fd5b506101e761027a366004613c6f565b610a1b565b34801561028b57600080fd5b5061029f61029a3660046139ce565b610dc4565b6040516102569190613e4b565b6101e76102ba3660046139ce565b611223565b3480156102cb57600080fd5b506101e76102da3660046139ce565b611293565b3480156102eb57600080fd5b506101e76102fa3660046139ce565b6113af565b34801561030b57600080fd5b506101e761031a3660046139ce565b611478565b34801561032b57600080fd5b506101e7611569565b34801561034057600080fd5b5061034961157d565b6040516102569190613f42565b34801561036257600080fd5b506101e7610371366004613f5c565b611716565b34801561038257600080fd5b506103966103913660046139e7565b61195b565b6040516102569190613fda565b3480156103af57600080fd5b506000546040516001600160a01b039091168152602001610256565b3480156103d757600080fd5b506101e76103e6366004613fed565b611a5d565b3480156103f757600080fd5b506101e7610406366004614050565b611b94565b34801561041757600080fd5b5061029f611cac565b34801561042c57600080fd5b5061044061043b3660046139ce565b6120b3565b60405161025691906140b2565b34801561045957600080fd5b506101e76104683660046139ce565b612296565b34801561047957600080fd5b50610249612565565b34801561048e57600080fd5b506101e761049d3660046140c5565b6126ee565b3480156104ae57600080fd5b506103496104bd3660046139ce565b6128f7565b3480156104ce57600080fd5b506104d7612aa2565b604051610256919061414d565b3480156104f057600080fd5b5061029f612d88565b34801561050557600080fd5b506101e76105143660046141a2565b6130b1565b34801561052557600080fd5b506101e76105343660046139ce565b6132ab565b34801561054557600080fd5b506104d7613377565b34801561055a57600080fd5b506101e7610569366004614202565b6135bb565b6000818152600660205260409020546105a25760405162461bcd60e51b81526004016105999061421d565b60405180910390fd5b6000818152600660205260409020600501546001600160a01b031633146105db5760405162461bcd60e51b815260040161059990614249565b600160008281526006602052604090206009015460ff16600581111561060357610603613d4d565b146106205760405162461bcd60e51b815260040161059990614277565b600081815260066020526040902060090180546004919060ff19166001835b021790555050565b6000818152600660205260409020546106725760405162461bcd60e51b81526004016105999061421d565b6000818152600660205260409020600401546001600160a01b031633146106ab5760405162461bcd60e51b815260040161059990614249565b60008181526006602052604081206009015460ff1660058111156106d1576106d1613d4d565b146106ee5760405162461bcd60e51b8152600401610599906142a5565b600081815260066020908152604080832060098101805460ff191660021790556001015483526005909152812060040180549161072a836142eb565b919050555050565b600081815260096020908152604080832085845290915290205461078c5760405162461bcd60e51b8152602060048201526011602482015270576f726b6572206e6f7420666f756e642160781b6044820152606401610599565b6000818152600660205260409020600401546001600160a01b031633146107c55760405162461bcd60e51b815260040161059990614249565b6000818152600960209081526040808320858452909152812081815560018101829055906107f660028301826137ee565b506003810180546001600160a01b03191690556000600490910181905581815260066020526040812060070180549161082e836142eb565b9091555050600081815260066020908152604080832060010154835260059182905282200180549161085f836142eb565b91905055505050565b6000818152600660205260409020600701546060906001600160401b0381111561089457610894613b09565b6040519080825280602002602001820160405280156108cd57816020015b6108ba613828565b8152602001906001900390816108b25790505b50905060005b600083815260066020526040902060070154811015610a1557600083815260096020526040812090610906836001614302565b81526020019081526020016000206040518060a001604052908160008201548152602001600182015481526020016002820180546109439061431a565b80601f016020809104026020016040519081016040528092919081815260200182805461096f9061431a565b80156109bc5780601f10610991576101008083540402835291602001916109bc565b820191906000526020600020905b81548152906001019060200180831161099f57829003601f168201915b505050918352505060038201546001600160a01b0316602082015260049091015460409091015282518390839081106109f7576109f761434f565b60200260200101819052508080610a0d90614365565b9150506108d3565b50919050565b600083815260066020526040902054610a465760405162461bcd60e51b81526004016105999061421d565b6000838152600660205260409020600401546001600160a01b0316331480610a8757506000838152600660205260409020600501546001600160a01b031633145b610aa35760405162461bcd60e51b815260040161059990614249565b6000825111610af45760405162461bcd60e51b815260206004820152601c60248201527f4e616d65732061727261792063616e6e6f7420626520656d70747921000000006044820152606401610599565b6000815111610b455760405162461bcd60e51b815260206004820152601f60248201527f4163636f756e74732061727261792063616e6e6f7420626520656d70747921006044820152606401610599565b60005b8151811015610dbe57610b5f600480546001019055565b610b67613828565b6004548152600085815260066020526040902060070154610b89906001614302565b60208201528351849083908110610ba257610ba261434f565b60200260200101518160400181905250828281518110610bc457610bc461434f565b60209081029190910101516001600160a01b03166060820152610be5613631565b60808201526000858152600960209081526040808320828501805185529083529281902084518155925160018401558301518051849392610c2d926002850192910190613860565b5060608201516003820180546001600160a01b0319166001600160a01b039092169190911790556080909101516004909101556000858152600660205260408120600701805491610c7d83614365565b90915550506000858152600660209081526040808320600101548352600591829052822001805491610cae83614365565b919050555060086000848481518110610cc957610cc961434f565b6020908102919091018101516001600160a01b031682528101919091526040016000205460ff16610dab57600160086000858581518110610d0c57610d0c61434f565b6020908102919091018101516001600160a01b031682528181019290925260409081016000908120805460ff19169415159490941790935583518352600782529182902083518155838201516001820155918301518051849392610d77926002850192910190613860565b5060608201516003820180546001600160a01b0319166001600160a01b039092169190911790556080909101516004909101555b5080610db681614365565b915050610b48565b50505050565b60606000805b600254811015610ec957600260066000610de5846001614302565b815260208101919091526040016000206009015460ff166005811115610e0d57610e0d613d4d565b14158015610e3a57508360066000610e26846001614302565b815260200190815260200160002060010154145b8015610ea457503360066000610e51846001614302565b81526020810191909152604001600020600401546001600160a01b03161480610ea457503360066000610e85846001614302565b81526020810191909152604001600020600501546001600160a01b0316145b15610eb75781610eb381614365565b9250505b80610ec181614365565b915050610dca565b50806001600160401b03811115610ee257610ee2613b09565b604051908082528060200260200182016040528015610f1b57816020015b610f086138e0565b815260200190600190039081610f005790505b5091506000805b60025481101561121b57600260066000610f3d846001614302565b815260208101919091526040016000206009015460ff166005811115610f6557610f65613d4d565b14158015610f9257508460066000610f7e846001614302565b815260200190815260200160002060010154145b8015610ffc57503360066000610fa9846001614302565b81526020810191909152604001600020600401546001600160a01b03161480610ffc57503360066000610fdd846001614302565b81526020810191909152604001600020600501546001600160a01b0316145b156112095760066000611010836001614302565b815260200190815260200160002060405180610160016040529081600082015481526020016001820154815260200160028201805461104e9061431a565b80601f016020809104026020016040519081016040528092919081815260200182805461107a9061431a565b80156110c75780601f1061109c576101008083540402835291602001916110c7565b820191906000526020600020905b8154815290600101906020018083116110aa57829003601f168201915b505050505081526020016003820180546110e09061431a565b80601f016020809104026020016040519081016040528092919081815260200182805461110c9061431a565b80156111595780601f1061112e57610100808354040283529160200191611159565b820191906000526020600020905b81548152906001019060200180831161113c57829003601f168201915b505050918352505060048201546001600160a01b03908116602083015260058084015490911660408301526006830154606083015260078301546080830152600883015460a0830152600983015460c09092019160ff16908111156111c0576111c0613d4d565b60058111156111d1576111d1613d4d565b8152602001600a820154815250508483806111eb90614365565b9450815181106111fd576111fd61434f565b60200260200101819052505b8061121381614365565b915050610f22565b505050919050565b6000341161126a5760405162461bcd60e51b8152602060048201526014602482015273496e73756666696369656e7420616d6f756e742160601b6044820152606401610599565b6000818152600560205260408120600701805434929061128b908490614302565b909155505050565b6000818152600660205260409020546112be5760405162461bcd60e51b81526004016105999061421d565b6000818152600660205260409020600401546001600160a01b03163314806112ff57506000818152600660205260409020600501546001600160a01b031633145b61131b5760405162461bcd60e51b815260040161059990614249565b600160008281526006602052604090206009015460ff16600581111561134357611343613d4d565b14806113745750600460008281526006602052604090206009015460ff16600581111561137257611372613d4d565b145b6113905760405162461bcd60e51b815260040161059990614277565b6000818152600660205260408120600901805460ff191660018361063f565b6000818152600660205260409020546113da5760405162461bcd60e51b81526004016105999061421d565b6000818152600660205260409020600401546001600160a01b031633146114135760405162461bcd60e51b815260040161059990614249565b60008181526006602052604081206009015460ff16600581111561143957611439613d4d565b146114565760405162461bcd60e51b8152600401610599906142a5565b600081815260066020526040902060090180546001919060ff1916828061063f565b6000818152600660205260409020546114a35760405162461bcd60e51b81526004016105999061421d565b6000818152600660205260409020600401546001600160a01b03163314806114e457506000818152600660205260409020600501546001600160a01b031633145b6115005760405162461bcd60e51b815260040161059990614249565b600560008281526006602052604090206009015460ff16600581111561152857611528613d4d565b146113905760405162461bcd60e51b8152602060048201526011602482015270506179726f6c6c206e6f7420506169642160781b6044820152606401610599565b611571613650565b61157b60006136aa565b565b61158561395d565b60005b6003548110156117125733600560006115a2846001614302565b81526020810191909152604001600020600301546001600160a01b03161415611700578151826115d182614365565b8152505060405180604001604052806011815260200170596f757220476c6f62616c20537461747360781b81525082602001819052506040518060600160405280603881526020016144ff6038913960408301523360608301526005600061163a836001614302565b8152602001908152602001600020600601548260c00181815161165d9190614302565b9052506005600061166f836001614302565b815260200190815260200160002060040154826080018181516116929190614302565b905250600560006116a4836001614302565b8152602001908152602001600020600501548260a0018181516116c79190614302565b905250600560006116d9836001614302565b8152602001908152602001600020600701548260e0018181516116fc9190614302565b9052505b8061170a81614365565b915050611588565b5090565b6000858152600560205260409020546117415760405162461bcd60e51b815260040161059990614380565b600082116117615760405162461bcd60e51b8152600401610599906143b7565b600081118015611772575060648111155b61178e5760405162461bcd60e51b8152600401610599906143f8565b60008451116117af5760405162461bcd60e51b815260040161059990614440565b60008351116117d05760405162461bcd60e51b81526004016105999061446f565b6117de600280546001019055565b6117e66138e0565b600254815233608082015260408082018690526060820185905260c08201849052610100820183905260208083018890526000888152600590915220600301546001600160a01b031660a082015261183c613631565b61014082015280516000908152600660209081526040918290208351815581840151600182015591830151805184939261187d926002850192910190613860565b5060608201518051611899916003840191602090910190613860565b5060808201516004820180546001600160a01b03199081166001600160a01b039384161790915560a0840151600580850180549093169190931617905560c0830151600683015560e0830151600783015561010083015160088301556101208301516009830180549192909160ff191690600190849081111561191e5761191e613d4d565b02179055506101409190910151600a90910155600086815260056020526040812060040180549161194e83614365565b9190505550505050505050565b611963613828565b6009600084815260200190815260200160002060008381526020019081526020016000206040518060a001604052908160008201548152602001600182015481526020016002820180546119b69061431a565b80601f01602080910402602001604051908101604052809291908181526020018280546119e29061431a565b8015611a2f5780601f10611a0457610100808354040283529160200191611a2f565b820191906000526020600020905b815481529060010190602001808311611a1257829003601f168201915b505050918352505060038201546001600160a01b031660208201526004909101546040909101529392505050565b6000825111611a7e5760405162461bcd60e51b815260040161059990614440565b6000815111611a9f5760405162461bcd60e51b81526004016105999061446f565b611aad600380546001019055565b611ab561395d565b60035481526020810183905260408101829052336060820152611ad6613631565b61012082015280516000908152600560209081526040909120825181558183015180518493611b0c926001850192910190613860565b5060408201518051611b28916002840191602090910190613860565b5060608201516003820180546001600160a01b0319166001600160a01b039092169190911790556080820151600482015560a0820151600582015560c0820151600682015560e08201516007820155610100820151600882015561012090910151600990910155505050565b600083815260056020526040902054611bbf5760405162461bcd60e51b815260040161059990614380565b6000838152600560205260409020600301546001600160a01b03163314611c1f5760405162461bcd60e51b8152602060048201526014602482015273556e6f7574686f72697a656420656e746974792160601b6044820152606401610599565b6000825111611c405760405162461bcd60e51b815260040161059990614440565b6000815111611c615760405162461bcd60e51b81526004016105999061446f565b60008381526005602090815260409091208351611c8692600190920191850190613860565b5060008381526005602090815260409091208251610dbe92600290920191840190613860565b60606000805b600254811015611d8657600260066000611ccd846001614302565b815260208101919091526040016000206009015460ff166005811115611cf557611cf5613d4d565b14158015611d6157503360066000611d0e846001614302565b81526020810191909152604001600020600401546001600160a01b03161480611d6157503360066000611d42846001614302565b81526020810191909152604001600020600501546001600160a01b0316145b15611d745781611d7081614365565b9250505b80611d7e81614365565b915050611cb2565b50806001600160401b03811115611d9f57611d9f613b09565b604051908082528060200260200182016040528015611dd857816020015b611dc56138e0565b815260200190600190039081611dbd5790505b5091506000805b6002548110156120ad57600260066000611dfa846001614302565b815260208101919091526040016000206009015460ff166005811115611e2257611e22613d4d565b14158015611e8e57503360066000611e3b846001614302565b81526020810191909152604001600020600401546001600160a01b03161480611e8e57503360066000611e6f846001614302565b81526020810191909152604001600020600501546001600160a01b0316145b1561209b5760066000611ea2836001614302565b8152602001908152602001600020604051806101600160405290816000820154815260200160018201548152602001600282018054611ee09061431a565b80601f0160208091040260200160405190810160405280929190818152602001828054611f0c9061431a565b8015611f595780601f10611f2e57610100808354040283529160200191611f59565b820191906000526020600020905b815481529060010190602001808311611f3c57829003601f168201915b50505050508152602001600382018054611f729061431a565b80601f0160208091040260200160405190810160405280929190818152602001828054611f9e9061431a565b8015611feb5780601f10611fc057610100808354040283529160200191611feb565b820191906000526020600020905b815481529060010190602001808311611fce57829003601f168201915b505050918352505060048201546001600160a01b03908116602083015260058084015490911660408301526006830154606083015260078301546080830152600883015460a0830152600983015460c09092019160ff169081111561205257612052613d4d565b600581111561206357612063613d4d565b8152602001600a8201548152505084838061207d90614365565b94508151811061208f5761208f61434f565b60200260200101819052505b806120a581614365565b915050611ddf565b50505090565b6120bb6138e0565b600660008381526020019081526020016000206040518061016001604052908160008201548152602001600182015481526020016002820180546120fe9061431a565b80601f016020809104026020016040519081016040528092919081815260200182805461212a9061431a565b80156121775780601f1061214c57610100808354040283529160200191612177565b820191906000526020600020905b81548152906001019060200180831161215a57829003601f168201915b505050505081526020016003820180546121909061431a565b80601f01602080910402602001604051908101604052809291908181526020018280546121bc9061431a565b80156122095780601f106121de57610100808354040283529160200191612209565b820191906000526020600020905b8154815290600101906020018083116121ec57829003601f168201915b505050918352505060048201546001600160a01b03908116602083015260058084015490911660408301526006830154606083015260078301546080830152600883015460a0830152600983015460c09092019160ff169081111561227057612270613d4d565b600581111561228157612281613d4d565b8152602001600a820154815250509050919050565b61229e6136fa565b6000818152600660205260409020546122c95760405162461bcd60e51b81526004016105999061421d565b6000818152600660205260409020600401546001600160a01b031633146123025760405162461bcd60e51b815260040161059990614249565b600360008281526006602052604090206009015460ff16600581111561232a5761232a613d4d565b1461236f5760405162461bcd60e51b8152602060048201526015602482015274506179726f6c6c206e6f7420417070726f7665642160581b6044820152606401610599565b60008181526006602081905260409091209081015460079091015461239491906144a6565b6000828152600660209081526040808320600101548352600590915290206007015410156123f85760405162461bcd60e51b8152602060048201526011602482015270125b9cdd59999a58da595b9d08199d5b99607a1b6044820152606401610599565b600081815260066020819052604082206007810154918101546008909101549192909160649061242890846144a6565b61243291906144c5565b905060015b83811161248a5760008581526009602090815260408083208484529091529020600301546001600160a01b03166124778161247285876144e7565b613754565b508061248281614365565b915050612437565b5061249583836144a6565b60008581526006602090815260408083206001015483526005909152812060070180549091906124c69084906144e7565b909155506124d6905083826144a6565b6000858152600660209081526040808320600101548352600590915281206008018054909190612507908490614302565b90915550506000848152600660208181526040808420600101548452600590915282200180549161253783614365565b9091555050506000838152600660205260409020600901805460ff1916600517905550506001805550565b50565b606061257060045490565b6001600160401b0381111561258757612587613b09565b6040519080825280602002602001820160405280156125c057816020015b6125ad613828565b8152602001906001900390816125a55790505b50905060005b60045481101561171257600760006125df836001614302565b81526020019081526020016000206040518060a0016040529081600082015481526020016001820154815260200160028201805461261c9061431a565b80601f01602080910402602001604051908101604052809291908181526020018280546126489061431a565b80156126955780601f1061266a57610100808354040283529160200191612695565b820191906000526020600020905b81548152906001019060200180831161267857829003601f168201915b505050918352505060038201546001600160a01b0316602082015260049091015460409091015282518390839081106126d0576126d061434f565b602002602001018190525080806126e690614365565b9150506125c6565b6000868152600660205260409020546127195760405162461bcd60e51b81526004016105999061421d565b6000868152600660205260409020600401546001600160a01b031633146127525760405162461bcd60e51b815260040161059990614249565b60008581526005602052604090205461277d5760405162461bcd60e51b815260040161059990614380565b60008681526006602052604081206009015460ff1660058111156127a3576127a3613d4d565b146127c05760405162461bcd60e51b8152600401610599906142a5565b600082116127e05760405162461bcd60e51b8152600401610599906143b7565b6000811180156127f1575060648111155b61280d5760405162461bcd60e51b8152600401610599906143f8565b600084511161282e5760405162461bcd60e51b815260040161059990614440565b600083511161284f5760405162461bcd60e51b81526004016105999061446f565b6000868152600660209081526040909120855161287492600290920191870190613860565b506000868152600660209081526040909120845161289a92600390920191860190613860565b506000868152600660208181526040808420808401969096556008860194909455968252600580885292822060030154979091529094529290920180546001600160a01b0319166001600160a01b03909416939093179092555050565b6128ff61395d565b6005600083815260200190815260200160002060405180610140016040529081600082015481526020016001820180546129389061431a565b80601f01602080910402602001604051908101604052809291908181526020018280546129649061431a565b80156129b15780601f10612986576101008083540402835291602001916129b1565b820191906000526020600020905b81548152906001019060200180831161299457829003601f168201915b505050505081526020016002820180546129ca9061431a565b80601f01602080910402602001604051908101604052809291908181526020018280546129f69061431a565b8015612a435780601f10612a1857610100808354040283529160200191612a43565b820191906000526020600020905b815481529060010190602001808311612a2657829003601f168201915b505050918352505060038201546001600160a01b03166020820152600482015460408201526005820154606082015260068201546080820152600782015460a0820152600882015460c082015260099091015460e09091015292915050565b60606000805b600354811015612b05573360056000612ac2846001614302565b81526020810191909152604001600020600301546001600160a01b03161415612af35781612aef81614365565b9250505b80612afd81614365565b915050612aa8565b506000816001600160401b03811115612b2057612b20613b09565b604051908082528060200260200182016040528015612b5957816020015b612b4661395d565b815260200190600190039081612b3e5790505b5090506000805b600354811015612d7f573360056000612b7a846001614302565b81526020810191909152604001600020600301546001600160a01b03161415612d6d5760056000612bac836001614302565b81526020019081526020016000206040518061014001604052908160008201548152602001600182018054612be09061431a565b80601f0160208091040260200160405190810160405280929190818152602001828054612c0c9061431a565b8015612c595780601f10612c2e57610100808354040283529160200191612c59565b820191906000526020600020905b815481529060010190602001808311612c3c57829003601f168201915b50505050508152602001600282018054612c729061431a565b80601f0160208091040260200160405190810160405280929190818152602001828054612c9e9061431a565b8015612ceb5780601f10612cc057610100808354040283529160200191612ceb565b820191906000526020600020905b815481529060010190602001808311612cce57829003601f168201915b505050918352505060038201546001600160a01b03166020820152600482015460408201526005820154606082015260068201546080820152600782015460a0820152600882015460c082015260099091015460e0909101528383612d4f81614365565b945081518110612d6157612d6161434f565b60200260200101819052505b80612d7781614365565b915050612b60565b50909392505050565b60606000805b600254811015612df657600260066000612da9846001614302565b815260208101919091526040016000206009015460ff166005811115612dd157612dd1613d4d565b14612de45781612de081614365565b9250505b80612dee81614365565b915050612d8e565b50806001600160401b03811115612e0f57612e0f613b09565b604051908082528060200260200182016040528015612e4857816020015b612e356138e0565b815260200190600190039081612e2d5790505b5091506000805b6002548110156120ad57600260066000612e6a846001614302565b815260208101919091526040016000206009015460ff166005811115612e9257612e92613d4d565b1461309f5760066000612ea6836001614302565b8152602001908152602001600020604051806101600160405290816000820154815260200160018201548152602001600282018054612ee49061431a565b80601f0160208091040260200160405190810160405280929190818152602001828054612f109061431a565b8015612f5d5780601f10612f3257610100808354040283529160200191612f5d565b820191906000526020600020905b815481529060010190602001808311612f4057829003601f168201915b50505050508152602001600382018054612f769061431a565b80601f0160208091040260200160405190810160405280929190818152602001828054612fa29061431a565b8015612fef5780601f10612fc457610100808354040283529160200191612fef565b820191906000526020600020905b815481529060010190602001808311612fd257829003601f168201915b505050918352505060048201546001600160a01b03908116602083015260058084015490911660408301526006830154606083015260078301546080830152600883015460a0830152600983015460c09092019160ff169081111561305657613056613d4d565b600581111561306757613067613d4d565b8152602001600a8201548152505084838061308190614365565b9450815181106130935761309361434f565b60200260200101819052505b806130a981614365565b915050612e4f565b600083815260096020908152604080832087845290915290205461310b5760405162461bcd60e51b8152602060048201526011602482015270576f726b6572206e6f7420666f756e642160781b6044820152606401610599565b6000838152600660205260409020600401546001600160a01b031633148061314c57506000838152600660205260409020600501546001600160a01b031633145b6131685760405162461bcd60e51b815260040161059990614249565b60008251116131895760405162461bcd60e51b815260040161059990614440565b6001600160a01b0381166131df5760405162461bcd60e51b815260206004820152601860248201527f4163636f756e742063616e6e6f7420626520656d7074792100000000000000006044820152606401610599565b60008381526009602090815260408083208784528252909120835161320c92600290920191850190613860565b50600083815260096020908152604080832087845282528083206003810180546001600160a01b0319166001600160a01b03871617905554835260078252909120835161326192600290920191850190613860565b506000928352600960209081526040808520958552948152848420548452600790529290912060030180546001600160a01b0319166001600160a01b039093169290921790915550565b6000818152600660205260409020546132d65760405162461bcd60e51b81526004016105999061421d565b6000818152600660205260409020600501546001600160a01b0316331461330f5760405162461bcd60e51b815260040161059990614249565b600160008281526006602052604090206009015460ff16600581111561333757613337613d4d565b146133545760405162461bcd60e51b815260040161059990614277565b600081815260066020526040902060090180546003919060ff191660018361063f565b606061338260035490565b6001600160401b0381111561339957613399613b09565b6040519080825280602002602001820160405280156133d257816020015b6133bf61395d565b8152602001906001900390816133b75790505b50905060005b60035481101561171257600560006133f1836001614302565b815260200190815260200160002060405180610140016040529081600082015481526020016001820180546134259061431a565b80601f01602080910402602001604051908101604052809291908181526020018280546134519061431a565b801561349e5780601f106134735761010080835404028352916020019161349e565b820191906000526020600020905b81548152906001019060200180831161348157829003601f168201915b505050505081526020016002820180546134b79061431a565b80601f01602080910402602001604051908101604052809291908181526020018280546134e39061431a565b80156135305780601f1061350557610100808354040283529160200191613530565b820191906000526020600020905b81548152906001019060200180831161351357829003601f168201915b505050918352505060038201546001600160a01b03166020820152600482015460408201526005820154606082015260068201546080820152600782015460a0820152600882015460c082015260099091015460e090910152825183908390811061359d5761359d61434f565b602002602001018190525080806135b390614365565b9150506133d8565b6135c3613650565b6001600160a01b0381166136285760405162461bcd60e51b815260206004820152602660248201527f4f776e61626c653a206e6577206f776e657220697320746865207a65726f206160448201526564647265737360d01b6064820152608401610599565b612562816136aa565b600061363f426103e86144a6565b61364b906103e8614302565b905090565b6000546001600160a01b0316331461157b5760405162461bcd60e51b815260206004820181905260248201527f4f776e61626c653a2063616c6c6572206973206e6f7420746865206f776e65726044820152606401610599565b600080546001600160a01b038381166001600160a01b0319831681178455604051919092169283917f8be0079c531659141344cd1fd0a4f28419497f9722a3daafe3b4186f6b6457e09190a35050565b6002600154141561374d5760405162461bcd60e51b815260206004820152601f60248201527f5265656e7472616e637947756172643a207265656e7472616e742063616c6c006044820152606401610599565b6002600155565b6000826001600160a01b03168260405160006040518083038185875af1925050503d80600081146137a1576040519150601f19603f3d011682016040523d82523d6000602084013e6137a6565b606091505b50509050806137e95760405162461bcd60e51b815260206004820152600f60248201526e5061796d656e74206661696c65642160881b6044820152606401610599565b505050565b5080546137fa9061431a565b6000825580601f1061380a575050565b601f01602090049060005260206000209081019061256291906139b9565b6040518060a0016040528060008152602001600081526020016060815260200160006001600160a01b03168152602001600081525090565b82805461386c9061431a565b90600052602060002090601f01602090048101928261388e57600085556138d4565b82601f106138a757805160ff19168380011785556138d4565b828001600101855582156138d4579182015b828111156138d45782518255916020019190600101906138b9565b506117129291506139b9565b6040518061016001604052806000815260200160008152602001606081526020016060815260200160006001600160a01b0316815260200160006001600160a01b031681526020016000815260200160008152602001600081526020016000600581111561395057613950613d4d565b8152602001600081525090565b60405180610140016040528060008152602001606081526020016060815260200160006001600160a01b031681526020016000815260200160008152602001600081526020016000815260200160008152602001600081525090565b5b8082111561171257600081556001016139ba565b6000602082840312156139e057600080fd5b5035919050565b600080604083850312156139fa57600080fd5b50508035926020909101359150565b6000815180845260005b81811015613a2f57602081850181015186830182015201613a13565b81811115613a41576000602083870101525b50601f01601f19169290920160200192915050565b80518252602081015160208301526000604082015160a06040850152613a7f60a0850182613a09565b6060848101516001600160a01b03169086015260809384015193909401929092525090919050565b6000602080830181845280855180835260408601915060408160051b870101925083870160005b82811015613afc57603f19888603018452613aea858351613a56565b94509285019290850190600101613ace565b5092979650505050505050565b634e487b7160e01b600052604160045260246000fd5b604051601f8201601f191681016001600160401b0381118282101715613b4757613b47613b09565b604052919050565b60006001600160401b03821115613b6857613b68613b09565b5060051b60200190565b600082601f830112613b8357600080fd5b81356001600160401b03811115613b9c57613b9c613b09565b613baf601f8201601f1916602001613b1f565b818152846020838601011115613bc457600080fd5b816020850160208301376000918101602001919091529392505050565b80356001600160a01b0381168114613bf857600080fd5b919050565b600082601f830112613c0e57600080fd5b81356020613c23613c1e83613b4f565b613b1f565b82815260059290921b84018101918181019086841115613c4257600080fd5b8286015b84811015613c6457613c5781613be1565b8352918301918301613c46565b509695505050505050565b600080600060608486031215613c8457600080fd5b833592506020808501356001600160401b0380821115613ca357600080fd5b818701915087601f830112613cb757600080fd5b8135613cc5613c1e82613b4f565b81815260059190911b8301840190848101908a831115613ce457600080fd5b8585015b83811015613d1c57803585811115613d005760008081fd5b613d0e8d89838a0101613b72565b845250918601918601613ce8565b50965050506040870135925080831115613d3557600080fd5b5050613d4386828701613bfd565b9150509250925092565b634e487b7160e01b600052602160045260246000fd5b60068110613d8157634e487b7160e01b600052602160045260246000fd5b9052565b600061016082518452602083015160208501526040830151816040860152613daf82860182613a09565b91505060608301518482036060860152613dc98282613a09565b9150506080830151613de660808601826001600160a01b03169052565b5060a0830151613e0160a08601826001600160a01b03169052565b5060c083015160c085015260e083015160e085015261010080840151818601525061012080840151613e3582870182613d63565b5050610140928301519390920192909252919050565b6000602080830181845280855180835260408601915060408160051b870101925083870160005b82811015613afc57603f19888603018452613e8e858351613d85565b94509285019290850190600101613e72565b6000610140825184526020830151816020860152613ec082860182613a09565b91505060408301518482036040860152613eda8282613a09565b9150506060830151613ef760608601826001600160a01b03169052565b506080830151608085015260a083015160a085015260c083015160c085015260e083015160e08501526101008084015181860152506101208084015181860152508091505092915050565b602081526000613f556020830184613ea0565b9392505050565b600080600080600060a08688031215613f7457600080fd5b8535945060208601356001600160401b0380821115613f9257600080fd5b613f9e89838a01613b72565b95506040880135915080821115613fb457600080fd5b50613fc188828901613b72565b9598949750949560608101359550608001359392505050565b602081526000613f556020830184613a56565b6000806040838503121561400057600080fd5b82356001600160401b038082111561401757600080fd5b61402386838701613b72565b9350602085013591508082111561403957600080fd5b5061404685828601613b72565b9150509250929050565b60008060006060848603121561406557600080fd5b8335925060208401356001600160401b038082111561408357600080fd5b61408f87838801613b72565b935060408601359150808211156140a557600080fd5b50613d4386828701613b72565b602081526000613f556020830184613d85565b60008060008060008060c087890312156140de57600080fd5b863595506020870135945060408701356001600160401b038082111561410357600080fd5b61410f8a838b01613b72565b9550606089013591508082111561412557600080fd5b5061413289828a01613b72565b9350506080870135915060a087013590509295509295509295565b6000602080830181845280855180835260408601915060408160051b870101925083870160005b82811015613afc57603f19888603018452614190858351613ea0565b94509285019290850190600101614174565b600080600080608085870312156141b857600080fd5b843593506020850135925060408501356001600160401b038111156141dc57600080fd5b6141e887828801613b72565b9250506141f760608601613be1565b905092959194509250565b60006020828403121561421457600080fd5b613f5582613be1565b602080825260129082015271506179726f6c6c206e6f7420666f756e642160701b604082015260600190565b602080825260149082015273556e617574686f72697a656420656e746974792160601b604082015260600190565b602080825260149082015273506179726f6c6c206e6f742050656e64696e672160601b604082015260600190565b602080825260169082015275506179726f6c6c206e6f7420617661696c61626c652160501b604082015260600190565b634e487b7160e01b600052601160045260246000fd5b6000816142fa576142fa6142d5565b506000190190565b60008219821115614315576143156142d5565b500190565b600181811c9082168061432e57607f821691505b60208210811415610a1557634e487b7160e01b600052602260045260246000fd5b634e487b7160e01b600052603260045260246000fd5b6000600019821415614379576143796142d5565b5060010190565b60208082526017908201527f4f7267616e697a6174696f6e206e6f7420666f756e6421000000000000000000604082015260600190565b60208082526021908201527f53616c617279206d7573742062652067726561746572207468616e207a65726f6040820152602160f81b606082015260800190565b60208082526028908201527f50657263656e7461676520437574206d757374206265206265747765656e202860408201526731202d203130302960c01b606082015260800190565b6020808252601590820152744e616d652063616e6e6f7420626520656d7074792160581b604082015260600190565b6020808252601c908201527f4465736372697074696f6e2063616e6e6f7420626520656d7074792100000000604082015260600190565b60008160001904831182151516156144c0576144c06142d5565b500290565b6000826144e257634e487b7160e01b600052601260045260246000fd5b500490565b6000828210156144f9576144f96142d5565b50039056fe596f7572207374617469737469637320616363726f737320616c6c206f7267616e697a6174696f6e73206372656174656420627920796f75a264697066735822122040c5b2114e0a12a1de141bc9f0d2ca66022d36cd4f63326367119c2c243d421f64736f6c634300080b0033",
  "linkReferences": {},
  "deployedLinkReferences": {}
}