{
  "_format": "hh-sol-artifact-1",
  "contractName": "DappPayroll",
  "sourceName": "src/contracts/DappPayroll.sol",
  "abi": [
    {
      "anonymous": false,
      "inputs": [
        {
          "indexed": true,
          "internalType": "address",
          "name": "previousOwner",
          "type": "address"
        },
        {
          "indexed": true,
          "internalType": "address",
          "name": "newOwner",
          "type": "address"
        }
      ],
      "name": "OwnershipTransferred",
      "type": "event"
    },
    {
      "inputs": [
        {
          "internalType": "uint256",
          "name": "id",
          "type": "uint256"
        }
      ],
      "name": "approvePayroll",
      "outputs": [],
      "stateMutability": "nonpayable",
      "type": "function"
    },
    {
      "inputs": [
        {
          "internalType": "string",
          "name": "name",
          "type": "string"
        },
        {
          "internalType": "string",
          "name": "description",
          "type": "string"
        }
      ],
      "name": "createOrg",
      "outputs": [],
      "stateMutability": "nonpayable",
      "type": "function"
    },
    {
      "inputs": [
        {
          "internalType": "uint256",
          "name": "oid",
          "type": "uint256"
        },
        {
          "internalType": "string",
          "name": "name",
          "type": "string"
        },
        {
          "internalType": "string",
          "name": "description",
          "type": "string"
        },
        {
          "internalType": "uint256",
          "name": "salary",
          "type": "uint256"
        },
        {
          "internalType": "uint256",
          "name": "cut",
          "type": "uint256"
        }
      ],
      "name": "createPayroll",
      "outputs": [],
      "stateMutability": "nonpayable",
      "type": "function"
    },
    {
      "inputs": [
        {
          "internalType": "uint256",
          "name": "pid",
          "type": "uint256"
        },
        {
          "internalType": "string[]",
          "name": "names",
          "type": "string[]"
        },
        {
          "internalType": "address[]",
          "name": "accounts",
          "type": "address[]"
        }
      ],
      "name": "createWorker",
      "outputs": [],
      "stateMutability": "nonpayable",
      "type": "function"
    },
    {
      "inputs": [
        {
          "internalType": "uint256",
          "name": "id",
          "type": "uint256"
        }
      ],
      "name": "deletePayroll",
      "outputs": [],
      "stateMutability": "nonpayable",
      "type": "function"
    },
    {
      "inputs": [
        {
          "internalType": "uint256",
          "name": "wid",
          "type": "uint256"
        },
        {
          "internalType": "uint256",
          "name": "pid",
          "type": "uint256"
        }
      ],
      "name": "deleteWorker",
      "outputs": [],
      "stateMutability": "nonpayable",
      "type": "function"
    },
    {
      "inputs": [
        {
          "internalType": "uint256",
          "name": "oid",
          "type": "uint256"
        }
      ],
      "name": "fundOrg",
      "outputs": [],
      "stateMutability": "payable",
      "type": "function"
    },
    {
      "inputs": [],
      "name": "getAllWorkers",
      "outputs": [
        {
          "components": [
            {
              "internalType": "uint256",
              "name": "id",
              "type": "uint256"
            },
            {
              "internalType": "uint256",
              "name": "wid",
              "type": "uint256"
            },
            {
              "internalType": "string",
              "name": "name",
              "type": "string"
            },
            {
              "internalType": "address",
              "name": "account",
              "type": "address"
            },
            {
              "internalType": "uint256",
              "name": "timestamp",
              "type": "uint256"
            }
          ],
          "internalType": "struct DappPayroll.WorkerStruct[]",
          "name": "Workers",
          "type": "tuple[]"
        }
      ],
      "stateMutability": "view",
      "type": "function"
    },
    {
      "inputs": [],
      "name": "getMyActivePayrolls",
      "outputs": [
        {
          "components": [
            {
              "internalType": "uint256",
              "name": "id",
              "type": "uint256"
            },
            {
              "internalType": "uint256",
              "name": "oid",
              "type": "uint256"
            },
            {
              "internalType": "string",
              "name": "name",
              "type": "string"
            },
            {
              "internalType": "string",
              "name": "description",
              "type": "string"
            },
            {
              "internalType": "address",
              "name": "officer",
              "type": "address"
            },
            {
              "internalType": "address",
              "name": "organization",
              "type": "address"
            },
            {
              "internalType": "uint256",
              "name": "salary",
              "type": "uint256"
            },
            {
              "internalType": "uint256",
              "name": "workers",
              "type": "uint256"
            },
            {
              "internalType": "uint256",
              "name": "cut",
              "type": "uint256"
            },
            {
              "internalType": "enum DappPayroll.Status",
              "name": "status",
              "type": "uint8"
            },
            {
              "internalType": "uint256",
              "name": "timestamp",
              "type": "uint256"
            }
          ],
          "internalType": "struct DappPayroll.PayrollStruct[]",
          "name": "Payrolls",
          "type": "tuple[]"
        }
      ],
      "stateMutability": "view",
      "type": "function"
    },
    {
      "inputs": [],
      "name": "getMyOrgs",
      "outputs": [
        {
          "components": [
            {
              "internalType": "uint256",
              "name": "id",
              "type": "uint256"
            },
            {
              "internalType": "string",
              "name": "name",
              "type": "string"
            },
            {
              "internalType": "string",
              "name": "description",
              "type": "string"
            },
            {
              "internalType": "address",
              "name": "account",
              "type": "address"
            },
            {
              "internalType": "uint256",
              "name": "payrolls",
              "type": "uint256"
            },
            {
              "internalType": "uint256",
              "name": "workers",
              "type": "uint256"
            },
            {
              "internalType": "uint256",
              "name": "payments",
              "type": "uint256"
            },
            {
              "internalType": "uint256",
              "name": "balance",
              "type": "uint256"
            },
            {
              "internalType": "uint256",
              "name": "cuts",
              "type": "uint256"
            },
            {
              "internalType": "uint256",
              "name": "timestamp",
              "type": "uint256"
            }
          ],
          "internalType": "struct DappPayroll.OrganizationStruct[]",
          "name": "",
          "type": "tuple[]"
        }
      ],
      "stateMutability": "view",
      "type": "function"
    },
    {
      "inputs": [
        {
          "internalType": "uint256",
          "name": "oid",
          "type": "uint256"
        }
      ],
      "name": "getMyPayrollsByOrg",
      "outputs": [
        {
          "components": [
            {
              "internalType": "uint256",
              "name": "id",
              "type": "uint256"
            },
            {
              "internalType": "uint256",
              "name": "oid",
              "type": "uint256"
            },
            {
              "internalType": "string",
              "name": "name",
              "type": "string"
            },
            {
              "internalType": "string",
              "name": "description",
              "type": "string"
            },
            {
              "internalType": "address",
              "name": "officer",
              "type": "address"
            },
            {
              "internalType": "address",
              "name": "organization",
              "type": "address"
            },
            {
              "internalType": "uint256",
              "name": "salary",
              "type": "uint256"
            },
            {
              "internalType": "uint256",
              "name": "workers",
              "type": "uint256"
            },
            {
              "internalType": "uint256",
              "name": "cut",
              "type": "uint256"
            },
            {
              "internalType": "enum DappPayroll.Status",
              "name": "status",
              "type": "uint8"
            },
            {
              "internalType": "uint256",
              "name": "timestamp",
              "type": "uint256"
            }
          ],
          "internalType": "struct DappPayroll.PayrollStruct[]",
          "name": "Payrolls",
          "type": "tuple[]"
        }
      ],
      "stateMutability": "view",
      "type": "function"
    },
    {
      "inputs": [],
      "name": "getMyStats",
      "outputs": [
        {
          "components": [
            {
              "internalType": "uint256",
              "name": "id",
              "type": "uint256"
            },
            {
              "internalType": "string",
              "name": "name",
              "type": "string"
            },
            {
              "internalType": "string",
              "name": "description",
              "type": "string"
            },
            {
              "internalType": "address",
              "name": "account",
              "type": "address"
            },
            {
              "internalType": "uint256",
              "name": "payrolls",
              "type": "uint256"
            },
            {
              "internalType": "uint256",
              "name": "workers",
              "type": "uint256"
            },
            {
              "internalType": "uint256",
              "name": "payments",
              "type": "uint256"
            },
            {
              "internalType": "uint256",
              "name": "balance",
              "type": "uint256"
            },
            {
              "internalType": "uint256",
              "name": "cuts",
              "type": "uint256"
            },
            {
              "internalType": "uint256",
              "name": "timestamp",
              "type": "uint256"
            }
          ],
          "internalType": "struct DappPayroll.OrganizationStruct",
          "name": "Organization",
          "type": "tuple"
        }
      ],
      "stateMutability": "view",
      "type": "function"
    },
    {
      "inputs": [
        {
          "internalType": "uint256",
          "name": "id",
          "type": "uint256"
        }
      ],
      "name": "getOrgById",
      "outputs": [
        {
          "components": [
            {
              "internalType": "uint256",
              "name": "id",
              "type": "uint256"
            },
            {
              "internalType": "string",
              "name": "name",
              "type": "string"
            },
            {
              "internalType": "string",
              "name": "description",
              "type": "string"
            },
            {
              "internalType": "address",
              "name": "account",
              "type": "address"
            },
            {
              "internalType": "uint256",
              "name": "payrolls",
              "type": "uint256"
            },
            {
              "internalType": "uint256",
              "name": "workers",
              "type": "uint256"
            },
            {
              "internalType": "uint256",
              "name": "payments",
              "type": "uint256"
            },
            {
              "internalType": "uint256",
              "name": "balance",
              "type": "uint256"
            },
            {
              "internalType": "uint256",
              "name": "cuts",
              "type": "uint256"
            },
            {
              "internalType": "uint256",
              "name": "timestamp",
              "type": "uint256"
            }
          ],
          "internalType": "struct DappPayroll.OrganizationStruct",
          "name": "Organization",
          "type": "tuple"
        }
      ],
      "stateMutability": "view",
      "type": "function"
    },
    {
      "inputs": [],
      "name": "getOrgs",
      "outputs": [
        {
          "components": [
            {
              "internalType": "uint256",
              "name": "id",
              "type": "uint256"
            },
            {
              "internalType": "string",
              "name": "name",
              "type": "string"
            },
            {
              "internalType": "string",
              "name": "description",
              "type": "string"
            },
            {
              "internalType": "address",
              "name": "account",
              "type": "address"
            },
            {
              "internalType": "uint256",
              "name": "payrolls",
              "type": "uint256"
            },
            {
              "internalType": "uint256",
              "name": "workers",
              "type": "uint256"
            },
            {
              "internalType": "uint256",
              "name": "payments",
              "type": "uint256"
            },
            {
              "internalType": "uint256",
              "name": "balance",
              "type": "uint256"
            },
            {
              "internalType": "uint256",
              "name": "cuts",
              "type": "uint256"
            },
            {
              "internalType": "uint256",
              "name": "timestamp",
              "type": "uint256"
            }
          ],
          "internalType": "struct DappPayroll.OrganizationStruct[]",
          "name": "Organization",
          "type": "tuple[]"
        }
      ],
      "stateMutability": "view",
      "type": "function"
    },
    {
      "inputs": [
        {
          "internalType": "uint256",
          "name": "id",
          "type": "uint256"
        }
      ],
      "name": "getPayrollById",
      "outputs": [
        {
          "components": [
            {
              "internalType": "uint256",
              "name": "id",
              "type": "uint256"
            },
            {
              "internalType": "uint256",
              "name": "oid",
              "type": "uint256"
            },
            {
              "internalType": "string",
              "name": "name",
              "type": "string"
            },
            {
              "internalType": "string",
              "name": "description",
              "type": "string"
            },
            {
              "internalType": "address",
              "name": "officer",
              "type": "address"
            },
            {
              "internalType": "address",
              "name": "organization",
              "type": "address"
            },
            {
              "internalType": "uint256",
              "name": "salary",
              "type": "uint256"
            },
            {
              "internalType": "uint256",
              "name": "workers",
              "type": "uint256"
            },
            {
              "internalType": "uint256",
              "name": "cut",
              "type": "uint256"
            },
            {
              "internalType": "enum DappPayroll.Status",
              "name": "status",
              "type": "uint8"
            },
            {
              "internalType": "uint256",
              "name": "timestamp",
              "type": "uint256"
            }
          ],
          "internalType": "struct DappPayroll.PayrollStruct",
          "name": "",
          "type": "tuple"
        }
      ],
      "stateMutability": "view",
      "type": "function"
    },
    {
      "inputs": [
        {
          "internalType": "uint256",
          "name": "pid",
          "type": "uint256"
        },
        {
          "internalType": "uint256",
          "name": "wid",
          "type": "uint256"
        }
      ],
      "name": "getPayrollWorker",
      "outputs": [
        {
          "components": [
            {
              "internalType": "uint256",
              "name": "id",
              "type": "uint256"
            },
            {
              "internalType": "uint256",
              "name": "wid",
              "type": "uint256"
            },
            {
              "internalType": "string",
              "name": "name",
              "type": "string"
            },
            {
              "internalType": "address",
              "name": "account",
              "type": "address"
            },
            {
              "internalType": "uint256",
              "name": "timestamp",
              "type": "uint256"
            }
          ],
          "internalType": "struct DappPayroll.WorkerStruct",
          "name": "Worker",
          "type": "tuple"
        }
      ],
      "stateMutability": "view",
      "type": "function"
    },
    {
      "inputs": [
        {
          "internalType": "uint256",
          "name": "pid",
          "type": "uint256"
        }
      ],
      "name": "getPayrollWorkers",
      "outputs": [
        {
          "components": [
            {
              "internalType": "uint256",
              "name": "id",
              "type": "uint256"
            },
            {
              "internalType": "uint256",
              "name": "wid",
              "type": "uint256"
            },
            {
              "internalType": "string",
              "name": "name",
              "type": "string"
            },
            {
              "internalType": "address",
              "name": "account",
              "type": "address"
            },
            {
              "internalType": "uint256",
              "name": "timestamp",
              "type": "uint256"
            }
          ],
          "internalType": "struct DappPayroll.WorkerStruct[]",
          "name": "Workers",
          "type": "tuple[]"
        }
      ],
      "stateMutability": "view",
      "type": "function"
    },
    {
      "inputs": [],
      "name": "getPayrolls",
      "outputs": [
        {
          "components": [
            {
              "internalType": "uint256",
              "name": "id",
              "type": "uint256"
            },
            {
              "internalType": "uint256",
              "name": "oid",
              "type": "uint256"
            },
            {
              "internalType": "string",
              "name": "name",
              "type": "string"
            },
            {
              "internalType": "string",
              "name": "description",
              "type": "string"
            },
            {
              "internalType": "address",
              "name": "officer",
              "type": "address"
            },
            {
              "internalType": "address",
              "name": "organization",
              "type": "address"
            },
            {
              "internalType": "uint256",
              "name": "salary",
              "type": "uint256"
            },
            {
              "internalType": "uint256",
              "name": "workers",
              "type": "uint256"
            },
            {
              "internalType": "uint256",
              "name": "cut",
              "type": "uint256"
            },
            {
              "internalType": "enum DappPayroll.Status",
              "name": "status",
              "type": "uint8"
            },
            {
              "internalType": "uint256",
              "name": "timestamp",
              "type": "uint256"
            }
          ],
          "internalType": "struct DappPayroll.PayrollStruct[]",
          "name": "Payrolls",
          "type": "tuple[]"
        }
      ],
      "stateMutability": "view",
      "type": "function"
    },
    {
      "inputs": [
        {
          "internalType": "uint256",
          "name": "id",
          "type": "uint256"
        }
      ],
      "name": "openPayroll",
      "outputs": [],
      "stateMutability": "nonpayable",
      "type": "function"
    },
    {
      "inputs": [],
      "name": "owner",
      "outputs": [
        {
          "internalType": "address",
          "name": "",
          "type": "address"
        }
      ],
      "stateMutability": "view",
      "type": "function"
    },
    {
      "inputs": [
        {
          "internalType": "uint256",
          "name": "pid",
          "type": "uint256"
        }
      ],
      "name": "payWorkers",
      "outputs": [],
      "stateMutability": "nonpayable",
      "type": "function"
    },
    {
      "inputs": [
        {
          "internalType": "uint256",
          "name": "id",
          "type": "uint256"
        }
      ],
      "name": "rejectPayroll",
      "outputs": [],
      "stateMutability": "nonpayable",
      "type": "function"
    },
    {
      "inputs": [],
      "name": "renounceOwnership",
      "outputs": [],
      "stateMutability": "nonpayable",
      "type": "function"
    },
    {
      "inputs": [
        {
          "internalType": "uint256",
          "name": "id",
          "type": "uint256"
        }
      ],
      "name": "revertPayroll",
      "outputs": [],
      "stateMutability": "nonpayable",
      "type": "function"
    },
    {
      "inputs": [
        {
          "internalType": "uint256",
          "name": "id",
          "type": "uint256"
        }
      ],
      "name": "submitPayroll",
      "outputs": [],
      "stateMutability": "nonpayable",
      "type": "function"
    },
    {
      "inputs": [
        {
          "internalType": "address",
          "name": "newOwner",
          "type": "address"
        }
      ],
      "name": "transferOwnership",
      "outputs": [],
      "stateMutability": "nonpayable",
      "type": "function"
    },
    {
      "inputs": [
        {
          "internalType": "uint256",
          "name": "id",
          "type": "uint256"
        },
        {
          "internalType": "string",
          "name": "name",
          "type": "string"
        },
        {
          "internalType": "string",
          "name": "description",
          "type": "string"
        }
      ],
      "name": "updateOrg",
      "outputs": [],
      "stateMutability": "nonpayable",
      "type": "function"
    },
    {
      "inputs": [
        {
          "internalType": "uint256",
          "name": "id",
          "type": "uint256"
        },
        {
          "internalType": "uint256",
          "name": "oid",
          "type": "uint256"
        },
        {
          "internalType": "string",
          "name": "name",
          "type": "string"
        },
        {
          "internalType": "string",
          "name": "description",
          "type": "string"
        },
        {
          "internalType": "uint256",
          "name": "salary",
          "type": "uint256"
        },
        {
          "internalType": "uint256",
          "name": "cut",
          "type": "uint256"
        }
      ],
      "name": "updatePayroll",
      "outputs": [],
      "stateMutability": "nonpayable",
      "type": "function"
    },
    {
      "inputs": [
        {
          "internalType": "uint256",
          "name": "wid",
          "type": "uint256"
        },
        {
          "internalType": "uint256",
          "name": "pid",
          "type": "uint256"
        },
        {
          "internalType": "string",
          "name": "name",
          "type": "string"
        },
        {
          "internalType": "address",
          "name": "account",
          "type": "address"
        }
      ],
      "name": "updateWorker",
      "outputs": [],
      "stateMutability": "nonpayable",
      "type": "function"
    },
    {
      "inputs": [
        {
          "internalType": "uint256",
          "name": "oid",
          "type": "uint256"
        },
        {
          "internalType": "address",
          "name": "account",
          "type": "address"
        },
        {
          "internalType": "uint256",
          "name": "amount",
          "type": "uint256"
        }
      ],
      "name": "withdrawFrom",
      "outputs": [],
      "stateMutability": "payable",
      "type": "function"
    }
  ],
  "bytecode": "0x60806040523480156200001157600080fd5b506200001d3362000027565b6001805562000077565b600080546001600160a01b038381166001600160a01b0319831681178455604051919092169283917f8be0079c531659141344cd1fd0a4f28419497f9722a3daafe3b4186f6b6457e09190a35050565b61476f80620000876000396000f3fe6080604052600436106101cd5760003560e01c80638da5cb5b116100f7578063cc5554d211610095578063dd983f2211610064578063dd983f2214610517578063e8fb165214610537578063ede7677514610557578063f2fde38b1461056c57600080fd5b8063cc5554d2146104a0578063d600c8a7146104c0578063d90abb45146104e0578063dc0c9bb11461050257600080fd5b80639a0a3d5b116100d15780639a0a3d5b14610429578063b7c5464d1461043e578063c2b5aaa21461046b578063c9c0f25e1461048b57600080fd5b80638da5cb5b146103c15780638fb9ac60146103e957806391d40d9e1461040957600080fd5b80634439a88a1161016f578063715018a61161013e578063715018a61461033d5780637a52723e146103525780637aba416b14610374578063815cd8f41461039457600080fd5b80634439a88a146102ca57806346d657b0146102dd57806360f71a81146102fd5780636403e2461461031d57600080fd5b80632a3a7649116101ab5780632a3a7649146102275780632ebd12c9146102475780633dc5da5c1461027d5780633e653f8d1461029d57600080fd5b80631229c5d4146101d25780631dfff6fe146101f45780632155015f14610207575b600080fd5b3480156101de57600080fd5b506101f26101ed366004613b9c565b61058c565b005b6101f2610202366004613bd1565b610665565b34801561021357600080fd5b506101f2610222366004613b9c565b6107df565b34801561023357600080fd5b506101f2610242366004613c06565b6108ca565b34801561025357600080fd5b50610267610262366004613b9c565b610a00565b6040516102749190613cc6565b60405180910390f35b34801561028957600080fd5b506101f2610298366004613e72565b610bb3565b3480156102a957600080fd5b506102bd6102b8366004613b9c565b610f5c565b604051610274919061404e565b6101f26102d8366004613b9c565b6113bb565b3480156102e957600080fd5b506101f26102f8366004613b9c565b61142b565b34801561030957600080fd5b506101f2610318366004613b9c565b611547565b34801561032957600080fd5b506101f2610338366004613b9c565b611610565b34801561034957600080fd5b506101f2611701565b34801561035e57600080fd5b50610367611715565b6040516102749190614145565b34801561038057600080fd5b506101f261038f36600461415f565b6118e4565b3480156103a057600080fd5b506103b46103af366004613c06565b611b29565b60405161027491906141dd565b3480156103cd57600080fd5b506000546040516001600160a01b039091168152602001610274565b3480156103f557600080fd5b506101f26104043660046141f0565b611c2b565b34801561041557600080fd5b506101f2610424366004614253565b611d62565b34801561043557600080fd5b506102bd611e7a565b34801561044a57600080fd5b5061045e610459366004613b9c565b612281565b60405161027491906142b5565b34801561047757600080fd5b506101f2610486366004613b9c565b612464565b34801561049757600080fd5b50610267612733565b3480156104ac57600080fd5b506101f26104bb3660046142c8565b6128bc565b3480156104cc57600080fd5b506103676104db366004613b9c565b612ac5565b3480156104ec57600080fd5b506104f5612c70565b6040516102749190614350565b34801561050e57600080fd5b506102bd612f56565b34801561052357600080fd5b506101f26105323660046143a5565b61327f565b34801561054357600080fd5b506101f2610552366004613b9c565b613479565b34801561056357600080fd5b506104f5613545565b34801561057857600080fd5b506101f2610587366004614405565b613789565b6000818152600660205260409020546105c05760405162461bcd60e51b81526004016105b790614420565b60405180910390fd5b6000818152600660205260409020600501546001600160a01b031633146105f95760405162461bcd60e51b81526004016105b79061444c565b600160008281526006602052604090206009015460ff16600581111561062157610621613f50565b1461063e5760405162461bcd60e51b81526004016105b79061447a565b600081815260066020526040902060090180546004919060ff19166001835b021790555050565b6000838152600560205260409020546106905760405162461bcd60e51b81526004016105b7906144a8565b6000838152600560205260409020600301546001600160a01b031633146106f05760405162461bcd60e51b8152602060048201526014602482015273556e617574686f72697a656420456e746974792160601b60448201526064016105b7565b6001600160a01b0382166107465760405162461bcd60e51b815260206004820152601960248201527f4163636f756e74206d757374206e6f7420626520656d7074790000000000000060448201526064016105b7565b60008111801561076757506000838152600560205260409020600801548111155b6107aa5760405162461bcd60e51b8152602060048201526014602482015273496e73756666696369656e7420616d6f756e742160601b60448201526064016105b7565b6107b482826137ff565b600083815260056020526040812060080180548392906107d59084906144f5565b9091555050505050565b60008181526006602052604090205461080a5760405162461bcd60e51b81526004016105b790614420565b6000818152600660205260409020600401546001600160a01b031633146108435760405162461bcd60e51b81526004016105b79061444c565b60008181526006602052604081206009015460ff16600581111561086957610869613f50565b146108865760405162461bcd60e51b81526004016105b79061450c565b600081815260066020908152604080832060098101805460ff19166002179055600101548352600590915281206004018054916108c28361453c565b919050555050565b60008181526009602090815260408083208584529091529020546109245760405162461bcd60e51b8152602060048201526011602482015270576f726b6572206e6f7420666f756e642160781b60448201526064016105b7565b6000818152600660205260409020600401546001600160a01b0316331461095d5760405162461bcd60e51b81526004016105b79061444c565b60008181526009602090815260408083208584529091528120818155600181018290559061098e60028301826139bc565b506003810180546001600160a01b0319169055600060049091018190558181526006602052604081206007018054916109c68361453c565b909155505060008181526006602090815260408083206001015483526005918290528220018054916109f78361453c565b91905055505050565b6000818152600660205260409020600701546060906001600160401b03811115610a2c57610a2c613d28565b604051908082528060200260200182016040528015610a6557816020015b610a526139f6565b815260200190600190039081610a4a5790505b50905060005b600083815260066020526040902060070154811015610bad57600083815260096020526040812090610a9e836001614553565b81526020019081526020016000206040518060a00160405290816000820154815260200160018201548152602001600282018054610adb9061456b565b80601f0160208091040260200160405190810160405280929190818152602001828054610b079061456b565b8015610b545780601f10610b2957610100808354040283529160200191610b54565b820191906000526020600020905b815481529060010190602001808311610b3757829003601f168201915b505050918352505060038201546001600160a01b031660208201526004909101546040909101528251839083908110610b8f57610b8f6145a0565b60200260200101819052508080610ba5906145b6565b915050610a6b565b50919050565b600083815260066020526040902054610bde5760405162461bcd60e51b81526004016105b790614420565b6000838152600660205260409020600401546001600160a01b0316331480610c1f57506000838152600660205260409020600501546001600160a01b031633145b610c3b5760405162461bcd60e51b81526004016105b79061444c565b6000825111610c8c5760405162461bcd60e51b815260206004820152601c60248201527f4e616d65732061727261792063616e6e6f7420626520656d707479210000000060448201526064016105b7565b6000815111610cdd5760405162461bcd60e51b815260206004820152601f60248201527f4163636f756e74732061727261792063616e6e6f7420626520656d707479210060448201526064016105b7565b60005b8151811015610f5657610cf7600480546001019055565b610cff6139f6565b6004548152600085815260066020526040902060070154610d21906001614553565b60208201528351849083908110610d3a57610d3a6145a0565b60200260200101518160400181905250828281518110610d5c57610d5c6145a0565b60209081029190910101516001600160a01b03166060820152610d7d613899565b60808201526000858152600960209081526040808320828501805185529083529281902084518155925160018401558301518051849392610dc5926002850192910190613a2e565b5060608201516003820180546001600160a01b0319166001600160a01b039092169190911790556080909101516004909101556000858152600660205260408120600701805491610e15836145b6565b90915550506000858152600660209081526040808320600101548352600591829052822001805491610e46836145b6565b919050555060086000848481518110610e6157610e616145a0565b6020908102919091018101516001600160a01b031682528101919091526040016000205460ff16610f4357600160086000858581518110610ea457610ea46145a0565b6020908102919091018101516001600160a01b031682528181019290925260409081016000908120805460ff19169415159490941790935583518352600782529182902083518155838201516001820155918301518051849392610f0f926002850192910190613a2e565b5060608201516003820180546001600160a01b0319166001600160a01b039092169190911790556080909101516004909101555b5080610f4e816145b6565b915050610ce0565b50505050565b60606000805b60025481101561106157600260066000610f7d846001614553565b815260208101919091526040016000206009015460ff166005811115610fa557610fa5613f50565b14158015610fd257508360066000610fbe846001614553565b815260200190815260200160002060010154145b801561103c57503360066000610fe9846001614553565b81526020810191909152604001600020600401546001600160a01b0316148061103c5750336006600061101d846001614553565b81526020810191909152604001600020600501546001600160a01b0316145b1561104f578161104b816145b6565b9250505b80611059816145b6565b915050610f62565b50806001600160401b0381111561107a5761107a613d28565b6040519080825280602002602001820160405280156110b357816020015b6110a0613aae565b8152602001906001900390816110985790505b5091506000805b6002548110156113b3576002600660006110d5846001614553565b815260208101919091526040016000206009015460ff1660058111156110fd576110fd613f50565b1415801561112a57508460066000611116846001614553565b815260200190815260200160002060010154145b801561119457503360066000611141846001614553565b81526020810191909152604001600020600401546001600160a01b0316148061119457503360066000611175846001614553565b81526020810191909152604001600020600501546001600160a01b0316145b156113a157600660006111a8836001614553565b81526020019081526020016000206040518061016001604052908160008201548152602001600182015481526020016002820180546111e69061456b565b80601f01602080910402602001604051908101604052809291908181526020018280546112129061456b565b801561125f5780601f106112345761010080835404028352916020019161125f565b820191906000526020600020905b81548152906001019060200180831161124257829003601f168201915b505050505081526020016003820180546112789061456b565b80601f01602080910402602001604051908101604052809291908181526020018280546112a49061456b565b80156112f15780601f106112c6576101008083540402835291602001916112f1565b820191906000526020600020905b8154815290600101906020018083116112d457829003601f168201915b505050918352505060048201546001600160a01b03908116602083015260058084015490911660408301526006830154606083015260078301546080830152600883015460a0830152600983015460c09092019160ff169081111561135857611358613f50565b600581111561136957611369613f50565b8152602001600a82015481525050848380611383906145b6565b945081518110611395576113956145a0565b60200260200101819052505b806113ab816145b6565b9150506110ba565b505050919050565b600034116114025760405162461bcd60e51b8152602060048201526014602482015273496e73756666696369656e7420616d6f756e742160601b60448201526064016105b7565b60008181526005602052604081206007018054349290611423908490614553565b909155505050565b6000818152600660205260409020546114565760405162461bcd60e51b81526004016105b790614420565b6000818152600660205260409020600401546001600160a01b031633148061149757506000818152600660205260409020600501546001600160a01b031633145b6114b35760405162461bcd60e51b81526004016105b79061444c565b600160008281526006602052604090206009015460ff1660058111156114db576114db613f50565b148061150c5750600460008281526006602052604090206009015460ff16600581111561150a5761150a613f50565b145b6115285760405162461bcd60e51b81526004016105b79061447a565b6000818152600660205260408120600901805460ff191660018361065d565b6000818152600660205260409020546115725760405162461bcd60e51b81526004016105b790614420565b6000818152600660205260409020600401546001600160a01b031633146115ab5760405162461bcd60e51b81526004016105b79061444c565b60008181526006602052604081206009015460ff1660058111156115d1576115d1613f50565b146115ee5760405162461bcd60e51b81526004016105b79061450c565b600081815260066020526040902060090180546001919060ff1916828061065d565b60008181526006602052604090205461163b5760405162461bcd60e51b81526004016105b790614420565b6000818152600660205260409020600401546001600160a01b031633148061167c57506000818152600660205260409020600501546001600160a01b031633145b6116985760405162461bcd60e51b81526004016105b79061444c565b600560008281526006602052604090206009015460ff1660058111156116c0576116c0613f50565b146115285760405162461bcd60e51b8152602060048201526011602482015270506179726f6c6c206e6f7420506169642160781b60448201526064016105b7565b6117096138b8565b6117136000613912565b565b61171d613b2b565b60005b6003548110156118e057336005600061173a846001614553565b81526020810191909152604001600020600301546001600160a01b031614156118ce57815182611769826145b6565b8152505060405180604001604052806011815260200170596f757220476c6f62616c20537461747360781b8152508260200181905250604051806060016040528060388152602001614702603891396040830152336060830152600560006117d2836001614553565b8152602001908152602001600020600601548260c0018181516117f59190614553565b90525060056000611807836001614553565b815260200190815260200160002060080154826101000181815161182b9190614553565b9052506005600061183d836001614553565b815260200190815260200160002060040154826080018181516118609190614553565b90525060056000611872836001614553565b8152602001908152602001600020600501548260a0018181516118959190614553565b905250600560006118a7836001614553565b8152602001908152602001600020600701548260e0018181516118ca9190614553565b9052505b806118d8816145b6565b915050611720565b5090565b60008581526005602052604090205461190f5760405162461bcd60e51b81526004016105b7906144a8565b6000821161192f5760405162461bcd60e51b81526004016105b7906145d1565b600081118015611940575060648111155b61195c5760405162461bcd60e51b81526004016105b790614612565b600084511161197d5760405162461bcd60e51b81526004016105b79061465a565b600083511161199e5760405162461bcd60e51b81526004016105b790614689565b6119ac600280546001019055565b6119b4613aae565b600254815233608082015260408082018690526060820185905260c08201849052610100820183905260208083018890526000888152600590915220600301546001600160a01b031660a0820152611a0a613899565b610140820152805160009081526006602090815260409182902083518155818401516001820155918301518051849392611a4b926002850192910190613a2e565b5060608201518051611a67916003840191602090910190613a2e565b5060808201516004820180546001600160a01b03199081166001600160a01b039384161790915560a0840151600580850180549093169190931617905560c0830151600683015560e0830151600783015561010083015160088301556101208301516009830180549192909160ff1916906001908490811115611aec57611aec613f50565b02179055506101409190910151600a909101556000868152600560205260408120600401805491611b1c836145b6565b9190505550505050505050565b611b316139f6565b6009600084815260200190815260200160002060008381526020019081526020016000206040518060a00160405290816000820154815260200160018201548152602001600282018054611b849061456b565b80601f0160208091040260200160405190810160405280929190818152602001828054611bb09061456b565b8015611bfd5780601f10611bd257610100808354040283529160200191611bfd565b820191906000526020600020905b815481529060010190602001808311611be057829003601f168201915b505050918352505060038201546001600160a01b031660208201526004909101546040909101529392505050565b6000825111611c4c5760405162461bcd60e51b81526004016105b79061465a565b6000815111611c6d5760405162461bcd60e51b81526004016105b790614689565b611c7b600380546001019055565b611c83613b2b565b60035481526020810183905260408101829052336060820152611ca4613899565b61012082015280516000908152600560209081526040909120825181558183015180518493611cda926001850192910190613a2e565b5060408201518051611cf6916002840191602090910190613a2e565b5060608201516003820180546001600160a01b0319166001600160a01b039092169190911790556080820151600482015560a0820151600582015560c0820151600682015560e08201516007820155610100820151600882015561012090910151600990910155505050565b600083815260056020526040902054611d8d5760405162461bcd60e51b81526004016105b7906144a8565b6000838152600560205260409020600301546001600160a01b03163314611ded5760405162461bcd60e51b8152602060048201526014602482015273556e6f7574686f72697a656420656e746974792160601b60448201526064016105b7565b6000825111611e0e5760405162461bcd60e51b81526004016105b79061465a565b6000815111611e2f5760405162461bcd60e51b81526004016105b790614689565b60008381526005602090815260409091208351611e5492600190920191850190613a2e565b5060008381526005602090815260409091208251610f5692600290920191840190613a2e565b60606000805b600254811015611f5457600260066000611e9b846001614553565b815260208101919091526040016000206009015460ff166005811115611ec357611ec3613f50565b14158015611f2f57503360066000611edc846001614553565b81526020810191909152604001600020600401546001600160a01b03161480611f2f57503360066000611f10846001614553565b81526020810191909152604001600020600501546001600160a01b0316145b15611f425781611f3e816145b6565b9250505b80611f4c816145b6565b915050611e80565b50806001600160401b03811115611f6d57611f6d613d28565b604051908082528060200260200182016040528015611fa657816020015b611f93613aae565b815260200190600190039081611f8b5790505b5091506000805b60025481101561227b57600260066000611fc8846001614553565b815260208101919091526040016000206009015460ff166005811115611ff057611ff0613f50565b1415801561205c57503360066000612009846001614553565b81526020810191909152604001600020600401546001600160a01b0316148061205c5750336006600061203d846001614553565b81526020810191909152604001600020600501546001600160a01b0316145b156122695760066000612070836001614553565b81526020019081526020016000206040518061016001604052908160008201548152602001600182015481526020016002820180546120ae9061456b565b80601f01602080910402602001604051908101604052809291908181526020018280546120da9061456b565b80156121275780601f106120fc57610100808354040283529160200191612127565b820191906000526020600020905b81548152906001019060200180831161210a57829003601f168201915b505050505081526020016003820180546121409061456b565b80601f016020809104026020016040519081016040528092919081815260200182805461216c9061456b565b80156121b95780601f1061218e576101008083540402835291602001916121b9565b820191906000526020600020905b81548152906001019060200180831161219c57829003601f168201915b505050918352505060048201546001600160a01b03908116602083015260058084015490911660408301526006830154606083015260078301546080830152600883015460a0830152600983015460c09092019160ff169081111561222057612220613f50565b600581111561223157612231613f50565b8152602001600a8201548152505084838061224b906145b6565b94508151811061225d5761225d6145a0565b60200260200101819052505b80612273816145b6565b915050611fad565b50505090565b612289613aae565b600660008381526020019081526020016000206040518061016001604052908160008201548152602001600182015481526020016002820180546122cc9061456b565b80601f01602080910402602001604051908101604052809291908181526020018280546122f89061456b565b80156123455780601f1061231a57610100808354040283529160200191612345565b820191906000526020600020905b81548152906001019060200180831161232857829003601f168201915b5050505050815260200160038201805461235e9061456b565b80601f016020809104026020016040519081016040528092919081815260200182805461238a9061456b565b80156123d75780601f106123ac576101008083540402835291602001916123d7565b820191906000526020600020905b8154815290600101906020018083116123ba57829003601f168201915b505050918352505060048201546001600160a01b03908116602083015260058084015490911660408301526006830154606083015260078301546080830152600883015460a0830152600983015460c09092019160ff169081111561243e5761243e613f50565b600581111561244f5761244f613f50565b8152602001600a820154815250509050919050565b61246c613962565b6000818152600660205260409020546124975760405162461bcd60e51b81526004016105b790614420565b6000818152600660205260409020600401546001600160a01b031633146124d05760405162461bcd60e51b81526004016105b79061444c565b600360008281526006602052604090206009015460ff1660058111156124f8576124f8613f50565b1461253d5760405162461bcd60e51b8152602060048201526015602482015274506179726f6c6c206e6f7420417070726f7665642160581b60448201526064016105b7565b60008181526006602081905260409091209081015460079091015461256291906146c0565b6000828152600660209081526040808320600101548352600590915290206007015410156125c65760405162461bcd60e51b8152602060048201526011602482015270125b9cdd59999a58da595b9d08199d5b99607a1b60448201526064016105b7565b60008181526006602081905260408220600781015491810154600890910154919290916064906125f690846146c0565b61260091906146df565b905060015b8381116126585760008581526009602090815260408083208484529091529020600301546001600160a01b03166126458161264085876144f5565b6137ff565b5080612650816145b6565b915050612605565b5061266383836146c0565b60008581526006602090815260408083206001015483526005909152812060070180549091906126949084906144f5565b909155506126a4905083826146c0565b60008581526006602090815260408083206001015483526005909152812060080180549091906126d5908490614553565b909155505060008481526006602081815260408084206001015484526005909152822001805491612705836145b6565b9091555050506000838152600660205260409020600901805460ff1916600517905550506001805550565b50565b606061273e60045490565b6001600160401b0381111561275557612755613d28565b60405190808252806020026020018201604052801561278e57816020015b61277b6139f6565b8152602001906001900390816127735790505b50905060005b6004548110156118e057600760006127ad836001614553565b81526020019081526020016000206040518060a001604052908160008201548152602001600182015481526020016002820180546127ea9061456b565b80601f01602080910402602001604051908101604052809291908181526020018280546128169061456b565b80156128635780601f1061283857610100808354040283529160200191612863565b820191906000526020600020905b81548152906001019060200180831161284657829003601f168201915b505050918352505060038201546001600160a01b03166020820152600490910154604090910152825183908390811061289e5761289e6145a0565b602002602001018190525080806128b4906145b6565b915050612794565b6000868152600660205260409020546128e75760405162461bcd60e51b81526004016105b790614420565b6000868152600660205260409020600401546001600160a01b031633146129205760405162461bcd60e51b81526004016105b79061444c565b60008581526005602052604090205461294b5760405162461bcd60e51b81526004016105b7906144a8565b60008681526006602052604081206009015460ff16600581111561297157612971613f50565b1461298e5760405162461bcd60e51b81526004016105b79061450c565b600082116129ae5760405162461bcd60e51b81526004016105b7906145d1565b6000811180156129bf575060648111155b6129db5760405162461bcd60e51b81526004016105b790614612565b60008451116129fc5760405162461bcd60e51b81526004016105b79061465a565b6000835111612a1d5760405162461bcd60e51b81526004016105b790614689565b60008681526006602090815260409091208551612a4292600290920191870190613a2e565b5060008681526006602090815260409091208451612a6892600390920191860190613a2e565b506000868152600660208181526040808420808401969096556008860194909455968252600580885292822060030154979091529094529290920180546001600160a01b0319166001600160a01b03909416939093179092555050565b612acd613b2b565b600560008381526020019081526020016000206040518061014001604052908160008201548152602001600182018054612b069061456b565b80601f0160208091040260200160405190810160405280929190818152602001828054612b329061456b565b8015612b7f5780601f10612b5457610100808354040283529160200191612b7f565b820191906000526020600020905b815481529060010190602001808311612b6257829003601f168201915b50505050508152602001600282018054612b989061456b565b80601f0160208091040260200160405190810160405280929190818152602001828054612bc49061456b565b8015612c115780601f10612be657610100808354040283529160200191612c11565b820191906000526020600020905b815481529060010190602001808311612bf457829003601f168201915b505050918352505060038201546001600160a01b03166020820152600482015460408201526005820154606082015260068201546080820152600782015460a0820152600882015460c082015260099091015460e09091015292915050565b60606000805b600354811015612cd3573360056000612c90846001614553565b81526020810191909152604001600020600301546001600160a01b03161415612cc15781612cbd816145b6565b9250505b80612ccb816145b6565b915050612c76565b506000816001600160401b03811115612cee57612cee613d28565b604051908082528060200260200182016040528015612d2757816020015b612d14613b2b565b815260200190600190039081612d0c5790505b5090506000805b600354811015612f4d573360056000612d48846001614553565b81526020810191909152604001600020600301546001600160a01b03161415612f3b5760056000612d7a836001614553565b81526020019081526020016000206040518061014001604052908160008201548152602001600182018054612dae9061456b565b80601f0160208091040260200160405190810160405280929190818152602001828054612dda9061456b565b8015612e275780601f10612dfc57610100808354040283529160200191612e27565b820191906000526020600020905b815481529060010190602001808311612e0a57829003601f168201915b50505050508152602001600282018054612e409061456b565b80601f0160208091040260200160405190810160405280929190818152602001828054612e6c9061456b565b8015612eb95780601f10612e8e57610100808354040283529160200191612eb9565b820191906000526020600020905b815481529060010190602001808311612e9c57829003601f168201915b505050918352505060038201546001600160a01b03166020820152600482015460408201526005820154606082015260068201546080820152600782015460a0820152600882015460c082015260099091015460e0909101528383612f1d816145b6565b945081518110612f2f57612f2f6145a0565b60200260200101819052505b80612f45816145b6565b915050612d2e565b50909392505050565b60606000805b600254811015612fc457600260066000612f77846001614553565b815260208101919091526040016000206009015460ff166005811115612f9f57612f9f613f50565b14612fb25781612fae816145b6565b9250505b80612fbc816145b6565b915050612f5c565b50806001600160401b03811115612fdd57612fdd613d28565b60405190808252806020026020018201604052801561301657816020015b613003613aae565b815260200190600190039081612ffb5790505b5091506000805b60025481101561227b57600260066000613038846001614553565b815260208101919091526040016000206009015460ff16600581111561306057613060613f50565b1461326d5760066000613074836001614553565b81526020019081526020016000206040518061016001604052908160008201548152602001600182015481526020016002820180546130b29061456b565b80601f01602080910402602001604051908101604052809291908181526020018280546130de9061456b565b801561312b5780601f106131005761010080835404028352916020019161312b565b820191906000526020600020905b81548152906001019060200180831161310e57829003601f168201915b505050505081526020016003820180546131449061456b565b80601f01602080910402602001604051908101604052809291908181526020018280546131709061456b565b80156131bd5780601f10613192576101008083540402835291602001916131bd565b820191906000526020600020905b8154815290600101906020018083116131a057829003601f168201915b505050918352505060048201546001600160a01b03908116602083015260058084015490911660408301526006830154606083015260078301546080830152600883015460a0830152600983015460c09092019160ff169081111561322457613224613f50565b600581111561323557613235613f50565b8152602001600a8201548152505084838061324f906145b6565b945081518110613261576132616145a0565b60200260200101819052505b80613277816145b6565b91505061301d565b60008381526009602090815260408083208784529091529020546132d95760405162461bcd60e51b8152602060048201526011602482015270576f726b6572206e6f7420666f756e642160781b60448201526064016105b7565b6000838152600660205260409020600401546001600160a01b031633148061331a57506000838152600660205260409020600501546001600160a01b031633145b6133365760405162461bcd60e51b81526004016105b79061444c565b60008251116133575760405162461bcd60e51b81526004016105b79061465a565b6001600160a01b0381166133ad5760405162461bcd60e51b815260206004820152601860248201527f4163636f756e742063616e6e6f7420626520656d70747921000000000000000060448201526064016105b7565b6000838152600960209081526040808320878452825290912083516133da92600290920191850190613a2e565b50600083815260096020908152604080832087845282528083206003810180546001600160a01b0319166001600160a01b03871617905554835260078252909120835161342f92600290920191850190613a2e565b506000928352600960209081526040808520958552948152848420548452600790529290912060030180546001600160a01b0319166001600160a01b039093169290921790915550565b6000818152600660205260409020546134a45760405162461bcd60e51b81526004016105b790614420565b6000818152600660205260409020600501546001600160a01b031633146134dd5760405162461bcd60e51b81526004016105b79061444c565b600160008281526006602052604090206009015460ff16600581111561350557613505613f50565b146135225760405162461bcd60e51b81526004016105b79061447a565b600081815260066020526040902060090180546003919060ff191660018361065d565b606061355060035490565b6001600160401b0381111561356757613567613d28565b6040519080825280602002602001820160405280156135a057816020015b61358d613b2b565b8152602001906001900390816135855790505b50905060005b6003548110156118e057600560006135bf836001614553565b815260200190815260200160002060405180610140016040529081600082015481526020016001820180546135f39061456b565b80601f016020809104026020016040519081016040528092919081815260200182805461361f9061456b565b801561366c5780601f106136415761010080835404028352916020019161366c565b820191906000526020600020905b81548152906001019060200180831161364f57829003601f168201915b505050505081526020016002820180546136859061456b565b80601f01602080910402602001604051908101604052809291908181526020018280546136b19061456b565b80156136fe5780601f106136d3576101008083540402835291602001916136fe565b820191906000526020600020905b8154815290600101906020018083116136e157829003601f168201915b505050918352505060038201546001600160a01b03166020820152600482015460408201526005820154606082015260068201546080820152600782015460a0820152600882015460c082015260099091015460e090910152825183908390811061376b5761376b6145a0565b60200260200101819052508080613781906145b6565b9150506135a6565b6137916138b8565b6001600160a01b0381166137f65760405162461bcd60e51b815260206004820152602660248201527f4f776e61626c653a206e6577206f776e657220697320746865207a65726f206160448201526564647265737360d01b60648201526084016105b7565b61273081613912565b6000826001600160a01b03168260405160006040518083038185875af1925050503d806000811461384c576040519150601f19603f3d011682016040523d82523d6000602084013e613851565b606091505b50509050806138945760405162461bcd60e51b815260206004820152600f60248201526e5061796d656e74206661696c65642160881b60448201526064016105b7565b505050565b60006138a7426103e86146c0565b6138b3906103e8614553565b905090565b6000546001600160a01b031633146117135760405162461bcd60e51b815260206004820181905260248201527f4f776e61626c653a2063616c6c6572206973206e6f7420746865206f776e657260448201526064016105b7565b600080546001600160a01b038381166001600160a01b0319831681178455604051919092169283917f8be0079c531659141344cd1fd0a4f28419497f9722a3daafe3b4186f6b6457e09190a35050565b600260015414156139b55760405162461bcd60e51b815260206004820152601f60248201527f5265656e7472616e637947756172643a207265656e7472616e742063616c6c0060448201526064016105b7565b6002600155565b5080546139c89061456b565b6000825580601f106139d8575050565b601f0160209004906000526020600020908101906127309190613b87565b6040518060a0016040528060008152602001600081526020016060815260200160006001600160a01b03168152602001600081525090565b828054613a3a9061456b565b90600052602060002090601f016020900481019282613a5c5760008555613aa2565b82601f10613a7557805160ff1916838001178555613aa2565b82800160010185558215613aa2579182015b82811115613aa2578251825591602001919060010190613a87565b506118e0929150613b87565b6040518061016001604052806000815260200160008152602001606081526020016060815260200160006001600160a01b0316815260200160006001600160a01b0316815260200160008152602001600081526020016000815260200160006005811115613b1e57613b1e613f50565b8152602001600081525090565b60405180610140016040528060008152602001606081526020016060815260200160006001600160a01b031681526020016000815260200160008152602001600081526020016000815260200160008152602001600081525090565b5b808211156118e05760008155600101613b88565b600060208284031215613bae57600080fd5b5035919050565b80356001600160a01b0381168114613bcc57600080fd5b919050565b600080600060608486031215613be657600080fd5b83359250613bf660208501613bb5565b9150604084013590509250925092565b60008060408385031215613c1957600080fd5b50508035926020909101359150565b6000815180845260005b81811015613c4e57602081850181015186830182015201613c32565b81811115613c60576000602083870101525b50601f01601f19169290920160200192915050565b80518252602081015160208301526000604082015160a06040850152613c9e60a0850182613c28565b6060848101516001600160a01b03169086015260809384015193909401929092525090919050565b6000602080830181845280855180835260408601915060408160051b870101925083870160005b82811015613d1b57603f19888603018452613d09858351613c75565b94509285019290850190600101613ced565b5092979650505050505050565b634e487b7160e01b600052604160045260246000fd5b604051601f8201601f191681016001600160401b0381118282101715613d6657613d66613d28565b604052919050565b60006001600160401b03821115613d8757613d87613d28565b5060051b60200190565b600082601f830112613da257600080fd5b81356001600160401b03811115613dbb57613dbb613d28565b613dce601f8201601f1916602001613d3e565b818152846020838601011115613de357600080fd5b816020850160208301376000918101602001919091529392505050565b600082601f830112613e1157600080fd5b81356020613e26613e2183613d6e565b613d3e565b82815260059290921b84018101918181019086841115613e4557600080fd5b8286015b84811015613e6757613e5a81613bb5565b8352918301918301613e49565b509695505050505050565b600080600060608486031215613e8757600080fd5b833592506020808501356001600160401b0380821115613ea657600080fd5b818701915087601f830112613eba57600080fd5b8135613ec8613e2182613d6e565b81815260059190911b8301840190848101908a831115613ee757600080fd5b8585015b83811015613f1f57803585811115613f035760008081fd5b613f118d89838a0101613d91565b845250918601918601613eeb565b50965050506040870135925080831115613f3857600080fd5b5050613f4686828701613e00565b9150509250925092565b634e487b7160e01b600052602160045260246000fd5b60068110613f8457634e487b7160e01b600052602160045260246000fd5b9052565b600061016082518452602083015160208501526040830151816040860152613fb282860182613c28565b91505060608301518482036060860152613fcc8282613c28565b9150506080830151613fe960808601826001600160a01b03169052565b5060a083015161400460a08601826001600160a01b03169052565b5060c083015160c085015260e083015160e08501526101008084015181860152506101208084015161403882870182613f66565b5050610140928301519390920192909252919050565b6000602080830181845280855180835260408601915060408160051b870101925083870160005b82811015613d1b57603f19888603018452614091858351613f88565b94509285019290850190600101614075565b60006101408251845260208301518160208601526140c382860182613c28565b915050604083015184820360408601526140dd8282613c28565b91505060608301516140fa60608601826001600160a01b03169052565b506080830151608085015260a083015160a085015260c083015160c085015260e083015160e08501526101008084015181860152506101208084015181860152508091505092915050565b60208152600061415860208301846140a3565b9392505050565b600080600080600060a0868803121561417757600080fd5b8535945060208601356001600160401b038082111561419557600080fd5b6141a189838a01613d91565b955060408801359150808211156141b757600080fd5b506141c488828901613d91565b9598949750949560608101359550608001359392505050565b6020815260006141586020830184613c75565b6000806040838503121561420357600080fd5b82356001600160401b038082111561421a57600080fd5b61422686838701613d91565b9350602085013591508082111561423c57600080fd5b5061424985828601613d91565b9150509250929050565b60008060006060848603121561426857600080fd5b8335925060208401356001600160401b038082111561428657600080fd5b61429287838801613d91565b935060408601359150808211156142a857600080fd5b50613f4686828701613d91565b6020815260006141586020830184613f88565b60008060008060008060c087890312156142e157600080fd5b863595506020870135945060408701356001600160401b038082111561430657600080fd5b6143128a838b01613d91565b9550606089013591508082111561432857600080fd5b5061433589828a01613d91565b9350506080870135915060a087013590509295509295509295565b6000602080830181845280855180835260408601915060408160051b870101925083870160005b82811015613d1b57603f198886030184526143938583516140a3565b94509285019290850190600101614377565b600080600080608085870312156143bb57600080fd5b843593506020850135925060408501356001600160401b038111156143df57600080fd5b6143eb87828801613d91565b9250506143fa60608601613bb5565b905092959194509250565b60006020828403121561441757600080fd5b61415882613bb5565b602080825260129082015271506179726f6c6c206e6f7420666f756e642160701b604082015260600190565b602080825260149082015273556e617574686f72697a656420656e746974792160601b604082015260600190565b602080825260149082015273506179726f6c6c206e6f742050656e64696e672160601b604082015260600190565b60208082526017908201527f4f7267616e697a6174696f6e206e6f7420666f756e6421000000000000000000604082015260600190565b634e487b7160e01b600052601160045260246000fd5b600082821015614507576145076144df565b500390565b602080825260169082015275506179726f6c6c206e6f7420617661696c61626c652160501b604082015260600190565b60008161454b5761454b6144df565b506000190190565b60008219821115614566576145666144df565b500190565b600181811c9082168061457f57607f821691505b60208210811415610bad57634e487b7160e01b600052602260045260246000fd5b634e487b7160e01b600052603260045260246000fd5b60006000198214156145ca576145ca6144df565b5060010190565b60208082526021908201527f53616c617279206d7573742062652067726561746572207468616e207a65726f6040820152602160f81b606082015260800190565b60208082526028908201527f50657263656e7461676520437574206d757374206265206265747765656e202860408201526731202d203130302960c01b606082015260800190565b6020808252601590820152744e616d652063616e6e6f7420626520656d7074792160581b604082015260600190565b6020808252601c908201527f4465736372697074696f6e2063616e6e6f7420626520656d7074792100000000604082015260600190565b60008160001904831182151516156146da576146da6144df565b500290565b6000826146fc57634e487b7160e01b600052601260045260246000fd5b50049056fe596f7572207374617469737469637320616363726f737320616c6c206f7267616e697a6174696f6e73206372656174656420627920796f75a264697066735822122015b7b58e3c93a64be7372e02ab20d6eaebc925e9a8f8c6b11a053782d417b93764736f6c634300080b0033",
  "linkReferences": {},
  "deployedLinkReferences": {}
}