{
  "_format": "hh-sol-artifact-1",
  "contractName": "DappPayroll",
  "sourceName": "src/contracts/DappPayroll.sol",
  "abi": [
    {
      "anonymous": false,
      "inputs": [
        {
          "indexed": true,
          "internalType": "address",
          "name": "previousOwner",
          "type": "address"
        },
        {
          "indexed": true,
          "internalType": "address",
          "name": "newOwner",
          "type": "address"
        }
      ],
      "name": "OwnershipTransferred",
      "type": "event"
    },
    {
      "inputs": [
        {
          "internalType": "uint256",
          "name": "id",
          "type": "uint256"
        }
      ],
      "name": "approvePayroll",
      "outputs": [],
      "stateMutability": "nonpayable",
      "type": "function"
    },
    {
      "inputs": [
        {
          "internalType": "string",
          "name": "name",
          "type": "string"
        },
        {
          "internalType": "string",
          "name": "description",
          "type": "string"
        }
      ],
      "name": "createOrg",
      "outputs": [],
      "stateMutability": "nonpayable",
      "type": "function"
    },
    {
      "inputs": [
        {
          "internalType": "uint256",
          "name": "oid",
          "type": "uint256"
        },
        {
          "internalType": "string",
          "name": "name",
          "type": "string"
        },
        {
          "internalType": "string",
          "name": "description",
          "type": "string"
        },
        {
          "internalType": "uint256",
          "name": "salary",
          "type": "uint256"
        },
        {
          "internalType": "uint256",
          "name": "cut",
          "type": "uint256"
        }
      ],
      "name": "createPayroll",
      "outputs": [],
      "stateMutability": "nonpayable",
      "type": "function"
    },
    {
      "inputs": [
        {
          "internalType": "uint256",
          "name": "pid",
          "type": "uint256"
        },
        {
          "internalType": "string[]",
          "name": "names",
          "type": "string[]"
        },
        {
          "internalType": "address[]",
          "name": "accounts",
          "type": "address[]"
        }
      ],
      "name": "createWorker",
      "outputs": [],
      "stateMutability": "nonpayable",
      "type": "function"
    },
    {
      "inputs": [
        {
          "internalType": "uint256",
          "name": "id",
          "type": "uint256"
        }
      ],
      "name": "deletePayroll",
      "outputs": [],
      "stateMutability": "nonpayable",
      "type": "function"
    },
    {
      "inputs": [
        {
          "internalType": "uint256",
          "name": "wid",
          "type": "uint256"
        },
        {
          "internalType": "uint256",
          "name": "pid",
          "type": "uint256"
        }
      ],
      "name": "deleteWorker",
      "outputs": [],
      "stateMutability": "nonpayable",
      "type": "function"
    },
    {
      "inputs": [
        {
          "internalType": "uint256",
          "name": "oid",
          "type": "uint256"
        }
      ],
      "name": "fundOrg",
      "outputs": [],
      "stateMutability": "payable",
      "type": "function"
    },
    {
      "inputs": [],
      "name": "getAllWorkers",
      "outputs": [
        {
          "components": [
            {
              "internalType": "uint256",
              "name": "id",
              "type": "uint256"
            },
            {
              "internalType": "uint256",
              "name": "wid",
              "type": "uint256"
            },
            {
              "internalType": "string",
              "name": "name",
              "type": "string"
            },
            {
              "internalType": "address",
              "name": "account",
              "type": "address"
            },
            {
              "internalType": "uint256",
              "name": "timestamp",
              "type": "uint256"
            }
          ],
          "internalType": "struct DappPayroll.WorkerStruct[]",
          "name": "Workers",
          "type": "tuple[]"
        }
      ],
      "stateMutability": "view",
      "type": "function"
    },
    {
      "inputs": [],
      "name": "getMyActivePayrolls",
      "outputs": [
        {
          "components": [
            {
              "internalType": "uint256",
              "name": "id",
              "type": "uint256"
            },
            {
              "internalType": "uint256",
              "name": "oid",
              "type": "uint256"
            },
            {
              "internalType": "string",
              "name": "name",
              "type": "string"
            },
            {
              "internalType": "string",
              "name": "description",
              "type": "string"
            },
            {
              "internalType": "address",
              "name": "officer",
              "type": "address"
            },
            {
              "internalType": "address",
              "name": "organization",
              "type": "address"
            },
            {
              "internalType": "uint256",
              "name": "salary",
              "type": "uint256"
            },
            {
              "internalType": "uint256",
              "name": "workers",
              "type": "uint256"
            },
            {
              "internalType": "uint256",
              "name": "cut",
              "type": "uint256"
            },
            {
              "internalType": "enum DappPayroll.Status",
              "name": "status",
              "type": "uint8"
            },
            {
              "internalType": "uint256",
              "name": "timestamp",
              "type": "uint256"
            }
          ],
          "internalType": "struct DappPayroll.PayrollStruct[]",
          "name": "Payrolls",
          "type": "tuple[]"
        }
      ],
      "stateMutability": "view",
      "type": "function"
    },
    {
      "inputs": [],
      "name": "getMyOrgs",
      "outputs": [
        {
          "components": [
            {
              "internalType": "uint256",
              "name": "id",
              "type": "uint256"
            },
            {
              "internalType": "string",
              "name": "name",
              "type": "string"
            },
            {
              "internalType": "string",
              "name": "description",
              "type": "string"
            },
            {
              "internalType": "address",
              "name": "account",
              "type": "address"
            },
            {
              "internalType": "uint256",
              "name": "payrolls",
              "type": "uint256"
            },
            {
              "internalType": "uint256",
              "name": "workers",
              "type": "uint256"
            },
            {
              "internalType": "uint256",
              "name": "payments",
              "type": "uint256"
            },
            {
              "internalType": "uint256",
              "name": "balance",
              "type": "uint256"
            },
            {
              "internalType": "uint256",
              "name": "cuts",
              "type": "uint256"
            },
            {
              "internalType": "uint256",
              "name": "timestamp",
              "type": "uint256"
            }
          ],
          "internalType": "struct DappPayroll.OrganizationStruct[]",
          "name": "",
          "type": "tuple[]"
        }
      ],
      "stateMutability": "view",
      "type": "function"
    },
    {
      "inputs": [
        {
          "internalType": "uint256",
          "name": "oid",
          "type": "uint256"
        }
      ],
      "name": "getMyPayrollsByOrg",
      "outputs": [
        {
          "components": [
            {
              "internalType": "uint256",
              "name": "id",
              "type": "uint256"
            },
            {
              "internalType": "uint256",
              "name": "oid",
              "type": "uint256"
            },
            {
              "internalType": "string",
              "name": "name",
              "type": "string"
            },
            {
              "internalType": "string",
              "name": "description",
              "type": "string"
            },
            {
              "internalType": "address",
              "name": "officer",
              "type": "address"
            },
            {
              "internalType": "address",
              "name": "organization",
              "type": "address"
            },
            {
              "internalType": "uint256",
              "name": "salary",
              "type": "uint256"
            },
            {
              "internalType": "uint256",
              "name": "workers",
              "type": "uint256"
            },
            {
              "internalType": "uint256",
              "name": "cut",
              "type": "uint256"
            },
            {
              "internalType": "enum DappPayroll.Status",
              "name": "status",
              "type": "uint8"
            },
            {
              "internalType": "uint256",
              "name": "timestamp",
              "type": "uint256"
            }
          ],
          "internalType": "struct DappPayroll.PayrollStruct[]",
          "name": "Payrolls",
          "type": "tuple[]"
        }
      ],
      "stateMutability": "view",
      "type": "function"
    },
    {
      "inputs": [],
      "name": "getMyStats",
      "outputs": [
        {
          "components": [
            {
              "internalType": "uint256",
              "name": "id",
              "type": "uint256"
            },
            {
              "internalType": "string",
              "name": "name",
              "type": "string"
            },
            {
              "internalType": "string",
              "name": "description",
              "type": "string"
            },
            {
              "internalType": "address",
              "name": "account",
              "type": "address"
            },
            {
              "internalType": "uint256",
              "name": "payrolls",
              "type": "uint256"
            },
            {
              "internalType": "uint256",
              "name": "workers",
              "type": "uint256"
            },
            {
              "internalType": "uint256",
              "name": "payments",
              "type": "uint256"
            },
            {
              "internalType": "uint256",
              "name": "balance",
              "type": "uint256"
            },
            {
              "internalType": "uint256",
              "name": "cuts",
              "type": "uint256"
            },
            {
              "internalType": "uint256",
              "name": "timestamp",
              "type": "uint256"
            }
          ],
          "internalType": "struct DappPayroll.OrganizationStruct",
          "name": "Organization",
          "type": "tuple"
        }
      ],
      "stateMutability": "view",
      "type": "function"
    },
    {
      "inputs": [
        {
          "internalType": "uint256",
          "name": "id",
          "type": "uint256"
        }
      ],
      "name": "getOrgById",
      "outputs": [
        {
          "components": [
            {
              "internalType": "uint256",
              "name": "id",
              "type": "uint256"
            },
            {
              "internalType": "string",
              "name": "name",
              "type": "string"
            },
            {
              "internalType": "string",
              "name": "description",
              "type": "string"
            },
            {
              "internalType": "address",
              "name": "account",
              "type": "address"
            },
            {
              "internalType": "uint256",
              "name": "payrolls",
              "type": "uint256"
            },
            {
              "internalType": "uint256",
              "name": "workers",
              "type": "uint256"
            },
            {
              "internalType": "uint256",
              "name": "payments",
              "type": "uint256"
            },
            {
              "internalType": "uint256",
              "name": "balance",
              "type": "uint256"
            },
            {
              "internalType": "uint256",
              "name": "cuts",
              "type": "uint256"
            },
            {
              "internalType": "uint256",
              "name": "timestamp",
              "type": "uint256"
            }
          ],
          "internalType": "struct DappPayroll.OrganizationStruct",
          "name": "Organization",
          "type": "tuple"
        }
      ],
      "stateMutability": "view",
      "type": "function"
    },
    {
      "inputs": [],
      "name": "getOrgs",
      "outputs": [
        {
          "components": [
            {
              "internalType": "uint256",
              "name": "id",
              "type": "uint256"
            },
            {
              "internalType": "string",
              "name": "name",
              "type": "string"
            },
            {
              "internalType": "string",
              "name": "description",
              "type": "string"
            },
            {
              "internalType": "address",
              "name": "account",
              "type": "address"
            },
            {
              "internalType": "uint256",
              "name": "payrolls",
              "type": "uint256"
            },
            {
              "internalType": "uint256",
              "name": "workers",
              "type": "uint256"
            },
            {
              "internalType": "uint256",
              "name": "payments",
              "type": "uint256"
            },
            {
              "internalType": "uint256",
              "name": "balance",
              "type": "uint256"
            },
            {
              "internalType": "uint256",
              "name": "cuts",
              "type": "uint256"
            },
            {
              "internalType": "uint256",
              "name": "timestamp",
              "type": "uint256"
            }
          ],
          "internalType": "struct DappPayroll.OrganizationStruct[]",
          "name": "Organization",
          "type": "tuple[]"
        }
      ],
      "stateMutability": "view",
      "type": "function"
    },
    {
      "inputs": [
        {
          "internalType": "uint256",
          "name": "id",
          "type": "uint256"
        }
      ],
      "name": "getPayrollById",
      "outputs": [
        {
          "components": [
            {
              "internalType": "uint256",
              "name": "id",
              "type": "uint256"
            },
            {
              "internalType": "uint256",
              "name": "oid",
              "type": "uint256"
            },
            {
              "internalType": "string",
              "name": "name",
              "type": "string"
            },
            {
              "internalType": "string",
              "name": "description",
              "type": "string"
            },
            {
              "internalType": "address",
              "name": "officer",
              "type": "address"
            },
            {
              "internalType": "address",
              "name": "organization",
              "type": "address"
            },
            {
              "internalType": "uint256",
              "name": "salary",
              "type": "uint256"
            },
            {
              "internalType": "uint256",
              "name": "workers",
              "type": "uint256"
            },
            {
              "internalType": "uint256",
              "name": "cut",
              "type": "uint256"
            },
            {
              "internalType": "enum DappPayroll.Status",
              "name": "status",
              "type": "uint8"
            },
            {
              "internalType": "uint256",
              "name": "timestamp",
              "type": "uint256"
            }
          ],
          "internalType": "struct DappPayroll.PayrollStruct",
          "name": "",
          "type": "tuple"
        }
      ],
      "stateMutability": "view",
      "type": "function"
    },
    {
      "inputs": [
        {
          "internalType": "uint256",
          "name": "pid",
          "type": "uint256"
        },
        {
          "internalType": "uint256",
          "name": "wid",
          "type": "uint256"
        }
      ],
      "name": "getPayrollWorker",
      "outputs": [
        {
          "components": [
            {
              "internalType": "uint256",
              "name": "id",
              "type": "uint256"
            },
            {
              "internalType": "uint256",
              "name": "wid",
              "type": "uint256"
            },
            {
              "internalType": "string",
              "name": "name",
              "type": "string"
            },
            {
              "internalType": "address",
              "name": "account",
              "type": "address"
            },
            {
              "internalType": "uint256",
              "name": "timestamp",
              "type": "uint256"
            }
          ],
          "internalType": "struct DappPayroll.WorkerStruct",
          "name": "Worker",
          "type": "tuple"
        }
      ],
      "stateMutability": "view",
      "type": "function"
    },
    {
      "inputs": [
        {
          "internalType": "uint256",
          "name": "pid",
          "type": "uint256"
        }
      ],
      "name": "getPayrollWorkers",
      "outputs": [
        {
          "components": [
            {
              "internalType": "uint256",
              "name": "id",
              "type": "uint256"
            },
            {
              "internalType": "uint256",
              "name": "wid",
              "type": "uint256"
            },
            {
              "internalType": "string",
              "name": "name",
              "type": "string"
            },
            {
              "internalType": "address",
              "name": "account",
              "type": "address"
            },
            {
              "internalType": "uint256",
              "name": "timestamp",
              "type": "uint256"
            }
          ],
          "internalType": "struct DappPayroll.WorkerStruct[]",
          "name": "Workers",
          "type": "tuple[]"
        }
      ],
      "stateMutability": "view",
      "type": "function"
    },
    {
      "inputs": [],
      "name": "getPayrolls",
      "outputs": [
        {
          "components": [
            {
              "internalType": "uint256",
              "name": "id",
              "type": "uint256"
            },
            {
              "internalType": "uint256",
              "name": "oid",
              "type": "uint256"
            },
            {
              "internalType": "string",
              "name": "name",
              "type": "string"
            },
            {
              "internalType": "string",
              "name": "description",
              "type": "string"
            },
            {
              "internalType": "address",
              "name": "officer",
              "type": "address"
            },
            {
              "internalType": "address",
              "name": "organization",
              "type": "address"
            },
            {
              "internalType": "uint256",
              "name": "salary",
              "type": "uint256"
            },
            {
              "internalType": "uint256",
              "name": "workers",
              "type": "uint256"
            },
            {
              "internalType": "uint256",
              "name": "cut",
              "type": "uint256"
            },
            {
              "internalType": "enum DappPayroll.Status",
              "name": "status",
              "type": "uint8"
            },
            {
              "internalType": "uint256",
              "name": "timestamp",
              "type": "uint256"
            }
          ],
          "internalType": "struct DappPayroll.PayrollStruct[]",
          "name": "Payrolls",
          "type": "tuple[]"
        }
      ],
      "stateMutability": "view",
      "type": "function"
    },
    {
      "inputs": [
        {
          "internalType": "uint256",
          "name": "id",
          "type": "uint256"
        }
      ],
      "name": "openPayroll",
      "outputs": [],
      "stateMutability": "nonpayable",
      "type": "function"
    },
    {
      "inputs": [],
      "name": "owner",
      "outputs": [
        {
          "internalType": "address",
          "name": "",
          "type": "address"
        }
      ],
      "stateMutability": "view",
      "type": "function"
    },
    {
      "inputs": [
        {
          "internalType": "uint256",
          "name": "pid",
          "type": "uint256"
        }
      ],
      "name": "payWorkers",
      "outputs": [],
      "stateMutability": "nonpayable",
      "type": "function"
    },
    {
      "inputs": [
        {
          "internalType": "uint256",
          "name": "id",
          "type": "uint256"
        }
      ],
      "name": "rejectPayroll",
      "outputs": [],
      "stateMutability": "nonpayable",
      "type": "function"
    },
    {
      "inputs": [],
      "name": "renounceOwnership",
      "outputs": [],
      "stateMutability": "nonpayable",
      "type": "function"
    },
    {
      "inputs": [
        {
          "internalType": "uint256",
          "name": "id",
          "type": "uint256"
        }
      ],
      "name": "revertPayroll",
      "outputs": [],
      "stateMutability": "nonpayable",
      "type": "function"
    },
    {
      "inputs": [
        {
          "internalType": "uint256",
          "name": "id",
          "type": "uint256"
        }
      ],
      "name": "submitPayroll",
      "outputs": [],
      "stateMutability": "nonpayable",
      "type": "function"
    },
    {
      "inputs": [
        {
          "internalType": "address",
          "name": "newOwner",
          "type": "address"
        }
      ],
      "name": "transferOwnership",
      "outputs": [],
      "stateMutability": "nonpayable",
      "type": "function"
    },
    {
      "inputs": [
        {
          "internalType": "uint256",
          "name": "id",
          "type": "uint256"
        },
        {
          "internalType": "string",
          "name": "name",
          "type": "string"
        },
        {
          "internalType": "string",
          "name": "description",
          "type": "string"
        }
      ],
      "name": "updateOrg",
      "outputs": [],
      "stateMutability": "nonpayable",
      "type": "function"
    },
    {
      "inputs": [
        {
          "internalType": "uint256",
          "name": "id",
          "type": "uint256"
        },
        {
          "internalType": "uint256",
          "name": "oid",
          "type": "uint256"
        },
        {
          "internalType": "string",
          "name": "name",
          "type": "string"
        },
        {
          "internalType": "string",
          "name": "description",
          "type": "string"
        },
        {
          "internalType": "uint256",
          "name": "salary",
          "type": "uint256"
        },
        {
          "internalType": "uint256",
          "name": "cut",
          "type": "uint256"
        }
      ],
      "name": "updatePayroll",
      "outputs": [],
      "stateMutability": "nonpayable",
      "type": "function"
    },
    {
      "inputs": [
        {
          "internalType": "uint256",
          "name": "wid",
          "type": "uint256"
        },
        {
          "internalType": "uint256",
          "name": "pid",
          "type": "uint256"
        },
        {
          "internalType": "string",
          "name": "name",
          "type": "string"
        },
        {
          "internalType": "address",
          "name": "account",
          "type": "address"
        }
      ],
      "name": "updateWorker",
      "outputs": [],
      "stateMutability": "nonpayable",
      "type": "function"
    },
    {
      "inputs": [
        {
          "internalType": "uint256",
          "name": "oid",
          "type": "uint256"
        },
        {
          "internalType": "address",
          "name": "account",
          "type": "address"
        },
        {
          "internalType": "uint256",
          "name": "amount",
          "type": "uint256"
        }
      ],
      "name": "withdrawFrom",
      "outputs": [],
      "stateMutability": "payable",
      "type": "function"
    }
  ],
  "bytecode": "0x60806040523480156200001157600080fd5b506200001d3362000027565b6001805562000077565b600080546001600160a01b038381166001600160a01b0319831681178455604051919092169283917f8be0079c531659141344cd1fd0a4f28419497f9722a3daafe3b4186f6b6457e09190a35050565b61473980620000876000396000f3fe6080604052600436106101cd5760003560e01c80638da5cb5b116100f7578063cc5554d211610095578063dd983f2211610064578063dd983f2214610517578063e8fb165214610537578063ede7677514610557578063f2fde38b1461056c57600080fd5b8063cc5554d2146104a0578063d600c8a7146104c0578063d90abb45146104e0578063dc0c9bb11461050257600080fd5b80639a0a3d5b116100d15780639a0a3d5b14610429578063b7c5464d1461043e578063c2b5aaa21461046b578063c9c0f25e1461048b57600080fd5b80638da5cb5b146103c15780638fb9ac60146103e957806391d40d9e1461040957600080fd5b80634439a88a1161016f578063715018a61161013e578063715018a61461033d5780637a52723e146103525780637aba416b14610374578063815cd8f41461039457600080fd5b80634439a88a146102ca57806346d657b0146102dd57806360f71a81146102fd5780636403e2461461031d57600080fd5b80632a3a7649116101ab5780632a3a7649146102275780632ebd12c9146102475780633dc5da5c1461027d5780633e653f8d1461029d57600080fd5b80631229c5d4146101d25780631dfff6fe146101f45780632155015f14610207575b600080fd5b3480156101de57600080fd5b506101f26101ed366004613b66565b61058c565b005b6101f2610202366004613b9b565b610665565b34801561021357600080fd5b506101f2610222366004613b66565b6107df565b34801561023357600080fd5b506101f2610242366004613bd0565b6108ca565b34801561025357600080fd5b50610267610262366004613b66565b610a00565b6040516102749190613c90565b60405180910390f35b34801561028957600080fd5b506101f2610298366004613e3c565b610bb3565b3480156102a957600080fd5b506102bd6102b8366004613b66565b610f5c565b6040516102749190614018565b6101f26102d8366004613b66565b6113bb565b3480156102e957600080fd5b506101f26102f8366004613b66565b61142b565b34801561030957600080fd5b506101f2610318366004613b66565b611547565b34801561032957600080fd5b506101f2610338366004613b66565b611610565b34801561034957600080fd5b506101f2611701565b34801561035e57600080fd5b50610367611715565b604051610274919061410f565b34801561038057600080fd5b506101f261038f366004614129565b6118ae565b3480156103a057600080fd5b506103b46103af366004613bd0565b611af3565b60405161027491906141a7565b3480156103cd57600080fd5b506000546040516001600160a01b039091168152602001610274565b3480156103f557600080fd5b506101f26104043660046141ba565b611bf5565b34801561041557600080fd5b506101f261042436600461421d565b611d2c565b34801561043557600080fd5b506102bd611e44565b34801561044a57600080fd5b5061045e610459366004613b66565b61224b565b604051610274919061427f565b34801561047757600080fd5b506101f2610486366004613b66565b61242e565b34801561049757600080fd5b506102676126fd565b3480156104ac57600080fd5b506101f26104bb366004614292565b612886565b3480156104cc57600080fd5b506103676104db366004613b66565b612a8f565b3480156104ec57600080fd5b506104f5612c3a565b604051610274919061431a565b34801561050e57600080fd5b506102bd612f20565b34801561052357600080fd5b506101f261053236600461436f565b613249565b34801561054357600080fd5b506101f2610552366004613b66565b613443565b34801561056357600080fd5b506104f561350f565b34801561057857600080fd5b506101f26105873660046143cf565b613753565b6000818152600660205260409020546105c05760405162461bcd60e51b81526004016105b7906143ea565b60405180910390fd5b6000818152600660205260409020600501546001600160a01b031633146105f95760405162461bcd60e51b81526004016105b790614416565b600160008281526006602052604090206009015460ff16600581111561062157610621613f1a565b1461063e5760405162461bcd60e51b81526004016105b790614444565b600081815260066020526040902060090180546004919060ff19166001835b021790555050565b6000838152600560205260409020546106905760405162461bcd60e51b81526004016105b790614472565b6000838152600560205260409020600301546001600160a01b031633146106f05760405162461bcd60e51b8152602060048201526014602482015273556e617574686f72697a656420456e746974792160601b60448201526064016105b7565b6001600160a01b0382166107465760405162461bcd60e51b815260206004820152601960248201527f4163636f756e74206d757374206e6f7420626520656d7074790000000000000060448201526064016105b7565b60008111801561076757506000838152600560205260409020600801548111155b6107aa5760405162461bcd60e51b8152602060048201526014602482015273496e73756666696369656e7420616d6f756e742160601b60448201526064016105b7565b6107b482826137c9565b600083815260056020526040812060080180548392906107d59084906144bf565b9091555050505050565b60008181526006602052604090205461080a5760405162461bcd60e51b81526004016105b7906143ea565b6000818152600660205260409020600401546001600160a01b031633146108435760405162461bcd60e51b81526004016105b790614416565b60008181526006602052604081206009015460ff16600581111561086957610869613f1a565b146108865760405162461bcd60e51b81526004016105b7906144d6565b600081815260066020908152604080832060098101805460ff19166002179055600101548352600590915281206004018054916108c283614506565b919050555050565b60008181526009602090815260408083208584529091529020546109245760405162461bcd60e51b8152602060048201526011602482015270576f726b6572206e6f7420666f756e642160781b60448201526064016105b7565b6000818152600660205260409020600401546001600160a01b0316331461095d5760405162461bcd60e51b81526004016105b790614416565b60008181526009602090815260408083208584529091528120818155600181018290559061098e6002830182613986565b506003810180546001600160a01b0319169055600060049091018190558181526006602052604081206007018054916109c683614506565b909155505060008181526006602090815260408083206001015483526005918290528220018054916109f783614506565b91905055505050565b6000818152600660205260409020600701546060906001600160401b03811115610a2c57610a2c613cf2565b604051908082528060200260200182016040528015610a6557816020015b610a526139c0565b815260200190600190039081610a4a5790505b50905060005b600083815260066020526040902060070154811015610bad57600083815260096020526040812090610a9e83600161451d565b81526020019081526020016000206040518060a00160405290816000820154815260200160018201548152602001600282018054610adb90614535565b80601f0160208091040260200160405190810160405280929190818152602001828054610b0790614535565b8015610b545780601f10610b2957610100808354040283529160200191610b54565b820191906000526020600020905b815481529060010190602001808311610b3757829003601f168201915b505050918352505060038201546001600160a01b031660208201526004909101546040909101528251839083908110610b8f57610b8f61456a565b60200260200101819052508080610ba590614580565b915050610a6b565b50919050565b600083815260066020526040902054610bde5760405162461bcd60e51b81526004016105b7906143ea565b6000838152600660205260409020600401546001600160a01b0316331480610c1f57506000838152600660205260409020600501546001600160a01b031633145b610c3b5760405162461bcd60e51b81526004016105b790614416565b6000825111610c8c5760405162461bcd60e51b815260206004820152601c60248201527f4e616d65732061727261792063616e6e6f7420626520656d707479210000000060448201526064016105b7565b6000815111610cdd5760405162461bcd60e51b815260206004820152601f60248201527f4163636f756e74732061727261792063616e6e6f7420626520656d707479210060448201526064016105b7565b60005b8151811015610f5657610cf7600480546001019055565b610cff6139c0565b6004548152600085815260066020526040902060070154610d2190600161451d565b60208201528351849083908110610d3a57610d3a61456a565b60200260200101518160400181905250828281518110610d5c57610d5c61456a565b60209081029190910101516001600160a01b03166060820152610d7d613863565b60808201526000858152600960209081526040808320828501805185529083529281902084518155925160018401558301518051849392610dc59260028501929101906139f8565b5060608201516003820180546001600160a01b0319166001600160a01b039092169190911790556080909101516004909101556000858152600660205260408120600701805491610e1583614580565b90915550506000858152600660209081526040808320600101548352600591829052822001805491610e4683614580565b919050555060086000848481518110610e6157610e6161456a565b6020908102919091018101516001600160a01b031682528101919091526040016000205460ff16610f4357600160086000858581518110610ea457610ea461456a565b6020908102919091018101516001600160a01b031682528181019290925260409081016000908120805460ff19169415159490941790935583518352600782529182902083518155838201516001820155918301518051849392610f0f9260028501929101906139f8565b5060608201516003820180546001600160a01b0319166001600160a01b039092169190911790556080909101516004909101555b5080610f4e81614580565b915050610ce0565b50505050565b60606000805b60025481101561106157600260066000610f7d84600161451d565b815260208101919091526040016000206009015460ff166005811115610fa557610fa5613f1a565b14158015610fd257508360066000610fbe84600161451d565b815260200190815260200160002060010154145b801561103c57503360066000610fe984600161451d565b81526020810191909152604001600020600401546001600160a01b0316148061103c5750336006600061101d84600161451d565b81526020810191909152604001600020600501546001600160a01b0316145b1561104f578161104b81614580565b9250505b8061105981614580565b915050610f62565b50806001600160401b0381111561107a5761107a613cf2565b6040519080825280602002602001820160405280156110b357816020015b6110a0613a78565b8152602001906001900390816110985790505b5091506000805b6002548110156113b3576002600660006110d584600161451d565b815260208101919091526040016000206009015460ff1660058111156110fd576110fd613f1a565b1415801561112a5750846006600061111684600161451d565b815260200190815260200160002060010154145b80156111945750336006600061114184600161451d565b81526020810191909152604001600020600401546001600160a01b031614806111945750336006600061117584600161451d565b81526020810191909152604001600020600501546001600160a01b0316145b156113a157600660006111a883600161451d565b81526020019081526020016000206040518061016001604052908160008201548152602001600182015481526020016002820180546111e690614535565b80601f016020809104026020016040519081016040528092919081815260200182805461121290614535565b801561125f5780601f106112345761010080835404028352916020019161125f565b820191906000526020600020905b81548152906001019060200180831161124257829003601f168201915b5050505050815260200160038201805461127890614535565b80601f01602080910402602001604051908101604052809291908181526020018280546112a490614535565b80156112f15780601f106112c6576101008083540402835291602001916112f1565b820191906000526020600020905b8154815290600101906020018083116112d457829003601f168201915b505050918352505060048201546001600160a01b03908116602083015260058084015490911660408301526006830154606083015260078301546080830152600883015460a0830152600983015460c09092019160ff169081111561135857611358613f1a565b600581111561136957611369613f1a565b8152602001600a8201548152505084838061138390614580565b9450815181106113955761139561456a565b60200260200101819052505b806113ab81614580565b9150506110ba565b505050919050565b600034116114025760405162461bcd60e51b8152602060048201526014602482015273496e73756666696369656e7420616d6f756e742160601b60448201526064016105b7565b6000818152600560205260408120600701805434929061142390849061451d565b909155505050565b6000818152600660205260409020546114565760405162461bcd60e51b81526004016105b7906143ea565b6000818152600660205260409020600401546001600160a01b031633148061149757506000818152600660205260409020600501546001600160a01b031633145b6114b35760405162461bcd60e51b81526004016105b790614416565b600160008281526006602052604090206009015460ff1660058111156114db576114db613f1a565b148061150c5750600460008281526006602052604090206009015460ff16600581111561150a5761150a613f1a565b145b6115285760405162461bcd60e51b81526004016105b790614444565b6000818152600660205260408120600901805460ff191660018361065d565b6000818152600660205260409020546115725760405162461bcd60e51b81526004016105b7906143ea565b6000818152600660205260409020600401546001600160a01b031633146115ab5760405162461bcd60e51b81526004016105b790614416565b60008181526006602052604081206009015460ff1660058111156115d1576115d1613f1a565b146115ee5760405162461bcd60e51b81526004016105b7906144d6565b600081815260066020526040902060090180546001919060ff1916828061065d565b60008181526006602052604090205461163b5760405162461bcd60e51b81526004016105b7906143ea565b6000818152600660205260409020600401546001600160a01b031633148061167c57506000818152600660205260409020600501546001600160a01b031633145b6116985760405162461bcd60e51b81526004016105b790614416565b600560008281526006602052604090206009015460ff1660058111156116c0576116c0613f1a565b146115285760405162461bcd60e51b8152602060048201526011602482015270506179726f6c6c206e6f7420506169642160781b60448201526064016105b7565b611709613882565b61171360006138dc565b565b61171d613af5565b60005b6003548110156118aa57336005600061173a84600161451d565b81526020810191909152604001600020600301546001600160a01b031614156118985781518261176982614580565b8152505060405180604001604052806011815260200170596f757220476c6f62616c20537461747360781b81525082602001819052506040518060600160405280603881526020016146cc603891396040830152336060830152600560006117d283600161451d565b8152602001908152602001600020600601548260c0018181516117f5919061451d565b9052506005600061180783600161451d565b8152602001908152602001600020600401548260800181815161182a919061451d565b9052506005600061183c83600161451d565b8152602001908152602001600020600501548260a00181815161185f919061451d565b9052506005600061187183600161451d565b8152602001908152602001600020600701548260e001818151611894919061451d565b9052505b806118a281614580565b915050611720565b5090565b6000858152600560205260409020546118d95760405162461bcd60e51b81526004016105b790614472565b600082116118f95760405162461bcd60e51b81526004016105b79061459b565b60008111801561190a575060648111155b6119265760405162461bcd60e51b81526004016105b7906145dc565b60008451116119475760405162461bcd60e51b81526004016105b790614624565b60008351116119685760405162461bcd60e51b81526004016105b790614653565b611976600280546001019055565b61197e613a78565b600254815233608082015260408082018690526060820185905260c08201849052610100820183905260208083018890526000888152600590915220600301546001600160a01b031660a08201526119d4613863565b610140820152805160009081526006602090815260409182902083518155818401516001820155918301518051849392611a159260028501929101906139f8565b5060608201518051611a319160038401916020909101906139f8565b5060808201516004820180546001600160a01b03199081166001600160a01b039384161790915560a0840151600580850180549093169190931617905560c0830151600683015560e0830151600783015561010083015160088301556101208301516009830180549192909160ff1916906001908490811115611ab657611ab6613f1a565b02179055506101409190910151600a909101556000868152600560205260408120600401805491611ae683614580565b9190505550505050505050565b611afb6139c0565b6009600084815260200190815260200160002060008381526020019081526020016000206040518060a00160405290816000820154815260200160018201548152602001600282018054611b4e90614535565b80601f0160208091040260200160405190810160405280929190818152602001828054611b7a90614535565b8015611bc75780601f10611b9c57610100808354040283529160200191611bc7565b820191906000526020600020905b815481529060010190602001808311611baa57829003601f168201915b505050918352505060038201546001600160a01b031660208201526004909101546040909101529392505050565b6000825111611c165760405162461bcd60e51b81526004016105b790614624565b6000815111611c375760405162461bcd60e51b81526004016105b790614653565b611c45600380546001019055565b611c4d613af5565b60035481526020810183905260408101829052336060820152611c6e613863565b61012082015280516000908152600560209081526040909120825181558183015180518493611ca49260018501929101906139f8565b5060408201518051611cc09160028401916020909101906139f8565b5060608201516003820180546001600160a01b0319166001600160a01b039092169190911790556080820151600482015560a0820151600582015560c0820151600682015560e08201516007820155610100820151600882015561012090910151600990910155505050565b600083815260056020526040902054611d575760405162461bcd60e51b81526004016105b790614472565b6000838152600560205260409020600301546001600160a01b03163314611db75760405162461bcd60e51b8152602060048201526014602482015273556e6f7574686f72697a656420656e746974792160601b60448201526064016105b7565b6000825111611dd85760405162461bcd60e51b81526004016105b790614624565b6000815111611df95760405162461bcd60e51b81526004016105b790614653565b60008381526005602090815260409091208351611e1e926001909201918501906139f8565b5060008381526005602090815260409091208251610f56926002909201918401906139f8565b60606000805b600254811015611f1e57600260066000611e6584600161451d565b815260208101919091526040016000206009015460ff166005811115611e8d57611e8d613f1a565b14158015611ef957503360066000611ea684600161451d565b81526020810191909152604001600020600401546001600160a01b03161480611ef957503360066000611eda84600161451d565b81526020810191909152604001600020600501546001600160a01b0316145b15611f0c5781611f0881614580565b9250505b80611f1681614580565b915050611e4a565b50806001600160401b03811115611f3757611f37613cf2565b604051908082528060200260200182016040528015611f7057816020015b611f5d613a78565b815260200190600190039081611f555790505b5091506000805b60025481101561224557600260066000611f9284600161451d565b815260208101919091526040016000206009015460ff166005811115611fba57611fba613f1a565b1415801561202657503360066000611fd384600161451d565b81526020810191909152604001600020600401546001600160a01b031614806120265750336006600061200784600161451d565b81526020810191909152604001600020600501546001600160a01b0316145b15612233576006600061203a83600161451d565b815260200190815260200160002060405180610160016040529081600082015481526020016001820154815260200160028201805461207890614535565b80601f01602080910402602001604051908101604052809291908181526020018280546120a490614535565b80156120f15780601f106120c6576101008083540402835291602001916120f1565b820191906000526020600020905b8154815290600101906020018083116120d457829003601f168201915b5050505050815260200160038201805461210a90614535565b80601f016020809104026020016040519081016040528092919081815260200182805461213690614535565b80156121835780601f1061215857610100808354040283529160200191612183565b820191906000526020600020905b81548152906001019060200180831161216657829003601f168201915b505050918352505060048201546001600160a01b03908116602083015260058084015490911660408301526006830154606083015260078301546080830152600883015460a0830152600983015460c09092019160ff16908111156121ea576121ea613f1a565b60058111156121fb576121fb613f1a565b8152602001600a8201548152505084838061221590614580565b9450815181106122275761222761456a565b60200260200101819052505b8061223d81614580565b915050611f77565b50505090565b612253613a78565b6006600083815260200190815260200160002060405180610160016040529081600082015481526020016001820154815260200160028201805461229690614535565b80601f01602080910402602001604051908101604052809291908181526020018280546122c290614535565b801561230f5780601f106122e45761010080835404028352916020019161230f565b820191906000526020600020905b8154815290600101906020018083116122f257829003601f168201915b5050505050815260200160038201805461232890614535565b80601f016020809104026020016040519081016040528092919081815260200182805461235490614535565b80156123a15780601f10612376576101008083540402835291602001916123a1565b820191906000526020600020905b81548152906001019060200180831161238457829003601f168201915b505050918352505060048201546001600160a01b03908116602083015260058084015490911660408301526006830154606083015260078301546080830152600883015460a0830152600983015460c09092019160ff169081111561240857612408613f1a565b600581111561241957612419613f1a565b8152602001600a820154815250509050919050565b61243661392c565b6000818152600660205260409020546124615760405162461bcd60e51b81526004016105b7906143ea565b6000818152600660205260409020600401546001600160a01b0316331461249a5760405162461bcd60e51b81526004016105b790614416565b600360008281526006602052604090206009015460ff1660058111156124c2576124c2613f1a565b146125075760405162461bcd60e51b8152602060048201526015602482015274506179726f6c6c206e6f7420417070726f7665642160581b60448201526064016105b7565b60008181526006602081905260409091209081015460079091015461252c919061468a565b6000828152600660209081526040808320600101548352600590915290206007015410156125905760405162461bcd60e51b8152602060048201526011602482015270125b9cdd59999a58da595b9d08199d5b99607a1b60448201526064016105b7565b60008181526006602081905260408220600781015491810154600890910154919290916064906125c0908461468a565b6125ca91906146a9565b905060015b8381116126225760008581526009602090815260408083208484529091529020600301546001600160a01b031661260f8161260a85876144bf565b6137c9565b508061261a81614580565b9150506125cf565b5061262d838361468a565b600085815260066020908152604080832060010154835260059091528120600701805490919061265e9084906144bf565b9091555061266e9050838261468a565b600085815260066020908152604080832060010154835260059091528120600801805490919061269f90849061451d565b9091555050600084815260066020818152604080842060010154845260059091528220018054916126cf83614580565b9091555050506000838152600660205260409020600901805460ff1916600517905550506001805550565b50565b606061270860045490565b6001600160401b0381111561271f5761271f613cf2565b60405190808252806020026020018201604052801561275857816020015b6127456139c0565b81526020019060019003908161273d5790505b50905060005b6004548110156118aa576007600061277783600161451d565b81526020019081526020016000206040518060a001604052908160008201548152602001600182015481526020016002820180546127b490614535565b80601f01602080910402602001604051908101604052809291908181526020018280546127e090614535565b801561282d5780601f106128025761010080835404028352916020019161282d565b820191906000526020600020905b81548152906001019060200180831161281057829003601f168201915b505050918352505060038201546001600160a01b0316602082015260049091015460409091015282518390839081106128685761286861456a565b6020026020010181905250808061287e90614580565b91505061275e565b6000868152600660205260409020546128b15760405162461bcd60e51b81526004016105b7906143ea565b6000868152600660205260409020600401546001600160a01b031633146128ea5760405162461bcd60e51b81526004016105b790614416565b6000858152600560205260409020546129155760405162461bcd60e51b81526004016105b790614472565b60008681526006602052604081206009015460ff16600581111561293b5761293b613f1a565b146129585760405162461bcd60e51b81526004016105b7906144d6565b600082116129785760405162461bcd60e51b81526004016105b79061459b565b600081118015612989575060648111155b6129a55760405162461bcd60e51b81526004016105b7906145dc565b60008451116129c65760405162461bcd60e51b81526004016105b790614624565b60008351116129e75760405162461bcd60e51b81526004016105b790614653565b60008681526006602090815260409091208551612a0c926002909201918701906139f8565b5060008681526006602090815260409091208451612a32926003909201918601906139f8565b506000868152600660208181526040808420808401969096556008860194909455968252600580885292822060030154979091529094529290920180546001600160a01b0319166001600160a01b03909416939093179092555050565b612a97613af5565b600560008381526020019081526020016000206040518061014001604052908160008201548152602001600182018054612ad090614535565b80601f0160208091040260200160405190810160405280929190818152602001828054612afc90614535565b8015612b495780601f10612b1e57610100808354040283529160200191612b49565b820191906000526020600020905b815481529060010190602001808311612b2c57829003601f168201915b50505050508152602001600282018054612b6290614535565b80601f0160208091040260200160405190810160405280929190818152602001828054612b8e90614535565b8015612bdb5780601f10612bb057610100808354040283529160200191612bdb565b820191906000526020600020905b815481529060010190602001808311612bbe57829003601f168201915b505050918352505060038201546001600160a01b03166020820152600482015460408201526005820154606082015260068201546080820152600782015460a0820152600882015460c082015260099091015460e09091015292915050565b60606000805b600354811015612c9d573360056000612c5a84600161451d565b81526020810191909152604001600020600301546001600160a01b03161415612c8b5781612c8781614580565b9250505b80612c9581614580565b915050612c40565b506000816001600160401b03811115612cb857612cb8613cf2565b604051908082528060200260200182016040528015612cf157816020015b612cde613af5565b815260200190600190039081612cd65790505b5090506000805b600354811015612f17573360056000612d1284600161451d565b81526020810191909152604001600020600301546001600160a01b03161415612f055760056000612d4483600161451d565b81526020019081526020016000206040518061014001604052908160008201548152602001600182018054612d7890614535565b80601f0160208091040260200160405190810160405280929190818152602001828054612da490614535565b8015612df15780601f10612dc657610100808354040283529160200191612df1565b820191906000526020600020905b815481529060010190602001808311612dd457829003601f168201915b50505050508152602001600282018054612e0a90614535565b80601f0160208091040260200160405190810160405280929190818152602001828054612e3690614535565b8015612e835780601f10612e5857610100808354040283529160200191612e83565b820191906000526020600020905b815481529060010190602001808311612e6657829003601f168201915b505050918352505060038201546001600160a01b03166020820152600482015460408201526005820154606082015260068201546080820152600782015460a0820152600882015460c082015260099091015460e0909101528383612ee781614580565b945081518110612ef957612ef961456a565b60200260200101819052505b80612f0f81614580565b915050612cf8565b50909392505050565b60606000805b600254811015612f8e57600260066000612f4184600161451d565b815260208101919091526040016000206009015460ff166005811115612f6957612f69613f1a565b14612f7c5781612f7881614580565b9250505b80612f8681614580565b915050612f26565b50806001600160401b03811115612fa757612fa7613cf2565b604051908082528060200260200182016040528015612fe057816020015b612fcd613a78565b815260200190600190039081612fc55790505b5091506000805b6002548110156122455760026006600061300284600161451d565b815260208101919091526040016000206009015460ff16600581111561302a5761302a613f1a565b14613237576006600061303e83600161451d565b815260200190815260200160002060405180610160016040529081600082015481526020016001820154815260200160028201805461307c90614535565b80601f01602080910402602001604051908101604052809291908181526020018280546130a890614535565b80156130f55780601f106130ca576101008083540402835291602001916130f5565b820191906000526020600020905b8154815290600101906020018083116130d857829003601f168201915b5050505050815260200160038201805461310e90614535565b80601f016020809104026020016040519081016040528092919081815260200182805461313a90614535565b80156131875780601f1061315c57610100808354040283529160200191613187565b820191906000526020600020905b81548152906001019060200180831161316a57829003601f168201915b505050918352505060048201546001600160a01b03908116602083015260058084015490911660408301526006830154606083015260078301546080830152600883015460a0830152600983015460c09092019160ff16908111156131ee576131ee613f1a565b60058111156131ff576131ff613f1a565b8152602001600a8201548152505084838061321990614580565b94508151811061322b5761322b61456a565b60200260200101819052505b8061324181614580565b915050612fe7565b60008381526009602090815260408083208784529091529020546132a35760405162461bcd60e51b8152602060048201526011602482015270576f726b6572206e6f7420666f756e642160781b60448201526064016105b7565b6000838152600660205260409020600401546001600160a01b03163314806132e457506000838152600660205260409020600501546001600160a01b031633145b6133005760405162461bcd60e51b81526004016105b790614416565b60008251116133215760405162461bcd60e51b81526004016105b790614624565b6001600160a01b0381166133775760405162461bcd60e51b815260206004820152601860248201527f4163636f756e742063616e6e6f7420626520656d70747921000000000000000060448201526064016105b7565b6000838152600960209081526040808320878452825290912083516133a4926002909201918501906139f8565b50600083815260096020908152604080832087845282528083206003810180546001600160a01b0319166001600160a01b0387161790555483526007825290912083516133f9926002909201918501906139f8565b506000928352600960209081526040808520958552948152848420548452600790529290912060030180546001600160a01b0319166001600160a01b039093169290921790915550565b60008181526006602052604090205461346e5760405162461bcd60e51b81526004016105b7906143ea565b6000818152600660205260409020600501546001600160a01b031633146134a75760405162461bcd60e51b81526004016105b790614416565b600160008281526006602052604090206009015460ff1660058111156134cf576134cf613f1a565b146134ec5760405162461bcd60e51b81526004016105b790614444565b600081815260066020526040902060090180546003919060ff191660018361065d565b606061351a60035490565b6001600160401b0381111561353157613531613cf2565b60405190808252806020026020018201604052801561356a57816020015b613557613af5565b81526020019060019003908161354f5790505b50905060005b6003548110156118aa576005600061358983600161451d565b815260200190815260200160002060405180610140016040529081600082015481526020016001820180546135bd90614535565b80601f01602080910402602001604051908101604052809291908181526020018280546135e990614535565b80156136365780601f1061360b57610100808354040283529160200191613636565b820191906000526020600020905b81548152906001019060200180831161361957829003601f168201915b5050505050815260200160028201805461364f90614535565b80601f016020809104026020016040519081016040528092919081815260200182805461367b90614535565b80156136c85780601f1061369d576101008083540402835291602001916136c8565b820191906000526020600020905b8154815290600101906020018083116136ab57829003601f168201915b505050918352505060038201546001600160a01b03166020820152600482015460408201526005820154606082015260068201546080820152600782015460a0820152600882015460c082015260099091015460e09091015282518390839081106137355761373561456a565b6020026020010181905250808061374b90614580565b915050613570565b61375b613882565b6001600160a01b0381166137c05760405162461bcd60e51b815260206004820152602660248201527f4f776e61626c653a206e6577206f776e657220697320746865207a65726f206160448201526564647265737360d01b60648201526084016105b7565b6126fa816138dc565b6000826001600160a01b03168260405160006040518083038185875af1925050503d8060008114613816576040519150601f19603f3d011682016040523d82523d6000602084013e61381b565b606091505b505090508061385e5760405162461bcd60e51b815260206004820152600f60248201526e5061796d656e74206661696c65642160881b60448201526064016105b7565b505050565b6000613871426103e861468a565b61387d906103e861451d565b905090565b6000546001600160a01b031633146117135760405162461bcd60e51b815260206004820181905260248201527f4f776e61626c653a2063616c6c6572206973206e6f7420746865206f776e657260448201526064016105b7565b600080546001600160a01b038381166001600160a01b0319831681178455604051919092169283917f8be0079c531659141344cd1fd0a4f28419497f9722a3daafe3b4186f6b6457e09190a35050565b6002600154141561397f5760405162461bcd60e51b815260206004820152601f60248201527f5265656e7472616e637947756172643a207265656e7472616e742063616c6c0060448201526064016105b7565b6002600155565b50805461399290614535565b6000825580601f106139a2575050565b601f0160209004906000526020600020908101906126fa9190613b51565b6040518060a0016040528060008152602001600081526020016060815260200160006001600160a01b03168152602001600081525090565b828054613a0490614535565b90600052602060002090601f016020900481019282613a265760008555613a6c565b82601f10613a3f57805160ff1916838001178555613a6c565b82800160010185558215613a6c579182015b82811115613a6c578251825591602001919060010190613a51565b506118aa929150613b51565b6040518061016001604052806000815260200160008152602001606081526020016060815260200160006001600160a01b0316815260200160006001600160a01b0316815260200160008152602001600081526020016000815260200160006005811115613ae857613ae8613f1a565b8152602001600081525090565b60405180610140016040528060008152602001606081526020016060815260200160006001600160a01b031681526020016000815260200160008152602001600081526020016000815260200160008152602001600081525090565b5b808211156118aa5760008155600101613b52565b600060208284031215613b7857600080fd5b5035919050565b80356001600160a01b0381168114613b9657600080fd5b919050565b600080600060608486031215613bb057600080fd5b83359250613bc060208501613b7f565b9150604084013590509250925092565b60008060408385031215613be357600080fd5b50508035926020909101359150565b6000815180845260005b81811015613c1857602081850181015186830182015201613bfc565b81811115613c2a576000602083870101525b50601f01601f19169290920160200192915050565b80518252602081015160208301526000604082015160a06040850152613c6860a0850182613bf2565b6060848101516001600160a01b03169086015260809384015193909401929092525090919050565b6000602080830181845280855180835260408601915060408160051b870101925083870160005b82811015613ce557603f19888603018452613cd3858351613c3f565b94509285019290850190600101613cb7565b5092979650505050505050565b634e487b7160e01b600052604160045260246000fd5b604051601f8201601f191681016001600160401b0381118282101715613d3057613d30613cf2565b604052919050565b60006001600160401b03821115613d5157613d51613cf2565b5060051b60200190565b600082601f830112613d6c57600080fd5b81356001600160401b03811115613d8557613d85613cf2565b613d98601f8201601f1916602001613d08565b818152846020838601011115613dad57600080fd5b816020850160208301376000918101602001919091529392505050565b600082601f830112613ddb57600080fd5b81356020613df0613deb83613d38565b613d08565b82815260059290921b84018101918181019086841115613e0f57600080fd5b8286015b84811015613e3157613e2481613b7f565b8352918301918301613e13565b509695505050505050565b600080600060608486031215613e5157600080fd5b833592506020808501356001600160401b0380821115613e7057600080fd5b818701915087601f830112613e8457600080fd5b8135613e92613deb82613d38565b81815260059190911b8301840190848101908a831115613eb157600080fd5b8585015b83811015613ee957803585811115613ecd5760008081fd5b613edb8d89838a0101613d5b565b845250918601918601613eb5565b50965050506040870135925080831115613f0257600080fd5b5050613f1086828701613dca565b9150509250925092565b634e487b7160e01b600052602160045260246000fd5b60068110613f4e57634e487b7160e01b600052602160045260246000fd5b9052565b600061016082518452602083015160208501526040830151816040860152613f7c82860182613bf2565b91505060608301518482036060860152613f968282613bf2565b9150506080830151613fb360808601826001600160a01b03169052565b5060a0830151613fce60a08601826001600160a01b03169052565b5060c083015160c085015260e083015160e08501526101008084015181860152506101208084015161400282870182613f30565b5050610140928301519390920192909252919050565b6000602080830181845280855180835260408601915060408160051b870101925083870160005b82811015613ce557603f1988860301845261405b858351613f52565b9450928501929085019060010161403f565b600061014082518452602083015181602086015261408d82860182613bf2565b915050604083015184820360408601526140a78282613bf2565b91505060608301516140c460608601826001600160a01b03169052565b506080830151608085015260a083015160a085015260c083015160c085015260e083015160e08501526101008084015181860152506101208084015181860152508091505092915050565b602081526000614122602083018461406d565b9392505050565b600080600080600060a0868803121561414157600080fd5b8535945060208601356001600160401b038082111561415f57600080fd5b61416b89838a01613d5b565b9550604088013591508082111561418157600080fd5b5061418e88828901613d5b565b9598949750949560608101359550608001359392505050565b6020815260006141226020830184613c3f565b600080604083850312156141cd57600080fd5b82356001600160401b03808211156141e457600080fd5b6141f086838701613d5b565b9350602085013591508082111561420657600080fd5b5061421385828601613d5b565b9150509250929050565b60008060006060848603121561423257600080fd5b8335925060208401356001600160401b038082111561425057600080fd5b61425c87838801613d5b565b9350604086013591508082111561427257600080fd5b50613f1086828701613d5b565b6020815260006141226020830184613f52565b60008060008060008060c087890312156142ab57600080fd5b863595506020870135945060408701356001600160401b03808211156142d057600080fd5b6142dc8a838b01613d5b565b955060608901359150808211156142f257600080fd5b506142ff89828a01613d5b565b9350506080870135915060a087013590509295509295509295565b6000602080830181845280855180835260408601915060408160051b870101925083870160005b82811015613ce557603f1988860301845261435d85835161406d565b94509285019290850190600101614341565b6000806000806080858703121561438557600080fd5b843593506020850135925060408501356001600160401b038111156143a957600080fd5b6143b587828801613d5b565b9250506143c460608601613b7f565b905092959194509250565b6000602082840312156143e157600080fd5b61412282613b7f565b602080825260129082015271506179726f6c6c206e6f7420666f756e642160701b604082015260600190565b602080825260149082015273556e617574686f72697a656420656e746974792160601b604082015260600190565b602080825260149082015273506179726f6c6c206e6f742050656e64696e672160601b604082015260600190565b60208082526017908201527f4f7267616e697a6174696f6e206e6f7420666f756e6421000000000000000000604082015260600190565b634e487b7160e01b600052601160045260246000fd5b6000828210156144d1576144d16144a9565b500390565b602080825260169082015275506179726f6c6c206e6f7420617661696c61626c652160501b604082015260600190565b600081614515576145156144a9565b506000190190565b60008219821115614530576145306144a9565b500190565b600181811c9082168061454957607f821691505b60208210811415610bad57634e487b7160e01b600052602260045260246000fd5b634e487b7160e01b600052603260045260246000fd5b6000600019821415614594576145946144a9565b5060010190565b60208082526021908201527f53616c617279206d7573742062652067726561746572207468616e207a65726f6040820152602160f81b606082015260800190565b60208082526028908201527f50657263656e7461676520437574206d757374206265206265747765656e202860408201526731202d203130302960c01b606082015260800190565b6020808252601590820152744e616d652063616e6e6f7420626520656d7074792160581b604082015260600190565b6020808252601c908201527f4465736372697074696f6e2063616e6e6f7420626520656d7074792100000000604082015260600190565b60008160001904831182151516156146a4576146a46144a9565b500290565b6000826146c657634e487b7160e01b600052601260045260246000fd5b50049056fe596f7572207374617469737469637320616363726f737320616c6c206f7267616e697a6174696f6e73206372656174656420627920796f75a2646970667358221220821397c849c181ecb1017cece9bb80f501992cbb131afbcd8b5172e81cbc013d64736f6c634300080b0033",
  "linkReferences": {},
  "deployedLinkReferences": {}
}