{
  "_format": "hh-sol-artifact-1",
  "contractName": "DappPayroll",
  "sourceName": "src/contracts/DappPayroll.sol",
  "abi": [
    {
      "anonymous": false,
      "inputs": [
        {
          "indexed": true,
          "internalType": "address",
          "name": "previousOwner",
          "type": "address"
        },
        {
          "indexed": true,
          "internalType": "address",
          "name": "newOwner",
          "type": "address"
        }
      ],
      "name": "OwnershipTransferred",
      "type": "event"
    },
    {
      "inputs": [
        {
          "internalType": "uint256",
          "name": "id",
          "type": "uint256"
        }
      ],
      "name": "approvePayroll",
      "outputs": [],
      "stateMutability": "nonpayable",
      "type": "function"
    },
    {
      "inputs": [
        {
          "internalType": "string",
          "name": "name",
          "type": "string"
        },
        {
          "internalType": "string",
          "name": "description",
          "type": "string"
        }
      ],
      "name": "createOrg",
      "outputs": [],
      "stateMutability": "nonpayable",
      "type": "function"
    },
    {
      "inputs": [
        {
          "internalType": "uint256",
          "name": "oid",
          "type": "uint256"
        },
        {
          "internalType": "string",
          "name": "name",
          "type": "string"
        },
        {
          "internalType": "string",
          "name": "description",
          "type": "string"
        },
        {
          "internalType": "uint256",
          "name": "salary",
          "type": "uint256"
        },
        {
          "internalType": "uint256",
          "name": "cut",
          "type": "uint256"
        }
      ],
      "name": "createPayroll",
      "outputs": [],
      "stateMutability": "nonpayable",
      "type": "function"
    },
    {
      "inputs": [
        {
          "internalType": "uint256",
          "name": "pid",
          "type": "uint256"
        },
        {
          "internalType": "string[]",
          "name": "names",
          "type": "string[]"
        },
        {
          "internalType": "address[]",
          "name": "accounts",
          "type": "address[]"
        }
      ],
      "name": "createWorker",
      "outputs": [],
      "stateMutability": "nonpayable",
      "type": "function"
    },
    {
      "inputs": [
        {
          "internalType": "uint256",
          "name": "id",
          "type": "uint256"
        }
      ],
      "name": "deletePayroll",
      "outputs": [],
      "stateMutability": "nonpayable",
      "type": "function"
    },
    {
      "inputs": [
        {
          "internalType": "uint256",
          "name": "wid",
          "type": "uint256"
        },
        {
          "internalType": "uint256",
          "name": "pid",
          "type": "uint256"
        }
      ],
      "name": "deleteWorker",
      "outputs": [],
      "stateMutability": "nonpayable",
      "type": "function"
    },
    {
      "inputs": [
        {
          "internalType": "uint256",
          "name": "oid",
          "type": "uint256"
        }
      ],
      "name": "fundOrg",
      "outputs": [],
      "stateMutability": "payable",
      "type": "function"
    },
    {
      "inputs": [],
      "name": "getAllWorkers",
      "outputs": [
        {
          "components": [
            {
              "internalType": "uint256",
              "name": "id",
              "type": "uint256"
            },
            {
              "internalType": "uint256",
              "name": "wid",
              "type": "uint256"
            },
            {
              "internalType": "string",
              "name": "name",
              "type": "string"
            },
            {
              "internalType": "address",
              "name": "account",
              "type": "address"
            },
            {
              "internalType": "uint256",
              "name": "timestamp",
              "type": "uint256"
            }
          ],
          "internalType": "struct DappPayroll.WorkerStruct[]",
          "name": "Workers",
          "type": "tuple[]"
        }
      ],
      "stateMutability": "view",
      "type": "function"
    },
    {
      "inputs": [],
      "name": "getMyActivePayrolls",
      "outputs": [
        {
          "components": [
            {
              "internalType": "uint256",
              "name": "id",
              "type": "uint256"
            },
            {
              "internalType": "uint256",
              "name": "oid",
              "type": "uint256"
            },
            {
              "internalType": "string",
              "name": "name",
              "type": "string"
            },
            {
              "internalType": "string",
              "name": "description",
              "type": "string"
            },
            {
              "internalType": "address",
              "name": "officer",
              "type": "address"
            },
            {
              "internalType": "address",
              "name": "organization",
              "type": "address"
            },
            {
              "internalType": "uint256",
              "name": "salary",
              "type": "uint256"
            },
            {
              "internalType": "uint256",
              "name": "workers",
              "type": "uint256"
            },
            {
              "internalType": "uint256",
              "name": "cut",
              "type": "uint256"
            },
            {
              "internalType": "enum DappPayroll.Status",
              "name": "status",
              "type": "uint8"
            },
            {
              "internalType": "uint256",
              "name": "timestamp",
              "type": "uint256"
            }
          ],
          "internalType": "struct DappPayroll.PayrollStruct[]",
          "name": "Payrolls",
          "type": "tuple[]"
        }
      ],
      "stateMutability": "view",
      "type": "function"
    },
    {
      "inputs": [],
      "name": "getMyOrgs",
      "outputs": [
        {
          "components": [
            {
              "internalType": "uint256",
              "name": "id",
              "type": "uint256"
            },
            {
              "internalType": "string",
              "name": "name",
              "type": "string"
            },
            {
              "internalType": "string",
              "name": "description",
              "type": "string"
            },
            {
              "internalType": "address",
              "name": "account",
              "type": "address"
            },
            {
              "internalType": "uint256",
              "name": "payrolls",
              "type": "uint256"
            },
            {
              "internalType": "uint256",
              "name": "workers",
              "type": "uint256"
            },
            {
              "internalType": "uint256",
              "name": "payments",
              "type": "uint256"
            },
            {
              "internalType": "uint256",
              "name": "balance",
              "type": "uint256"
            },
            {
              "internalType": "uint256",
              "name": "cuts",
              "type": "uint256"
            },
            {
              "internalType": "uint256",
              "name": "timestamp",
              "type": "uint256"
            }
          ],
          "internalType": "struct DappPayroll.OrganizationStruct[]",
          "name": "",
          "type": "tuple[]"
        }
      ],
      "stateMutability": "view",
      "type": "function"
    },
    {
      "inputs": [
        {
          "internalType": "uint256",
          "name": "oid",
          "type": "uint256"
        }
      ],
      "name": "getMyPayrollsByOrg",
      "outputs": [
        {
          "components": [
            {
              "internalType": "uint256",
              "name": "id",
              "type": "uint256"
            },
            {
              "internalType": "uint256",
              "name": "oid",
              "type": "uint256"
            },
            {
              "internalType": "string",
              "name": "name",
              "type": "string"
            },
            {
              "internalType": "string",
              "name": "description",
              "type": "string"
            },
            {
              "internalType": "address",
              "name": "officer",
              "type": "address"
            },
            {
              "internalType": "address",
              "name": "organization",
              "type": "address"
            },
            {
              "internalType": "uint256",
              "name": "salary",
              "type": "uint256"
            },
            {
              "internalType": "uint256",
              "name": "workers",
              "type": "uint256"
            },
            {
              "internalType": "uint256",
              "name": "cut",
              "type": "uint256"
            },
            {
              "internalType": "enum DappPayroll.Status",
              "name": "status",
              "type": "uint8"
            },
            {
              "internalType": "uint256",
              "name": "timestamp",
              "type": "uint256"
            }
          ],
          "internalType": "struct DappPayroll.PayrollStruct[]",
          "name": "Payrolls",
          "type": "tuple[]"
        }
      ],
      "stateMutability": "view",
      "type": "function"
    },
    {
      "inputs": [],
      "name": "getMyStats",
      "outputs": [
        {
          "components": [
            {
              "internalType": "uint256",
              "name": "id",
              "type": "uint256"
            },
            {
              "internalType": "string",
              "name": "name",
              "type": "string"
            },
            {
              "internalType": "string",
              "name": "description",
              "type": "string"
            },
            {
              "internalType": "address",
              "name": "account",
              "type": "address"
            },
            {
              "internalType": "uint256",
              "name": "payrolls",
              "type": "uint256"
            },
            {
              "internalType": "uint256",
              "name": "workers",
              "type": "uint256"
            },
            {
              "internalType": "uint256",
              "name": "payments",
              "type": "uint256"
            },
            {
              "internalType": "uint256",
              "name": "balance",
              "type": "uint256"
            },
            {
              "internalType": "uint256",
              "name": "cuts",
              "type": "uint256"
            },
            {
              "internalType": "uint256",
              "name": "timestamp",
              "type": "uint256"
            }
          ],
          "internalType": "struct DappPayroll.OrganizationStruct",
          "name": "Organization",
          "type": "tuple"
        }
      ],
      "stateMutability": "view",
      "type": "function"
    },
    {
      "inputs": [
        {
          "internalType": "uint256",
          "name": "id",
          "type": "uint256"
        }
      ],
      "name": "getOrgById",
      "outputs": [
        {
          "components": [
            {
              "internalType": "uint256",
              "name": "id",
              "type": "uint256"
            },
            {
              "internalType": "string",
              "name": "name",
              "type": "string"
            },
            {
              "internalType": "string",
              "name": "description",
              "type": "string"
            },
            {
              "internalType": "address",
              "name": "account",
              "type": "address"
            },
            {
              "internalType": "uint256",
              "name": "payrolls",
              "type": "uint256"
            },
            {
              "internalType": "uint256",
              "name": "workers",
              "type": "uint256"
            },
            {
              "internalType": "uint256",
              "name": "payments",
              "type": "uint256"
            },
            {
              "internalType": "uint256",
              "name": "balance",
              "type": "uint256"
            },
            {
              "internalType": "uint256",
              "name": "cuts",
              "type": "uint256"
            },
            {
              "internalType": "uint256",
              "name": "timestamp",
              "type": "uint256"
            }
          ],
          "internalType": "struct DappPayroll.OrganizationStruct",
          "name": "Organization",
          "type": "tuple"
        }
      ],
      "stateMutability": "view",
      "type": "function"
    },
    {
      "inputs": [],
      "name": "getOrgs",
      "outputs": [
        {
          "components": [
            {
              "internalType": "uint256",
              "name": "id",
              "type": "uint256"
            },
            {
              "internalType": "string",
              "name": "name",
              "type": "string"
            },
            {
              "internalType": "string",
              "name": "description",
              "type": "string"
            },
            {
              "internalType": "address",
              "name": "account",
              "type": "address"
            },
            {
              "internalType": "uint256",
              "name": "payrolls",
              "type": "uint256"
            },
            {
              "internalType": "uint256",
              "name": "workers",
              "type": "uint256"
            },
            {
              "internalType": "uint256",
              "name": "payments",
              "type": "uint256"
            },
            {
              "internalType": "uint256",
              "name": "balance",
              "type": "uint256"
            },
            {
              "internalType": "uint256",
              "name": "cuts",
              "type": "uint256"
            },
            {
              "internalType": "uint256",
              "name": "timestamp",
              "type": "uint256"
            }
          ],
          "internalType": "struct DappPayroll.OrganizationStruct[]",
          "name": "Organization",
          "type": "tuple[]"
        }
      ],
      "stateMutability": "view",
      "type": "function"
    },
    {
      "inputs": [
        {
          "internalType": "uint256",
          "name": "id",
          "type": "uint256"
        }
      ],
      "name": "getPayrollById",
      "outputs": [
        {
          "components": [
            {
              "internalType": "uint256",
              "name": "id",
              "type": "uint256"
            },
            {
              "internalType": "uint256",
              "name": "oid",
              "type": "uint256"
            },
            {
              "internalType": "string",
              "name": "name",
              "type": "string"
            },
            {
              "internalType": "string",
              "name": "description",
              "type": "string"
            },
            {
              "internalType": "address",
              "name": "officer",
              "type": "address"
            },
            {
              "internalType": "address",
              "name": "organization",
              "type": "address"
            },
            {
              "internalType": "uint256",
              "name": "salary",
              "type": "uint256"
            },
            {
              "internalType": "uint256",
              "name": "workers",
              "type": "uint256"
            },
            {
              "internalType": "uint256",
              "name": "cut",
              "type": "uint256"
            },
            {
              "internalType": "enum DappPayroll.Status",
              "name": "status",
              "type": "uint8"
            },
            {
              "internalType": "uint256",
              "name": "timestamp",
              "type": "uint256"
            }
          ],
          "internalType": "struct DappPayroll.PayrollStruct",
          "name": "",
          "type": "tuple"
        }
      ],
      "stateMutability": "view",
      "type": "function"
    },
    {
      "inputs": [
        {
          "internalType": "uint256",
          "name": "pid",
          "type": "uint256"
        },
        {
          "internalType": "uint256",
          "name": "wid",
          "type": "uint256"
        }
      ],
      "name": "getPayrollWorker",
      "outputs": [
        {
          "components": [
            {
              "internalType": "uint256",
              "name": "id",
              "type": "uint256"
            },
            {
              "internalType": "uint256",
              "name": "wid",
              "type": "uint256"
            },
            {
              "internalType": "string",
              "name": "name",
              "type": "string"
            },
            {
              "internalType": "address",
              "name": "account",
              "type": "address"
            },
            {
              "internalType": "uint256",
              "name": "timestamp",
              "type": "uint256"
            }
          ],
          "internalType": "struct DappPayroll.WorkerStruct",
          "name": "Worker",
          "type": "tuple"
        }
      ],
      "stateMutability": "view",
      "type": "function"
    },
    {
      "inputs": [
        {
          "internalType": "uint256",
          "name": "pid",
          "type": "uint256"
        }
      ],
      "name": "getPayrollWorkers",
      "outputs": [
        {
          "components": [
            {
              "internalType": "uint256",
              "name": "id",
              "type": "uint256"
            },
            {
              "internalType": "uint256",
              "name": "wid",
              "type": "uint256"
            },
            {
              "internalType": "string",
              "name": "name",
              "type": "string"
            },
            {
              "internalType": "address",
              "name": "account",
              "type": "address"
            },
            {
              "internalType": "uint256",
              "name": "timestamp",
              "type": "uint256"
            }
          ],
          "internalType": "struct DappPayroll.WorkerStruct[]",
          "name": "Workers",
          "type": "tuple[]"
        }
      ],
      "stateMutability": "view",
      "type": "function"
    },
    {
      "inputs": [],
      "name": "getPayrolls",
      "outputs": [
        {
          "components": [
            {
              "internalType": "uint256",
              "name": "id",
              "type": "uint256"
            },
            {
              "internalType": "uint256",
              "name": "oid",
              "type": "uint256"
            },
            {
              "internalType": "string",
              "name": "name",
              "type": "string"
            },
            {
              "internalType": "string",
              "name": "description",
              "type": "string"
            },
            {
              "internalType": "address",
              "name": "officer",
              "type": "address"
            },
            {
              "internalType": "address",
              "name": "organization",
              "type": "address"
            },
            {
              "internalType": "uint256",
              "name": "salary",
              "type": "uint256"
            },
            {
              "internalType": "uint256",
              "name": "workers",
              "type": "uint256"
            },
            {
              "internalType": "uint256",
              "name": "cut",
              "type": "uint256"
            },
            {
              "internalType": "enum DappPayroll.Status",
              "name": "status",
              "type": "uint8"
            },
            {
              "internalType": "uint256",
              "name": "timestamp",
              "type": "uint256"
            }
          ],
          "internalType": "struct DappPayroll.PayrollStruct[]",
          "name": "Payrolls",
          "type": "tuple[]"
        }
      ],
      "stateMutability": "view",
      "type": "function"
    },
    {
      "inputs": [
        {
          "internalType": "uint256",
          "name": "id",
          "type": "uint256"
        }
      ],
      "name": "openPayroll",
      "outputs": [],
      "stateMutability": "nonpayable",
      "type": "function"
    },
    {
      "inputs": [],
      "name": "owner",
      "outputs": [
        {
          "internalType": "address",
          "name": "",
          "type": "address"
        }
      ],
      "stateMutability": "view",
      "type": "function"
    },
    {
      "inputs": [
        {
          "internalType": "uint256",
          "name": "pid",
          "type": "uint256"
        }
      ],
      "name": "payWorkers",
      "outputs": [],
      "stateMutability": "nonpayable",
      "type": "function"
    },
    {
      "inputs": [
        {
          "internalType": "uint256",
          "name": "id",
          "type": "uint256"
        }
      ],
      "name": "rejectPayroll",
      "outputs": [],
      "stateMutability": "nonpayable",
      "type": "function"
    },
    {
      "inputs": [],
      "name": "renounceOwnership",
      "outputs": [],
      "stateMutability": "nonpayable",
      "type": "function"
    },
    {
      "inputs": [
        {
          "internalType": "uint256",
          "name": "id",
          "type": "uint256"
        }
      ],
      "name": "submitPayroll",
      "outputs": [],
      "stateMutability": "nonpayable",
      "type": "function"
    },
    {
      "inputs": [
        {
          "internalType": "address",
          "name": "newOwner",
          "type": "address"
        }
      ],
      "name": "transferOwnership",
      "outputs": [],
      "stateMutability": "nonpayable",
      "type": "function"
    },
    {
      "inputs": [
        {
          "internalType": "uint256",
          "name": "id",
          "type": "uint256"
        },
        {
          "internalType": "string",
          "name": "name",
          "type": "string"
        },
        {
          "internalType": "string",
          "name": "description",
          "type": "string"
        }
      ],
      "name": "updateOrg",
      "outputs": [],
      "stateMutability": "nonpayable",
      "type": "function"
    },
    {
      "inputs": [
        {
          "internalType": "uint256",
          "name": "id",
          "type": "uint256"
        },
        {
          "internalType": "uint256",
          "name": "oid",
          "type": "uint256"
        },
        {
          "internalType": "uint256",
          "name": "salary",
          "type": "uint256"
        },
        {
          "internalType": "uint256",
          "name": "cut",
          "type": "uint256"
        },
        {
          "internalType": "string",
          "name": "name",
          "type": "string"
        },
        {
          "internalType": "string",
          "name": "description",
          "type": "string"
        }
      ],
      "name": "updatePayroll",
      "outputs": [],
      "stateMutability": "nonpayable",
      "type": "function"
    },
    {
      "inputs": [
        {
          "internalType": "uint256",
          "name": "wid",
          "type": "uint256"
        },
        {
          "internalType": "uint256",
          "name": "pid",
          "type": "uint256"
        },
        {
          "internalType": "string",
          "name": "name",
          "type": "string"
        },
        {
          "internalType": "address",
          "name": "account",
          "type": "address"
        }
      ],
      "name": "updateWorker",
      "outputs": [],
      "stateMutability": "nonpayable",
      "type": "function"
    }
  ],
  "bytecode": "0x60806040523480156200001157600080fd5b506200001d3362000027565b6001805562000077565b600080546001600160a01b038381166001600160a01b0319831681178455604051919092169283917f8be0079c531659141344cd1fd0a4f28419497f9722a3daafe3b4186f6b6457e09190a35050565b6143f080620000876000396000f3fe6080604052600436106101b75760003560e01c80638da5cb5b116100ec578063d600c8a71161008a578063dd983f2211610064578063dd983f22146104ce578063e8fb1652146104ee578063ede767751461050e578063f2fde38b1461052357600080fd5b8063d600c8a714610477578063d90abb4514610497578063dc0c9bb1146104b957600080fd5b80639a0a3d5b116100c65780639a0a3d5b14610400578063b7c5464d14610415578063c2b5aaa214610442578063c9c0f25e1461046257600080fd5b80638da5cb5b146103985780638fb9ac60146103c057806391d40d9e146103e057600080fd5b80634439a88a11610159578063715018a611610133578063715018a6146103145780637a52723e146103295780637aba416b1461034b578063815cd8f41461036b57600080fd5b80634439a88a146102c157806360f71a81146102d45780636403e246146102f457600080fd5b80632a3a7649116101955780632a3a76491461021e5780632ebd12c91461023e5780633dc5da5c146102745780633e653f8d1461029457600080fd5b80631229c5d4146101bc57806315df792e146101de5780632155015f146101fe575b600080fd5b3480156101c857600080fd5b506101dc6101d7366004613852565b610543565b005b3480156101ea57600080fd5b506101dc6101f9366004613920565b61061c565b34801561020a57600080fd5b506101dc610219366004613852565b610821565b34801561022a57600080fd5b506101dc6102393660046139a8565b61090c565b34801561024a57600080fd5b5061025e610259366004613852565b610a20565b60405161026b9190613a68565b60405180910390f35b34801561028057600080fd5b506101dc61028f366004613b7b565b610bd3565b3480156102a057600080fd5b506102b46102af366004613852565b610f7c565b60405161026b9190613d57565b6101dc6102cf366004613852565b6113db565b3480156102e057600080fd5b506101dc6102ef366004613852565b61144b565b34801561030057600080fd5b506101dc61030f366004613852565b611514565b34801561032057600080fd5b506101dc611600565b34801561033557600080fd5b5061033e611614565b60405161026b9190613e4e565b34801561035757600080fd5b506101dc610366366004613e68565b6117ad565b34801561037757600080fd5b5061038b6103863660046139a8565b6119f2565b60405161026b9190613ee6565b3480156103a457600080fd5b506000546040516001600160a01b03909116815260200161026b565b3480156103cc57600080fd5b506101dc6103db366004613ef9565b611af4565b3480156103ec57600080fd5b506101dc6103fb366004613f5c565b611c2b565b34801561040c57600080fd5b506102b4611d43565b34801561042157600080fd5b50610435610430366004613852565b61214a565b60405161026b9190613fbe565b34801561044e57600080fd5b506101dc61045d366004613852565b61232d565b34801561046e57600080fd5b5061025e6125f2565b34801561048357600080fd5b5061033e610492366004613852565b61277b565b3480156104a357600080fd5b506104ac612926565b60405161026b9190613fd1565b3480156104c557600080fd5b506102b4612c0c565b3480156104da57600080fd5b506101dc6104e9366004614026565b612f35565b3480156104fa57600080fd5b506101dc610509366004613852565b61312f565b34801561051a57600080fd5b506104ac6131fb565b34801561052f57600080fd5b506101dc61053e366004614086565b61343f565b6000818152600660205260409020546105775760405162461bcd60e51b815260040161056e906140a1565b60405180910390fd5b6000818152600660205260409020600501546001600160a01b031633146105b05760405162461bcd60e51b815260040161056e906140cd565b600160008281526006602052604090206009015460ff1660058111156105d8576105d8613c59565b146105f55760405162461bcd60e51b815260040161056e906140fb565b600081815260066020526040902060090180546004919060ff19166001835b021790555050565b6000868152600660205260409020546106475760405162461bcd60e51b815260040161056e906140a1565b6000868152600660205260409020600401546001600160a01b031633146106805760405162461bcd60e51b815260040161056e906140cd565b6000858152600560205260409020546106ab5760405162461bcd60e51b815260040161056e90614129565b60008681526006602052604081206009015460ff1660058111156106d1576106d1613c59565b146106ee5760405162461bcd60e51b815260040161056e90614160565b6000841161070e5760405162461bcd60e51b815260040161056e90614190565b60008311801561071f575060648311155b61073b5760405162461bcd60e51b815260040161056e906141d1565b600082511161075c5760405162461bcd60e51b815260040161056e90614219565b600081511161077d5760405162461bcd60e51b815260040161056e90614248565b600086815260066020908152604090912083516107a292600290920191850190613672565b50600086815260066020908152604090912082516107c892600390920191840190613672565b5050506000848152600660208181526040808420808401969096556008860194909455948252600580865292822060030154959091529092520180546001600160a01b0319166001600160a01b03909216919091179055565b60008181526006602052604090205461084c5760405162461bcd60e51b815260040161056e906140a1565b6000818152600660205260409020600401546001600160a01b031633146108855760405162461bcd60e51b815260040161056e906140cd565b60008181526006602052604081206009015460ff1660058111156108ab576108ab613c59565b146108c85760405162461bcd60e51b815260040161056e90614160565b600081815260066020908152604080832060098101805460ff191660021790556001015483526005909152812060040180549161090483614295565b919050555050565b60008181526009602090815260408083208584529091529020546109665760405162461bcd60e51b8152602060048201526011602482015270576f726b6572206e6f7420666f756e642160781b604482015260640161056e565b6000818152600660205260409020600401546001600160a01b0316331461099f5760405162461bcd60e51b815260040161056e906140cd565b6000818152600960209081526040808320858452909152812081815560018101829055906109d060028301826136f2565b506003810180546001600160a01b031916905560006004909101819055818152600660209081526040808320600101548352600591829052822001805491610a1783614295565b91905055505050565b6000818152600660205260409020600701546060906001600160401b03811115610a4c57610a4c61386b565b604051908082528060200260200182016040528015610a8557816020015b610a7261372c565b815260200190600190039081610a6a5790505b50905060005b600083815260066020526040902060070154811015610bcd57600083815260096020526040812090610abe8360016142ac565b81526020019081526020016000206040518060a00160405290816000820154815260200160018201548152602001600282018054610afb906142c4565b80601f0160208091040260200160405190810160405280929190818152602001828054610b27906142c4565b8015610b745780601f10610b4957610100808354040283529160200191610b74565b820191906000526020600020905b815481529060010190602001808311610b5757829003601f168201915b505050918352505060038201546001600160a01b031660208201526004909101546040909101528251839083908110610baf57610baf6142f9565b60200260200101819052508080610bc59061430f565b915050610a8b565b50919050565b600083815260066020526040902054610bfe5760405162461bcd60e51b815260040161056e906140a1565b6000838152600660205260409020600401546001600160a01b0316331480610c3f57506000838152600660205260409020600501546001600160a01b031633145b610c5b5760405162461bcd60e51b815260040161056e906140cd565b6000825111610cac5760405162461bcd60e51b815260206004820152601c60248201527f4e616d65732061727261792063616e6e6f7420626520656d7074792100000000604482015260640161056e565b6000815111610cfd5760405162461bcd60e51b815260206004820152601f60248201527f4163636f756e74732061727261792063616e6e6f7420626520656d7074792100604482015260640161056e565b60005b8151811015610f7657610d17600480546001019055565b610d1f61372c565b6004548152600085815260066020526040902060070154610d419060016142ac565b60208201528351849083908110610d5a57610d5a6142f9565b60200260200101518160400181905250828281518110610d7c57610d7c6142f9565b60209081029190910101516001600160a01b03166060820152610d9d6134b5565b60808201526000858152600960209081526040808320828501805185529083529281902084518155925160018401558301518051849392610de5926002850192910190613672565b5060608201516003820180546001600160a01b0319166001600160a01b039092169190911790556080909101516004909101556000858152600660205260408120600701805491610e358361430f565b90915550506000858152600660209081526040808320600101548352600591829052822001805491610e668361430f565b919050555060086000848481518110610e8157610e816142f9565b6020908102919091018101516001600160a01b031682528101919091526040016000205460ff16610f6357600160086000858581518110610ec457610ec46142f9565b6020908102919091018101516001600160a01b031682528181019290925260409081016000908120805460ff19169415159490941790935583518352600782529182902083518155838201516001820155918301518051849392610f2f926002850192910190613672565b5060608201516003820180546001600160a01b0319166001600160a01b039092169190911790556080909101516004909101555b5080610f6e8161430f565b915050610d00565b50505050565b60606000805b60025481101561108157600260066000610f9d8460016142ac565b815260208101919091526040016000206009015460ff166005811115610fc557610fc5613c59565b14158015610ff257508360066000610fde8460016142ac565b815260200190815260200160002060010154145b801561105c575033600660006110098460016142ac565b81526020810191909152604001600020600401546001600160a01b0316148061105c5750336006600061103d8460016142ac565b81526020810191909152604001600020600501546001600160a01b0316145b1561106f578161106b8161430f565b9250505b806110798161430f565b915050610f82565b50806001600160401b0381111561109a5761109a61386b565b6040519080825280602002602001820160405280156110d357816020015b6110c0613764565b8152602001906001900390816110b85790505b5091506000805b6002548110156113d3576002600660006110f58460016142ac565b815260208101919091526040016000206009015460ff16600581111561111d5761111d613c59565b1415801561114a575084600660006111368460016142ac565b815260200190815260200160002060010154145b80156111b4575033600660006111618460016142ac565b81526020810191909152604001600020600401546001600160a01b031614806111b4575033600660006111958460016142ac565b81526020810191909152604001600020600501546001600160a01b0316145b156113c157600660006111c88360016142ac565b8152602001908152602001600020604051806101600160405290816000820154815260200160018201548152602001600282018054611206906142c4565b80601f0160208091040260200160405190810160405280929190818152602001828054611232906142c4565b801561127f5780601f106112545761010080835404028352916020019161127f565b820191906000526020600020905b81548152906001019060200180831161126257829003601f168201915b50505050508152602001600382018054611298906142c4565b80601f01602080910402602001604051908101604052809291908181526020018280546112c4906142c4565b80156113115780601f106112e657610100808354040283529160200191611311565b820191906000526020600020905b8154815290600101906020018083116112f457829003601f168201915b505050918352505060048201546001600160a01b03908116602083015260058084015490911660408301526006830154606083015260078301546080830152600883015460a0830152600983015460c09092019160ff169081111561137857611378613c59565b600581111561138957611389613c59565b8152602001600a820154815250508483806113a39061430f565b9450815181106113b5576113b56142f9565b60200260200101819052505b806113cb8161430f565b9150506110da565b505050919050565b600034116114225760405162461bcd60e51b8152602060048201526014602482015273496e73756666696369656e7420616d6f756e742160601b604482015260640161056e565b600081815260056020526040812060070180543492906114439084906142ac565b909155505050565b6000818152600660205260409020546114765760405162461bcd60e51b815260040161056e906140a1565b6000818152600660205260409020600401546001600160a01b031633146114af5760405162461bcd60e51b815260040161056e906140cd565b60008181526006602052604081206009015460ff1660058111156114d5576114d5613c59565b146114f25760405162461bcd60e51b815260040161056e90614160565b600081815260066020526040902060090180546001919060ff19168280610614565b60008181526006602052604090205461153f5760405162461bcd60e51b815260040161056e906140a1565b6000818152600660205260409020600401546001600160a01b031633148061158057506000818152600660205260409020600501546001600160a01b031633145b61159c5760405162461bcd60e51b815260040161056e906140cd565b600160008281526006602052604090206009015460ff1660058111156115c4576115c4613c59565b146115e15760405162461bcd60e51b815260040161056e906140fb565b6000818152600660205260408120600901805460ff1916600183610614565b6116086134d4565b611612600061352e565b565b61161c6137e1565b60005b6003548110156117a95733600560006116398460016142ac565b81526020810191909152604001600020600301546001600160a01b03161415611797578151826116688261430f565b8152505060405180604001604052806011815260200170596f757220476c6f62616c20537461747360781b8152508260200181905250604051806060016040528060388152602001614383603891396040830152336060830152600560006116d18360016142ac565b8152602001908152602001600020600601548260c0018181516116f491906142ac565b905250600560006117068360016142ac565b8152602001908152602001600020600401548260800181815161172991906142ac565b9052506005600061173b8360016142ac565b8152602001908152602001600020600501548260a00181815161175e91906142ac565b905250600560006117708360016142ac565b8152602001908152602001600020600701548260e00181815161179391906142ac565b9052505b806117a18161430f565b91505061161f565b5090565b6000858152600560205260409020546117d85760405162461bcd60e51b815260040161056e90614129565b600082116117f85760405162461bcd60e51b815260040161056e90614190565b600081118015611809575060648111155b6118255760405162461bcd60e51b815260040161056e906141d1565b60008451116118465760405162461bcd60e51b815260040161056e90614219565b60008351116118675760405162461bcd60e51b815260040161056e90614248565b611875600280546001019055565b61187d613764565b600254815233608082015260408082018690526060820185905260c08201849052610100820183905260208083018890526000888152600590915220600301546001600160a01b031660a08201526118d36134b5565b610140820152805160009081526006602090815260409182902083518155818401516001820155918301518051849392611914926002850192910190613672565b5060608201518051611930916003840191602090910190613672565b5060808201516004820180546001600160a01b03199081166001600160a01b039384161790915560a0840151600580850180549093169190931617905560c0830151600683015560e0830151600783015561010083015160088301556101208301516009830180549192909160ff19169060019084908111156119b5576119b5613c59565b02179055506101409190910151600a9091015560008681526005602052604081206004018054916119e58361430f565b9190505550505050505050565b6119fa61372c565b6009600084815260200190815260200160002060008381526020019081526020016000206040518060a00160405290816000820154815260200160018201548152602001600282018054611a4d906142c4565b80601f0160208091040260200160405190810160405280929190818152602001828054611a79906142c4565b8015611ac65780601f10611a9b57610100808354040283529160200191611ac6565b820191906000526020600020905b815481529060010190602001808311611aa957829003601f168201915b505050918352505060038201546001600160a01b031660208201526004909101546040909101529392505050565b6000825111611b155760405162461bcd60e51b815260040161056e90614219565b6000815111611b365760405162461bcd60e51b815260040161056e90614248565b611b44600380546001019055565b611b4c6137e1565b60035481526020810183905260408101829052336060820152611b6d6134b5565b61012082015280516000908152600560209081526040909120825181558183015180518493611ba3926001850192910190613672565b5060408201518051611bbf916002840191602090910190613672565b5060608201516003820180546001600160a01b0319166001600160a01b039092169190911790556080820151600482015560a0820151600582015560c0820151600682015560e08201516007820155610100820151600882015561012090910151600990910155505050565b600083815260056020526040902054611c565760405162461bcd60e51b815260040161056e90614129565b6000838152600560205260409020600301546001600160a01b03163314611cb65760405162461bcd60e51b8152602060048201526014602482015273556e6f7574686f72697a656420656e746974792160601b604482015260640161056e565b6000825111611cd75760405162461bcd60e51b815260040161056e90614219565b6000815111611cf85760405162461bcd60e51b815260040161056e90614248565b60008381526005602090815260409091208351611d1d92600190920191850190613672565b5060008381526005602090815260409091208251610f7692600290920191840190613672565b60606000805b600254811015611e1d57600260066000611d648460016142ac565b815260208101919091526040016000206009015460ff166005811115611d8c57611d8c613c59565b14158015611df857503360066000611da58460016142ac565b81526020810191909152604001600020600401546001600160a01b03161480611df857503360066000611dd98460016142ac565b81526020810191909152604001600020600501546001600160a01b0316145b15611e0b5781611e078161430f565b9250505b80611e158161430f565b915050611d49565b50806001600160401b03811115611e3657611e3661386b565b604051908082528060200260200182016040528015611e6f57816020015b611e5c613764565b815260200190600190039081611e545790505b5091506000805b60025481101561214457600260066000611e918460016142ac565b815260208101919091526040016000206009015460ff166005811115611eb957611eb9613c59565b14158015611f2557503360066000611ed28460016142ac565b81526020810191909152604001600020600401546001600160a01b03161480611f2557503360066000611f068460016142ac565b81526020810191909152604001600020600501546001600160a01b0316145b156121325760066000611f398360016142ac565b8152602001908152602001600020604051806101600160405290816000820154815260200160018201548152602001600282018054611f77906142c4565b80601f0160208091040260200160405190810160405280929190818152602001828054611fa3906142c4565b8015611ff05780601f10611fc557610100808354040283529160200191611ff0565b820191906000526020600020905b815481529060010190602001808311611fd357829003601f168201915b50505050508152602001600382018054612009906142c4565b80601f0160208091040260200160405190810160405280929190818152602001828054612035906142c4565b80156120825780601f1061205757610100808354040283529160200191612082565b820191906000526020600020905b81548152906001019060200180831161206557829003601f168201915b505050918352505060048201546001600160a01b03908116602083015260058084015490911660408301526006830154606083015260078301546080830152600883015460a0830152600983015460c09092019160ff16908111156120e9576120e9613c59565b60058111156120fa576120fa613c59565b8152602001600a820154815250508483806121149061430f565b945081518110612126576121266142f9565b60200260200101819052505b8061213c8161430f565b915050611e76565b50505090565b612152613764565b60066000838152602001908152602001600020604051806101600160405290816000820154815260200160018201548152602001600282018054612195906142c4565b80601f01602080910402602001604051908101604052809291908181526020018280546121c1906142c4565b801561220e5780601f106121e35761010080835404028352916020019161220e565b820191906000526020600020905b8154815290600101906020018083116121f157829003601f168201915b50505050508152602001600382018054612227906142c4565b80601f0160208091040260200160405190810160405280929190818152602001828054612253906142c4565b80156122a05780601f10612275576101008083540402835291602001916122a0565b820191906000526020600020905b81548152906001019060200180831161228357829003601f168201915b505050918352505060048201546001600160a01b03908116602083015260058084015490911660408301526006830154606083015260078301546080830152600883015460a0830152600983015460c09092019160ff169081111561230757612307613c59565b600581111561231857612318613c59565b8152602001600a820154815250509050919050565b61233561357e565b6000818152600660205260409020546123605760405162461bcd60e51b815260040161056e906140a1565b6000818152600660205260409020600401546001600160a01b031633146123995760405162461bcd60e51b815260040161056e906140cd565b600360008281526006602052604090206009015460ff1660058111156123c1576123c1613c59565b146124065760405162461bcd60e51b8152602060048201526015602482015274506179726f6c6c206e6f7420417070726f7665642160581b604482015260640161056e565b60008181526006602081905260409091209081015460079091015461242b919061432a565b60008281526006602090815260408083206001015483526005909152902060070154101561248f5760405162461bcd60e51b8152602060048201526011602482015270125b9cdd59999a58da595b9d08199d5b99607a1b604482015260640161056e565b600081815260066020819052604082206007810154910154909160646124b5838061432a565b6124bf9190614349565b905060015b8381116125175760008581526009602090815260408083208484529091529020600301546001600160a01b0316612504816124ff858761436b565b6135d8565b508061250f8161430f565b9150506124c4565b50612522838361432a565b600085815260066020908152604080832060010154835260059091528120600701805490919061255390849061436b565b909155506125639050838261432a565b60008581526006602090815260408083206001015483526005909152812060080180549091906125949084906142ac565b9091555050600084815260066020818152604080842060010154845260059091528220018054916125c48361430f565b9091555050506000838152600660205260409020600901805460ff1916600517905550506001805550565b50565b60606125fd60045490565b6001600160401b038111156126145761261461386b565b60405190808252806020026020018201604052801561264d57816020015b61263a61372c565b8152602001906001900390816126325790505b50905060005b6004548110156117a9576007600061266c8360016142ac565b81526020019081526020016000206040518060a001604052908160008201548152602001600182015481526020016002820180546126a9906142c4565b80601f01602080910402602001604051908101604052809291908181526020018280546126d5906142c4565b80156127225780601f106126f757610100808354040283529160200191612722565b820191906000526020600020905b81548152906001019060200180831161270557829003601f168201915b505050918352505060038201546001600160a01b03166020820152600490910154604090910152825183908390811061275d5761275d6142f9565b602002602001018190525080806127739061430f565b915050612653565b6127836137e1565b6005600083815260200190815260200160002060405180610140016040529081600082015481526020016001820180546127bc906142c4565b80601f01602080910402602001604051908101604052809291908181526020018280546127e8906142c4565b80156128355780601f1061280a57610100808354040283529160200191612835565b820191906000526020600020905b81548152906001019060200180831161281857829003601f168201915b5050505050815260200160028201805461284e906142c4565b80601f016020809104026020016040519081016040528092919081815260200182805461287a906142c4565b80156128c75780601f1061289c576101008083540402835291602001916128c7565b820191906000526020600020905b8154815290600101906020018083116128aa57829003601f168201915b505050918352505060038201546001600160a01b03166020820152600482015460408201526005820154606082015260068201546080820152600782015460a0820152600882015460c082015260099091015460e09091015292915050565b60606000805b6003548110156129895733600560006129468460016142ac565b81526020810191909152604001600020600301546001600160a01b0316141561297757816129738161430f565b9250505b806129818161430f565b91505061292c565b506000816001600160401b038111156129a4576129a461386b565b6040519080825280602002602001820160405280156129dd57816020015b6129ca6137e1565b8152602001906001900390816129c25790505b5090506000805b600354811015612c035733600560006129fe8460016142ac565b81526020810191909152604001600020600301546001600160a01b03161415612bf15760056000612a308360016142ac565b81526020019081526020016000206040518061014001604052908160008201548152602001600182018054612a64906142c4565b80601f0160208091040260200160405190810160405280929190818152602001828054612a90906142c4565b8015612add5780601f10612ab257610100808354040283529160200191612add565b820191906000526020600020905b815481529060010190602001808311612ac057829003601f168201915b50505050508152602001600282018054612af6906142c4565b80601f0160208091040260200160405190810160405280929190818152602001828054612b22906142c4565b8015612b6f5780601f10612b4457610100808354040283529160200191612b6f565b820191906000526020600020905b815481529060010190602001808311612b5257829003601f168201915b505050918352505060038201546001600160a01b03166020820152600482015460408201526005820154606082015260068201546080820152600782015460a0820152600882015460c082015260099091015460e0909101528383612bd38161430f565b945081518110612be557612be56142f9565b60200260200101819052505b80612bfb8161430f565b9150506129e4565b50909392505050565b60606000805b600254811015612c7a57600260066000612c2d8460016142ac565b815260208101919091526040016000206009015460ff166005811115612c5557612c55613c59565b14612c685781612c648161430f565b9250505b80612c728161430f565b915050612c12565b50806001600160401b03811115612c9357612c9361386b565b604051908082528060200260200182016040528015612ccc57816020015b612cb9613764565b815260200190600190039081612cb15790505b5091506000805b60025481101561214457600260066000612cee8460016142ac565b815260208101919091526040016000206009015460ff166005811115612d1657612d16613c59565b14612f235760066000612d2a8360016142ac565b8152602001908152602001600020604051806101600160405290816000820154815260200160018201548152602001600282018054612d68906142c4565b80601f0160208091040260200160405190810160405280929190818152602001828054612d94906142c4565b8015612de15780601f10612db657610100808354040283529160200191612de1565b820191906000526020600020905b815481529060010190602001808311612dc457829003601f168201915b50505050508152602001600382018054612dfa906142c4565b80601f0160208091040260200160405190810160405280929190818152602001828054612e26906142c4565b8015612e735780601f10612e4857610100808354040283529160200191612e73565b820191906000526020600020905b815481529060010190602001808311612e5657829003601f168201915b505050918352505060048201546001600160a01b03908116602083015260058084015490911660408301526006830154606083015260078301546080830152600883015460a0830152600983015460c09092019160ff1690811115612eda57612eda613c59565b6005811115612eeb57612eeb613c59565b8152602001600a82015481525050848380612f059061430f565b945081518110612f1757612f176142f9565b60200260200101819052505b80612f2d8161430f565b915050612cd3565b6000838152600960209081526040808320878452909152902054612f8f5760405162461bcd60e51b8152602060048201526011602482015270576f726b6572206e6f7420666f756e642160781b604482015260640161056e565b6000838152600660205260409020600401546001600160a01b0316331480612fd057506000838152600660205260409020600501546001600160a01b031633145b612fec5760405162461bcd60e51b815260040161056e906140cd565b600082511161300d5760405162461bcd60e51b815260040161056e90614219565b6001600160a01b0381166130635760405162461bcd60e51b815260206004820152601860248201527f4163636f756e742063616e6e6f7420626520656d707479210000000000000000604482015260640161056e565b60008381526009602090815260408083208784528252909120835161309092600290920191850190613672565b50600083815260096020908152604080832087845282528083206003810180546001600160a01b0319166001600160a01b0387161790555483526007825290912083516130e592600290920191850190613672565b506000928352600960209081526040808520958552948152848420548452600790529290912060030180546001600160a01b0319166001600160a01b039093169290921790915550565b60008181526006602052604090205461315a5760405162461bcd60e51b815260040161056e906140a1565b6000818152600660205260409020600501546001600160a01b031633146131935760405162461bcd60e51b815260040161056e906140cd565b600160008281526006602052604090206009015460ff1660058111156131bb576131bb613c59565b146131d85760405162461bcd60e51b815260040161056e906140fb565b600081815260066020526040902060090180546003919060ff1916600183610614565b606061320660035490565b6001600160401b0381111561321d5761321d61386b565b60405190808252806020026020018201604052801561325657816020015b6132436137e1565b81526020019060019003908161323b5790505b50905060005b6003548110156117a957600560006132758360016142ac565b815260200190815260200160002060405180610140016040529081600082015481526020016001820180546132a9906142c4565b80601f01602080910402602001604051908101604052809291908181526020018280546132d5906142c4565b80156133225780601f106132f757610100808354040283529160200191613322565b820191906000526020600020905b81548152906001019060200180831161330557829003601f168201915b5050505050815260200160028201805461333b906142c4565b80601f0160208091040260200160405190810160405280929190818152602001828054613367906142c4565b80156133b45780601f10613389576101008083540402835291602001916133b4565b820191906000526020600020905b81548152906001019060200180831161339757829003601f168201915b505050918352505060038201546001600160a01b03166020820152600482015460408201526005820154606082015260068201546080820152600782015460a0820152600882015460c082015260099091015460e0909101528251839083908110613421576134216142f9565b602002602001018190525080806134379061430f565b91505061325c565b6134476134d4565b6001600160a01b0381166134ac5760405162461bcd60e51b815260206004820152602660248201527f4f776e61626c653a206e6577206f776e657220697320746865207a65726f206160448201526564647265737360d01b606482015260840161056e565b6125ef8161352e565b60006134c3426103e861432a565b6134cf906103e86142ac565b905090565b6000546001600160a01b031633146116125760405162461bcd60e51b815260206004820181905260248201527f4f776e61626c653a2063616c6c6572206973206e6f7420746865206f776e6572604482015260640161056e565b600080546001600160a01b038381166001600160a01b0319831681178455604051919092169283917f8be0079c531659141344cd1fd0a4f28419497f9722a3daafe3b4186f6b6457e09190a35050565b600260015414156135d15760405162461bcd60e51b815260206004820152601f60248201527f5265656e7472616e637947756172643a207265656e7472616e742063616c6c00604482015260640161056e565b6002600155565b6000826001600160a01b03168260405160006040518083038185875af1925050503d8060008114613625576040519150601f19603f3d011682016040523d82523d6000602084013e61362a565b606091505b505090508061366d5760405162461bcd60e51b815260206004820152600f60248201526e5061796d656e74206661696c65642160881b604482015260640161056e565b505050565b82805461367e906142c4565b90600052602060002090601f0160209004810192826136a057600085556136e6565b82601f106136b957805160ff19168380011785556136e6565b828001600101855582156136e6579182015b828111156136e65782518255916020019190600101906136cb565b506117a992915061383d565b5080546136fe906142c4565b6000825580601f1061370e575050565b601f0160209004906000526020600020908101906125ef919061383d565b6040518060a0016040528060008152602001600081526020016060815260200160006001600160a01b03168152602001600081525090565b6040518061016001604052806000815260200160008152602001606081526020016060815260200160006001600160a01b0316815260200160006001600160a01b03168152602001600081526020016000815260200160008152602001600060058111156137d4576137d4613c59565b8152602001600081525090565b60405180610140016040528060008152602001606081526020016060815260200160006001600160a01b031681526020016000815260200160008152602001600081526020016000815260200160008152602001600081525090565b5b808211156117a9576000815560010161383e565b60006020828403121561386457600080fd5b5035919050565b634e487b7160e01b600052604160045260246000fd5b604051601f8201601f191681016001600160401b03811182821017156138a9576138a961386b565b604052919050565b600082601f8301126138c257600080fd5b81356001600160401b038111156138db576138db61386b565b6138ee601f8201601f1916602001613881565b81815284602083860101111561390357600080fd5b816020850160208301376000918101602001919091529392505050565b60008060008060008060c0878903121561393957600080fd5b8635955060208701359450604087013593506060870135925060808701356001600160401b038082111561396c57600080fd5b6139788a838b016138b1565b935060a089013591508082111561398e57600080fd5b5061399b89828a016138b1565b9150509295509295509295565b600080604083850312156139bb57600080fd5b50508035926020909101359150565b6000815180845260005b818110156139f0576020818501810151868301820152016139d4565b81811115613a02576000602083870101525b50601f01601f19169290920160200192915050565b80518252602081015160208301526000604082015160a06040850152613a4060a08501826139ca565b6060848101516001600160a01b03169086015260809384015193909401929092525090919050565b6000602080830181845280855180835260408601915060408160051b870101925083870160005b82811015613abd57603f19888603018452613aab858351613a17565b94509285019290850190600101613a8f565b5092979650505050505050565b60006001600160401b03821115613ae357613ae361386b565b5060051b60200190565b80356001600160a01b0381168114613b0457600080fd5b919050565b600082601f830112613b1a57600080fd5b81356020613b2f613b2a83613aca565b613881565b82815260059290921b84018101918181019086841115613b4e57600080fd5b8286015b84811015613b7057613b6381613aed565b8352918301918301613b52565b509695505050505050565b600080600060608486031215613b9057600080fd5b833592506020808501356001600160401b0380821115613baf57600080fd5b818701915087601f830112613bc357600080fd5b8135613bd1613b2a82613aca565b81815260059190911b8301840190848101908a831115613bf057600080fd5b8585015b83811015613c2857803585811115613c0c5760008081fd5b613c1a8d89838a01016138b1565b845250918601918601613bf4565b50965050506040870135925080831115613c4157600080fd5b5050613c4f86828701613b09565b9150509250925092565b634e487b7160e01b600052602160045260246000fd5b60068110613c8d57634e487b7160e01b600052602160045260246000fd5b9052565b600061016082518452602083015160208501526040830151816040860152613cbb828601826139ca565b91505060608301518482036060860152613cd582826139ca565b9150506080830151613cf260808601826001600160a01b03169052565b5060a0830151613d0d60a08601826001600160a01b03169052565b5060c083015160c085015260e083015160e085015261010080840151818601525061012080840151613d4182870182613c6f565b5050610140928301519390920192909252919050565b6000602080830181845280855180835260408601915060408160051b870101925083870160005b82811015613abd57603f19888603018452613d9a858351613c91565b94509285019290850190600101613d7e565b6000610140825184526020830151816020860152613dcc828601826139ca565b91505060408301518482036040860152613de682826139ca565b9150506060830151613e0360608601826001600160a01b03169052565b506080830151608085015260a083015160a085015260c083015160c085015260e083015160e08501526101008084015181860152506101208084015181860152508091505092915050565b602081526000613e616020830184613dac565b9392505050565b600080600080600060a08688031215613e8057600080fd5b8535945060208601356001600160401b0380821115613e9e57600080fd5b613eaa89838a016138b1565b95506040880135915080821115613ec057600080fd5b50613ecd888289016138b1565b9598949750949560608101359550608001359392505050565b602081526000613e616020830184613a17565b60008060408385031215613f0c57600080fd5b82356001600160401b0380821115613f2357600080fd5b613f2f868387016138b1565b93506020850135915080821115613f4557600080fd5b50613f52858286016138b1565b9150509250929050565b600080600060608486031215613f7157600080fd5b8335925060208401356001600160401b0380821115613f8f57600080fd5b613f9b878388016138b1565b93506040860135915080821115613fb157600080fd5b50613c4f868287016138b1565b602081526000613e616020830184613c91565b6000602080830181845280855180835260408601915060408160051b870101925083870160005b82811015613abd57603f19888603018452614014858351613dac565b94509285019290850190600101613ff8565b6000806000806080858703121561403c57600080fd5b843593506020850135925060408501356001600160401b0381111561406057600080fd5b61406c878288016138b1565b92505061407b60608601613aed565b905092959194509250565b60006020828403121561409857600080fd5b613e6182613aed565b602080825260129082015271506179726f6c6c206e6f7420666f756e642160701b604082015260600190565b602080825260149082015273556e617574686f72697a656420656e746974792160601b604082015260600190565b602080825260149082015273506179726f6c6c206e6f742050656e64696e672160601b604082015260600190565b60208082526017908201527f4f7267616e697a6174696f6e206e6f7420666f756e6421000000000000000000604082015260600190565b602080825260169082015275506179726f6c6c206e6f7420617661696c61626c652160501b604082015260600190565b60208082526021908201527f53616c617279206d7573742062652067726561746572207468616e207a65726f6040820152602160f81b606082015260800190565b60208082526028908201527f50657263656e7461676520437574206d757374206265206265747765656e202860408201526731202d203130302960c01b606082015260800190565b6020808252601590820152744e616d652063616e6e6f7420626520656d7074792160581b604082015260600190565b6020808252601c908201527f4465736372697074696f6e2063616e6e6f7420626520656d7074792100000000604082015260600190565b634e487b7160e01b600052601160045260246000fd5b6000816142a4576142a461427f565b506000190190565b600082198211156142bf576142bf61427f565b500190565b600181811c908216806142d857607f821691505b60208210811415610bcd57634e487b7160e01b600052602260045260246000fd5b634e487b7160e01b600052603260045260246000fd5b60006000198214156143235761432361427f565b5060010190565b60008160001904831182151516156143445761434461427f565b500290565b60008261436657634e487b7160e01b600052601260045260246000fd5b500490565b60008282101561437d5761437d61427f565b50039056fe596f7572207374617469737469637320616363726f737320616c6c206f7267616e697a6174696f6e73206372656174656420627920796f75a2646970667358221220a3fc2dd1df64958e169ece429c3900da1d27cfeceff573d6b579cb85c61c79f664736f6c634300080b0033",
  "linkReferences": {},
  "deployedLinkReferences": {}
}