{
  "_format": "hh-sol-artifact-1",
  "contractName": "DappPayroll",
  "sourceName": "src/contracts/DappPayroll.sol",
  "abi": [
    {
      "anonymous": false,
      "inputs": [
        {
          "indexed": true,
          "internalType": "address",
          "name": "previousOwner",
          "type": "address"
        },
        {
          "indexed": true,
          "internalType": "address",
          "name": "newOwner",
          "type": "address"
        }
      ],
      "name": "OwnershipTransferred",
      "type": "event"
    },
    {
      "inputs": [
        {
          "internalType": "uint256",
          "name": "id",
          "type": "uint256"
        }
      ],
      "name": "approvePayroll",
      "outputs": [],
      "stateMutability": "nonpayable",
      "type": "function"
    },
    {
      "inputs": [
        {
          "internalType": "string",
          "name": "name",
          "type": "string"
        },
        {
          "internalType": "string",
          "name": "description",
          "type": "string"
        }
      ],
      "name": "createOrg",
      "outputs": [],
      "stateMutability": "nonpayable",
      "type": "function"
    },
    {
      "inputs": [
        {
          "internalType": "uint256",
          "name": "oid",
          "type": "uint256"
        },
        {
          "internalType": "string",
          "name": "name",
          "type": "string"
        },
        {
          "internalType": "string",
          "name": "description",
          "type": "string"
        },
        {
          "internalType": "uint256",
          "name": "salary",
          "type": "uint256"
        },
        {
          "internalType": "uint256",
          "name": "cut",
          "type": "uint256"
        }
      ],
      "name": "createPayroll",
      "outputs": [],
      "stateMutability": "nonpayable",
      "type": "function"
    },
    {
      "inputs": [
        {
          "internalType": "uint256",
          "name": "pid",
          "type": "uint256"
        },
        {
          "internalType": "string[]",
          "name": "names",
          "type": "string[]"
        },
        {
          "internalType": "address[]",
          "name": "accounts",
          "type": "address[]"
        }
      ],
      "name": "createWorker",
      "outputs": [],
      "stateMutability": "nonpayable",
      "type": "function"
    },
    {
      "inputs": [
        {
          "internalType": "uint256",
          "name": "id",
          "type": "uint256"
        }
      ],
      "name": "deletePayroll",
      "outputs": [],
      "stateMutability": "nonpayable",
      "type": "function"
    },
    {
      "inputs": [
        {
          "internalType": "uint256",
          "name": "wid",
          "type": "uint256"
        },
        {
          "internalType": "uint256",
          "name": "pid",
          "type": "uint256"
        }
      ],
      "name": "deleteWorker",
      "outputs": [],
      "stateMutability": "nonpayable",
      "type": "function"
    },
    {
      "inputs": [
        {
          "internalType": "uint256",
          "name": "oid",
          "type": "uint256"
        }
      ],
      "name": "fundOrg",
      "outputs": [],
      "stateMutability": "payable",
      "type": "function"
    },
    {
      "inputs": [],
      "name": "getAllWorkers",
      "outputs": [
        {
          "components": [
            {
              "internalType": "uint256",
              "name": "id",
              "type": "uint256"
            },
            {
              "internalType": "uint256",
              "name": "wid",
              "type": "uint256"
            },
            {
              "internalType": "string",
              "name": "name",
              "type": "string"
            },
            {
              "internalType": "address",
              "name": "account",
              "type": "address"
            },
            {
              "internalType": "uint256",
              "name": "timestamp",
              "type": "uint256"
            }
          ],
          "internalType": "struct DappPayroll.WorkerStruct[]",
          "name": "Workers",
          "type": "tuple[]"
        }
      ],
      "stateMutability": "view",
      "type": "function"
    },
    {
      "inputs": [],
      "name": "getMyActivePayrolls",
      "outputs": [
        {
          "components": [
            {
              "internalType": "uint256",
              "name": "id",
              "type": "uint256"
            },
            {
              "internalType": "uint256",
              "name": "oid",
              "type": "uint256"
            },
            {
              "internalType": "string",
              "name": "name",
              "type": "string"
            },
            {
              "internalType": "string",
              "name": "description",
              "type": "string"
            },
            {
              "internalType": "address",
              "name": "officer",
              "type": "address"
            },
            {
              "internalType": "address",
              "name": "organization",
              "type": "address"
            },
            {
              "internalType": "uint256",
              "name": "salary",
              "type": "uint256"
            },
            {
              "internalType": "uint256",
              "name": "workers",
              "type": "uint256"
            },
            {
              "internalType": "uint256",
              "name": "cut",
              "type": "uint256"
            },
            {
              "internalType": "enum DappPayroll.Status",
              "name": "status",
              "type": "uint8"
            },
            {
              "internalType": "uint256",
              "name": "timestamp",
              "type": "uint256"
            }
          ],
          "internalType": "struct DappPayroll.PayrollStruct[]",
          "name": "Payrolls",
          "type": "tuple[]"
        }
      ],
      "stateMutability": "view",
      "type": "function"
    },
    {
      "inputs": [],
      "name": "getMyOrgs",
      "outputs": [
        {
          "components": [
            {
              "internalType": "uint256",
              "name": "id",
              "type": "uint256"
            },
            {
              "internalType": "string",
              "name": "name",
              "type": "string"
            },
            {
              "internalType": "string",
              "name": "description",
              "type": "string"
            },
            {
              "internalType": "address",
              "name": "account",
              "type": "address"
            },
            {
              "internalType": "uint256",
              "name": "payrolls",
              "type": "uint256"
            },
            {
              "internalType": "uint256",
              "name": "workers",
              "type": "uint256"
            },
            {
              "internalType": "uint256",
              "name": "payments",
              "type": "uint256"
            },
            {
              "internalType": "uint256",
              "name": "balance",
              "type": "uint256"
            },
            {
              "internalType": "uint256",
              "name": "cuts",
              "type": "uint256"
            },
            {
              "internalType": "uint256",
              "name": "timestamp",
              "type": "uint256"
            }
          ],
          "internalType": "struct DappPayroll.OrganizationStruct[]",
          "name": "",
          "type": "tuple[]"
        }
      ],
      "stateMutability": "view",
      "type": "function"
    },
    {
      "inputs": [
        {
          "internalType": "uint256",
          "name": "oid",
          "type": "uint256"
        }
      ],
      "name": "getMyPayrollsByOrg",
      "outputs": [
        {
          "components": [
            {
              "internalType": "uint256",
              "name": "id",
              "type": "uint256"
            },
            {
              "internalType": "uint256",
              "name": "oid",
              "type": "uint256"
            },
            {
              "internalType": "string",
              "name": "name",
              "type": "string"
            },
            {
              "internalType": "string",
              "name": "description",
              "type": "string"
            },
            {
              "internalType": "address",
              "name": "officer",
              "type": "address"
            },
            {
              "internalType": "address",
              "name": "organization",
              "type": "address"
            },
            {
              "internalType": "uint256",
              "name": "salary",
              "type": "uint256"
            },
            {
              "internalType": "uint256",
              "name": "workers",
              "type": "uint256"
            },
            {
              "internalType": "uint256",
              "name": "cut",
              "type": "uint256"
            },
            {
              "internalType": "enum DappPayroll.Status",
              "name": "status",
              "type": "uint8"
            },
            {
              "internalType": "uint256",
              "name": "timestamp",
              "type": "uint256"
            }
          ],
          "internalType": "struct DappPayroll.PayrollStruct[]",
          "name": "Payrolls",
          "type": "tuple[]"
        }
      ],
      "stateMutability": "view",
      "type": "function"
    },
    {
      "inputs": [],
      "name": "getMyStats",
      "outputs": [
        {
          "components": [
            {
              "internalType": "uint256",
              "name": "id",
              "type": "uint256"
            },
            {
              "internalType": "string",
              "name": "name",
              "type": "string"
            },
            {
              "internalType": "string",
              "name": "description",
              "type": "string"
            },
            {
              "internalType": "address",
              "name": "account",
              "type": "address"
            },
            {
              "internalType": "uint256",
              "name": "payrolls",
              "type": "uint256"
            },
            {
              "internalType": "uint256",
              "name": "workers",
              "type": "uint256"
            },
            {
              "internalType": "uint256",
              "name": "payments",
              "type": "uint256"
            },
            {
              "internalType": "uint256",
              "name": "balance",
              "type": "uint256"
            },
            {
              "internalType": "uint256",
              "name": "cuts",
              "type": "uint256"
            },
            {
              "internalType": "uint256",
              "name": "timestamp",
              "type": "uint256"
            }
          ],
          "internalType": "struct DappPayroll.OrganizationStruct",
          "name": "Organization",
          "type": "tuple"
        }
      ],
      "stateMutability": "view",
      "type": "function"
    },
    {
      "inputs": [
        {
          "internalType": "uint256",
          "name": "id",
          "type": "uint256"
        }
      ],
      "name": "getOrgById",
      "outputs": [
        {
          "components": [
            {
              "internalType": "uint256",
              "name": "id",
              "type": "uint256"
            },
            {
              "internalType": "string",
              "name": "name",
              "type": "string"
            },
            {
              "internalType": "string",
              "name": "description",
              "type": "string"
            },
            {
              "internalType": "address",
              "name": "account",
              "type": "address"
            },
            {
              "internalType": "uint256",
              "name": "payrolls",
              "type": "uint256"
            },
            {
              "internalType": "uint256",
              "name": "workers",
              "type": "uint256"
            },
            {
              "internalType": "uint256",
              "name": "payments",
              "type": "uint256"
            },
            {
              "internalType": "uint256",
              "name": "balance",
              "type": "uint256"
            },
            {
              "internalType": "uint256",
              "name": "cuts",
              "type": "uint256"
            },
            {
              "internalType": "uint256",
              "name": "timestamp",
              "type": "uint256"
            }
          ],
          "internalType": "struct DappPayroll.OrganizationStruct",
          "name": "Organization",
          "type": "tuple"
        }
      ],
      "stateMutability": "view",
      "type": "function"
    },
    {
      "inputs": [],
      "name": "getOrgs",
      "outputs": [
        {
          "components": [
            {
              "internalType": "uint256",
              "name": "id",
              "type": "uint256"
            },
            {
              "internalType": "string",
              "name": "name",
              "type": "string"
            },
            {
              "internalType": "string",
              "name": "description",
              "type": "string"
            },
            {
              "internalType": "address",
              "name": "account",
              "type": "address"
            },
            {
              "internalType": "uint256",
              "name": "payrolls",
              "type": "uint256"
            },
            {
              "internalType": "uint256",
              "name": "workers",
              "type": "uint256"
            },
            {
              "internalType": "uint256",
              "name": "payments",
              "type": "uint256"
            },
            {
              "internalType": "uint256",
              "name": "balance",
              "type": "uint256"
            },
            {
              "internalType": "uint256",
              "name": "cuts",
              "type": "uint256"
            },
            {
              "internalType": "uint256",
              "name": "timestamp",
              "type": "uint256"
            }
          ],
          "internalType": "struct DappPayroll.OrganizationStruct[]",
          "name": "Organization",
          "type": "tuple[]"
        }
      ],
      "stateMutability": "view",
      "type": "function"
    },
    {
      "inputs": [
        {
          "internalType": "uint256",
          "name": "id",
          "type": "uint256"
        }
      ],
      "name": "getPayrollById",
      "outputs": [
        {
          "components": [
            {
              "internalType": "uint256",
              "name": "id",
              "type": "uint256"
            },
            {
              "internalType": "uint256",
              "name": "oid",
              "type": "uint256"
            },
            {
              "internalType": "string",
              "name": "name",
              "type": "string"
            },
            {
              "internalType": "string",
              "name": "description",
              "type": "string"
            },
            {
              "internalType": "address",
              "name": "officer",
              "type": "address"
            },
            {
              "internalType": "address",
              "name": "organization",
              "type": "address"
            },
            {
              "internalType": "uint256",
              "name": "salary",
              "type": "uint256"
            },
            {
              "internalType": "uint256",
              "name": "workers",
              "type": "uint256"
            },
            {
              "internalType": "uint256",
              "name": "cut",
              "type": "uint256"
            },
            {
              "internalType": "enum DappPayroll.Status",
              "name": "status",
              "type": "uint8"
            },
            {
              "internalType": "uint256",
              "name": "timestamp",
              "type": "uint256"
            }
          ],
          "internalType": "struct DappPayroll.PayrollStruct",
          "name": "",
          "type": "tuple"
        }
      ],
      "stateMutability": "view",
      "type": "function"
    },
    {
      "inputs": [
        {
          "internalType": "uint256",
          "name": "pid",
          "type": "uint256"
        },
        {
          "internalType": "uint256",
          "name": "wid",
          "type": "uint256"
        }
      ],
      "name": "getPayrollWorker",
      "outputs": [
        {
          "components": [
            {
              "internalType": "uint256",
              "name": "id",
              "type": "uint256"
            },
            {
              "internalType": "uint256",
              "name": "wid",
              "type": "uint256"
            },
            {
              "internalType": "string",
              "name": "name",
              "type": "string"
            },
            {
              "internalType": "address",
              "name": "account",
              "type": "address"
            },
            {
              "internalType": "uint256",
              "name": "timestamp",
              "type": "uint256"
            }
          ],
          "internalType": "struct DappPayroll.WorkerStruct",
          "name": "Worker",
          "type": "tuple"
        }
      ],
      "stateMutability": "view",
      "type": "function"
    },
    {
      "inputs": [
        {
          "internalType": "uint256",
          "name": "pid",
          "type": "uint256"
        }
      ],
      "name": "getPayrollWorkers",
      "outputs": [
        {
          "components": [
            {
              "internalType": "uint256",
              "name": "id",
              "type": "uint256"
            },
            {
              "internalType": "uint256",
              "name": "wid",
              "type": "uint256"
            },
            {
              "internalType": "string",
              "name": "name",
              "type": "string"
            },
            {
              "internalType": "address",
              "name": "account",
              "type": "address"
            },
            {
              "internalType": "uint256",
              "name": "timestamp",
              "type": "uint256"
            }
          ],
          "internalType": "struct DappPayroll.WorkerStruct[]",
          "name": "Workers",
          "type": "tuple[]"
        }
      ],
      "stateMutability": "view",
      "type": "function"
    },
    {
      "inputs": [],
      "name": "getPayrolls",
      "outputs": [
        {
          "components": [
            {
              "internalType": "uint256",
              "name": "id",
              "type": "uint256"
            },
            {
              "internalType": "uint256",
              "name": "oid",
              "type": "uint256"
            },
            {
              "internalType": "string",
              "name": "name",
              "type": "string"
            },
            {
              "internalType": "string",
              "name": "description",
              "type": "string"
            },
            {
              "internalType": "address",
              "name": "officer",
              "type": "address"
            },
            {
              "internalType": "address",
              "name": "organization",
              "type": "address"
            },
            {
              "internalType": "uint256",
              "name": "salary",
              "type": "uint256"
            },
            {
              "internalType": "uint256",
              "name": "workers",
              "type": "uint256"
            },
            {
              "internalType": "uint256",
              "name": "cut",
              "type": "uint256"
            },
            {
              "internalType": "enum DappPayroll.Status",
              "name": "status",
              "type": "uint8"
            },
            {
              "internalType": "uint256",
              "name": "timestamp",
              "type": "uint256"
            }
          ],
          "internalType": "struct DappPayroll.PayrollStruct[]",
          "name": "Payrolls",
          "type": "tuple[]"
        }
      ],
      "stateMutability": "view",
      "type": "function"
    },
    {
      "inputs": [
        {
          "internalType": "uint256",
          "name": "id",
          "type": "uint256"
        }
      ],
      "name": "openPayroll",
      "outputs": [],
      "stateMutability": "nonpayable",
      "type": "function"
    },
    {
      "inputs": [],
      "name": "owner",
      "outputs": [
        {
          "internalType": "address",
          "name": "",
          "type": "address"
        }
      ],
      "stateMutability": "view",
      "type": "function"
    },
    {
      "inputs": [
        {
          "internalType": "uint256",
          "name": "pid",
          "type": "uint256"
        }
      ],
      "name": "payWorkers",
      "outputs": [],
      "stateMutability": "nonpayable",
      "type": "function"
    },
    {
      "inputs": [
        {
          "internalType": "uint256",
          "name": "id",
          "type": "uint256"
        }
      ],
      "name": "rejectPayroll",
      "outputs": [],
      "stateMutability": "nonpayable",
      "type": "function"
    },
    {
      "inputs": [],
      "name": "renounceOwnership",
      "outputs": [],
      "stateMutability": "nonpayable",
      "type": "function"
    },
    {
      "inputs": [
        {
          "internalType": "uint256",
          "name": "id",
          "type": "uint256"
        }
      ],
      "name": "submitPayroll",
      "outputs": [],
      "stateMutability": "nonpayable",
      "type": "function"
    },
    {
      "inputs": [
        {
          "internalType": "address",
          "name": "newOwner",
          "type": "address"
        }
      ],
      "name": "transferOwnership",
      "outputs": [],
      "stateMutability": "nonpayable",
      "type": "function"
    },
    {
      "inputs": [
        {
          "internalType": "uint256",
          "name": "id",
          "type": "uint256"
        },
        {
          "internalType": "string",
          "name": "name",
          "type": "string"
        },
        {
          "internalType": "string",
          "name": "description",
          "type": "string"
        }
      ],
      "name": "updateOrg",
      "outputs": [],
      "stateMutability": "nonpayable",
      "type": "function"
    },
    {
      "inputs": [
        {
          "internalType": "uint256",
          "name": "id",
          "type": "uint256"
        },
        {
          "internalType": "uint256",
          "name": "oid",
          "type": "uint256"
        },
        {
          "internalType": "string",
          "name": "name",
          "type": "string"
        },
        {
          "internalType": "string",
          "name": "description",
          "type": "string"
        },
        {
          "internalType": "uint256",
          "name": "salary",
          "type": "uint256"
        },
        {
          "internalType": "uint256",
          "name": "cut",
          "type": "uint256"
        }
      ],
      "name": "updatePayroll",
      "outputs": [],
      "stateMutability": "nonpayable",
      "type": "function"
    },
    {
      "inputs": [
        {
          "internalType": "uint256",
          "name": "wid",
          "type": "uint256"
        },
        {
          "internalType": "uint256",
          "name": "pid",
          "type": "uint256"
        },
        {
          "internalType": "string",
          "name": "name",
          "type": "string"
        },
        {
          "internalType": "address",
          "name": "account",
          "type": "address"
        }
      ],
      "name": "updateWorker",
      "outputs": [],
      "stateMutability": "nonpayable",
      "type": "function"
    }
  ],
  "bytecode": "0x60806040523480156200001157600080fd5b506200001d3362000027565b6001805562000077565b600080546001600160a01b038381166001600160a01b0319831681178455604051919092169283917f8be0079c531659141344cd1fd0a4f28419497f9722a3daafe3b4186f6b6457e09190a35050565b61441680620000876000396000f3fe6080604052600436106101b75760003560e01c80638fb9ac60116100ec578063d600c8a71161008a578063dd983f2211610064578063dd983f22146104ce578063e8fb1652146104ee578063ede767751461050e578063f2fde38b1461052357600080fd5b8063d600c8a714610477578063d90abb4514610497578063dc0c9bb1146104b957600080fd5b8063b7c5464d116100c6578063b7c5464d146103f5578063c2b5aaa214610422578063c9c0f25e14610442578063cc5554d21461045757600080fd5b80638fb9ac60146103a057806391d40d9e146103c05780639a0a3d5b146103e057600080fd5b806360f71a81116101595780637a52723e116101335780637a52723e146103095780637aba416b1461032b578063815cd8f41461034b5780638da5cb5b1461037857600080fd5b806360f71a81146102b45780636403e246146102d4578063715018a6146102f457600080fd5b80632ebd12c9116101955780632ebd12c91461021e5780633dc5da5c146102545780633e653f8d146102745780634439a88a146102a157600080fd5b80631229c5d4146101bc5780632155015f146101de5780632a3a7649146101fe575b600080fd5b3480156101c857600080fd5b506101dc6101d7366004613878565b610543565b005b3480156101ea57600080fd5b506101dc6101f9366004613878565b61061c565b34801561020a57600080fd5b506101dc610219366004613891565b610707565b34801561022a57600080fd5b5061023e610239366004613878565b61083d565b60405161024b9190613951565b60405180910390f35b34801561026057600080fd5b506101dc61026f366004613b19565b6109f0565b34801561028057600080fd5b5061029461028f366004613878565b610d99565b60405161024b9190613cf5565b6101dc6102af366004613878565b6111f8565b3480156102c057600080fd5b506101dc6102cf366004613878565b611268565b3480156102e057600080fd5b506101dc6102ef366004613878565b611331565b34801561030057600080fd5b506101dc61141d565b34801561031557600080fd5b5061031e611431565b60405161024b9190613dec565b34801561033757600080fd5b506101dc610346366004613e06565b6115ca565b34801561035757600080fd5b5061036b610366366004613891565b61180f565b60405161024b9190613e84565b34801561038457600080fd5b506000546040516001600160a01b03909116815260200161024b565b3480156103ac57600080fd5b506101dc6103bb366004613e97565b611911565b3480156103cc57600080fd5b506101dc6103db366004613efa565b611a48565b3480156103ec57600080fd5b50610294611b60565b34801561040157600080fd5b50610415610410366004613878565b611f67565b60405161024b9190613f5c565b34801561042e57600080fd5b506101dc61043d366004613878565b61214a565b34801561044e57600080fd5b5061023e61240f565b34801561046357600080fd5b506101dc610472366004613f6f565b612598565b34801561048357600080fd5b5061031e610492366004613878565b6127a1565b3480156104a357600080fd5b506104ac61294c565b60405161024b9190613ff7565b3480156104c557600080fd5b50610294612c32565b3480156104da57600080fd5b506101dc6104e936600461404c565b612f5b565b3480156104fa57600080fd5b506101dc610509366004613878565b613155565b34801561051a57600080fd5b506104ac613221565b34801561052f57600080fd5b506101dc61053e3660046140ac565b613465565b6000818152600660205260409020546105775760405162461bcd60e51b815260040161056e906140c7565b60405180910390fd5b6000818152600660205260409020600501546001600160a01b031633146105b05760405162461bcd60e51b815260040161056e906140f3565b600160008281526006602052604090206009015460ff1660058111156105d8576105d8613bf7565b146105f55760405162461bcd60e51b815260040161056e90614121565b600081815260066020526040902060090180546004919060ff19166001835b021790555050565b6000818152600660205260409020546106475760405162461bcd60e51b815260040161056e906140c7565b6000818152600660205260409020600401546001600160a01b031633146106805760405162461bcd60e51b815260040161056e906140f3565b60008181526006602052604081206009015460ff1660058111156106a6576106a6613bf7565b146106c35760405162461bcd60e51b815260040161056e9061414f565b600081815260066020908152604080832060098101805460ff19166002179055600101548352600590915281206004018054916106ff83614195565b919050555050565b60008181526009602090815260408083208584529091529020546107615760405162461bcd60e51b8152602060048201526011602482015270576f726b6572206e6f7420666f756e642160781b604482015260640161056e565b6000818152600660205260409020600401546001600160a01b0316331461079a5760405162461bcd60e51b815260040161056e906140f3565b6000818152600960209081526040808320858452909152812081815560018101829055906107cb6002830182613698565b506003810180546001600160a01b03191690556000600490910181905581815260066020526040812060070180549161080383614195565b9091555050600081815260066020908152604080832060010154835260059182905282200180549161083483614195565b91905055505050565b6000818152600660205260409020600701546060906001600160401b03811115610869576108696139b3565b6040519080825280602002602001820160405280156108a257816020015b61088f6136d2565b8152602001906001900390816108875790505b50905060005b6000838152600660205260409020600701548110156109ea576000838152600960205260408120906108db8360016141ac565b81526020019081526020016000206040518060a00160405290816000820154815260200160018201548152602001600282018054610918906141c4565b80601f0160208091040260200160405190810160405280929190818152602001828054610944906141c4565b80156109915780601f1061096657610100808354040283529160200191610991565b820191906000526020600020905b81548152906001019060200180831161097457829003601f168201915b505050918352505060038201546001600160a01b0316602082015260049091015460409091015282518390839081106109cc576109cc6141f9565b602002602001018190525080806109e29061420f565b9150506108a8565b50919050565b600083815260066020526040902054610a1b5760405162461bcd60e51b815260040161056e906140c7565b6000838152600660205260409020600401546001600160a01b0316331480610a5c57506000838152600660205260409020600501546001600160a01b031633145b610a785760405162461bcd60e51b815260040161056e906140f3565b6000825111610ac95760405162461bcd60e51b815260206004820152601c60248201527f4e616d65732061727261792063616e6e6f7420626520656d7074792100000000604482015260640161056e565b6000815111610b1a5760405162461bcd60e51b815260206004820152601f60248201527f4163636f756e74732061727261792063616e6e6f7420626520656d7074792100604482015260640161056e565b60005b8151811015610d9357610b34600480546001019055565b610b3c6136d2565b6004548152600085815260066020526040902060070154610b5e9060016141ac565b60208201528351849083908110610b7757610b776141f9565b60200260200101518160400181905250828281518110610b9957610b996141f9565b60209081029190910101516001600160a01b03166060820152610bba6134db565b60808201526000858152600960209081526040808320828501805185529083529281902084518155925160018401558301518051849392610c0292600285019291019061370a565b5060608201516003820180546001600160a01b0319166001600160a01b039092169190911790556080909101516004909101556000858152600660205260408120600701805491610c528361420f565b90915550506000858152600660209081526040808320600101548352600591829052822001805491610c838361420f565b919050555060086000848481518110610c9e57610c9e6141f9565b6020908102919091018101516001600160a01b031682528101919091526040016000205460ff16610d8057600160086000858581518110610ce157610ce16141f9565b6020908102919091018101516001600160a01b031682528181019290925260409081016000908120805460ff19169415159490941790935583518352600782529182902083518155838201516001820155918301518051849392610d4c92600285019291019061370a565b5060608201516003820180546001600160a01b0319166001600160a01b039092169190911790556080909101516004909101555b5080610d8b8161420f565b915050610b1d565b50505050565b60606000805b600254811015610e9e57600260066000610dba8460016141ac565b815260208101919091526040016000206009015460ff166005811115610de257610de2613bf7565b14158015610e0f57508360066000610dfb8460016141ac565b815260200190815260200160002060010154145b8015610e7957503360066000610e268460016141ac565b81526020810191909152604001600020600401546001600160a01b03161480610e7957503360066000610e5a8460016141ac565b81526020810191909152604001600020600501546001600160a01b0316145b15610e8c5781610e888161420f565b9250505b80610e968161420f565b915050610d9f565b50806001600160401b03811115610eb757610eb76139b3565b604051908082528060200260200182016040528015610ef057816020015b610edd61378a565b815260200190600190039081610ed55790505b5091506000805b6002548110156111f057600260066000610f128460016141ac565b815260208101919091526040016000206009015460ff166005811115610f3a57610f3a613bf7565b14158015610f6757508460066000610f538460016141ac565b815260200190815260200160002060010154145b8015610fd157503360066000610f7e8460016141ac565b81526020810191909152604001600020600401546001600160a01b03161480610fd157503360066000610fb28460016141ac565b81526020810191909152604001600020600501546001600160a01b0316145b156111de5760066000610fe58360016141ac565b8152602001908152602001600020604051806101600160405290816000820154815260200160018201548152602001600282018054611023906141c4565b80601f016020809104026020016040519081016040528092919081815260200182805461104f906141c4565b801561109c5780601f106110715761010080835404028352916020019161109c565b820191906000526020600020905b81548152906001019060200180831161107f57829003601f168201915b505050505081526020016003820180546110b5906141c4565b80601f01602080910402602001604051908101604052809291908181526020018280546110e1906141c4565b801561112e5780601f106111035761010080835404028352916020019161112e565b820191906000526020600020905b81548152906001019060200180831161111157829003601f168201915b505050918352505060048201546001600160a01b03908116602083015260058084015490911660408301526006830154606083015260078301546080830152600883015460a0830152600983015460c09092019160ff169081111561119557611195613bf7565b60058111156111a6576111a6613bf7565b8152602001600a820154815250508483806111c09061420f565b9450815181106111d2576111d26141f9565b60200260200101819052505b806111e88161420f565b915050610ef7565b505050919050565b6000341161123f5760405162461bcd60e51b8152602060048201526014602482015273496e73756666696369656e7420616d6f756e742160601b604482015260640161056e565b600081815260056020526040812060070180543492906112609084906141ac565b909155505050565b6000818152600660205260409020546112935760405162461bcd60e51b815260040161056e906140c7565b6000818152600660205260409020600401546001600160a01b031633146112cc5760405162461bcd60e51b815260040161056e906140f3565b60008181526006602052604081206009015460ff1660058111156112f2576112f2613bf7565b1461130f5760405162461bcd60e51b815260040161056e9061414f565b600081815260066020526040902060090180546001919060ff19168280610614565b60008181526006602052604090205461135c5760405162461bcd60e51b815260040161056e906140c7565b6000818152600660205260409020600401546001600160a01b031633148061139d57506000818152600660205260409020600501546001600160a01b031633145b6113b95760405162461bcd60e51b815260040161056e906140f3565b600160008281526006602052604090206009015460ff1660058111156113e1576113e1613bf7565b146113fe5760405162461bcd60e51b815260040161056e90614121565b6000818152600660205260408120600901805460ff1916600183610614565b6114256134fa565b61142f6000613554565b565b611439613807565b60005b6003548110156115c65733600560006114568460016141ac565b81526020810191909152604001600020600301546001600160a01b031614156115b4578151826114858261420f565b8152505060405180604001604052806011815260200170596f757220476c6f62616c20537461747360781b81525082602001819052506040518060600160405280603881526020016143a9603891396040830152336060830152600560006114ee8360016141ac565b8152602001908152602001600020600601548260c00181815161151191906141ac565b905250600560006115238360016141ac565b8152602001908152602001600020600401548260800181815161154691906141ac565b905250600560006115588360016141ac565b8152602001908152602001600020600501548260a00181815161157b91906141ac565b9052506005600061158d8360016141ac565b8152602001908152602001600020600701548260e0018181516115b091906141ac565b9052505b806115be8161420f565b91505061143c565b5090565b6000858152600560205260409020546115f55760405162461bcd60e51b815260040161056e9061422a565b600082116116155760405162461bcd60e51b815260040161056e90614261565b600081118015611626575060648111155b6116425760405162461bcd60e51b815260040161056e906142a2565b60008451116116635760405162461bcd60e51b815260040161056e906142ea565b60008351116116845760405162461bcd60e51b815260040161056e90614319565b611692600280546001019055565b61169a61378a565b600254815233608082015260408082018690526060820185905260c08201849052610100820183905260208083018890526000888152600590915220600301546001600160a01b031660a08201526116f06134db565b61014082015280516000908152600660209081526040918290208351815581840151600182015591830151805184939261173192600285019291019061370a565b506060820151805161174d91600384019160209091019061370a565b5060808201516004820180546001600160a01b03199081166001600160a01b039384161790915560a0840151600580850180549093169190931617905560c0830151600683015560e0830151600783015561010083015160088301556101208301516009830180549192909160ff19169060019084908111156117d2576117d2613bf7565b02179055506101409190910151600a9091015560008681526005602052604081206004018054916118028361420f565b9190505550505050505050565b6118176136d2565b6009600084815260200190815260200160002060008381526020019081526020016000206040518060a0016040529081600082015481526020016001820154815260200160028201805461186a906141c4565b80601f0160208091040260200160405190810160405280929190818152602001828054611896906141c4565b80156118e35780601f106118b8576101008083540402835291602001916118e3565b820191906000526020600020905b8154815290600101906020018083116118c657829003601f168201915b505050918352505060038201546001600160a01b031660208201526004909101546040909101529392505050565b60008251116119325760405162461bcd60e51b815260040161056e906142ea565b60008151116119535760405162461bcd60e51b815260040161056e90614319565b611961600380546001019055565b611969613807565b6003548152602081018390526040810182905233606082015261198a6134db565b610120820152805160009081526005602090815260409091208251815581830151805184936119c092600185019291019061370a565b50604082015180516119dc91600284019160209091019061370a565b5060608201516003820180546001600160a01b0319166001600160a01b039092169190911790556080820151600482015560a0820151600582015560c0820151600682015560e08201516007820155610100820151600882015561012090910151600990910155505050565b600083815260056020526040902054611a735760405162461bcd60e51b815260040161056e9061422a565b6000838152600560205260409020600301546001600160a01b03163314611ad35760405162461bcd60e51b8152602060048201526014602482015273556e6f7574686f72697a656420656e746974792160601b604482015260640161056e565b6000825111611af45760405162461bcd60e51b815260040161056e906142ea565b6000815111611b155760405162461bcd60e51b815260040161056e90614319565b60008381526005602090815260409091208351611b3a9260019092019185019061370a565b5060008381526005602090815260409091208251610d939260029092019184019061370a565b60606000805b600254811015611c3a57600260066000611b818460016141ac565b815260208101919091526040016000206009015460ff166005811115611ba957611ba9613bf7565b14158015611c1557503360066000611bc28460016141ac565b81526020810191909152604001600020600401546001600160a01b03161480611c1557503360066000611bf68460016141ac565b81526020810191909152604001600020600501546001600160a01b0316145b15611c285781611c248161420f565b9250505b80611c328161420f565b915050611b66565b50806001600160401b03811115611c5357611c536139b3565b604051908082528060200260200182016040528015611c8c57816020015b611c7961378a565b815260200190600190039081611c715790505b5091506000805b600254811015611f6157600260066000611cae8460016141ac565b815260208101919091526040016000206009015460ff166005811115611cd657611cd6613bf7565b14158015611d4257503360066000611cef8460016141ac565b81526020810191909152604001600020600401546001600160a01b03161480611d4257503360066000611d238460016141ac565b81526020810191909152604001600020600501546001600160a01b0316145b15611f4f5760066000611d568360016141ac565b8152602001908152602001600020604051806101600160405290816000820154815260200160018201548152602001600282018054611d94906141c4565b80601f0160208091040260200160405190810160405280929190818152602001828054611dc0906141c4565b8015611e0d5780601f10611de257610100808354040283529160200191611e0d565b820191906000526020600020905b815481529060010190602001808311611df057829003601f168201915b50505050508152602001600382018054611e26906141c4565b80601f0160208091040260200160405190810160405280929190818152602001828054611e52906141c4565b8015611e9f5780601f10611e7457610100808354040283529160200191611e9f565b820191906000526020600020905b815481529060010190602001808311611e8257829003601f168201915b505050918352505060048201546001600160a01b03908116602083015260058084015490911660408301526006830154606083015260078301546080830152600883015460a0830152600983015460c09092019160ff1690811115611f0657611f06613bf7565b6005811115611f1757611f17613bf7565b8152602001600a82015481525050848380611f319061420f565b945081518110611f4357611f436141f9565b60200260200101819052505b80611f598161420f565b915050611c93565b50505090565b611f6f61378a565b60066000838152602001908152602001600020604051806101600160405290816000820154815260200160018201548152602001600282018054611fb2906141c4565b80601f0160208091040260200160405190810160405280929190818152602001828054611fde906141c4565b801561202b5780601f106120005761010080835404028352916020019161202b565b820191906000526020600020905b81548152906001019060200180831161200e57829003601f168201915b50505050508152602001600382018054612044906141c4565b80601f0160208091040260200160405190810160405280929190818152602001828054612070906141c4565b80156120bd5780601f10612092576101008083540402835291602001916120bd565b820191906000526020600020905b8154815290600101906020018083116120a057829003601f168201915b505050918352505060048201546001600160a01b03908116602083015260058084015490911660408301526006830154606083015260078301546080830152600883015460a0830152600983015460c09092019160ff169081111561212457612124613bf7565b600581111561213557612135613bf7565b8152602001600a820154815250509050919050565b6121526135a4565b60008181526006602052604090205461217d5760405162461bcd60e51b815260040161056e906140c7565b6000818152600660205260409020600401546001600160a01b031633146121b65760405162461bcd60e51b815260040161056e906140f3565b600360008281526006602052604090206009015460ff1660058111156121de576121de613bf7565b146122235760405162461bcd60e51b8152602060048201526015602482015274506179726f6c6c206e6f7420417070726f7665642160581b604482015260640161056e565b6000818152600660208190526040909120908101546007909101546122489190614350565b6000828152600660209081526040808320600101548352600590915290206007015410156122ac5760405162461bcd60e51b8152602060048201526011602482015270125b9cdd59999a58da595b9d08199d5b99607a1b604482015260640161056e565b600081815260066020819052604082206007810154910154909160646122d28380614350565b6122dc919061436f565b905060015b8381116123345760008581526009602090815260408083208484529091529020600301546001600160a01b03166123218161231c8587614391565b6135fe565b508061232c8161420f565b9150506122e1565b5061233f8383614350565b6000858152600660209081526040808320600101548352600590915281206007018054909190612370908490614391565b9091555061238090508382614350565b60008581526006602090815260408083206001015483526005909152812060080180549091906123b19084906141ac565b9091555050600084815260066020818152604080842060010154845260059091528220018054916123e18361420f565b9091555050506000838152600660205260409020600901805460ff1916600517905550506001805550565b50565b606061241a60045490565b6001600160401b03811115612431576124316139b3565b60405190808252806020026020018201604052801561246a57816020015b6124576136d2565b81526020019060019003908161244f5790505b50905060005b6004548110156115c657600760006124898360016141ac565b81526020019081526020016000206040518060a001604052908160008201548152602001600182015481526020016002820180546124c6906141c4565b80601f01602080910402602001604051908101604052809291908181526020018280546124f2906141c4565b801561253f5780601f106125145761010080835404028352916020019161253f565b820191906000526020600020905b81548152906001019060200180831161252257829003601f168201915b505050918352505060038201546001600160a01b03166020820152600490910154604090910152825183908390811061257a5761257a6141f9565b602002602001018190525080806125909061420f565b915050612470565b6000868152600660205260409020546125c35760405162461bcd60e51b815260040161056e906140c7565b6000868152600660205260409020600401546001600160a01b031633146125fc5760405162461bcd60e51b815260040161056e906140f3565b6000858152600560205260409020546126275760405162461bcd60e51b815260040161056e9061422a565b60008681526006602052604081206009015460ff16600581111561264d5761264d613bf7565b1461266a5760405162461bcd60e51b815260040161056e9061414f565b6000821161268a5760405162461bcd60e51b815260040161056e90614261565b60008111801561269b575060648111155b6126b75760405162461bcd60e51b815260040161056e906142a2565b60008451116126d85760405162461bcd60e51b815260040161056e906142ea565b60008351116126f95760405162461bcd60e51b815260040161056e90614319565b6000868152600660209081526040909120855161271e9260029092019187019061370a565b50600086815260066020908152604090912084516127449260039092019186019061370a565b506000868152600660208181526040808420808401969096556008860194909455968252600580885292822060030154979091529094529290920180546001600160a01b0319166001600160a01b03909416939093179092555050565b6127a9613807565b6005600083815260200190815260200160002060405180610140016040529081600082015481526020016001820180546127e2906141c4565b80601f016020809104026020016040519081016040528092919081815260200182805461280e906141c4565b801561285b5780601f106128305761010080835404028352916020019161285b565b820191906000526020600020905b81548152906001019060200180831161283e57829003601f168201915b50505050508152602001600282018054612874906141c4565b80601f01602080910402602001604051908101604052809291908181526020018280546128a0906141c4565b80156128ed5780601f106128c2576101008083540402835291602001916128ed565b820191906000526020600020905b8154815290600101906020018083116128d057829003601f168201915b505050918352505060038201546001600160a01b03166020820152600482015460408201526005820154606082015260068201546080820152600782015460a0820152600882015460c082015260099091015460e09091015292915050565b60606000805b6003548110156129af57336005600061296c8460016141ac565b81526020810191909152604001600020600301546001600160a01b0316141561299d57816129998161420f565b9250505b806129a78161420f565b915050612952565b506000816001600160401b038111156129ca576129ca6139b3565b604051908082528060200260200182016040528015612a0357816020015b6129f0613807565b8152602001906001900390816129e85790505b5090506000805b600354811015612c29573360056000612a248460016141ac565b81526020810191909152604001600020600301546001600160a01b03161415612c175760056000612a568360016141ac565b81526020019081526020016000206040518061014001604052908160008201548152602001600182018054612a8a906141c4565b80601f0160208091040260200160405190810160405280929190818152602001828054612ab6906141c4565b8015612b035780601f10612ad857610100808354040283529160200191612b03565b820191906000526020600020905b815481529060010190602001808311612ae657829003601f168201915b50505050508152602001600282018054612b1c906141c4565b80601f0160208091040260200160405190810160405280929190818152602001828054612b48906141c4565b8015612b955780601f10612b6a57610100808354040283529160200191612b95565b820191906000526020600020905b815481529060010190602001808311612b7857829003601f168201915b505050918352505060038201546001600160a01b03166020820152600482015460408201526005820154606082015260068201546080820152600782015460a0820152600882015460c082015260099091015460e0909101528383612bf98161420f565b945081518110612c0b57612c0b6141f9565b60200260200101819052505b80612c218161420f565b915050612a0a565b50909392505050565b60606000805b600254811015612ca057600260066000612c538460016141ac565b815260208101919091526040016000206009015460ff166005811115612c7b57612c7b613bf7565b14612c8e5781612c8a8161420f565b9250505b80612c988161420f565b915050612c38565b50806001600160401b03811115612cb957612cb96139b3565b604051908082528060200260200182016040528015612cf257816020015b612cdf61378a565b815260200190600190039081612cd75790505b5091506000805b600254811015611f6157600260066000612d148460016141ac565b815260208101919091526040016000206009015460ff166005811115612d3c57612d3c613bf7565b14612f495760066000612d508360016141ac565b8152602001908152602001600020604051806101600160405290816000820154815260200160018201548152602001600282018054612d8e906141c4565b80601f0160208091040260200160405190810160405280929190818152602001828054612dba906141c4565b8015612e075780601f10612ddc57610100808354040283529160200191612e07565b820191906000526020600020905b815481529060010190602001808311612dea57829003601f168201915b50505050508152602001600382018054612e20906141c4565b80601f0160208091040260200160405190810160405280929190818152602001828054612e4c906141c4565b8015612e995780601f10612e6e57610100808354040283529160200191612e99565b820191906000526020600020905b815481529060010190602001808311612e7c57829003601f168201915b505050918352505060048201546001600160a01b03908116602083015260058084015490911660408301526006830154606083015260078301546080830152600883015460a0830152600983015460c09092019160ff1690811115612f0057612f00613bf7565b6005811115612f1157612f11613bf7565b8152602001600a82015481525050848380612f2b9061420f565b945081518110612f3d57612f3d6141f9565b60200260200101819052505b80612f538161420f565b915050612cf9565b6000838152600960209081526040808320878452909152902054612fb55760405162461bcd60e51b8152602060048201526011602482015270576f726b6572206e6f7420666f756e642160781b604482015260640161056e565b6000838152600660205260409020600401546001600160a01b0316331480612ff657506000838152600660205260409020600501546001600160a01b031633145b6130125760405162461bcd60e51b815260040161056e906140f3565b60008251116130335760405162461bcd60e51b815260040161056e906142ea565b6001600160a01b0381166130895760405162461bcd60e51b815260206004820152601860248201527f4163636f756e742063616e6e6f7420626520656d707479210000000000000000604482015260640161056e565b6000838152600960209081526040808320878452825290912083516130b69260029092019185019061370a565b50600083815260096020908152604080832087845282528083206003810180546001600160a01b0319166001600160a01b03871617905554835260078252909120835161310b9260029092019185019061370a565b506000928352600960209081526040808520958552948152848420548452600790529290912060030180546001600160a01b0319166001600160a01b039093169290921790915550565b6000818152600660205260409020546131805760405162461bcd60e51b815260040161056e906140c7565b6000818152600660205260409020600501546001600160a01b031633146131b95760405162461bcd60e51b815260040161056e906140f3565b600160008281526006602052604090206009015460ff1660058111156131e1576131e1613bf7565b146131fe5760405162461bcd60e51b815260040161056e90614121565b600081815260066020526040902060090180546003919060ff1916600183610614565b606061322c60035490565b6001600160401b03811115613243576132436139b3565b60405190808252806020026020018201604052801561327c57816020015b613269613807565b8152602001906001900390816132615790505b50905060005b6003548110156115c6576005600061329b8360016141ac565b815260200190815260200160002060405180610140016040529081600082015481526020016001820180546132cf906141c4565b80601f01602080910402602001604051908101604052809291908181526020018280546132fb906141c4565b80156133485780601f1061331d57610100808354040283529160200191613348565b820191906000526020600020905b81548152906001019060200180831161332b57829003601f168201915b50505050508152602001600282018054613361906141c4565b80601f016020809104026020016040519081016040528092919081815260200182805461338d906141c4565b80156133da5780601f106133af576101008083540402835291602001916133da565b820191906000526020600020905b8154815290600101906020018083116133bd57829003601f168201915b505050918352505060038201546001600160a01b03166020820152600482015460408201526005820154606082015260068201546080820152600782015460a0820152600882015460c082015260099091015460e0909101528251839083908110613447576134476141f9565b6020026020010181905250808061345d9061420f565b915050613282565b61346d6134fa565b6001600160a01b0381166134d25760405162461bcd60e51b815260206004820152602660248201527f4f776e61626c653a206e6577206f776e657220697320746865207a65726f206160448201526564647265737360d01b606482015260840161056e565b61240c81613554565b60006134e9426103e8614350565b6134f5906103e86141ac565b905090565b6000546001600160a01b0316331461142f5760405162461bcd60e51b815260206004820181905260248201527f4f776e61626c653a2063616c6c6572206973206e6f7420746865206f776e6572604482015260640161056e565b600080546001600160a01b038381166001600160a01b0319831681178455604051919092169283917f8be0079c531659141344cd1fd0a4f28419497f9722a3daafe3b4186f6b6457e09190a35050565b600260015414156135f75760405162461bcd60e51b815260206004820152601f60248201527f5265656e7472616e637947756172643a207265656e7472616e742063616c6c00604482015260640161056e565b6002600155565b6000826001600160a01b03168260405160006040518083038185875af1925050503d806000811461364b576040519150601f19603f3d011682016040523d82523d6000602084013e613650565b606091505b50509050806136935760405162461bcd60e51b815260206004820152600f60248201526e5061796d656e74206661696c65642160881b604482015260640161056e565b505050565b5080546136a4906141c4565b6000825580601f106136b4575050565b601f01602090049060005260206000209081019061240c9190613863565b6040518060a0016040528060008152602001600081526020016060815260200160006001600160a01b03168152602001600081525090565b828054613716906141c4565b90600052602060002090601f016020900481019282613738576000855561377e565b82601f1061375157805160ff191683800117855561377e565b8280016001018555821561377e579182015b8281111561377e578251825591602001919060010190613763565b506115c6929150613863565b6040518061016001604052806000815260200160008152602001606081526020016060815260200160006001600160a01b0316815260200160006001600160a01b03168152602001600081526020016000815260200160008152602001600060058111156137fa576137fa613bf7565b8152602001600081525090565b60405180610140016040528060008152602001606081526020016060815260200160006001600160a01b031681526020016000815260200160008152602001600081526020016000815260200160008152602001600081525090565b5b808211156115c65760008155600101613864565b60006020828403121561388a57600080fd5b5035919050565b600080604083850312156138a457600080fd5b50508035926020909101359150565b6000815180845260005b818110156138d9576020818501810151868301820152016138bd565b818111156138eb576000602083870101525b50601f01601f19169290920160200192915050565b80518252602081015160208301526000604082015160a0604085015261392960a08501826138b3565b6060848101516001600160a01b03169086015260809384015193909401929092525090919050565b6000602080830181845280855180835260408601915060408160051b870101925083870160005b828110156139a657603f19888603018452613994858351613900565b94509285019290850190600101613978565b5092979650505050505050565b634e487b7160e01b600052604160045260246000fd5b604051601f8201601f191681016001600160401b03811182821017156139f1576139f16139b3565b604052919050565b60006001600160401b03821115613a1257613a126139b3565b5060051b60200190565b600082601f830112613a2d57600080fd5b81356001600160401b03811115613a4657613a466139b3565b613a59601f8201601f19166020016139c9565b818152846020838601011115613a6e57600080fd5b816020850160208301376000918101602001919091529392505050565b80356001600160a01b0381168114613aa257600080fd5b919050565b600082601f830112613ab857600080fd5b81356020613acd613ac8836139f9565b6139c9565b82815260059290921b84018101918181019086841115613aec57600080fd5b8286015b84811015613b0e57613b0181613a8b565b8352918301918301613af0565b509695505050505050565b600080600060608486031215613b2e57600080fd5b833592506020808501356001600160401b0380821115613b4d57600080fd5b818701915087601f830112613b6157600080fd5b8135613b6f613ac8826139f9565b81815260059190911b8301840190848101908a831115613b8e57600080fd5b8585015b83811015613bc657803585811115613baa5760008081fd5b613bb88d89838a0101613a1c565b845250918601918601613b92565b50965050506040870135925080831115613bdf57600080fd5b5050613bed86828701613aa7565b9150509250925092565b634e487b7160e01b600052602160045260246000fd5b60068110613c2b57634e487b7160e01b600052602160045260246000fd5b9052565b600061016082518452602083015160208501526040830151816040860152613c59828601826138b3565b91505060608301518482036060860152613c7382826138b3565b9150506080830151613c9060808601826001600160a01b03169052565b5060a0830151613cab60a08601826001600160a01b03169052565b5060c083015160c085015260e083015160e085015261010080840151818601525061012080840151613cdf82870182613c0d565b5050610140928301519390920192909252919050565b6000602080830181845280855180835260408601915060408160051b870101925083870160005b828110156139a657603f19888603018452613d38858351613c2f565b94509285019290850190600101613d1c565b6000610140825184526020830151816020860152613d6a828601826138b3565b91505060408301518482036040860152613d8482826138b3565b9150506060830151613da160608601826001600160a01b03169052565b506080830151608085015260a083015160a085015260c083015160c085015260e083015160e08501526101008084015181860152506101208084015181860152508091505092915050565b602081526000613dff6020830184613d4a565b9392505050565b600080600080600060a08688031215613e1e57600080fd5b8535945060208601356001600160401b0380821115613e3c57600080fd5b613e4889838a01613a1c565b95506040880135915080821115613e5e57600080fd5b50613e6b88828901613a1c565b9598949750949560608101359550608001359392505050565b602081526000613dff6020830184613900565b60008060408385031215613eaa57600080fd5b82356001600160401b0380821115613ec157600080fd5b613ecd86838701613a1c565b93506020850135915080821115613ee357600080fd5b50613ef085828601613a1c565b9150509250929050565b600080600060608486031215613f0f57600080fd5b8335925060208401356001600160401b0380821115613f2d57600080fd5b613f3987838801613a1c565b93506040860135915080821115613f4f57600080fd5b50613bed86828701613a1c565b602081526000613dff6020830184613c2f565b60008060008060008060c08789031215613f8857600080fd5b863595506020870135945060408701356001600160401b0380821115613fad57600080fd5b613fb98a838b01613a1c565b95506060890135915080821115613fcf57600080fd5b50613fdc89828a01613a1c565b9350506080870135915060a087013590509295509295509295565b6000602080830181845280855180835260408601915060408160051b870101925083870160005b828110156139a657603f1988860301845261403a858351613d4a565b9450928501929085019060010161401e565b6000806000806080858703121561406257600080fd5b843593506020850135925060408501356001600160401b0381111561408657600080fd5b61409287828801613a1c565b9250506140a160608601613a8b565b905092959194509250565b6000602082840312156140be57600080fd5b613dff82613a8b565b602080825260129082015271506179726f6c6c206e6f7420666f756e642160701b604082015260600190565b602080825260149082015273556e617574686f72697a656420656e746974792160601b604082015260600190565b602080825260149082015273506179726f6c6c206e6f742050656e64696e672160601b604082015260600190565b602080825260169082015275506179726f6c6c206e6f7420617661696c61626c652160501b604082015260600190565b634e487b7160e01b600052601160045260246000fd5b6000816141a4576141a461417f565b506000190190565b600082198211156141bf576141bf61417f565b500190565b600181811c908216806141d857607f821691505b602082108114156109ea57634e487b7160e01b600052602260045260246000fd5b634e487b7160e01b600052603260045260246000fd5b60006000198214156142235761422361417f565b5060010190565b60208082526017908201527f4f7267616e697a6174696f6e206e6f7420666f756e6421000000000000000000604082015260600190565b60208082526021908201527f53616c617279206d7573742062652067726561746572207468616e207a65726f6040820152602160f81b606082015260800190565b60208082526028908201527f50657263656e7461676520437574206d757374206265206265747765656e202860408201526731202d203130302960c01b606082015260800190565b6020808252601590820152744e616d652063616e6e6f7420626520656d7074792160581b604082015260600190565b6020808252601c908201527f4465736372697074696f6e2063616e6e6f7420626520656d7074792100000000604082015260600190565b600081600019048311821515161561436a5761436a61417f565b500290565b60008261438c57634e487b7160e01b600052601260045260246000fd5b500490565b6000828210156143a3576143a361417f565b50039056fe596f7572207374617469737469637320616363726f737320616c6c206f7267616e697a6174696f6e73206372656174656420627920796f75a2646970667358221220b1caf8cf82cf5e7ef4b6098f9a15d93a68da8c8aa938b026d8c7ef6590c60a8664736f6c634300080b0033",
  "linkReferences": {},
  "deployedLinkReferences": {}
}